:020000041000EA
:1000000000B5324B212058609868022188439860DF
:10001000D860186158612E4B002199600221596106
:100020000121F02299502B49196001219960352056
:1000300000F044F80222904214D00621196600F024
:1000400034F8196E01211966002018661A6600F04E
:100050002CF8196E196E196E052000F02FF8012189
:100060000842F9D1002199601B49196000215960AB
:100070001A491B48016001219960EB211966A021F2
:10008000196600F012F800219960164914480160C1
:100090000121996001BC002800D000471248134993
:1000A000086003C880F30888084703B5996A0420EC
:1000B0000142FBD001200142F8D103BD02B5186610
:1000C0001866FFF7F2FF186E186E02BD00000240BE
:1000D000000000180000070000035F00212200005C
:1000E000F4000018222000A00001001008ED00E03C
:1000F00000000000000000000000000074B24E7A12
:1001000000200420F7010010C3010010C5010010F9
:10011000C1010010C1010010C1010010C101001097
:10012000C1010010C1010010C1010010C701001081
:10013000C1010010C1010010C9010010CB01001065
:10014000CD010010CD010010CD010010CD01001037
:10015000CD010010CD010010CD010010CD01001027
:10016000CD010010CD010010CD010010CD01001017
:10017000CD010010CD010010CD010010CD01001007
:10018000CD010010CD010010CD010010CD010010F7
:10019000CD010010CD010010CD010010CD010010E7
:1001A000CD010010CD010010CD010010CD010010D7
:1001B000CD010010CD010010CD010010CD010010C7
:1001C00000BE00BE00BE00BE00BE00BEEFF3058054
:1001D000103800BEF2EB8871A81B0110C41B01107F
:1001E0003402001090A31AE700201F49086006C8D7
:1001F00081F3088810471D48006800282FD10DA4FE
:100200000ECC002902D000F012F8F9E71849194A7B
:10021000002000E001C19142FCD1174988471749ED
:1002200088471749884700BEFDE701C901C29A42C5
:10023000FBD37047C41B0110C0000020C80E002073
:10024000CC2901100000042000000420CC2901105A
:10025000001004200010042000000000704709482E
:1002600003F0EAFB0047000008ED00E0000000D0CA
:10027000C80E0020D017002055220010850700105E
:100280007D2300105756000006005250ABB3605358
:10029000B8DF001006005250861C0302D8DF0010A1
:1002A000060052505422A29DE4DF00100500525077
:1002B000DE65F468CC290110F8B5C0460448054B4A
:1002C00010B5834203D0044B002B00D0984710BDDB
:1002D000C80E0020C80E0020000000000648074994
:1002E000091A8B10C90FC91810B5491003D0044B57
:1002F000002B00D0984710BDC80E0020C80E00206B
:100300000000000010B5074C2378002B09D1FFF73F
:10031000D5FF054B002B02D0044800E000BF0123AD
:10032000237010BD681100200000000010DC0010D8
:10033000054B10B5002B03D00449054800E000BF71
:10034000FFF7CCFF10BDC046000000006C1100207C
:1003500010DC0010F8B5DE4657464E4645463C23B5
:10036000E0B5050099460700484B1035836381448A
:10037000280005F0ADFFFB69002B04D00122280006
:10038000B96B05F089FD9621414C8901200001F0EF
:10039000C3FC1C2000F07EFB02211C2000F062FB4D
:1003A0001D2000F077FB02211D2000F05BFB1920CF
:1003B00000F070FBD02380221B0692045A62236B4C
:1003C000DB0744D5A3699B0641D4324B41229A46B0
:1003D000314B20259B46314B314E98462C4C534691
:1003E00000215B5E93422CD0A3691D42FCD13300F7
:1003F0001121226040465A4603F0BAFA4346484665
:100400007B6605F065FFBB6C002B2ED001224846B1
:10041000796E013605F040FD32780A2ADFD1534665
:1004200000229B5E0D2B29D02021194A9369194285
:10043000FCD10D231360F0BCBB46B246A946A046D2
:10044000F8BDA3691D42FCD10D232360CCE7154BF9
:100450002800BB6305F03CFFFB69002BB5D00122EF
:100460002800B96B05F018FDAFE7727801360A2A4B
:10047000B5D1534600229B5E0D2BD5D12021044AD5
:1004800093691942FCD10D231360CDE71CDC0010E9
:1004900000400340C017002048DC0010FC11002081
:1004A00010DC001028DC0010012330B5027B0500B1
:1004B00053400373D023040085B094351B06002AF3
:1004C00016D0802292045A610B4B2800AB6205F0D3
:1004D000FFFEEB68002B05D0BC2301222800E15869
:1004E00005F0DAFC01A9054804F066FA05B030BD54
:1004F000802292049A61E7E758DC001060DC00106B
:100500008A2070B5800004F0EFFC0222C023524222
:10051000C25000239C242049D2328350083A815093
:1005200004328050483283501C49043283500C32CC
:10053000815004328350283AFF3A194D6400025129
:10054000083C05510434005148340351043403512C
:100550000C340151C82104004900435031343C316E
:100560004350FF340C31445044182C39445004316A
:100570004250113C04314254FF3C6C3144500C3920
:1005800043500C3144182C39445004314250FC3251
:10059000FF32835470BDC0465503001084DC001048
:1005A000A9040010A823F0B5C768C4583B7D066CA9
:1005B000456F83B0002B0CD1337D002B1AD12B7DDE
:1005C000002B28D1237D002B36D107F0A3F803B0F0
:1005D000F0BD00238022002100200093103306F09C
:1005E000EBFF012300220021B86A06F0BFFD337D36
:1005F000002BE4D000238022102100200093103330
:1006000006F0DAFF012310220021B06A06F0AEFDE9
:100610002B7D002BD6D000238022202100200093A8
:10062000103306F0C9FF012320220021A86A06F03A
:100630009DFD237D002BC8D0002380220093302114
:100640000020103306F0B8FF012330220021A06AF9
:1006500006F08CFDB9E7C046084B10B51A78002AA1
:1006600000D010BD01321A7006F006FD044806F0F5
:10067000FDFC002006F00CFDF3E7C046C917002082
:10068000D8F90010C62070B5800004F02DFC0300DE
:100690001433C36034330364343343670200A0234C
:1006A0008063C066B032C0500833C2502C33C05093
:1006B000E8220023A82430498350083A81500432AC
:1006C0008050483283502D49043283500C3281507F
:1006D00004328350403AFF3A294D64000251083CED
:1006E00005510434005148340351043403510C348F
:1006F0000151D421040049004350E03448314450B2
:100700000C3911344350FF342039445004314250E5
:100710000431435460314350A83C0C3144504518D7
:100720002C3945500431FC25425004216D004151C3
:100730007C3543510C35445146192C3D4651043506
:100740004251183D41517C3543510C3544514619B5
:100750002C3D465104354251183D41517C354351A1
:10076000C4239B00C450C4182C3BC4500433C25053
:10077000183BC15070BDC0465906001084DC001003
:10078000A505001010B50021002005F0CFFE10BD1A
:100790007047C0460A4B04211A68002300B589B08F
:1007A00006930593049302930193023303910093FC
:1007B0000021013B034805F0C7FC09B000BDC0465D
:1007C000D0110020E00F0020014B03600120704792
:1007D000E00F0020F0B5DE4657464E464546E0B5F0
:1007E00085B0FFF78DFE0200984FC8327B6E8760A0
:1007F0001A600023037399460300060000210020BD
:10080000B933FF331860596000219148D0329860A5
:10081000D960FB6D80251A60EA234A465B00F250DE
:100820003300002409332D06FF331C605D609C6695
:10083000DD66FFF727FF0223AC225B42876003617E
:1008400043648367835002007B6EE0325A6003008A
:100850002133FF331C605D609C66DD660222F0235D
:100860008046F25004213200022004F01FFBFC23DA
:100870003200F050042102209A4604F017FBF823BE
:100880003200F050042102209B4604F00FFBF423B9
:10089000F050D03B9C465021B44463468C460360E4
:1008A000B4440093AC23614603225B004160019194
:1008B000F25004213200032004F0F8FA6534FF34CA
:1008C0003051320004210320B02504F0EFFA6D000E
:1008D000705132000421032004F0E8FAAE237C2298
:1008E0005B00F050009B94460360A823B44462462A
:1008F0009C46B44463468360039384234260494624
:1009000040465B00C1506833C1500120E83B306372
:10091000F06576633666F0500433F650283381462E
:10092000F05058460433F650335848460292186047
:100930003200043104F0BAFA51467358320018609C
:10094000584633584846F839586004F0AFFA5146D3
:100950007358FC3158601B68414419608A469021E5
:1009600089004144016048467359320004211860EF
:1009700004F09CFA33593200186048467359042138
:10098000586004F093FA335932005860484673595E
:100990000421986004F08AFA335954461A68986022
:1009A0001460A2245B68A40044441C60B424A40026
:1009B000444404603000103003004046C3603000FF
:1009C0003C3003004046036430006830030040467A
:1009D0004367300094300200A8234046C2507B6B2E
:1009E000009A01991A60029A59609A60039A31003C
:1009F000DA60012501220023164CE0310A604B60C9
:100A00006D42083930000A674B670C604D60012762
:100A10004146114E4130F831FF307F420660476059
:100A200008398A60CB6040460A674B6701230B4A4E
:100A30005930FF305B420C604D600260436005B08E
:100A4000F0BCBB46B246A946A046F0BDE00F002070
:100A500080B2E60E0000FFFF0100FFFF0200FFFF73
:100A60007047C046094A830094464022634410B54B
:100A70001C68C0006240C02414408022520113430D
:100A80001C60034B9C466044416010BD04C00140A3
:100A9000004001400123D0228340120693629361FB
:100AA000094A83009446402263441968C0004A40C2
:100AB000C02111408022520113431960034B9C4610
:100AC000052360444360704704C00140004001407A
:100AD000024B18688007C00F7047C04600C0064030
:100AE00070B5EFF3108C72B60D4D2B68002BFCD057
:100AF000BFF35F8F0724CB08C618C05C01230C40EE
:100B0000A3401C000440034207D103433370BFF3EA
:100B10005F8F2C608CF3108870BD100001F04CFCCE
:100B20002C0100D0F8B54746CE46884680B5EFF395
:100B3000108C72B6214D2C68002CFCD0BFF35F8F57
:100B40009A422CD8D4080727055D061901241740BE
:100B5000BC402C421FD007210127894609E0D40858
:100B6000055D06194C4639001440A1400C0029428D
:100B700011D001329342F2D201204042BFF35F8F85
:100B800000220E4B1A608CF3108800280FDBC0BCCB
:100B9000B946B046F8BD2C4310003470EEE7BFF301
:100BA0005F8F00232B608CF3108801204042434666
:100BB000002BECD0089801F0FFFBC0462C0100D0C0
:100BC0000021044B044ABFF35F8F02C39342FAD162
:100BD0007047C046000100D0800100D0044A107860
:100BE000431CDBB2172B00D9102313707047C0468B
:100BF000F803002000B5054B83B0010000931822D4
:100C00001F230348FFF78EFF03B000BD88DC0010F0
:100C10001012002001238340002904D0034A1360EE
:100C2000034A13607047034A1360FBE780E200E069
:100C300000E100E080E100E0024B10309B688000A2
:100C4000C058704700ED00E070B50D00EFF310865E
:100C500072B60F4A1368002BFCD0BFF35F8F0D4BA9
:100C600010309B6884001B590B4A934203D09D426D
:100C700001D001F0B9FB074B9B681D51BFF35F8F9B
:100C8000BFF35F8F0022024B1A6086F3108870BD9D
:100C9000240100D000ED00E0CD010010F0B5DE46EB
:100CA00057464E464546E0B50C0083B0EFF3108939
:100CB00072B6584A1368002BFCD0BFF35F8F564BB7
:100CC0009A68030010339F00D559544A90469542C4
:100CD00032D0A54243D0524EAA1B2F2A2CD8012233
:100CE0008240924651464F4A126811400191514646
:100CF0004D4A1160BFF35F8FEFF305829346002AE0
:100D000033D101232A009A4393689C4208D177E0AB
:100D10004B005B189B00F3189968A1422AD01A0077
:100D2000062151560029F3DA019B002B19D05246B7
:100D30003E4B1A603B4B1A60374B9B68DD51BFF34B
:100D40005F8FBFF35F8F0022324B1A6089F31088E8
:100D500003B0F0BCBB46B246A946A046F0BD1500A4
:100D6000EAE75246304B1A60E6E79342C9D001F0F9
:100D70003BFBC6E706215956002921DB4A005018E3
:100D8000800034188046A0689860E079D871062009
:100D900020569871002824DBA488F01A64052415D5
:100DA00044440019E0240005400D240220439880AB
:100DB00052181F4B9200B6181A781970B271B3E727
:100DC000594600290FD1FF3191711A499180184974
:100DD0000A789A71184A9B1B5B415A43120D0A709C
:100DE000A2E71648E3E7164A1649D21A083A500213
:100DF000400D01439980144952080A43DA8093E771
:100E00000621515613000029B8DA5A46002AEAD1C1
:100E10004546DCE7240100D000ED00E0CD010010E4
:100E2000FC03002000E100E080E100E080E200E05F
:100E3000CC17002001BDFFFFAAAA000001BD0000E1
:100E40003604002000F0FFFF00F8FFFF70B5EFF35D
:100E5000058101240443EFF3108C72B6214A136814
:100E6000002BFCD0BFF35F8F1F4B05001F4AED1A0C
:100E70006D416A43120D1E4D8900AE6852B276581C
:100E8000A6421CD00621595691421CD01221595617
:100E9000914222D01E215956914220D02A215956E2
:100EA0000324914210D0134B19781A708171BFF34B
:100EB0005F8F00220B4B1A608CF3108870BDAB68FB
:100EC0000D4C5C50EFE700246100091989005B18A4
:100ED000FF21997109499980E5E70124F4E702248B
:100EE000F2E7C046240100D0FC030020AAAA0000BB
:100EF00000ED00E0CC170020CD01001001BDFFFF88
:100F0000054B064A1360064A136053609360D36032
:100F100013615361936170478080808000E400E03A
:100F200004E400E070B504000E001500FFF756FE63
:100F30000100200000F006F8A680E580BFF35F8F77
:100F400070BDC046024B9C466144890001607047F9
:100F50004000003410B50400FFF740FE01002000FF
:100F6000FFF7F0FFFF232371BFF35F8F10BDC04673
:100F700010B50400FFF732FE01002000FFF7E2FF8A
:100F8000FF23A380BFF35F8F10BDC04610B50400E0
:100F90000120FFF72FFE044B9C4660448000206038
:100FA000BFF35F8F10BDC0464000003483680B481C
:100FB00010B5844661446244090112019A18591817
:100FC00054684B6801209C4201D802D00020C0B276
:100FD00010BD12680B689A42F9D8F7E7FFFFFF0FC0
:100FE0000A4B1968EFF3108072B60A68002AFCD029
:100FF000BFF35F8F1B68BFF35F8F00221A6080F31F
:10100000108840BF002000217047C046AC17002068
:10101000F8B557464E464546DE46E0B599460CAB18
:101020001C780DAB1B78060090469A460768002C8A
:1010300011D1BC7B002C42D065003B682D19033DCB
:1010400059194B78BB73002B00D1FB7300238B70B5
:101050004B700B7004E065003B682D19033D591976
:10106000B2682A4B94464246E3181B0163441A6057
:101070004A465A600A9A9A600B9ADA6000238B708B
:101080004B700B707B7B9B46002B2BD0220059466C
:10109000B8687B6898473A68002816D05B4658467F
:1010A0005B005B445519033BA870D118D35C002B3F
:1010B00000D06B705B460C707B73A34513D0F0BC03
:1010C000BB46B246A946A046F8BD5B465B005B4402
:1010D000033BD3189C705119525D002A00D05A70FE
:1010E0005B460B707C7342464B46307D00F0B2FB92
:1010F000051E06D05346002B03D12100306800F0B6
:10110000CDFD0E9B002BDAD01D70D8E7FFFFFF0F3F
:10111000F0B5DE4657464E4645460023E0B58BB057
:101120000893674B8200D45800239B46099000F037
:1011300007FB626806000F00EFF3108572B61368B4
:10114000002BFCD0BFF35F8F23689C465B7B9946E6
:10115000002B00D169E0A2685A4B90464B441B011A
:10116000984443461A685B6810001900801BB94117
:10117000002900DC63E0099800F06CFB00230022EA
:10118000984600230692079300239A466368BFF3AC
:101190005F8F5A461A6085F310885346002B08D19A
:1011A0000028C4D10BB0F0BCBB46B246A946A0464D
:1011B000F0BD089B414618024B461843D047626871
:1011C00006000F00EFF3108572B61368002BFCD0F9
:1011D000BFF35F8F002F50DB33003B4302D0236906
:1011E000002B61D12368D97B002907D04A0052180F
:1011F00019688C4649466244033A51709A7B002A2A
:1012000001D14A469A734A46DA734B46E168013B7C
:10121000CA5C0132CA545B4623616368BFF35F8FC7
:101220005A461A6085F3108881E700230022984609
:10123000002306920793002300209A46A6E7002980
:1012400002D1002800D096E70021604600F0A4FCFF
:1012500043461A685B680692079343469B689A4622
:101260004346DB689846E3684B44013B1B78089390
:101270001B0203432361002088E72369002BB1D0C0
:10128000069A079B921BBB41002B15DB5946049124
:1012900001210391494602914146019151462000A6
:1012A0000091FFF7B5FEB6E700F04AFA32003B00C6
:1012B00012184B41002BE9DA0122034B5242E5E7B9
:1012C00094160020FFFFFF0FFFFFFF7F10B5144CA7
:1012D0006368002B04D00A211248FFF733FE10BDCB
:1012E0002300114A1021206800F070FB032000F059
:1012F0001BFA032000F018FB03200C4900F064FAED
:10130000FFF76CFC0A4B9C4603232375D0231B0676
:101310001B6860446375074B80006060DC60DAE73F
:1013200044040020AC170020AD0F00101111001074
:101330004000003494160020F0B54E464546DE4687
:101340005746E0B585B0019310AB1B7806000393B8
:1013500000239946984600927268EFF3108B72B69C
:101360001368002BFCD0BFF35F8F3568AC7B002C7B
:101370003DD067002B683F19033FDB195A78AA73E9
:10138000002A00D1EA73B168474A8C460098019957
:10139000A21812016244106051600E9991600F9979
:1013A000D16042469A705A701A706B7B9A46002B35
:1013B00067D022001900A8686B6898472A6800283F
:1013C00052D0534650465B005344D719033BB87084
:1013D000D118D35C002B00D07B7053460C706B731C
:1013E00054454FD0F3681B19013B187800E00020EA
:1013F0007368BFF35F8F42461A608BF31088002C2E
:101400004FD04B46002B08D10002204305B0F0BC62
:10141000BB46B246A946A046F0BD039B002B3ED07A
:101420000E9B00200F999847030004000D000B430A
:1014300035D000290ADA009A019B121BAB410092B9
:101440000193002B0ADB039B994685E700F078F9AE
:1014500024184D4100940195002DF4DA0123134C1A
:101460005B4200930194EEE753465B005344033B19
:10147000D3189C70D119D25D002A00D05A705346FF
:101480000B706C73307D009A019B00F0E3F981468C
:101490000028A7D02100306800F000FCA2E700205F
:1014A000B4E701204042B1E7FFFFFF0FFFFFFF7FDE
:1014B000F0B504000D0006267642F717C646361929
:1014C0006F4100B584B08F4214D811D000F038F9C4
:1014D00032003B00121A8B41002B15DC002B3ED052
:1014E0002000290000F060F904B080BCB846F0BDCF
:1014F0008642EBD90026002700F022F932003B009B
:10150000121A8B41002BE9DD002302930193154B46
:101510003200009314483B00FFF70EFF0028DFDB8A
:1015200000239846BC46114A114F7B6A9C4504D85B
:10153000B96A8E42D4D99C45D2D11168EFF310809C
:1015400072B60B68002BFCD0BFF35F8F1368BFF33C
:101550005F8F4146196080F3108820BFE5E7002ABD
:10156000BED0D1E7E10F001044040020AC170020EA
:101570000040054070B504000D0000F0E1F80019CE
:101580006941002902DBFFF793FF70BD012001498B
:101590004042F8E7FFFFFF7FF0B5EFF30583CE464B
:1015A000474680B505000C0085B0002B12D02C4AB0
:1015B0000020536A9C4203D8926A0130AA4204D3A5
:1015C00005B0C0BCB946B046F0BDE01A421E90411D
:1015D000C0B2F5E7234E02930193234B0200009320
:1015E00030000B00FFF7A8FE031EE0DD20BF71688E
:1015F000EFF3108772B60A68002AFCD0BFF35F8F42
:10160000DAB294463068427B62451DD0FF221A4010
:10161000510089460168914488464946414403394E
:101620008978002913D0F1681B0A88464244013AA0
:101630001278DBB29A420FD07368BFF35F8F00223B
:101640001A6087F31088B2E7FF221A40EBE732698D
:101650009342F1D13161EFE7614600F01FFBEBE708
:101660000040054044040020E10F0010F0B5EFF306
:101670000582D6464F4646461000C0B51038EFF3F7
:10168000108872B6214C2368002BFCD0BFF35F8F0B
:101690000123190081401E4D1F006963AA461D4D9C
:1016A00029601D4D2E78AC463500C5402F402B4299
:1016B00009D1BFF35F8F276088F31088E0BCBA467A
:1016C000B146A846F0BD5346144D5F6A83005D598C
:1016D000AF420ED3124A8E439B5862461670BFF338
:1016E0005F8F0022226088F31088002BE6D0984795
:1016F000E4E70C4B92009C46624413681360BFF30E
:101700005F8F0023236088F31088D7E7280100D07B
:10171000004005403C700540CE170020B017002067
:10172000EC110020D03F054010B50100024A0348EB
:10173000FFF7D6F910BDC046B0DC0010CA17002074
:10174000034B596A0A00986A596A8A42FAD170476B
:101750000040054070B504000D00124A536A19009C
:10176000966A536A8B42FAD13000190024184D4111
:10177000AB4211D80ED02B000A494A6A9A42FCD3D8
:1017800007D1084A02E0516A994202D1916AA14206
:10179000F9D370BDA642EED9012301246442E517B6
:1017A0005B42E9E700400540064A536A9942FCD88B
:1017B00007D1044B02E05A6A914202D19A6A8242EE
:1017C000F9D370470040054070B504000D00EFF3F9
:1017D000108672B61A4A1368002BFCD0BFF35F8FD5
:1017E000002D1BD02000FFF727FA164981420AD0AE
:1017F0002000FFF729FA01212000FFF70BFA01234F
:10180000A340114A1360114BA400E550BFF35F8F52
:1018100000220B4B1A6086F3108870BD0B4BA200A0
:10182000D5500122A2400A4920000B7893430B7047
:101830000449FFF733FA00212000FFF7EBF9E5E751
:10184000280100D06D16001038600540EC11002012
:10185000CE170020F0B54F46D6464646C0B5070025
:101860002C4C616A0D00A66A616AA942FAD18B42CA
:1018700008D805D00120E0BCBA46B146A846F0BD64
:10188000B242F7D9EFF3108A72B6234801680029F3
:10189000FCD0BFF35F8F0125BD4020491D4C884619
:1018A000097889462943C9B28C464146604608708A
:1018B000391D1B48890065630A51B9000B50216A24
:1018C0000020294219D0616A0800A66A616A814233
:1018D000FAD18B4219D801D1B24216D8CC4516D0D4
:1018E0000C4B1F201D625D6301230740BB400D4A66
:1018F0001E38136043464A461A70BFF35F8F0022BA
:10190000054B1A608AF31088B5E70020F5E701203F
:10191000F3E7C04600400540280100D0CE17002064
:10192000B017002080E200E0EFF3108C72B60A4995
:101930000B68002BFCD0BFF35F8F01238340074A65
:101940000748136202789A430270BFF35F8F002347
:101950000B608CF310887047280100D000400540D0
:10196000CE17002070B5050014001600002915D010
:101970000C00002A12D080686B68984729680028FC
:101980000ED073009B196200033B1219CB18033A67
:101990009C7088188A5C002A15D10670200070BDE2
:1019A00063001B197200033B9219CB18033A9E7017
:1019B00088188A5C002A02D104703400EEE75A705D
:1019C00004703400EAE75A700670E7E730B58360C8
:1019D0000023CCB243730133047342608373C47336
:1019E0000D000068012C06D9421C0133DBB21370D4
:1019F00003329C42F9D1FF2129404B0059180023A2
:101A000040180338437030BDF8B5CE46474606004F
:101A10000C0080B5002907D04D0003686D18033D08
:101A20005A195778002F04D12000C0BCB946B046DF
:101A3000F8BD7900C9190339884643445978894665
:101A400000215970517073683A00210080689847EE
:101A50003368002814D042469A18947059195B5D77
:101A6000002B00D053700F70270049463000FFF75D
:101A7000CBFF390002003000FFF774FF0400D3E70A
:101A8000424641465D19AF709A185B5C002B00D04E
:101A90006B701470E9E7C046F0B557464546DE4620
:101AA0004E46E0B50D006B0001685B19DF1E0400B7
:101AB000C85D83B00192CA19002850D043001B189A
:101AC000033BCB185E78B446002E1AD1019E002E3F
:101AD00042D0E67B002E04D073009B19CB18033B49
:101AE0005D70A37B002B00D1A573E57300282FD177
:101AF0000023537003B0F0BCBB46B246A946A046D3
:101B0000F0BD72006244033A89184A789046002278
:101B10004A7091465A70010032002000FFF722FF00
:101B200043468246002B07D05B0021684344033BB9
:101B3000CB185A78002A16D1424651462000FFF7AA
:101B400011FF2168019BCA19002BC2D10028CFD0F8
:101B500043001B18033BCB1800219970C8E7019B79
:101B6000002BB6D1C4E75000801803380918487814
:101B7000834648464870587041462000FFF7F2FE01
:101B8000594680462000FFF73FFF414602002000F3
:101B9000FFF7E8FE8046CFE7F0B557464546DE46FC
:101BA0004E46E0B583B00191457B04006B000068B0
:101BB0005B19DF1EC15DC219002952D04B005B18B2
:101BC000033BC3185E78B446002E1CD1019E002E44
:101BD00044D0E67B002E04D073009B19C318033B4E
:101BE0005D70A37B002B00D1A573E573002931D173
:101BF000002328005370617303B0F0BCBB46B246AB
:101C0000A946A046F0BD72006244033A80184278AB
:101C100090460022427091465A7020003200FFF731
:101C2000A1FE43468246002B07D05B002168434457
:101C3000033BCB185A78002A17D142465146200060
:101C4000FFF790FE019B01002068C219002BC0D154
:101C50000029CDD04B005B18033BC31800209870BF
:101C6000C6E7019B002BB4D1C2E7500080180338AF
:101C70000918487883464846487058704146200005
:101C8000FFF770FE594680462000FFF7BDFE414633
:101C900002002000FFF766FE8046CEE770B5040024
:101CA00000292CD0437B8B422ED005684800401879
:101CB000033828188278002A21D053009B18033B50
:101CC000EA5CEE188A4202D11BE0002A08D05300D9
:101CD0009B18033BEB185A788A42F6D142785A7027
:101CE00000230122837043702000FFF7D5FE617B43
:101CF00002002000FFF736FE6073012000E00020A4
:101D000070BD43783370EBE701221900FFF7C4FE82
:101D100060730120F4E7C046F8B5CE46474604009C
:101D200080B506200E0000F023FA051E51D0524B5C
:101D30005249E21853425A418023DB039C469205E4
:101D40004F4B62441A604F4B1A6010008B689843E7
:101D5000FBD1494B8021E3185A4253414A4A5B0068
:101D600049009952062000F003FA3100C00001F04A
:101D7000BDFEC30932D14022012190466162A362B7
:101D8000256BEB0736D427008026E36A00232C3727
:101D900076013E4333600620256300F0E9F94146B1
:101DA000800001F0A3FE236B05009846DB073BD4BF
:101DB0006022E36A5A406E23134033604346236334
:101DC000802310229B013B431A60304B2363032383
:101DD000A3642800C0BCB946B046F8BD2C4A934263
:101DE0003FD900232B492C4A6162A362256B9046A0
:101DF000EB07C8D52200C02330329B011343234A8E
:101E000006201A60666AA26AB601B61800F0B0F938
:101E1000224901F06BFEB6020100300001F066FEBF
:101E20000021FFF797FCAEE72200C02330329B0170
:101E30001343164A06201A60636AA26A9B019946F8
:101E4000914400F095F94B4614499B02994601F0E4
:101E50004DFE0100484601F049FE0021FFF77AFCE3
:101E6000A6E77F22990188461040013040081900FA
:101E70008044030082E7C0460080FCBF00C00040F1
:101E800000E0004000F00040C01700200103000007
:101E9000FEFF0000FFFF0000C0FF3F004E0E0000ED
:101EA00030B50C2083B000F0B9F9FEF711FE002820
:101EB0000ED0994B994A1A605A609A60DA601A619A
:101EC0005A619A61DA611A62954A5A6203B030BD6A
:101ED000944CA06700F0AAF90122934B1A60636C3E
:101EE000012BFCD10322914B1A608E4A936B012B7C
:101EF000FCD1013301218E4A8E480093043300F057
:101F00003DF905238C4A009301218C4800F036F9F5
:101F10008B4B5A68FF2A02D8802252005A608022D6
:101F20007D4C824B21691201854D1A60002907D032
:101F3000606901F0DBFD431C5800C0180338FDD276
:101F4000E0217F4B02201A681140802252012A436F
:101F500011601968484003210140116004219A680A
:101F60001142FCD08022802192012A430901116094
:101F7000802252005A60734B2361734B5968FF29CA
:101F800000D85A600321684A6F4B116002399A6881
:101F90001142FCD0E0201A681040802252011A43FE
:101FA0001060186848400321014002201160664912
:101FB0008A681042FCD080229201134380221201D1
:101FC0001A608022614B52004A606361604B59681D
:101FD000FF2900D85A6080225E4BE16912015C4DF6
:101FE0001A60002907D0606901F080FD431C580089
:101FF000C0180338FDD2E02255490B681A408023EF
:102000005B012B431A60802380229B012B4312012A
:102010001A608022414B52004A60E3614E4B59687E
:10202000FF2900D85A6080224C4B216A12014A4D88
:102030001A60002907D0606901F058FD431C580060
:10204000C0180338FDD2E02243490B681A408023B0
:102050005B012B431A60802380229B012B431201DA
:102060001A60802380225B004B602C4BD2022362DB
:102070003B4B5968914200D25A608022394B616AC9
:102080001201374D1A60002907D0606901F02EFD5A
:10209000431C5800C0180338FDD2E02230490B68B9
:1020A0001A4080235B012B431A60802380229B010E
:1020B0002B4312011A608023DB024B60184B6362D2
:1020C000294B5A68FF2A02D8802252005A60802287
:1020D000264BA1691201244D1A60002907D06069BE
:1020E00001F004FD431C5800C0180338FDD2E02263
:1020F0001D490B681A4080235B012B431A60802323
:1021000080229B012B4312011A6080235B004B60ED
:102110000E4BA361DAE6C04614120020006CDC020C
:102120001BB70000008000403CB0004030B00040D1
:10213000002F685900800240008C864700C0024092
:1021400030800040001BB7003C80004040597307BE
:102150005480004054B000406080004060B00040B7
:102160006C8000406CB000404880004048B00040A7
:10217000014B8000C058704714120020F8B50400CD
:1021800021481D0017000E0001F0B0FC01003800CE
:1021900001F0ACFC069B29041B0319432368002BA8
:1021A00020DB1A4B1A4DE21853425A4180235B013F
:1021B0009C461203174B62441A60174B1A601700B3
:1021C000AB689F43FBD1C022231D92011A432123F8
:1021D0002660A06013602368002BFCDA0823E1600E
:1021E0001360F8BD3F2322681340B342D9D1A368DE
:1021F0001B051B0D8342D4D1EE22E368D2021340AB
:102200008B42CED1EDE7C046001BB7000040FDBFBA
:1022100000C0004000E0004000F000408023024A7F
:102220009B000343D362704700800540AA23064AFF
:102230001B0113602F230549D360054B19605368B8
:10224000002BFCDA7047C0460040024000B0FA00A4
:10225000006002402C4B2D4A70B51A602C4A2D4B61
:102260002D491A6014008B689C43FBD12B4D2C4EDA
:10227000B54208D2013E761BB60808CD9847230028
:102280000134B342F9D1FFF70BFE264A214B1A6005
:10229000214A9368DB43DB01DD09002BF9D14022A1
:1022A000214B224C224E9A675A671A67DA66B4426B
:1022B00008D223682000002B20D00834FEF758FEF7
:1022C000B442F6D31B4E1C4CC022A168300002F071
:1022D000D3F8A660FEF774FCFEF712FEFEF7F6FFD9
:1022E000164C174EB44208D2013E361BB60808CC35
:1022F00098472B0001359E42F9D170BD0834FEF796
:1023000029FEB442D5D3DDE700E00040BFCDFBFE9F
:10231000FE7F3C0000F0004000C00040B40E0020F2
:10232000C40E0020FFFFFF0100F00140A40E0020BA
:10233000B40E00200000002000ED00E0C40E0020DC
:10234000C80E002000BEFDE7094A030010680028FF
:1023500005D00849C3188B4207D813607047064858
:102360000449C31810608B42F7D901204042F5E7B9
:102370008C16002000000420D017002010B5FFF7B5
:10238000E1FFC04610B50C0082B01900002A0AD047
:10239000064B0192009302002300054801F00CFB5C
:1023A0000120FFF7CFFF034B1A00F2E7D4DC001047
:1023B000E4DC001084E100100FB400B5084883B0DD
:1023C00002F0BEF9049B002B07D005A9180001916B
:1023D00001F012FB034802F0B3F90120FFF7B2FF4E
:1023E00014DD001040E3001010B50148FFF7E4FFD2
:1023F00024DD00109A4200D2885470477047C046CE
:10240000F8B557464E464546DE46E0B599460A9B26
:1024100007009A460D9B8846934615000B9E9B0726
:1024200010D10C9B9E420DD29D1B14000E005D44EA
:1024300022004B46013431002020B847A542F7D195
:10244000B0460B9E002E27D0444675195346AA1B52
:10245000013E985D21004B46B847002EF6D123007F
:102460002C0098460D9B9B070FD55B46E51A0C9BED
:10247000AB420AD94646984622004B4631002020FE
:102480000135B8470134A845F6D82000F0BCBB465A
:10249000B246A946A046F8BD2C00E3E7F0B54F468A
:1024A0004646D646C0B584B098460EAB1B78129F00
:1024B000994694460D9C109B119EBA0725D4002E78
:1024C0004BD19C4200D3BFE001223A4092461F2CE0
:1024D00000D9B8E00C9A551E302201E0202C03D020
:1024E00001342A55A342F9D85246002A0DD0A642FB
:1024F0000BD9202C44D00C9A551E302201E0202C00
:102500003ED001342A55B442F9D1FA064DD57A05A8
:102510003FD4002C39D10F9B102B00D179E00F9BB9
:10252000022B00D18AE030230C9A012413704B4611
:10253000002B3FD02D230C9A135501340C9B62467F
:1025400000930397434602960194FFF759FF04B0A6
:10255000E0BCBA46B146A846F0BD012215003D4098
:10256000AA463A422FD04A46002A02D10C323A42B9
:1025700000D0013E9C42BAD21F2CABD9202E27D9C5
:102580002024FA06DAD57A0503D4A3422DD0A64238
:102590002BD00F9B102B32D0022B20D0202CCDD053
:1025A00030220C9B1B191A700134202CC6D04B46CC
:1025B000002BBFD17B070DD43B07BFD520230C9A3E
:1025C00013550134BAE79C429FD21F2C00D881E7F3
:1025D00020249AE72B230C9A13550134AEE7202CC4
:1025E000ACD00C9B1B1901343AE0631E012C92D035
:1025F0000F9A102A2AD0022A2FD01C00D0E7BB063F
:102600000ED4202C9AD00C9B1A1901347823137005
:10261000C4E7BB060DD478230C9A01241370BFE7DE
:10262000202C00D18AE758220C9B1B191A70013408
:10263000B4E758230C9A01241370B1E70C9A603365
:1026400001241370ACE7202400265EE7023CBA06A2
:10265000E9D40C9A12191C00D8E70C9A92465344FC
:1026600062221A709AE7C04610B5002800D110BD4A
:1026700002F01AF8FBE7C0460B0010B5002802D0A4
:1026800049681B68984710BDF0B5DE4657464E4670
:102690004546E0B59BB09B46249B89469846259BC2
:1026A0000B900C924046424619009A4601F0DFFC1E
:1026B000002800D0D8E0012240465146774B5242D4
:1026C00001F0D0FC002800D0CEE001224046514667
:1026D000734B524201F0B0FC002800D0C4E000224D
:1026E00000234046514601F0A7FC002800D0B9E184
:1026F000424653460A9209938023289ADB001A40E7
:102700000E92289A1A4201D1062326930A9A099B0F
:102710001600134300D0C7E0289B002500261B05A8
:1027200000D49BE100230D93269A0D9B9A4200DC76
:102730009FE1D01A431E26938023289ADB001A4378
:102740000023002728920D93279B0024BB4200D929
:10275000DC1B0223289A1A400E92289A134203D0B7
:102760007B427B415B421C400D9B002B07D00A98AB
:1027700009992A00330001F0FEFB0A90099100221A
:1027800000234046514601F057FC002805D0802028
:1027900000068446099961440991289A414B0B9D92
:1027A00013400493269B0A9A0293099B0394009278
:1027B000019349465B4628000C9A00F08BF904000F
:1027C000002F62D0289B220098061F23C017984331
:1027D000631C984649465B466530A8470D9B00251B
:1027E000DA179C18DB0F9A465440013F01E0202D78
:1027F00013D00AAA94461F23200063440A210135FE
:102800005E1901F073F93031317020000A2101F0B6
:102810006DF926000400092EE9D80523069300234C
:1028200004930A330393534605970B9F029312AB0D
:10283000009342465B46494638000195FFF72EFE5D
:102840000E9B0400002B20D00C9BC51A279BAB428B
:102850001BD91E0022005B46494620200135B8479F
:102860000134AE42F6D810E0289B42460493279BE1
:1028700049460393269B0B9802935346009201937B
:102880005B460C9A00F026F9040020001BB0F0BC57
:10289000BB46B246A946A046F0BDC046FFFFEF7F4B
:1028A000FFFFEFFFFFF7FFFF734B099F9C46780088
:1028B000400D604401F0EEFB704A714B01F075FB76
:1028C000704A714B01F052FB3B03704A1B0B1A43D9
:1028D00004000D00300011006D4B002201F041FB9F
:1028E0006C4A6D4B01F061FB02000B0020002900D7
:1028F00001F03CFB01F0E6FB0D9001F0CBFB674AD9
:10290000674B04000D0001F050FB0022654B01F005
:102910002DFB01F0D7FB644A0600644B2000290020
:1029200001F043FB040030000D000F9601F0B2FBF4
:102930005F4A604B01F039FB02000B0020002900C8
:1029400001F00FFB02000B0006000F0001F02DFB51
:10295000320004000D003B003000390001F006FB9E
:10296000002210901191544B2000290001F003FB2C
:102970000022524B01F0FAFA02000B00200029005D
:1029800001F0F9FA00224E4B01F0F0FA02000B00C0
:102990002000290001F0EFFA0D0080210400320030
:1029A0003B000020C90501F0DCFA02000B0020000A
:1029B000290001F0DBFA02000B001098119901F0D8
:1029C000DAFA0022314B01F0D1FA3E4B0F9C9C46C3
:1029D00064440022230501F0E8FA05000E0002001D
:1029E0000B000A98099901F027FB00280AD00D9BDB
:1029F0002800013B31000D930022304B01F0BBFA5F
:102A000005000E00C6270D992B0063318F42BF4190
:102A100028997F420437090500D495E6334300D155
:102A200082E6099C284A2100284B0A9801F012FBF3
:102A3000002808D000222100254B0A9801F0FCFA5A
:102A4000002800D070E6269B002B00D17CE60E9B70
:102A50005A1E9341269AD31A269375E6002304271B
:102A60000D9371E643460A9380231B065344099352
:102A700042E6002326935FE601FCFFFFFB799F50AF
:102A80001344D33FB3C8608B288AC63F0000F03F91
:102A90000000F83F61436F63A787D23F71A37909B4
:102AA0004F930A400000E03F1655B5BBB16B0240A2
:102AB000EF39FAFE422EE63F00002C400000244091
:102AC00000001840FF0300002D431CEBE2361A3FC4
:102AD00080842E41F0B54E46DE4657464546E0B569
:102AE00097B09946209E219F229B83469846079146
:102AF0000C923B0032003000390001F0B8FA002897
:102B000000D0A9E1012230003900CA4B524201F045
:102B100093FA002800D0E1E0012230003900C64BD2
:102B2000524201F09FFA002800D0B7E000223000A6
:102B30003900C24B01F096FA002800D099E000223B
:102B400030003900BE4B01F077FA002800D090E049
:102B5000002200233000390001F06EFA002800D076
:102B6000B1E000230D93249B5B0501D40623984616
:102B700008AB9C461722002430234146624404E0FF
:102B8000013413550139202C01D00929F8D8884681
:102B90003000390001F096FA4346DA00A94B0500EF
:102BA0009B181A685B680892099301F073FA020097
:102BB0000B003000390001F0D4F9089A099B01F0AC
:102BC000F4F90A900B9101F0A1FA824601F05EFA45
:102BD00002000B000A980B9901F0C3F900229A4BEE
:102BE0000A900B9101F03EFA002800D1C0E00123C9
:102BF0009C46E244504601F049FA02000B00089856
:102C0000099901F01FFA002802D000239A460135E5
:102C10004346002B6AD008AB17269C4608956644AD
:102C2000554614E001235B4243440A2128009A469A
:102C300000F05CFF013430313719397028000A2167
:102C400000F054FF092D00D8D0E0D0460500202C1C
:102C5000E8D10EAB98460323249A1340012B00D1F0
:102C600096E02023249A01930392239A43460292EA
:102C70001EE0249B58460493239B009601970393E0
:102C800043460C9A029307994B46FFF7FDFC17B099
:102C9000F0BCBB46B246A946A046F0BD249B5B07EC
:102CA0000ED40322694B2499019203912399029136
:102CB000009358464B460C9A0799FFF7A1FBE6E7AD
:102CC0000422634BEFE73B0032000020002101F0BB
:102CD00048F9012306000F000D9344E7249B03935A
:102CE000239B0293042301935A4BE1E7280001F050
:102CF000D1F902000B003000390001F032F9524BDB
:102D0000002206000F0001F097F90EAB984600284C
:102D10000AD10022300039004B4B01F0A3F9002802
:102D200002D1EB0700D50135202C94D008AA944697
:102D30001723280063440A2101341E1900F0AEFE57
:102D40003031280031700A2100F0A8FE051EEBD1B9
:102D50000323249A1340012B1BD0202C00D180E7A1
:102D60000D9B002B35D02D224146631C0A5579E777
:102D700000220A980B99344B01F05EF9002800D02C
:102D800046E75346002B51D101239C46E2443FE7DE
:102D90002024239B002BE0D00D9B002B03D1249AF1
:102DA0000C33134202D0239B013B2393239BA3426A
:102DB000D3D908AB9C46172230236244202C00D183
:102DC0004FE72399013413558C42C6D0202CF8D1FB
:102DD00047E7249B5B0724D4249A2300120700D4DE
:102DE00040E72022414601330A553BE75746089DFC
:102DF000202C00D12DE7220030214046002F09D0A1
:102E00000132B154202A00D123E7D3431B191B18E8
:102E1000002BF5D10EAB98462E234146541C8B5403
:102E200082E72B224146631C0A551BE7DB0700D4CF
:102E3000EEE6A9E7FFFFEFFFFFFFEF7F65CDCD4196
:102E400065CDCDC128DF00100000E03F30DD00106F
:102E500034DD001040DD0010249B0393239B02937C
:102E600003230193004B23E73CDD0010F0B5DE4661
:102E70004E4657464546E0B59FB01C00289B9146FC
:102E80000993C94AC94B8B4608901A60002900D1A2
:102E900018E2002320789A46002800D11AE2260082
:102EA0001D005C460AE02A006F1C4B46089D21006D
:102EB000A8473D0001363078002870D02528F2D18F
:102EC00010239B46083B9A46043B9846023B002150
:102ED0009C46721C107816000300203BDBB2102BBE
:102EE00003D8B34F9B00FB589F460300303B092B90
:102EF00032D900230A932A2868D0002398462E2826
:102F00003ED00300683BDBB2122B1CD8A94A9B00C1
:102F1000D3589F46012301321943DBE76346013250
:102F20001943D7E7434601321943D3E75B460132E1
:102F30001943CFE7534601321943CBE780235B00A7
:102F40007078194301360300253BDBB2532BAAD816
:102F5000994A9B00D3589F4600270300B800C01928
:102F600001364000C018337830381A00303A070074
:102F7000092AF3D90A901800002398462E28C0D1B8
:102F800080237078DB0019430300303B721C092B4F
:102F900000D8A1E12A2800D1B2E11600B1E7A3468A
:102FA000AA462C00D14503D801235B424B449A46E4
:102FB0004B46524659460020089DA84720001FB0A6
:102FC000F0BCBB46B246A946A046F0BD099B40CB2B
:102FD0000A96002E03DB50780993561C8DE728389B
:102FE000014370420A9009935078561C85E778286F
:102FF00000D1DFE1582800D14CE26F2800D14FE327
:10300000622801D100F030FC10230A009A430B9291
:10301000692801D000F0A9FC0A230C934B0500D5C8
:10302000D0E10B9A802311009B0019408B461A4275
:1030300000D0A1E2802311005B0019408A461A42A9
:1030400000D0B6E313005B0600D5EDE2130009994A
:103050001B0601D400F076FC08C91BB2D8171A1859
:10306000424092B209919346DA0F1292002B09D195
:10307000802310220B99DB000B4091430B91002B16
:1030800000D0E4E20B9A6123920600D541230EA9F9
:103090001F228C46DBB262440A3B5F461395A3466F
:1030A00055460C9CB2460D9316000AE03033DBB255
:1030B00001357355A74200D2EDE2202D00D1EAE29E
:1030C00007002100380000F011FDCBB20929EDD92D
:1030D0000D9A94466344DBB2EAE780239B00707844
:1030E000194301362FE77078682800D1CDE180239D
:1030F0000136194327E770786C2800D1BFE180239F
:103100005B00194301361EE7462800D19BE10722E8
:10311000099B0491073393430A9A1900039242468C
:1031200002920CC908980092019309912A004B461B
:103130002100FFF7CFFC01360500BCE62A006F1C1A
:103140004B46089D21002520A84701363D00B2E6E8
:103150008B0700D4ADE1099B2A009A466B1C984668
:10316000534601CB21009A46089F4B46C0B2B84750
:103170000A9B9C466544012B00D886E2089B474683
:10318000B04626004C4699463A00230001373100EC
:103190002020C847AF42F7D1A146534634004646E7
:1031A0000993013687E6C0466D2E00109016002068
:1031B00048DD00108CDD0010D8DD0010099B04CB29
:1031C0009B4643460992002B00D1C6E013789C46EB
:1031D000002B00D1BDE34346013B099A0133D018CF
:1031E0000A9F130001E0834203D05A780133002A7A
:1031F000F9D1099A0A979B1A0B9380230A00DB00E6
:103200001A400C92194204D00B9B434501D9434606
:103210000B9302231A000A400D920B4200D187E162
:103220006046002800D168E10C9B002B00D10DE125
:10323000A844C246099B57465B1B9846089BB2466A
:103240002A0026004C46994609E023003100551C0F
:10325000C8474346585D002800D126E12A0097421E
:10326000F3D1A1463D00340056460D9B002B00D003
:1032700043E15B46013609931DE6099B1A0008CA23
:103280009246002B48D0212211438B460EA884463B
:103290001F216144099500220F27A4460D0002E07A
:1032A000202A0CD00B003C001C4020003730092C99
:1032B00000D807380132A85419090F2BF0D86446FA
:1032C000099D32E0DC4B2078089300239A460028C1
:1032D00000D0E4E5002465E6434606000A9F980016
:1032E000C0180132400080191678030030003038D1
:1032F000303B0928F3D93000984616000A9700E6BB
:10330000099B023604CB9046D2434046D217104068
:10331000804609933078F4E510220800904311327A
:103320001043834600224905B0D55B460693082327
:10333000059343460493102303930023029316AB93
:10334000019200932A004B4621000898FFF7A6F847
:103350005346050001360993ADE513789C46002BD2
:1033600000D1F7E202235B4237E7202302009A43B1
:10337000472A04D180231B0119430223984345287F
:1033800001D1202319430722099B0491073393435A
:103390000A9A19000392424602920CC908980092B8
:1033A000019309912A004B462100FFF76DF9013680
:1033B000050080E510230C930C230A009A430B921E
:1033C0004B0503D501230B9A9A430B92692800D130
:1033D00027E6642800D124E60B9A802311009B0085
:1033E00019408B461A4200D066E1802311005B0031
:1033F00019408A461A4200D039E213005B0600D514
:103400003CE113001B0600D4A6E2099B04CB120486
:10341000120C934609935B46002B00D09AE10B9A5D
:103420001033110099430B91520500D492E100230F
:103430009A460B9B06930A9B0593434604930C9B69
:10344000039300230CE12023194360E6099B0A9AA9
:103450005B1B98464B4691461F00B2462600089CCF
:103460002A003B003100A04743460135585D002843
:10347000F6D14A463400B94656460A92F5E6C023CC
:103480009B00B078194302365DE5C023B07819433C
:10349000023658E50C230A009A4314331A43103BB2
:1034A0000B920C934B058DD496E7A14634005646FB
:1034B000DBE60A9A012A00D853E26B1E9F18089B8C
:1034C000B04626004C4699462A00230001353100BB
:1034D0002020C847BD42F7D1A14634004646099B8B
:1034E0003A0001CB210098467D1C4B46089FC0B294
:1034F000B847434601360993DDE40B9B0A9AA84678
:103500009A4200D8B5E694466544ED1A089B4746B2
:10351000B04626004C4699463A0023000137310058
:103520002020C847AF42F7D1A14634004646A0E666
:103530000B9A0A99531C914200D814E24B199B1A1A
:103540001F00089BB24626004C4699462A002300DD
:10355000013531002020C847BD42F7D10A9BA14662
:1035600001330B93099B34001B7856469C466046FA
:10357000002800D058E67CE60722099B07339343D6
:10358000013294469C4462465F6809921A68FB17B0
:103590001093119310981199030053400E930B0050
:1035A0007B400F9394460E9A0F9B121A8B410E92FA
:1035B0000F93FB0F6246129300233A439B463DD084
:1035C0000B9A6123920600D541230022DBB20EA99B
:1035D0000A3B8C4692460D9343461F326244139534
:1035E000159655460E9E0F9FA24690460C9C14932E
:1035F0000CE03032D2B2434601355A55BB4500D1BA
:103600008AE1202D00D18AE106000F00220000236C
:103610003000390000F0A8FAD2B2092AE9D90D9B8E
:103620009C466244D2B2E6E7FF23099904C91340DD
:103630001A00099117E5C046FD2300100B9A1033BC
:10364000110099430B915205BAD500239A460B9B62
:1036500006930A9B0593434604930C9B0393129B8A
:1036600002935346019316AB2A00009321004B4668
:103670000898FEF713FF013605001CE4FF22099BA2
:1036800002CB11408B460993C5E653464546099344
:103690000136FFF710FC56465C46AA46139DD6E756
:1036A00008230C930B910B99642800D084E60B9BA4
:1036B0005B0500D586E6B4E40722099B07339343F4
:1036C000013294469C44624609921A685B68100075
:1036D0009B4613005A46134307D10B9A103311002F
:1036E00099430B91520500D5A1E60B9A61239206EE
:1036F00000D541230022DBB20EA90A3B8C4692463C
:103700000D9343461F3262445F461295A3465546C9
:103710000400B24690460C9E13930DE03032D2B2B4
:10372000434601355A550023BB4200D100E1202D0C
:1037300000D100E104000F00320000232000390016
:1037400000F012FAD2B2092AE8D90D9B9C466244D5
:10375000D2B2E5E70B9A6123920600D54123DBB292
:103760000EA90A3B1F228C460D93230062445C463F
:103770001295170055469B46B2460C9E08E0303322
:10378000DBB201357B55B4420ED3202D0CD00400A2
:103790003100200000F0AAF9CBB20929EFD90D9A27
:1037A00094466344DBB2ECE756465C46AA46129D5B
:1037B0003FE6099B1A0008CAD91713925A184A40C3
:1037C0009246DA0F1292002B08D1802310220B9917
:1037D000DB000B4091430B91002B2BD10B9A612303
:1037E000920600D541230EAA1F279446DBB20A3B5E
:1037F0000D9567445D460993A3465446B2460C9E18
:1038000008E03033DBB201357B55B4420ED3202DB6
:103810000CD004003100200000F068F9CBB2092977
:10382000EFD9099A94466344DBB2ECE756465C460E
:10383000AB460D9D0B9B2A0006930A9B2100059326
:10384000434604930C9B08980393129B0136029302
:103850005B46019316AB00934B46FEF71FFE139B8E
:1038600005000993FFF727FB02230C931AE7099B36
:1038700004CB92461293002A08D1802310220B9980
:10388000DB000B4091430B91002B2BD10B9A612352
:10389000920600D541230EAA1F279446DBB20A3BAD
:1038A0000D9567445D460993A3465446B2460C9E67
:1038B00008E03033DBB201357B55B4420ED3202D06
:1038C0000CD004003100200000F010F9CBB209291F
:1038D000EFD9099A94466344DBB2ECE756465C465E
:1038E000AB460D9D0B9B2A0006930A9B2100059376
:1038F000434604930C9B08980393002302935B4672
:10390000019316AB00934B46FEF7C8FD129B0500D2
:1039100009930136FFF7CFFAB44200D871E6149B41
:1039200054460E960F97AA469846159E139D8EE60E
:10393000A64200D8FBE6139B56469846AA465C462C
:10394000129D76E508C9D8171A1842400991FFF769
:103950008AFB00230B9350E4099B04CB9346099305
:1039600059E52F00BBE50B9301E6063B0C939AE665
:103970000CB410B584B006AC08CC0A000094010069
:1039800004480394FFF772FA04B010BC08BC02B0FC
:103990001847C046F523001000B585B003910121FA
:1039A00002900093034813004A4202A9FFF75EFA0F
:1039B00005B000BD792600100FB410B50C4984B0D5
:1039C00006AA08CA0C680392002C0BD000920122B0
:1039D0000848524202A9A047012004B010BC08BC0C
:1039E00004B01847180000F0ABFE0020F5E7C04611
:1039F000901600206926001010B5094A03001468CB
:103A000084B0002C08D0012200910648524203A93C
:103A1000A047012004B010BD00F092FE0020F9E79D
:103A2000901600206926001001480421014B184718
:103A300070040020593A0010142310B501001888B2
:103A400004331B88984710BD162310B50100188851
:103A500002331B88984710BDF8B54746CE4680B55F
:103A60000F1E19D0142399460433040000250126A3
:103A700098464B461888434621681B88984701C4DE
:103A8000431E9841013540420640AF42F1D130001B
:103A9000C0BCB946B046F8BD0126F8E7124A936F9C
:103AA0009B0815D29066D166002905D0FFE7FFE795
:103AB000FFE7516F106F704704B580210906C217E8
:103AC0005140002800D0C8430AF072F8002104BD1C
:103AD000F0B5146E556E576F166FFFF7E3FF14665F
:103AE000556657671667F0BD000000D0114A936F06
:103AF0009B0813D210665166002905D0FFE7FFE747
:103B0000FFE7516F106F704704B5002801D0002007
:103B1000C0430AF04DF8002104BDC046F0B5146E54
:103B2000556E576F166FFFF7E5FF146655665767BA
:103B30001667F0BD000000D094464A4A926F920882
:103B4000624601D228E0C046F0B5464E346E756E2E
:103B5000776F366F00F020F89446424A1466556637
:103B6000576716676246F0BD94463E4A926F9208C8
:103B7000624601D254E0C046F0B53A4E346E756EDE
:103B8000776F366F00F04CF89446364A14665566E7
:103B9000576716676246F0BD002B24DB11D0002961
:103BA0003EDA00B5C943404200D1013100F038F897
:103BB000C943404200D10131DB43524200D10133BD
:103BC00000BD002AEBD1002801D1002905D000203A
:103BD000C90FC90701D1C043410800B509F0D0FFA2
:103BE0000022002300BD00B500290ADBDB4352425E
:103BF00000D1013300F014F8C943404200D1013133
:103C000000BDC943404200D10131DB43524200D1E3
:103C1000013300F005F8DB43524200D1013300BD0F
:103C2000002923D1002B18D1002A0CD0BC460D4FFF
:103C300038667A6600210023FFE7FFE7FFE77A6F27
:103C4000386F67467047002801D00748010000B56B
:103C500009F096FF0022002300BD02000B000020A7
:103C600000217047000000D0FFFFFFFF002B00D0B5
:103C7000BFE0130C28D1002AE7D080B4114F396679
:103C80007A66FFE7FFE730B4040C7B6F396F1B04E3
:103C900023433B667A66FFE7FFE7FFE7C04684B24F
:103CA0007B6F3D6F1B0423433B667A66FFE7FFE7AC
:103CB000C04600232C042D0C7A6F386F001969411F
:103CC000B0BC7047000000D0F0B594460025140E3B
:103CD00001D112020835140F01D112010435940FDD
:103CE00001D192000235D40F01D152000135D40B1D
:103CF0000134254F7C66254C3C660E0C93B2FFE7E1
:103D0000FFE7FFE73C6F6643360C7703BE4673431D
:103D1000DF0B5B04C01AB941130C7343DB18C91ADB
:103D2000CE086643360CB64493B273431F0F1B0193
:103D3000C01AB941130C73431F0B1B05C01AB941BC
:103D4000860D8F023E436643360C092D24DB520A52
:103D50007243801A7703460A6643360C16235B1BB0
:103D6000DE40DF40BF1964466643821B704604355F
:103D700006330100D940A840C01900D30131A24246
:103D800006D20023F0BD0000000000D0FFFFFFFFBF
:103D9000121B0130F3D3F1E709277F1BFE40644675
:103DA000A2B27243801A00D20139220C7243130C62
:103DB0001204821A99410B00704604351337010032
:103DC000F940A840801900D30131002B02D1A24252
:103DD0000AD2F0BD013000D30131121BFAD2013BEF
:103DE000F8D1A24200D2F0BD013000D30131121B44
:103DF000F7E7F0B51C0C00D080E00CB400251C0ADD
:103E000004D11B02160E3343120208351C0B04D1D9
:103E10001B01160F3343120104359C0B04D19B0088
:103E2000960F334392000235DC0B02D192185B41AE
:103E300001351C00971864410134464F7C66464C9E
:103E40003C660E0CFFE7FFE7FFE7C0463C6F6643AA
:103E5000360C7703BE4697B27743C01B00D20139B8
:103E6000C01B00D201399FB27743C91BC91B170C75
:103E700077437E04FF0B801BB941CE086643360CA6
:103E80000C2D33DBB644120B1F053A431B0B97B2C4
:103E90007743C01B00D201399FB27743C91B170C6F
:103EA00077433E043F0C801BB941860D8F023E4391
:103EB000664329277F1BFE400C3D7746AF40BF1964
:103EC00030BCA2B2ABB272437343801A9941220C48
:103ED0007243130C1204801A994102000B0001373F
:103EE000001BA941F9D2781E0021F0BD0C277F1BD1
:103EF000FE4077467F0BAF40FF19E0E700245D1CD2
:103F000007D0144F7D663966FFE7FFE7FFE7FFE75D
:103F10003C6F95B29EB265436643401BB141150CA0
:103F20001E0C6543664336042F0C3E432D04401B94
:103F3000B141994204D202000B0020000021F0BDE3
:103F400001D19042F7D3801A994101349942F2D3BA
:103F5000F6E70000000000D0FFFFFFFF48404140AF
:103F6000484018B4134B5B68019308BD18B4114B5B
:103F70001B68019308BD94460F4A926F920805D2C0
:103F8000624618B40B4BDB68019308BD0A4AF0B5D2
:103F9000146E556E576F166F6246FFF7F2FF064AB2
:103FA0001466556657671667F0BD18B4014B9B68D9
:103FB000019308BD68100020000000D0FFB55040FC
:103FC0004240504059404B40594000E0FFB5154F2A
:103FD0004C00640D03D0BC4204D10C0314D8002063
:103FE000090D09055C00640D03D0BC4204D11C031B
:103FF0000AD800221B0D1B0501264B4009D44B405B
:1040000003D58B4200D18242FFBD9942FCD1904240
:10401000FFBD0B43DB1803431343F5D0C9434918D5
:10402000FFBD0000FF07000000B5FFF7CFFF01D084
:10403000002000BD012000BD00B5FFF7C7FF804193
:1040400000BDC04600B5FFF7C1FF01D9002000BD8B
:10405000012000BD00B5FFF7B1FF01D9002000BD70
:10406000012000BD00B5FFF7A9FF804100BD012080
:1040700040054A00121804D85A00121801D800202E
:104080007047012070470020704700000021002881
:1040900005D17047C1174840401AFAD0C90713B577
:1040A000064B1B6898470CBC441CA2401005120B21
:1040B0000349091B09051943114310BDA816002027
:1040C0001F04000010B54C00620D8023D218DB00E5
:1040D000D21A5B057E2A10DD9E3A13DACC1709034B
:1040E000490819435242D140640001341532202A54
:1040F00005DAD0400843604310BD002010BD0846DB
:10410000604310BDC80FC018013810BD18B4024B71
:104110005B6A019308BD00006810002010B50148DB
:10412000FEF74AF978DF0010132370B51D78012DD2
:1041300011D035DD1C48FFF787FC1C4C01008022A4
:10414000200000F099F9022D27D01948FFF774FCE0
:10415000184B186070BD184B144C23606360A3604B
:10416000E36023616361A361E36123626362A3622D
:10417000E36223636363A363E36323646364A3640D
:10418000E36423656365A365E36523666366A366ED
:10419000E36623676367A367E367084BA364D4E719
:1041A000024C064BA364D0E7534400006810002083
:1041B0004C330000A81600201D410010C141001022
:1041C00007B5604601880A0A0230DF2AFAD1C9B26F
:1041D000820804D3028840880004104300E000688D
:1041E000014A5050039007BD6810002051434343DB
:1041F000C9188C46110C83B24B4310B4040C6143B4
:1042000092B280B2504362431C041B0C001910BCD4
:1042100059411304120CC018514161447047000009
:104220004840414048400E4B5B6818470C4B1B68A8
:1042300018470C4A936F9B0802D2094BDB6818475A
:10424000F0B5146E556E576F166FFFF7F6FF054AFF
:104250001466556657671667F0BD014B9B68184793
:10426000AC160020000000D007B54840414048404F
:1042700001E0C04607B54200120E03D0FF2A03D169
:10428000420218D8C00DC0054A00120E03D0FF2A02
:1042900003D14A020FD8C90DC9050122414005D4F6
:1042A000414001D5814207BD884207BD01434918FD
:1042B00001D0C043001807BD00B5FFF7D5FF01D9F5
:1042C000002000BD012000BD491A002808D1084681
:1042D00070470000C10FC90700D54042002817D021
:1042E000F44603B40B4B1B68984706BC81409E38CC
:1042F0004042803107D20B0607D04900490AC00569
:104300001043084360470130F8E7490A8902F5E79E
:1043100070470000A816002010B50148FEF74CF8C1
:1043200084E10010132310B510481C78FFF78CFBB4
:104330000100012C0AD003DD80220D4800F09CF81A
:104340000C48FFF779FB0C4B186010BD084C542249
:10435000200000F091F82300084A803321680029EA
:1043600000D122600434A342F8D1E9E753460000AB
:10437000AC1600204C330000A81600201943001092
:1043800070B504000A4E300009F02AFC200003F04A
:104390003FFB0500300009F0EBFB002D05D0054B7D
:1043A0002C199C4201D8280070BD0348FEF704F880
:1043B000A40E00200000042090DF001070B505005E
:1043C0000C000B4E300009F00BFC2800210003F01C
:1043D000E5FA0500300009F0CBFB002D05D0054BB8
:1043E0002C199C4201D8280070BD0348FDF7E4FF5A
:1043F000A40E00200000042090DF001070B505001E
:104400000C000B4E300009F0EBFB2800210003F0FC
:10441000D1FD0500300009F0ABFB002D05D0054BA8
:104420002C199C4201D8280070BD0348FDF7C4FF39
:10443000A40E00200000042090DF001070B50400DE
:10444000054D280009F0CCFB200003F0EBFA280012
:1044500009F08EFB70BDC046A40E00200148042167
:10446000014B184780040020593A0010014B1B688B
:104470001847000080040020014B5B6818470000CB
:1044800080040020030010B5080011001B68984745
:1044900010BDC046F0B546464F46D646C0B5437D32
:1044A00080460E001700002B46D0002A3FDD4B1E31
:1044B0009946244B0125002400209A460DE04B46E6
:1044C0001B5D0D3B5A425341325DDBB20A2A0BD0D1
:1044D0002B00013401359F421ADD002CEFD14346F9
:1044E000325D1B7D0A2AF3D1002BF1D1A04204DA00
:1044F0004346211A1B6830189847434650461B68AC
:1045000002219847013428002B0001359F42E4DC4A
:10451000874204DD4346391A1B6830189847F6195C
:10452000013E33780D3B5A42534142461375E0BC7D
:10453000BA46B146A846F0BD03681100300098475E
:10454000F5E7C04614E00010F0B5C6460C00096857
:10455000060000B5802906D04B1C23606418267124
:1045600080BCB846F0BD0F4B1D68002D16D0231D32
:1045700098460D4F02E02D69002D0FD02B68002BBF
:10458000F9D03B68002B01D0AB42F4D12800414662
:104590002268FFF77FFF2D69002DEFD10123002155
:1045A000DBE7C0468416002088160020F0B5DE4602
:1045B00057464E464546E0B585B017001C0006003C
:1045C0000D00FDF7BDF80023304A12184B41002BB7
:1045D00058DB2F4908008A4609F0FAFA01906B1C53
:1045E00003D1300003F0F2FE0500002C25D1294B49
:1045F0009846294B1C68002C15D0002F20D1274F3E
:1046000002E02469002C0ED02368002BF9D03B680F
:10461000002B01D0A342F4D120002A003100C04772
:104620002469002CF0D1019B002B27D105B0F0BCF0
:10463000BB46B246A946A046F0BD194B9846D8E7FE
:10464000164B994602ABDF1D0A239B4602E0246904
:10465000002CE8D02368002BF9D04B461B68002BB8
:1046600001D0A342F3D12A0031002000C0475B46AD
:104670000122390020003B70C047E8E7504609F0AE
:1046800077FAD3E70122074B5242A2E740420F00DC
:10469000AC0E0020954400108416002088160020DF
:1046A00085440010FFFFFF7FF0B5CE46474680B53A
:1046B00083B06B460600DD1D2870FDF741F800232E
:1046C0001A4A12184B41002B2BDB19490800884667
:1046D00009F07EFA174B81461C68002C14D0164F47
:1046E00002E02469002C0FD02368002BF9D03B682E
:1046F000002B01D0A342F4D1200001222900FFF7B2
:10470000C9FE2469002CEFD14B46002B05D13000A7
:1047100003B0C0BCB946B046F0BD404609F028FA27
:10472000F5E70122054B5242CFE7C04640420F0059
:10473000AC0E00208416002088160020FFFFFF7FAB
:1047400070B5040003F042FE0023010005000122C1
:104750002000FFF72BFF084B1C68002C06D0636875
:10476000002B05D098472469002CF8D1280070BD93
:104770002469002CF3D1F9E784160020F0B54746F0
:10478000D64680B516000F0083B000282DD11C4BF3
:104790001C4D1A685B68019200931B4B9A461B4B99
:1047A000984653461C68002C03D114E02469002C61
:1047B00011D02B68002B01D0A342F7D1A368002BA6
:1047C000F4D03100380098470028EFDD03B0C0BCBA
:1047D000BA46B046F0BD434600995B6A994209D893
:1047E00042460198926A824202D301204042EDE79C
:1047F0009942FAD101200021FCF7ACFFD1E7C04675
:10480000A8DC001088160020841600200040054017
:10481000F0B54646D6464F460138C0B50D001600E5
:1048200001283ED8FCF78CFF00231F4A12184B4189
:10483000002B32DB1D49B0460800894609F0C8F953
:104840008246731C03D1280003F0C0FD8046184B3C
:104850001C68002C14D0174F02E02469002C0FD0E4
:104860002368002BF9D03B68002B01D0A342F4D180
:10487000200042462900FFF70DFE2469002CEFD1ED
:104880005346002B05D13000E0BCBA46B146A846DD
:10489000F0BD484609F06CF9F5E70122064B52429B
:1048A000C8E701267642EEE740420F00AC0E00203A
:1048B0008416002088160020FFFFFF7F0120404261
:1048C0007047C046012040427047C0460120404228
:1048D0007047C0460300022200209A4240417047C0
:1048E000F0B5CE46474680B5A5B004000D00FCF7F4
:1048F00027FF00232A4A12184B41002B49DB294E7F
:10490000300009F065F900230700039322002B0013
:10491000254803A9FFF740F8039B8046002B14D1DC
:10492000224B1C68002C06D06368002B0BD09847E4
:104930002469002CF8D1002F27D1404625B0C0BCF7
:10494000B946B046F0BD2469ECE7184B1D6899469E
:10495000002D22D0164C02E02D69002D11D02B68BD
:10496000002BF9D02368002B01D09D42F4D1039B8A
:1049700028001A0004A90193FFF78CFD2D69002D72
:10498000EDD14B4603951C68CCE7300009F0F0F8F8
:10499000D3E70122074B5242B1E70395CBE7C0466C
:1049A00040420F00AC0E0020494500108416002044
:1049B00088160020FFFFFF7F0FB400B583B004A965
:1049C00001C90191FFF78CFF03B008BC04B0184780
:1049D00010B500F003F8012010BDC0467047C04676
:1049E000F0B557468246484B454653445A425341D8
:1049F0008022DE464E46920294465B42E0B51B0C96
:104A0000424A1B0463441360414A0D00414985B08A
:104A1000136018008A689043FBD181460620FDF799
:104A2000A7FB53465A6802231A40019252460432A9
:104A300011000292C02280468020920111430B6037
:104A40000391EF0D02216E02AB0DAA02400005E0BA
:104A5000904507D392197B4181424FD00C0002311F
:104A6000002BF5D02B008026270245463F1BA04691
:104A700076001C0003E04346FF1A012E40D03900A7
:104A80002800B346013EFFF731F88442F3D2444692
:104A900059463302A8469946614353464A461C612B
:104AA0001B6850465340FF221202134080225201DD
:104AB000024313608023029C01989B011C432060E9
:104AC00002255046039E40683560564607273668E3
:104AD00028407740CF263E40166020605046243064
:104AE00018430323036040462560FEF7FFFF05B02F
:104AF000F0BCBB46B246A946A046F0BD0C00B1E7EB
:104B000044461900A846C8E70040FCBF00E000404A
:104B100000F0004000C0004070B584B0099C150052
:104B2000089E0A9B8C4210DC0DD0A14209DC06D005
:104B30009D420AD393428041404204B070BDB042CE
:104B4000F6D90120F9E78642EFD901204042F4E787
:104B5000C16880687047C046034BC16880681A68A6
:104B60005B68801A994170479804002010B5124C78
:104B7000200002F0E5F9002819D1226863680F4986
:104B80000F4C0868496812184B410E49086849687B
:104B900012184B41616820688B4203DC00D010BDC5
:104BA0008242FCD91000190022606360F7E70648D2
:104BB00001F0C2FFE1E7C04690040020D00E0020C3
:104BC000C80E0020D80E002018E0001010B5144CBC
:104BD000200002F0B5F900281ED12268636811494F
:104BE000114C0868496812184B4110490868496817
:104BF00012184B41206861688B4208DC05D00C4BD1
:104C00001A685B68801A994110BD8242F7D910007A
:104C1000190022606360F2E7064801F08DFFDCE7CF
:104C200090040020D00E0020C80E0020D80E0020D6
:104C30009804002018E00010F0B54E464546DE46C8
:104C40005746E0B51D0013000400160093B02B4337
:104C500000D1C1E0002D00DAABE00492FA2200237B
:104C60003000290092000595FEF766FF80460F0090
:104C7000002D00DCC5E006900791002330002900DC
:104C80007A4AFEF759FF82468946002D00DCC4E0CF
:104C9000534608934B463000099329000023744A79
:104CA000FEF74AFF80460F00002D00DC9BE00A90D3
:104CB0000B91E823300029006E4AFEF73DFF824643
:104CC0008946E82D00DCB1E053460C934B4630009A
:104CD0000D932900684B694AFEF72EFF664B834609
:104CE00003919D4200DCAAE05B460E93039B3000DB
:104CF0000F932900624B634AFEF71EFF604B80460C
:104D00000F009D4200DCA5E00625072610901191BA
:104D100003239946013B9B46013B9A46023EFA22F9
:104D20004046390000239200FEF706FF0521904619
:104D300000922000544A01931F00FEF719FE002F35
:104D40000BDC07D003DC59D14346092B56D9D94691
:104D5000023403E04346632BF6D90334002D20DDF3
:104D600004AB9C46494B37009846F5006544FA224F
:104D70002868696800239200FEF7DEFE200000929A
:104D8000019308214246FEF7F3FD04343B00083D41
:104D9000013F002BEBDCF343DB171E400136B6006E
:104DA000B144484613B0F0BCBB46B246A946A04643
:104DB000F0BD02223649FFF75FFB029B02269846B0
:104DC000042301259946013B9B46013B9A46039FDC
:104DD000013476426D42A2E702222E49FFF74CFBD6
:104DE00001239946DDE7002D03D12B4B9E4200D9CC
:104DF0005DE7D0464F460225032689E7D1460134B8
:104E0000ACE7002D04D1FA239B009E4200D332E789
:104E1000B0462F00012600257AE7002D03D11F4B55
:104E20009E4200D934E70125022671E7E82D03D11F
:104E30001B4B9E4200D947E70325042668E79D42A5
:104E400003D1184B9E4200D94EE7D0464F46042569
:104E500005265DE79D4203D1134B9E4200D953E7DF
:104E6000D84605250626039F52E7C04640420F005C
:104E700000CA9A3B0010A5D47E8D03000080C6A412
:104E8000B3B6E00D000064A740E0001048E0001059
:104E90003CE00010B4DF0010FFC99A3B3F420F0016
:104EA000FF0FA5D4FF7FC6A4FFFF63A770B5150051
:104EB000FFF784FA041E0DD0002D09D0082101202F
:104EC000FFF77CFA061E09D02B68346073602E60F1
:104ED000200070BD034801F0B7FEEDE7014801F086
:104EE000B3FEF1E750E00010010070B50120FFF7BC
:104EF00065FA051E0CD008210120FFF75FFA041E99
:104F00000AD0074B28001A68256062601C6070BDDB
:104F1000044801F099FEEEE7024801F095FEF0E743
:104F2000D411002050E0001082B010B5183084B0C9
:104F3000010006920400102268460793FFF79CFACE
:104F400006980799089A099BFFF7E6FD002804DAFE
:104F50001022200006A9FFF78FFA04B010BC08BC8D
:104F600002B01847F8B5050001F07EF8296CAA6B6D
:104F7000EB6B8A4201DA11006B6B002906DD002021
:104F80008900591804CB10708B42FBD16B6C002B3D
:104F900018D02E00443630000024002701F074FBA6
:104FA00084420FD22100300001F044FB002803D0DE
:104FB0000368002B00D01F603000013401F064FB57
:104FC0008442EFD300232B64F8BDC046010082B0B9
:104FD00000B585B006926846102218310793FFF796
:104FE0004BFA099B06980799089AFFF795FDC31796
:104FF000181AC00F05B008BC02B01847F8B54746EC
:10500000CE4680B50E6A4F6A330080460D003B43A2
:1050100014D18B69002B0CDD00246A69A300995818
:1050200001224046524201F079F9AB690134A342B2
:10503000F3DCAE6AEF6A33003B4312D04346D86AD2
:1050400001F08CFC041E10D04046A560FFF780FDE7
:10505000434636184F41210026606760986A01F088
:105060005BFCC0BCB946B046F8BD20210120FFF76B
:10507000A5F9041EE8D1024801F0E6FDA560FFDEB7
:1050800050E00010026E70B50500002A0CDD00240F
:10509000E86DA300C158002907D02800FFF7AEFF34
:1050A0002A6E01349442F3DB70BD01349442F0DB8C
:1050B000FAE7C046826E70B505000024002A03DCC2
:1050C00013E00134944210DA696EA30059580029A4
:1050D000F7D00B6E002BF4D101222800524201F0D0
:1050E0001DF9AA6E01349442EEDB70BD026F70B5FB
:1050F00005000024002A03DC13E00134944210DA96
:10510000E96EA30059580029F7D00B6E002BF4D19B
:1051100001222800524201F001F92A6F0134944221
:10512000EEDB70BDF0B5DE464E4645465746884636
:105130000100E0B58FB01F00189B05000831160074
:105140000AA810229946FFF797F918239B46AB440B
:10515000102259466846FFF78FF90A980B990C9A66
:105160000D9BFFF7D9FC002800DDD8E0002F00DA06
:10517000DFE04B46002B03D04A46DB680133D360A7
:105180004346002B00D1FEE01B7F002B5BD0AB68B9
:10519000EC68049305944346E86ADC6A9B6A0693CC
:1051A000079401F0DBFB041E00D1E0E00023A361C3
:1051B0004B46236143464246A3603023D35C002B19
:1051C00047D1049A059B92197B411F004346DB6A35
:1051D0001600002B45DB43461B7F002B00D087E0E9
:1051E00043465B6B9A46002B00D181E01A685B68EE
:1051F00006980799801859410492059308900991DF
:105200008F4275DC00D1C3E038214346595C012947
:1052100000D1C0E002295FD0AB68049A934265D107
:10522000EB68059A934261D15146A86A01F06EFB82
:1052300000285BD052462B691168526801330A91ED
:105240000B920C9325E043465C6A1B6AF618674193
:105250009DE7FFF78BFC4346DB6A36184F41002B76
:10526000B9DA210026606760A86A01F04FFB824628
:1052700000283DD08369002B00D1A2E00222180053
:105280009B6911000132002BF9D182460A960B97D7
:105290000C91102259466846FFF7EEF80A980B99D0
:1052A0000C9A0D9BFFF738FC002850DC5346002079
:1052B0009C612DE0069A079B002B02D1002A00D0AA
:1052C0006DE05146A86A01F021FB002867D15346E2
:1052D0001A685B6804920593049A059BE968A868BC
:1052E0008B4264DC60D0049B98426CD0089E099F7E
:1052F000EB6926606760BB4226DB22D04346210073
:10530000A86A5C6301F008FBA86D431C0FD4AB6571
:105310000FB0F0BCBB46B246A946A046F0BD484619
:1053200000F08CFE2D4801F04BFC0020F0E701233B
:10533000EDE732003B002A4801F042FC002600273E
:1053400017E7AB69B342D9D2484600F077FE002296
:1053500000232260636000232100E86AA360E36009
:1053600023612375A36101F0D7FA0020D0E7202143
:105370000120FFF723F8041E00D017E7194801F0B9
:1053800063FCA461FFDE484600F058FE0020BFE742
:105390008642ADD838E7079B002B00DC8AE75346EE
:1053A0001B694B45D0D1D2E7049B83429BD953461E
:1053B0001869814501D000F041FE53464A461A6102
:1053C000C5E7012162E7059B994200D08EE751466F
:1053D000A86A01F09BFA0028E9D187E760E0001095
:1053E00088E0001050E00010F0B54646D6464F4623
:1053F000C0B5060082B0806A01F0C4FA00285DD012
:1054000039239A46383B994618E0A169002902D011
:10541000306B01F081FA00220023226063600023D8
:105420002100F06AA360E36023612375A36101F0AA
:1054300073FAB06A01F0A6FA00283FD00368B26898
:1054400093423BD14368F268934237D1B06A01F08E
:1054500085FA037D0400002BD7D103698068984644
:105460008269002A0CDD436900259C463827614685
:10547000AB00C958CB5D002B2BD001359542F6DB34
:1054800053464A46C254037F002B04D0C36A826A43
:10549000002B2DDC2AD0414600F0AEFD404600F046
:1054A000CDFD52464946A3689954AEE7306BB46AC5
:1054B00001F054FA0100200001F02EFA306B01F0E7
:1054C00061FA0028F2D102B0E0BCBA46B146A84663
:1054D000F0BD01223000524200F020FFA0680135EB
:1054E00082699542CCDA43699C46C0E7002AD2D053
:1054F0000021009101003000FFF714FEA068CAE708
:10550000C16810B584688B420ADC07D094420CD184
:1055100099420AD103690133036105E0A242F5D93A
:10552000C36000238260036110BD024801F08CFB60
:10553000FAE7C046D0E00010486810B50C000B68D0
:1055400041609847002263685A6010BDF0B5DE469E
:1055500057464E464546E0B593468A6A81468A4696
:1055600085B0002A76D0002300270193390004E09B
:10557000019B01330193934258D25046019BC06A6C
:105580009B000293C358002BF2D01B78002BEFD066
:105590005346586B029BC05803905046006BC0584E
:1055A0000028E5DD0023984604E001239C46E04402
:1055B000804534DA4346039A9B00D658002EF4D037
:1055C000B269002AF1DD00240FE0002903D05A4619
:1055D000484600F0A3FE5A462900484600F09EFEC9
:1055E0000021B2690134944210DA7069A3001D5899
:1055F000002DF7D08D42F5D00137012FE5D16B6A30
:105600005345E2D1013429009442EEDB5346029A1D
:105610001B6B985801239C46E0448045CADB5346E7
:105620009A6A019B013301939342A6D30F1E11D0B6
:105630004B6C002B15DA78683B684760984700226E
:105640007B6839005A6048465A46FFF77FFF482377
:105650000022FA5405B0F0BCBB46B246A946A046AB
:10566000F0BDFFF783FA3A6C7B6C14001C4309D041
:105670004C46E568A46812196B41994202DCDAD104
:105680009042D8D9FB6C002BE1D0786898475A46F5
:1056900039004846FFF75AFFD9E7C046F8B505007C
:1056A0001B480E00FFF74CF81A48FFF749F81A4854
:1056B000FFF746F81948FFF743F81948FFF740F895
:1056C0001848FFF73DF81848FFF73AF81748FFF772
:1056D00037F81748FFF734F81648FFF731F816483F
:1056E000FFF72EF81548FFF72BF81548FFF728F8B5
:1056F000002D09DD0024134FA3003800F1580134B8
:10570000FFF75AF9A542F7D10F48FFF719F8F8BD8E
:1057100010E100102CE1001048E1001088E10010B9
:10572000ACE10010F8E1001048E200105CE200106B
:10573000A8E20010BCE20010F8E2001008E300103C
:1057400044E3001054E3001040E30010F0B5454678
:10575000DE4657464E46E0B5012405008BB00128D1
:105760006DDDC04B01919B461AE043465B78662B8A
:1057700020D143469B78002B1CD1554500DC04E129
:10578000019B59469C4667447F680234380002F00A
:10579000D9FD00285BD10122B34B1A70AC424EDA1E
:1057A000631C9A46019BA700DB5998461B789946D3
:1057B0002D2BDAD04046AD4902F0C4FD0028DCD0E4
:1057C0004B462D2B4CD143465B786F2B48D143463B
:1057D0009B78002B44D1A31CAB4200DB1FE1019B53
:1057E00003349C4667447B68BF681800994602F002
:1057F000C9F89F4B0391190002909846029A039BA7
:105800000A604B601100194304D14B461B78302BC2
:1058100000D01BE13B789946732B50D17B78652BE8
:105820004DD1BB78632B4AD1924A00230298039949
:10583000FEF7DCFC434618605960AC42B0DB012047
:105840000BB0F0BCBB46B246A946A046F0BD38003E
:10585000894902F077FD00282CD1834B18709DE711
:105860004046864902F06EFD0028B4D04046844987
:1058700002F068FD0028AED04B462D2B00D179E018
:105880004046804902F05EFD002800D091E0554579
:1058900000DC40E1019B73499C4667447F68023409
:1058A000380002F04FFD002800D079E00122764B4D
:1058B0001A7073E73900754801F03EF96EE704226B
:1058C0003800734902F0B0FD00282ED10299039AE6
:1058D000CB0E500118434B0105900493049E059F85
:1058E000761A97413200F10D7E020E435302069361
:1058F00007960299039A069E079F76185741320031
:105900003B00B10EBE010E43099696010896089E13
:10591000099FB61A9F410298039932003B00121862
:105920004B4141460A604B6038E704223800594930
:1059300002F07AFD002802D1FA22920075E70422D3
:105940003800554902F070FD002800D126E74B468B
:105950006D2B4ED17B78692B4BD1BB786E2B48D108
:10596000029803990D234D4AFEF740FC4346186008
:10597000596013E743465B786B2B00D080E74346C2
:105980009B78002B00D182E77AE7019B4448984638
:1059900001F0D2F828004146FFF780FE00204FE7D3
:1059A0003800354902F0CEFC002833D1364B187050
:1059B000F4E64B462D2B04D143465B78772B00D180
:1059C0008CE04046374902F0BDFC002800D07DE065
:1059D000554500DCA3E0019B02349C4667447F6888
:1059E000380001F0C3FF002800DC8EE02E4B186069
:1059F000D4E6042238002D4902F016FD002812D109
:105A0000029803992A4B2B4AFEF7F0FB4346186095
:105A10005960C3E63900284801F08EF8BEE6019BC4
:105A200026489846B4E74B46642B5DD17B78612BC2
:105A30005AD1BB78792B57D102980399204B214A30
:105A4000FEF7D4FB434618605960A7E6019B494620
:105A500098461D4801F070F828004146FFF71EFEE9
:105A60000020EDE678E30010CB17002058E300108B
:105A7000A004002000CA9A3B80E30010A8E30010B5
:105A8000B4E3001038E40010CD17002088E30010C4
:105A9000F8E3001000E4001008E40010005847F894
:105AA00060E3001088E40010D011002010E4001022
:105AB0004603000000A0B83064E40010C0E300100A
:105AC000944E000000004F91E0E3001040461B4957
:105AD00002F038FC002826D154465FE643469B7806
