:020000041000EA
:1000000000B5324B212058609868022188439860DF
:10001000D860186158612E4B002199600221596106
:100020000121F02299502B49196001219960352056
:1000300000F044F80222904214D00621196600F024
:1000400034F8196E01211966002018661A6600F04E
:100050002CF8196E196E196E052000F02FF8012189
:100060000842F9D1002199601B49196000215960AB
:100070001A491B48016001219960EB211966A021F2
:10008000196600F012F800219960164914480160C1
:100090000121996001BC002800D000471248134993
:1000A000086003C880F30888084703B5996A0420EC
:1000B0000142FBD001200142F8D103BD02B5186610
:1000C0001866FFF7F2FF186E186E02BD00000240BE
:1000D000000000180000070000035F00212200005C
:1000E000F4000018222000A00001001008ED00E03C
:1000F00000000000000000000000000074B24E7A12
:1001000000200420F7010010C3010010C5010010F9
:10011000C1010010C1010010C1010010C101001097
:10012000C1010010C1010010C1010010C701001081
:10013000C1010010C1010010C9010010CB01001065
:10014000CD010010CD010010CD010010CD01001037
:10015000CD010010CD010010CD010010CD01001027
:10016000CD010010CD010010CD010010CD01001017
:10017000CD010010CD010010CD010010CD01001007
:10018000CD010010CD010010CD010010CD010010F7
:10019000CD010010CD010010CD010010CD010010E7
:1001A000CD010010CD010010CD010010CD010010D7
:1001B000CD010010CD010010CD010010CD010010C7
:1001C00000BE00BE00BE00BE00BE00BEEFF3058054
:1001D000103800BEF2EB88713475011050750110B3
:1001E0003402001090A31AE700201F49086006C8D7
:1001F00081F3088810471D48006800282FD10DA4FE
:100200000ECC002902D000F012F8F9E71849194A7B
:10021000002000E001C19142FCD1174988471749ED
:1002200088471749884700BEFDE701C901C29A42C5
:10023000FBD3704750750110C0000020E40E002071
:100240007483011000000420000004207483011056
:10025000001004200010042000000000704709482E
:1002600005F056FB0047000008ED00E0000000D05C
:10027000E80E0020C4190020214100108118001050
:10028000494200105756000006005250ABB360536D
:10029000F034011006005250861C03021035011084
:1002A000060052505422A29D1835011005005250EC
:1002B000DE65F46874830110F8B5C0460448054B48
:1002C00010B5834203D0044B002B00D0984710BDDB
:1002D000E40E0020E40E002000000000064807495C
:1002E000091A8B10C90FC91810B5491003D0044B57
:1002F000002B00D0984710BDE40E0020E40E002033
:100300000000000010B5074C2378002B09D1FFF73F
:10031000D5FF054B002B02D0044800E000BF0123AD
:10032000237010BD8811002000000000C0300110B3
:10033000054B10B5002B03D00449054800E000BF71
:10034000FFF7CCFF10BDC046000000008C1100205C
:10035000C0300110024BC31883610123037770473B
:10036000280800008023F0B5C646984600B58044B2
:10037000070006000400072002F0DCFA1B2002F050
:10038000D9FAD025182002F0D5FA80232D066B6209
:1003900080231B056B62802396215B046B628901BD
:1003A000274803F01FFC02211C2002F093FA0221CF
:1003B0001D2002F08FFA192002F0BCFA8023424679
:1003C0009B046B621F4B4046936208F0B1FC4346AE
:1003D000DB68AC37D836002B05D0A8230122404675
:1003E000E15808F04DFA184B3800BB6208F0A0FC49
:1003F000FB68002B05D0D42301223800E15808F017
:100400003FFA124B3000B36208F092FCF368002B05
:1004100006D080235B0001223000E15808F030FA5A
:10042000074A9369DB0607D4102193691942FCD16E
:10043000136893691942F8D080BCB846F0BDC04635
:1004400000400340C0300110CC300110DC300110FE
:1004500070B503000500002239356133FF33FF35E5
:100460001A700400280008F063FCEB68002B06D02B
:10047000B0235B0001222800E15808F001FA70BDAA
:10048000A5239B0070B5C6182C33C5180F4B04006C
:10049000B362300008F04CFCF368002B06D0AF23A9
:1004A0009B0001223000E15808F0EAF9074B2800D0
:1004B000AB6208F03DFCEB68002B06D0BA239B0032
:1004C00001222800E15808F0DBF970BDCDCCCC3D0D
:1004D000A5239B0070B5C6182C33C5180023040053
:1004E000B362300008F024FCF368002B06D0AF2381
:1004F0009B0001223000E15808F0C2F900232800D7
:10050000AB6208F015FCEB68002B06D0BA239B0009
:1005100001222800E15808F0B3F98423064A216B30
:100520001B01E318914203D00122A361227770BD21
:10053000024BE318F8E7C046EC3001102808000031
:10054000C823F0B54E464546DE4657465B00E0B54B
:10055000C558113BFF3B9846474B8044994643465C
:100560004A46070006009A62040083B0404608F03D
:10057000DFFB4346DB68AC37D836002B05D0A82319
:1005800001224046E15808F07BF94B463800BB6237
:1005900008F0CEFBFB68002B05D0D42301223800E5
:1005A000E15808F06DF94B463000B36208F0C0FB2B
:1005B000F368002B06D080235B0001223000E15855
:1005C00008F05EF92D4A2B8D93466A8D1121009219
:1005D00058462B4A05F032F92A4A11219246AB8D32
:1005E000294A504605F02AF9284AEB8D91462A8E71
:1005F000112100924846264A05F020F943465A4602
:1006000040469A6208F094FB4346DB68002B05D015
:10061000A82301224046E15808F032F95346380039
:10062000BB6208F085FBFB68002B05D0D4230122B8
:100630003800E15808F024F94B463000B36208F066
:1006400077FBF368002B06D080235B00012230008B
:10065000E15808F015F92B8DA3666B8DE366AB8D21
:100660002367EB8D63672B8EA36703B0F0BCBB469B
:10067000B246A946A046F0BD1438011084130020EC
:10068000F83001109813002004310110AC13002041
:100690000C310110BC239B00C358F0B5D6469A46D6
:1006A00091239B00C3584F469946A5234646040014
:1006B0009B00C0B5C6182C33C518471D036C11210B
:1006C000384A394805F0BAF8A36EFF37962B05DD96
:1006D000AF239B009846236F434531DC334B3800F2
:1006E000BB6208F025FBFB68002B06D096235B005D
:1006F00001223800E15808F0C3F8E36B3000B36220
:1007000008F016FBF368002B06D0AF239B000122F4
:100710003000E15808F0B4F8E36B2800AB6208F051
:1007200007FBEB68002B06D0BA239B0001222800B0
:10073000E15808F0A5F8E0BCBA46B146A846F0BDBD
:10074000A36F962BCADD7C23E35C002BC6D000236D
:100750003000B36208F0ECFAF368002B05D0434692
:1007600001223000E15808F08BF800232800AB622A
:1007700008F0DEFAEB68002B06D0BA239B000122BA
:100780002800E15808F07CF853469B6AA3624B4668
:100790009B6AE36284231B01E318A361012323778F
:1007A000C9E7C0461831011070130020283101102C
:1007B0009123F0B59B00C646C35800B59846BC23AC
:1007C0009B00C7585C3BC51882B00400461D806C76
:1007D00005F060FD254A009001911121244805F0A3
:1007E0002DF8A36EFF36153B1C2B20D8A36F153BAD
:1007F0001C2B1CD800232800AB6208F099FAEB6888
:10080000002B06D0AF239B0001222800E15808F0FE
:1008100037F843469B6AE362BB6AA362154BE31851
:10082000A3610123237702B080BCB846F0BD124B10
:100830003000B36208F07CFAF368002B06D09623F0
:100840005B0001223000E15808F01AF8E36B280041
:10085000AB6208F06DFAEB68002BE4D0AF239B008D
:1008600001222800E15808F00BF8DCE730310110D4
:100870005C130020280800003C31011070B51E4DAB
:1008800004002900406A0CF0DBFB290020630020F3
:100890000CF0D6FB0AF0A2FD05F0D8FB2900E063BE
:1008A00000200CF0CDFB0AF09FFD290060630020C2
:1008B0000CF0C6FB0AF098FD2900206400200CF023
:1008C000BFFB0AF091FD2900606400200CF0B8FB2A
:1008D0000AF08AFD2900E06400200CF0B1FB0AF068
:1008E0007DFD05F0B3FBFC239B05A36501227C2362
:1008F000A064E25470BDC04644310110F2235B0095
:10090000F0B5C646984601223433C5180C3BC318CF
:1009100080440400070000B506001A70404608F045
:1009200007FA4346DB686534FF34D837002B06D01E
:1009300083239B0001224046F15807F0A1FF90233A
:1009400001229B00F3181A70280008F0F1F9EB68F7
:10095000002B06D090239B0001222800F15807F0BD
:100960008FFF330001228D33FF331A70200008F00F
:10097000DFF9E368002B06D0C6235B0001222000CC
:10098000F15807F07DFF1023474DAA69134254D058
:10099000736A98464146454805F0D2FF444C736A55
:1009A000444A1121200004F049FF2100424805F08B
:1009B000C7FF3800BC6208F0BBF9FB68002B06D00B
:1009C00080235B0001223800F15807F059FF736B58
:1009D000002B1AD0F36C002B24D0D0231B065A68AE
:1009E00012064DD580229A61D0231B065A68D20187
:1009F0004DD4802252045A61D0231B065A6812013A
:100A00004DD4802212055A6109E0D02380221B06B2
:100A10009A61802212059A61802252049A6180BCF8
:100A2000B846F0BDD02380221B065A6180221205F1
:100A30005A61802252045A61F1E7726A9046AA69AB
:100A40001342A7D110242200AB691A401C42FAD1EC
:100A50002B68DBB2212B0BD0326D622A04DC4146BD
:100A60008B54336D01333365AB691C42EBD08FE798
:100A70004346316D30005A543265FFF7FFFEF3E70D
:100A800080225A61D0231B065A68D201B1D5802238
:100A900052049A61D0231B065A681201B1D58022F4
:100AA00012059A61BBE7C04600400340483101107F
:100AB000C013002050310110583101108720F8B5C3
:100AC000000106F0E9FC0221982349425B00C15075
:100AD000B033C1509023DB00C218EC235B00C2503E
:100AE000C2182C3BC250E6220023D8245200835067
:100AF000CC3AFF3A64000251603401518034015114
:100B0000C424E4000519A224A400055105192C3CB5
:100B10000551203403511C3C02518C340151543492
:100B20000151B721C9004418CE218900445044180E
:100B30002C394450203143501C3942508E4C4031A6
:100B4000435008394450E9240226043140504831CA
:100B50004350043143508949A400015104340351E6
:100B6000874D10340251083C05510434005148347B
:100B7000035104340351834C834D01510434035118
:100B800010340651083C05510325804C05270051BF
:100B90007F4C0351043403517E4C01510434035102
:100BA000103405517C4D083C055104257B4C005107
:100BB0007B4C0351043403517A4C015104340351EA
:100BC00010340551784D083C0551784CA925005149
:100BD000774CED00035104340351764C01518124CC
:100BE00024010419445110354751734F083D4751B2
:100BF0000627724D4051724D435104354351714D9A
:100C0000415104354451103547516F4F083D47510C
:100C10006E4D40516E4D4351043543516D4D415120
:100C20006D4D4719C325ED00475107271035475132
:100C30006A4F083D47516A4D40516A4D4351043552
:100C40004351694D4151C535FF354719C13DFF3D00
:100C50004751082710354751644F083D4751644DAF
:100C600000274051634D435104354351624D41517A
:100C7000624945187139FF39455061494350832114
:100C8000C9004518E621C90045509D21C9004518F5
:100C90005C494550043945185B494550043146507C
:100CA0005A4942545A494350EC2189004518EF21D2
:100CB000C9004550AA21C900451856494550043974
:100CC0004518554945500431465054490026425470
:100CD000534943502D39FF3945183931FF314550BB
:100CE000451850494550043142504F494254D22191
:100CF000890045184D4945504D4943504B494518C9
:100D00004C494550043142504B4A30318354020023
:100D10000C324250494D4A4945504A494A4D4118C2
:100D20000E604F608221090143542B4942504749CC
:100D30004550043141180E604F604549454D4354BC
:100D40000831425044494550444941180E604F60B3
:100D5000852109014354294942504149414A815062
:100D600004328218166057603F4A8354C36004619E
:100D7000446183610377F8BD6503001060310110A1
:100D8000510400100C040000FD0800101C040000B9
:100D90006404000074040000410500108404000095
:100DA000CC040000DC04000081040010EC0400000E
:100DB00034050000440500005503001054050000F0
:100DC0009C050000AC05000095060010BC05000065
:100DD000040600001406000028080000B1070010F7
:100DE000240600006C0600007C060000D104001000
:100DF0008C060000D4060000E4060000580800003D
:100E00002407000034070000040700000C0700005E
:100E10006C0700007C0700004C070000540700002E
:100E2000B4070000940700009C07000008080000B9
:100E3000FC070000DC070000E4070000643101103B
:100E40001408000018080000EC3001102C08000005
:100E50003808000070310110440800004808000004
:100E6000803101105C08000068080000036A70B55A
:100E70009C6A0021201C05F0C7F9FE21431E984101
:100E80006400640805008905201C05F0C5F90028E8
:100E900005D00748290001220AF050F970BD054924
:100EA000201C05F07AF905F0EFF980B2F2E7C046B0
:100EB000FF0F000000F07F45436D70B59C6A002174
:100EC000201C05F0A1F9FE21431E9841640064082E
:100ED00005008905201C05F09FF9002805D007486A
:100EE000290000220AF02AF970BD0549201C05F0EE
:100EF00054F905F0C9F980B2F2E7C046FF0F0000CF
:100F000000F07F4510B501200AF0EAF810BDC04698
:100F1000A62070B5800006F0BFFA030028330362F4
:100F2000343343658023C0649022C0500023F824EA
:100F30002D498350083A8150043280504832835002
:100F40002A49043283500C32815004328350284D98
:100F5000E73A0251083C0551022504340051483457
:100F60000351043403510C3401510434035110343F
:100F70000551204D083C05510434005148340351BB
:100F8000043403510C340151DC2104004900435066
:100F90008834483144500C3943500C3144182C39B2
:100FA00044500431425004314354113C60314350A9
:100FB000FF3C0C31445044182C39445004318224F5
:100FC00042500421A40001517C3403510400A423A5
:100FD00059349B00FF34C450C4182C3BC450043314
:100FE000C250183BC15070BD050F00106031011098
:100FF0006D0E0010B90E0010F0B5C64605000600D3
:1010000080211F4A040000B5D06884350006000F17
:1010100054360130490053680B42FCD10138176A3D
:101020000028F8D18021D068154A0004000F7F42C3
:101030000130890053680B42FCD10138536A002803
:10104000F8D15B423000E767984607F071FE236EE7
:10105000002B04D001223000E16F07F011FC434661
:101060002800AB6207F064FEEB68002B05D0AC23D0
:1010700001222800E15807F003FC80BCB846F0BD0F
:1010800000002050F0B5D6464F4646460025C0B574
:101090003D4C8AB020003D4905F084FC022320002D
:1010A00008220021009505F085FD0022012108207D
:1010B00001F028FC00220121092001F023FC8026F8
:1010C000F827C02376021B037F0202A9102206A87C
:1010D0009A46049302960397059505F091F92C4BD7
:1010E00006A9102202A89946079305F089F98023E2
:1010F000DB020593274B2000039380231B039846B4
:101100000493002202AB002105F0ACFD012223680C
:101110002000134323600121022300950B3205F0C8
:1011200049FD002201210C2001F0ECFB00220121ED
:101130000D2001F0E7FB534602A9102206A80493F4
:1011400002960397059505F05BF94B4606A9102218
:1011500002A8079305F054F9C023DB0205930E4B58
:1011600000220393434601210493200002AB05F0C3
:1011700079FD02222368134323600AB0E0BCBA461B
:10118000B146A846F0BDC04600002050883101108D
:1011900080770100807701088077010C862070B588
:1011A000800006F079F9030028330362C02200238F
:1011B00094242049C0648350083A815004328050FE
:1011C000483283501C49043283500C32815004321F
:1011D0008350183AFF3A194D64000251083C0551FA
:1011E0000434005148340351043403510C34015188
:1011F000C021040049004350B834483144500C39F0
:1012000011344350FF3420394450043142500431EA
:101210004354603143500100842321319B00FF314E
:10122000C150C1182C3BC1500433C250183BC250AE
:1012300070BDC0468510001060310110F90F00101C
:101240008823F0B5076AC5583433C4583B7D466DD2
:1012500083B0002B0CD1337D002B1AD12B7D002BBA
:1012600028D1237D002B36D109F0D6FA03B0F0BD8A
:1012700000238022002100200093103309F01EFA81
:10128000012300220021B86A08F0F2FF337D002B11
:10129000E4D000238022102100200093103309F0B5
:1012A0000DFA012310220021B06A08F0E1FF2B7D26
:1012B000002BD6D000238022202100200093103361
:1012C00009F0FCF9012320220021A86A08F0D0FFD0
:1012D000237D002BC8D000238022009330210020E2
:1012E000103309F0EBF9012330220021A06A08F045
:1012F000BFFFB9E7084B10B51A78002A00D010BD1F
:1013000001321A7008F03AFF044808F031FF00205B
:1013100008F040FFF3E7C046B9190020C45001109F
:10132000CA2070B5800006F0B7F8030028330362C6
:101330003433436502008023C0649032C0500833C8
:10134000C2502C33C05034320833C2502C33C050FA
:10135000F8220023B02430498350083A81500432E7
:101360008050483283502D49043283500C328150D2
:1013700004328350503AFF3A294D64000251083C30
:1013800005510434005148340351043403510C34E2
:101390000151DC21040049004350F03448314450ED
:1013A0000C3943500C3144182C394450043142500C
:1013B0000431435460314350A83C0C31445045182B
:1013C0002C3945500431822542500421AD00415151
:1013D0007C3543510C35445146192C3D465104355A
:1013E0004251183D41517C3543510C354451461909
:1013F0002C3D465104354251183D41517C354351F5
:10140000C8239B00C450C4182C3BC4500433C250A2
:10141000183BC15070BDC046F5120010603101107C
:1014200041120010942010B5400006F035F803007A
:10143000283303628E2300225B00C064C250343B19
:101440000132C25010BDC046F0B5070004000600CE
:10145000050087B003A9194809F0D4FA039B543753
:10146000E367380007F064FC236E8436B435002B44
:1014700004D001223800E16F07F002FA049B30002B
:10148000B362019307F054FCF368002B05D0AC2342
:1014900001223000E15807F0F3F9059B2800AB6208
:1014A00007F046FCEB68002B05D0DC230122280066
:1014B000E15807F0E5F907B0F0BDC0465418002028
:1014C000054B10B51A78002A00D010BD0132034830
:1014D0001A7009F04DFAF8E7BA19002054180020E4
:1014E000922070B5800005F0D7FF03002833036217
:1014F000F0220023AC242049C0648350083A815074
:1015000004328050483283501C49043283500C32DC
:10151000815004328350483AFF3A194D6400025119
:10152000083C05510434005148340351043403513C
:101530000C340151D821040049004350E8344831AB
:1015400044500C3911344350FF3420394450043195
:1015500042500431435460314350010090235131D3
:101560009B00FF31C150C1182C3BC1500433C25005
:10157000183BC25070BDC046C1140010603101104C
:1015800049140010036BF0B54F4699466423D646C4
:101590009A4680B5050083B08244806805F0AAFDB4
:1015A000AB6AEC6A06000F0000930194002C36DD54
:1015B0004B46696A986A04F0D9FD009A019B041CA5
:1015C00039003000801A994104F014FD174A184B75
:1015D00004F057FC04F03AFD011C201C04F0DDFD72
:1015E000FC21890504F0D9FD296A04F0BFFD2862B9
:1015F0008C242851504607F09BFB2B6F002B04D006
:1016000001225046295907F03BF94B469B6AAE62CE
:10161000EF626B6203B0C0BCBA46B146F0BD002CAD
:1016200001D1002BC4D1286AE2E7C04695D626E84E
:101630000B2E113EA42010B5400005F02DFF030035
:1016400038330363A02200231049C0658350083A51
:10165000815004328050483283500D490432835007
:101660000C328150043283503C32835002004133AB
:10167000FF339832C250C2182C3BC25001220433AF
:10168000C250183B0332C25010BDC0468515001031
:1016900060310110036A70B504000500986A04F017
:1016A00065FC0A4B0A4A04F0ECFB04F0CFFC54350D
:1016B000E067280007F03CFB236E002B04D00122DA
:1016C0002800E16F07F0DCF870BDC046405F9C3F2A
:1016D00030F3AF219C2010B5400005F0DDFE030083
:1016E00028330362902200231049C0648350083AD3
:1016F000815004328050483283500D490432835067
:101700000C328150043283503C328350020031331A
:10171000FF338832C250C2182C3BC250012204331E
:10172000C250183B0332C25010BDC046951600107F
:10173000603101102823426AD25C083BC2547047D2
:10174000202370B5C35C0400002B3BD12123C35C74
:10175000002B1CD009F0F8FB2000B43003001C491A
:101760000B435B071CD18B1CC31A042B18D94A8866
:101770000B8812041A43CB888D881B042B4302600C
:1017800043600B892838038607F0D2FA70BD09F050
:10179000A3FB2000B43003000E490B435B07E2D0EB
:1017A000B42320000A888C30E2524A880233E25285
:1017B0008A880233E252CA880233E2520A8902332B
:1017C000E252E1E709F0B6FA21230122E254DDE713
:1017D00078180020601800208A2070B5800005F07D
:1017E0005BFE03002C33436234338365842300653E
:1017F000D022C05000239C241E498350083A8150B7
:1018000004328050483283501B49043283500C32DA
:10181000815004328350283AFF3A184D6400025137
:10182000083C055104340051483403510434035139
:101830000C340151C8210400490043503C3143504D
:10184000C8340C31445044182C39445004314250AF
:10185000183942507C3143500100882331319B00BC
:10186000FF31C150C1182C3BC1500433C250183B4A
:10187000C25070BD351700106031011041170010C3
:1018800010B50021002007F08DFB10BD7047C04649
:101890000A4B01211A68002300B589B0069305930D
:1018A00004910293019314310533039100930021B5
:1018B000023B034807F04AF909B000BD1C130020A1
:1018C00000100020014B0360012070470010002031
:1018D000F0B5DE4657464E464546E0B5A1B0FFF7A7
:1018E000EDF8D222FE4B9200984683605B6E821820
:1018F0001A60FC4B00210362FB4B0400436200238F
:1019000099464A468362C362F84B82630363C263AB
:10191000002382648265C82242661A00436303641E
:101920004364C36403654365C36503668366C36636
:101930000367436783677C33C254E2230022DB00E2
:10194000C31819605A60E3230021DB00C318E8487C
:10195000802718605960DE214346C90062180021C3
:10196000DB6DE4481A60E44A0026A150EB21C9006F
:101970006218002110605160EC21C900621800203B
:10198000002110605160E721C900621800215A60EF
:10199000DA4A0020A150F421C90062180021106029
:1019A0005160F521C90062180021D5483F0610603A
:1019B0005160F021C90062189A60D24B0225E218EA
:1019C000D14B6D42E250E2239B00E3181E605F6042
:1019D000FC239B00E3181E605F608B23DB00E31891
:1019E0001E605F609823DB00E3181E605F60A52324
:1019F000DB00E3181E605F60B223DB00E3181E60AB
:101A00005F60BF23DB00E3181E605F60CC23DB0058
:101A1000E3181E605F60D923DB00E3181E605F607F
:101A200043462200DB6F0C325B681A60FFF770FAE6
:101A30004346020083605B6E8832456285655A606A
:101A40000300C8339E66DF661E605F6068339E6673
:101A5000DF660790FFF7A2FB434680218360455075
:101A60003031455001005B6EB8314562996003002A
:101A7000F8331E605F609E66DF668346FFF750FCAA
:101A8000434683608C2345628565C5503433C55019
:101A9000434601005B6EF030D8600B003133FF33FA
:101AA0001E605F609E66DF660491FFF7BBFC03006B
:101AB0004046986080201D5030301D5030301D5001
:101AC0005D621093FFF70CFD4246B02182608022D8
:101AD00082468550455041464B6E51460200E020FB
:101AE000E83115505562196140310E604F608E66C5
:101AF000CF666831FFF79EFD4146816090214550D9
:101B0000494603004563016241620021002098625A
:101B1000D9621800D830066047600593FFF78AFD48
:101B2000424682609022010085504563020048468B
:101B300008624862002000219062D1621100D83111
:101B40000E604F600392FFF775FD90220100404642
:101B500088608D504A464D630A624A6200200A003E
:101B600000219062D1621100D8310E604F60029264
:101B7000FFF7B0FD802201004046069188608D503D
:101B80004D62C8310E604F60FFF7A4FD4146816091
:101B9000802145500100C83145620E604F600190C0
:101BA000FFF71AFE4246C02182604550010009310C
:101BB0008562C565FF3103350584DC230E604F6007
:101BC0008E66CF6603279B008146E750220068316E
:101BD00003200421DF2705F041FCBF00E051220073
:101BE00004210320DE2605F039FCB600B046A051E2
:101BF000942622000421032005F030FCB446DD23A6
:101C0000A44466469B00E05008960660C026B44691
:101C1000A444664646600E96EC26B446A444664646
:101C2000643386602200E550042101200C9605F003
:101C300015FCF9229200A05004212200012005F099
:101C40000DFCF821A62689006050220004217600B0
:101C5000012005F003FCB446F723A44466469B002C
:101C6000E0501196066004266433E65022000421F9
:101C7000042005F0F3FB254A0421A0502200042093
:101C800005F0ECFB8923DB00E05022000421042056
:101C900005F0E4FB1E4B8B21E050FC235B009C46CF
:101CA0008900A4446346BC228C465200A444614689
:101CB00094460360A44412939523624641601391B5
:101CC0000C99DB008260C1601492E650220004216E
:101CD000042005F0C3FB0F4A0421A0501CE0C046BD
:101CE00000100020A412002040120020DC1100206F
:101CF00080F0FA0200286BEE2C0700007407000049
:101D00000094357758080000BC0700004C04000020
:101D100044040000B40400002200042005F09EFBEF
:101D20009623DB00E05022000421042005F096FBFE
:101D3000FE4B0899E0500E9B016043600C9B022112
:101D400083608C235B009C46A223A4446246DB0094
:101D5000C2600D92E15022000231022005F07EFBAC
:101D6000F349220060500421022005F077FBA323F1
:101D7000DB00E05022000421022005F06FFBED4B58
:101D80000021E050AA239B009C462C33A4446246C9
:101D90009C46A444634643600A93AF23DB00026081
:101DA000E1506833E650099204312200042005F026
:101DB00055FBE149220060500421042005F04EFB50
:101DC000BD22D200A05004212200042005F046FBD1
:101DD000DA4B099AE0500A9B08994360C9230260D4
:101DE0000D9ADB008160C2600421E65022000420CD
:101DF00005F034FBD24E2200A0510421042005F04E
:101E00002DFB043EA05122000421042005F026FBF6
:101E1000099ECC4B0D9AE05006600A9EC260466057
:101E2000089E6433866003202200E050042105F000
:101E300015FBC54B2200E0500421032005F00EFBEA
:101E4000D723DB00E05022000421032005F006FB2D
:101E5000BE4B0896E0500A9B866043600026B02384
:101E6000099A31000260079AE020D6506833D650B4
:101E70005B468136FF3691511950A4235A465B00C8
:101E80000231D150DE38023105F0E8FAAA235A4671
:101E90005B00D0500421022005F0E0FAA8225B4646
:101EA0005200985004215A46022005F0D7FAA62382
:101EB000594668225B00C850B43B5B4403605A44F7
:101EC00015938C23426016920022504604995B00C1
:101ED000CA50083B8A51C2505146032068335246CB
:101EE000C850042105F0BAFAC22351465B00C8501D
:101EF00052460421032005F0B1FA53465246985148
:101F00000421032005F0AAFABE2356465B00F050D8
:101F100068265644066017969826564446601896DA
:101F2000C826564486601996C026059B04219D51FB
:101F30001E001A00012005F091FA3300CC269851BA
:101F40001E001A000421012005F088FA3300C8267B
:101F50001A00985104210120059305F07FFAC02250
:101F6000059B043E98517833036003980421855003
:101F7000020001201A9305F071FACC230399C8508E
:101F80000A000120042105F069FAC821039A505083
:101F9000C439012005F062FA039A04219051783285
:101FA00002601B92C022029885500200012005F0B9
:101FB00055FACC22029988500A000120042105F02C
:101FC0004DFAC823029A0421D050012005F046FAA8
:101FD000029A042190511600783606601C96B026AD
:101FE0000698855102000600012005F037FABC2151
:101FF00032007050B839012005F030FAB8233200B1
:10200000F05004210120069605F028FAB426B021EC
:10201000069B98516833036001981D934550020058
:10202000AC39012005F01AFABC21019A5050B83998
:10203000012005F013FAB821019A5050B43901205B
:1020400005F00CFA0199F02388510E0068360660FD
:102050001E96AC26494600207600C8504A468D514F
:102060000120042105F0FAF9B22349465B00C8506B
:102070004A460421012005F0F1F9B02349465B00EE
:10208000C8504A460421012005F0E8F9AE2349462C
:102090005B00C850A02149440160A022A420A550A3
:1020A0002450303228302550A4502832A550043214
:1020B000A450A551E450A833E5500433E450303324
:1020C000E550B8300433E45025504046B43BE4506A
:1020D000643BE5500433E4508D33FF33E550043363
:1020E000E4502833E5500433E450235822001F9174
:1020F0001D600421012005F0B1F9E35922001860A8
:102100004046235804215D60012005F0A7F9E359FA
:10211000220058604046235804219D60012005F0AC
:102120009DF90499E3598C4612E0C046AC040000C6
:102130001C05000014050000EC050000E40500008B
:10214000540600004C060000BC060000B406000067
:10215000753F1A68FF3F674498600B971760942794
:102160005B68BF0067441F60B846A627BF0067448E
:102170000760F8208000235822001D600421012000
:1021800005F06CF9F9229200A3584A469932FF32C1
:10219000186002608920C000235822001D600421BD
:1021A000012005F05BF9FE49220063580E0018601B
:1021B0008920C000235804215D60012005F04EF9FC
:1021C000A359220058608920C000235804219D6033
:1021D000012005F043F9A359220098608920C0002E
:1021E00023580421DD60012005F038F95946A35930
:1021F000D1311A68FF31D860116080215A68890096
:10220000514411604A469B68E132FF321A60076010
:102210009620C0002358060022001D6004210120E2
:1022200005F01CF9DF492200635804211860A35906
:1022300001205D6005F012F9DA492200635804219B
:1022400058609620C000235801209D6005F006F9D3
:10225000D44922006358042198609620C000235876
:102260000120DD6005F0FAF8CE49012663580B998C
:102270001A68D860116041465A689B6811601F60F7
:10228000049BB8279C46BF0067440760A320C0009A
:10229000235822001D60042101200F9705F0DEF86D
:1022A000C14F2200E35904211860A320C000235825
:1022B00001205D6005F0D2F8079AE3598227944621
:1022C0005860BF001B686744B8461F609427BF0072
:1022D00067440760BD20C000235822001D60042110
:1022E000012005F0BBF8B1492200635804211860B1
:1022F000BD20C000235801205D6005F0AFF8AB4958
:102300002200635804215860BD20C00023580120DA
:102310009D6005F0A3F8A549220063580421986048
:10232000BD20C00023580120DD6005F097F89F49CB
:10233000635841461A68D86011605A680B99176053
:102340009B680F9A19600260CA20C00023582200BF
:102350001D600421012005F081F895492200635891
:1023600004211860CA20C000235801205D6005F0D8
:1023700075F88F492200635804215860CA20C000B4
:10238000235801209D6005F069F8894922006358AF
:1023900004219860CA20C00023580120DD6005F0A8
:1023A0005DF88349635841461A68D86011605A68DD
:1023B0000B9917609B680F9A19600260D720C000C4
:1023C000235822001D600421012005F047F87949B7
:1023D0002200635804211860D720C0002358012030
:1023E0005D6005F03BF87349220063580421586092
:1023F000D720C000235801209D6005F02FF86D49BB
:10240000635841461A6898605B6811601F600B9FB3
:10241000594607605F4658467D67BF67A427C55188
:102420000437C051A82040000B5850385A461D6050
:102430000421FF3805F012F8AA215A4649005358E2
:1024400051391860A8204000135850385D60FF399A
:10245000FF3805F003F8AA215A4649005358069A56
:1024600058601B68F0321A60D4220199D823F031E9
:1024700001601098A4218067C05185505546C05016
:102480006E67AD676E50ED51C0277F00AE50ED50C6
:10249000EB5952461E60A0390120C22504F0DEFF30
:1024A00051466D004B5952461860CB5901205E6071
:1024B000042104F0D3FF51464B5952465860CB5982
:1024C00057469E600421012004F0C8FF7B59059FF8
:1024D0001A68791CFF319860116003995B684A1C87
:1024E000FF321A60029A8825531CFF33036084234D
:1024F0007F514951D6504433D358525104211E6064
:102500000120170004F0AAFFCC230297FB58922762
:10251000BF001860E3190360B8230198069F804646
:10252000C358BF6702004667806704211E60012010
:1025300004F094FFBC274346BE210193DB59890078
:102540001860631803604846AC23C6500433C0507B
:10255000B033C3584A461E600421012004F07EFFB8
:10256000B22349465B00CB5821009931FF311860F6
:102570000160A520079A800023182C3013622318CD
:102580002000E530FF305365030058465A46036289
:1025900054300300069E01988432036232620BE0DD
:1025A0004C040000B40400001C050000EC05000011
:1025B00054060000BC0600002200049980320A6222
:1025C000631D2C324A65FF332C324A51CB515D37A3
:1025D000FF37E3195746059D3B62543791232F631C
:1025E0000500039A30371763029A303717639B0050
:1025F0006432E2505435AC33E55025003935FF35AF
:102600002B004D466B6225006535FF352B004D468E
:10261000AB65C8238C355B00E550A04B17985B6B0E
:102620000122186018981C9D586019980C999860A0
:102630000E985D61D8611198089D586212981A9E93
:102640009D611962099D0D9998621398DE60D862A8
:102650001B9E149859639D6316990A9D1E61186309
:102660001964DD63159D1E9E5D641D9DDE649D6481
:102670001F9D01261D65D823D6259B00E118002348
:10268000AD000A604B606119854D76420D604E6069
:10269000F226B600A1190A604B600121012781488A
:1026A000083EA5194942703628606960A119932532
:1026B000083E0A604B60A1197B4E7F420E604F605E
:1026C0000126ED006119083D0A604B606119774DE4
:1026D00076420D604E60A021C90061180A604B600F
:1026E0009F21C9006518012171484942286069602D
:1026F000AD21C90061180A604B60AC21C9006518A2
:1027000001216C48494228606960BA21C9006118FA
:102710000A604B60B921C900651801216648494229
:1027200028606960C721C90061180A604B60C62132
:10273000C900651801216148494228606960D421B7
:10274000C90061180A604B60D3210798C9008C4604
:102750000127010001255A4E64447F4226606760CC
:10276000A0314F4C0A604B606D4208390C604D60DF
:1027700001250A674B67534C411CFF316D4269309C
:102780000C604D600A674B67FF30012106005C4614
:102790004D4801274942306071605846404ED03460
:1027A000226063607F42083C26606760049F393086
:1027B0003C00FF300260436001210838060001251B
:1027C000424809344942FF343060716022606360DE
:1027D0007E1C334CFF366D42346075603C00012531
:1027E0007134FF34226063606937364CFF376D42C5
:1027F0003C607D60544601270134FF34284E22603E
:1028000063607F42083C26606760059F22676367BC
:102810006834206061603C000126244D039FB03481
:10282000226063607642083C256066603C00029F3F
:10283000B03422606360083C256066603C00069FFF
:10284000B03422606360083C256066603C00019FF4
:10285000A03422606360083C256066603C00A034C0
:1028600022606360083C256066604C46E03422606C
:102870006360A266E3664B4601270B4E4133083C7A
:102880007F42FF33266067601860596021B0F0BC5A
:10289000BB46B246A946A046F0BDC0460010002087
:1028A0000000FFFF0100FFFF0200FFFF0400FFFF29
:1028B0000500FFFF0600FFFF0700FFFF0800FFFF06
:1028C0000900FFFF0A00FFFF0B00FFFF0300FFFFEF
:1028D0007047C046094A830094464022634410B5BD
:1028E0001C68C0006240C02414408022520113437F
:1028F0001C60034B9C466044416010BD04C0014015
:10290000004001400A4B80009C460423604400299B
:1029100001D00C230821002A00D10B00026853408B
:102920000C221A4080235B01184302607047C046A6
:1029300004C001400123D0228340120693629361B8
:10294000094A83009446402263441968C0004A4003
:10295000C02111408022520113431960034B9C4651
:10296000052360444360704704C0014000400140BB
:10297000024B18688007C00F7047C04600C0064071
:10298000EFF3108072B6034A1368002BFCD0BFF33C
:102990005F8F70472C0100D0BFF35F8F0022024B86
:1029A0001A6080F3108870472C0100D070B5EFF3E7
:1029B000108C72B60D4D2B68002BFCD0BFF35F8FCF
:1029C0000724CB08C618C05C01230C40A3401C00A0
:1029D0000440034207D103433370BFF35F8F2C6081
:1029E0008CF3108870BD100001F04CFC2C0100D05D
:1029F000F8B54746CE46884680B5EFF3108C72B6E0
:102A0000214D2C68002CFCD0BFF35F8F9A422CD84C
:102A1000D4080727055D061901241740BC402C4245
:102A20001FD007210127894609E0D408055D061952
:102A30004C4639001440A1400C00294211D001320B
:102A40009342F2D201204042BFF35F8F00220E4B2F
:102A50001A608CF3108800280FDBC0BCB946B04662
:102A6000F8BD2C4310003470EEE7BFF35F8F0023F6
:102A70002B608CF31088012040424346002BECD0A1
:102A8000089801F0FFFBC0462C0100D00021044B48
:102A9000044ABFF35F8F02C39342FAD17047C04626
:102AA000000100D0800100D0044A1078431CDBB242
:102AB000172B00D9102313707047C046F80300206D
:102AC00000B5054B83B00100009318221F23034873
:102AD000FFF78EFF03B000BDC0310110D4130020FA
:102AE00001238340002904D0034A1360034A136082
:102AF0007047034A1360FBE780E200E000E100E07A
:102B000080E100E0024B10309B688000C0587047A5
:102B100000ED00E070B50D00EFF3108672B60F4ABD
:102B20001368002BFCD0BFF35F8F0D4B10309B68F8
:102B300084001B590B4A934203D09D4201D001F0FF
:102B4000B9FB074B9B681D51BFF35F8FBFF35F8FCE
:102B50000022024B1A6086F3108870BD240100D059
:102B600000ED00E0CD010010F0B5DE4657464E46C0
:102B70004546E0B50C0083B0EFF3108972B6584AB1
:102B80001368002BFCD0BFF35F8F564B9A6803008D
:102B900010339F00D559544A9046954232D0A542F1
:102BA00043D0524EAA1B2F2A2CD801228240924693
:102BB00051464F4A12681140019151464D4A1160E9
:102BC000BFF35F8FEFF305829346002A33D10123D1
:102BD0002A009A4393689C4208D177E04B005B1827
:102BE0009B00F3189968A1422AD01A000621515679
:102BF0000029F3DA019B002B19D052463E4B1A6094
:102C00003B4B1A60374B9B68DD51BFF35F8FBFF3BF
:102C10005F8F0022324B1A6089F3108803B0F0BC3A
:102C2000BB46B246A946A046F0BD1500EAE75246AB
:102C3000304B1A60E6E79342C9D001F03BFBC6E790
:102C400006215956002921DB4A005018800034180B
:102C50008046A0689860E079D87106202056987167
:102C6000002824DBA488F01A6405241544440019C4
:102C7000E0240005400D24022043988052181F4B89
:102C80009200B6181A781970B271B3E75946002944
:102C90000FD1FF3191711A49918018490A789A71C0
:102CA000184A9B1B5B415A43120D0A70A2E7164853
:102CB000E3E7164A1649D21A083A5002400D01437A
:102CC0009980144952080A43DA8093E70621515645
:102CD00013000029B8DA5A46002AEAD14546DCE753
:102CE000240100D000ED00E0CD010010FC03002025
:102CF00000E100E080E100E080E200E0BF19002098
:102D000001BDFFFFAAAA000001BD0000360400209B
:102D100000F0FFFF00F8FFFF70B5EFF3058101241D
:102D20000443EFF3108C72B6214A1368002BFCD0D9
:102D3000BFF35F8F1F4B05001F4AED1A6D416A43B9
:102D4000120D1E4D8900AE6852B27658A6421CD0B4
:102D50000621595691421CD012215956914222D037
:102D60001E215956914220D02A21595603249142BE
:102D700010D0134B19781A708171BFF35F8F002246
:102D80000B4B1A608CF3108870BDAB680D4C5C5017
:102D9000EFE700246100091989005B18FF21997190
:102DA00009499980E5E70124F4E70224F2E7C046E7
:102DB000240100D0FC030020AAAA000000ED00E0DE
:102DC000BF190020CD01001001BDFFFF054B064AD1
:102DD0001360064A136053609360D36013615361BC
:102DE000936170478080808000E400E004E400E0AC
:102DF00070B504000E001500FFF756FE010020001C
:102E000000F006F8A680E580BFF35F8F70BDC04676
:102E1000024B9C46614489000160704740000034C9
:102E200010B50400FFF740FE01002000FFF7F0FF9F
:102E3000FF232371BFF35F8F10BDC04610B50400A0
:102E4000FFF732FE01002000FFF7E2FFFF23A3801F
:102E5000BFF35F8F10BDC04610B504000120FFF71F
:102E60002FFE044B9C46604480002060BFF35F8FC0
:102E700010BDC0464000003483680B4810B584463E
:102E800061446244090112019A18591854684B6848
:102E900001209C4201D802D00020C0B210BD1268AF
:102EA0000B689A42F9D8F7E7FFFFFF0F0A4B196842
:102EB000EFF3108072B60A68002AFCD0BFF35F8F70
:102EC0001B68BFF35F8F00221A6080F3108840BF39
:102ED000002000217047C0469C190020F8B55746D5
:102EE0004E464546DE46E0B599460CAB1C780DAB28
:102EF0001B78060090469A460768002C11D1BC7BCF
:102F0000002C42D065003B682D19033D59194B78C0
:102F1000BB73002B00D1FB7300238B704B700B70C5
:102F200004E065003B682D19033D5919B2682A4B2E
:102F300094464246E3181B0163441A604A465A60AD
:102F40000A9A9A600B9ADA6000238B704B700B70B0
:102F50007B7B9B46002B2BD022005946B8687B68B0
:102F600098473A68002816D05B4658465B005B4499
:102F70005519033BA870D118D35C002B00D06B709F
:102F80005B460C707B73A34513D0F0BCBB46B246C6
:102F9000A946A046F8BD5B465B005B44033BD318E3
:102FA0009C705119525D002A00D05A705B460B701C
:102FB0007C7342464B46307D00F0B2FB051E06D0C6
:102FC0005346002B03D12100306800F0CDFD0E9B4D
:102FD000002BDAD01D70D8E7FFFFFF0FF0B5DE46FB
:102FE00057464E4645460023E0B58BB00893674BE5
:102FF0008200D45800239B46099000F007FB6268CA
:1030000006000F00EFF3108572B61368002BFCD09A
:10301000BFF35F8F23689C465B7B9946002B00D1F2
:1030200069E0A2685A4B90464B441B0198444346C2
:103030001A685B6810001900801BB941002900DC88
:1030400063E0099800F06CFB0023002298460023FF
:103050000692079300239A466368BFF35F8F5A4630
:103060001A6085F310885346002B08D10028C4D17C
:103070000BB0F0BCBB46B246A946A046F0BD089BCB
:10308000414618024B461843D047626806000F00BD
:10309000EFF3108572B61368002BFCD0BFF35F8F7F
:1030A000002F50DB33003B4302D02369002B61D15A
:1030B0002368D97B002907D04A00521819688C462A
:1030C00049466244033A51709A7B002A01D14A462C
:1030D0009A734A46DA734B46E168013BCA5C013297
:1030E000CA545B4623616368BFF35F8F5A461A6018
:1030F00085F3108881E7002300229846002306927A
:103100000793002300209A46A6E7002902D1002851
:1031100000D096E70021604600F0A4FC43461A6800
:103120005B680692079343469B689A464346DB6872
:103130009846E3684B44013B1B7808931B0203430A
:103140002361002088E72369002BB1D0069A079BF2
:10315000921BBB41002B15DB5946049101210391C1
:103160004946029141460191514620000091FFF7E6
:10317000B5FEB6E700F04AFA32003B0012184B41A8
:10318000002BE9DA0122034B5242E5E784180020C4
:10319000FFFFFF0FFFFFFF7F10B5144C6368002B8C
:1031A00004D00A211248FFF733FE10BD2300114A54
:1031B0001021206800F070FB032000F01BFA0320B0
:1031C00000F018FB03200C4900F064FAFFF76CFCD8
:1031D0000A4B9C4603232375D0231B061B686044BF
:1031E0006375074B80006060DC60DAE74404002010
:1031F0009C190020792E0010DD2F001040000034B3
:1032000084180020F0B54E464546DE465746E0B5E8
:1032100085B0019310AB1B780600039300239946F9
:10322000984600927268EFF3108B72B61368002B09
:10323000FCD0BFF35F8F3568AC7B002C3DD06700BE
:103240002B683F19033FDB195A78AA73002A00D173
:10325000EA73B168474A8C4600980199A218120196
:103260006244106051600E9991600F99D16042469E
:103270009A705A701A706B7B9A46002B67D02200A6
:103280001900A8686B6898472A68002852D05346EE
:1032900050465B005344D719033BB870D118D35C38
:1032A000002B00D07B7053460C706B7354454FD08D
:1032B000F3681B19013B187800E000207368BFF326
:1032C0005F8F42461A608BF31088002C4FD04B461C
:1032D000002B08D10002204305B0F0BCBB46B2462B
:1032E000A946A046F0BD039B002B3ED00E9B0020BC
:1032F0000F999847030004000D000B4335D00029B7
:103300000ADA009A019B121BAB4100920193002B39
:103310000ADB039B994685E700F078F924184D41B4
:1033200000940195002DF4DA0123134C5B420093C5
:103330000194EEE753465B005344033BD3189C7063
:10334000D119D25D002A00D05A7053460B706C73AD
:10335000307D009A019B00F0E3F981460028A7D058
:103360002100306800F000FCA2E70020B4E7012053
:103370004042B1E7FFFFFF0FFFFFFF7FF0B5040002
:103380000D0006267642F717C64636196F4100B57E
:1033900084B08F4214D811D000F038F932003B00CD
:1033A000121A8B41002B15DC002B3ED02000290087
:1033B00000F060F904B080BCB846F0BD8642EBD99D
:1033C0000026002700F022F932003B00121A8B4140
:1033D000002BE9DD002302930193154B320000938B
:1033E00014483B00FFF70EFF0028DFDB0023984660
:1033F000BC46114A114F7B6A9C4504D8B96A8E427B
:10340000D4D99C45D2D11168EFF3108072B60B6805
:10341000002BFCD0BFF35F8F1368BFF35F8F414673
:10342000196080F3108820BFE5E7002ABED0D1E7FD
:10343000AD2E0010440400209C19002000400540DF
:1034400070B504000D0000F0E1F800196941002991
:1034500002DBFFF793FF70BD012001494042F8E70E
:10346000FFFFFF7FF0B5EFF30583CE46474680B5FB
:1034700005000C0085B0002B12D02C4A0020536AA6
:103480009C4203D8926A0130AA4204D305B0C0BC62
:10349000B946B046F0BDE01A421E9041C0B2F5E711
:1034A000234E02930193234B0200009330000B0044
:1034B000FFF7A8FE031EE0DD20BF7168EFF3108761
:1034C00072B60A68002AFCD0BFF35F8FDAB2944666
:1034D0003068427B62451DD0FF221A405100894668
:1034E0000168914488464946414403398978002956
:1034F00013D0F1681B0A88464244013A1278DBB2C5
:103500009A420FD07368BFF35F8F00221A6087F36F
:103510001088B2E7FF221A40EBE732699342F1D1FB
:103520003161EFE7614600F01FFBEBE7004005402B
:1035300044040020AD2E0010F0B5EFF30582D6460E
:103540004F4646461000C0B51038EFF3108872B6EB
:10355000214C2368002BFCD0BFF35F8F012319009F
:1035600081401E4D1F006963AA461D4D29601D4DF7
:103570002E78AC463500C5402F402B4209D1BFF311
:103580005F8F276088F31088E0BCBA46B146A84632
:10359000F0BD5346144D5F6A83005D59AF420ED3B0
:1035A000124A8E439B5862461670BFF35F8F00220B
:1035B000226088F31088002BE6D09847E4E70C4B94
:1035C00092009C46624413681360BFF35F8F002330
:1035D000236088F31088D7E7280100D00040054019
:1035E0003C700540C2190020A01900204C13002097
:1035F000D03F054010B50100024A0348FFF7D6F955
:1036000010BDC046E8310110BB190020034B596AB8
:103610000A00986A596A8A42FAD170470040054008
:1036200070B504000D00124A536A1900966A536A75
:103630008B42FAD13000190024184D41AB4211D809
:103640000ED02B000A494A6A9A42FCD307D1084A95
:1036500002E0516A994202D1916AA142F9D370BD48
:10366000A642EED9012301246442E5175B42E9E753
:1036700000400540064A536A9942FCD807D1044BE2
:1036800002E05A6A914202D19A6A8242F9D37047A3
:103690000040054070B504000D00EFF3108672B6CF
:1036A0001A4A1368002BFCD0BFF35F8F002D1BD08C
:1036B0002000FFF727FA164981420AD02000FFF7C1
:1036C00029FA01212000FFF70BFA0123A340114A38
:1036D0001360114BA400E550BFF35F8F00220B4B2A
:1036E0001A6086F3108870BD0B4BA200D5500122E2
:1036F000A2400A4920000B7893430B700449FFF75E
:1037000033FA00212000FFF7EBF9E5E7280100D0AC
:1037100039350010386005404C130020C2190020D4
:10372000F0B54F46D6464646C0B507002C4C616AF8
:103730000D00A66A616AA942FAD18B4208D805D069
:103740000120E0BCBA46B146A846F0BDB242F7D966
:10375000EFF3108A72B6234801680029FCD0BFF34A
:103760005F8F0125BD4020491D4C88460978894658
:103770002943C9B28C46414660460870391D1B4832
:10378000890065630A51B9000B50216A0020294263
:1037900019D0616A0800A66A616A8142FAD18B4237
:1037A00019D801D1B24216D8CC4516D00C4B1F20E7
:1037B0001D625D6301230740BB400D4A1E38136044
:1037C00043464A461A70BFF35F8F0022054B1A60CA
:1037D0008AF31088B5E70020F5E70120F3E7C0463B
:1037E00000400540280100D0C2190020A019002087
:1037F00080E200E0EFF3108C72B60A490B68002BF0
:10380000FCD0BFF35F8F01238340074A0748136250
:1038100002789A430270BFF35F8F00230B608CF332
:1038200010887047280100D000400540C2190020D0
:1038300070B5050014001600002915D00C00002AF0
:1038400012D080686B689847296800280ED07300F2
:103850009B196200033B1219CB18033A9C7088181D
:103860008A5C002A15D10670200070BD63001B1908
:103870007200033B9219CB18033A9E7088188A5C39
:10388000002A02D104703400EEE75A70047034004C
:10389000EAE75A700670E7E730B583600023CCB2E0
:1038A00043730133047342608373C4730D00006873
:1038B000012C06D9421C0133DBB2137003329C4247
:1038C000F9D1FF2129404B00591800234018033833
:1038D000437030BDF8B5CE46474606000C0080B5B3
:1038E000002907D04D0003686D18033D5A19577819
:1038F000002F04D12000C0BCB946B046F8BD790005
:10390000C9190339884643445978894600215970BA
:10391000517073683A002100806898473368002826
:1039200014D042469A18947059195B5D002B00D050
:1039300053700F70270049463000FFF7CBFF390066
:1039400002003000FFF774FF0400D3E7424641460F
:103950005D19AF709A185B5C002B00D06B7014700F
:10396000E9E7C046F0B557464546DE464E46E0B567
:103970000D006B0001685B19DF1E0400C85D83B099
:103980000192CA19002850D043001B18033BCB18E2
:103990005E78B446002E1AD1019E002E42D0E67BFE
:1039A000002E04D073009B19CB18033B5D70A37BE2
:1039B000002B00D1A573E57300282FD1002353708D
:1039C00003B0F0BCBB46B246A946A046F0BD7200AB
:1039D0006244033A89184A78904600224A70914618
:1039E0005A70010032002000FFF722FF4346824652
:1039F000002B07D05B0021684344033BCB185A7867
:103A0000002A16D1424651462000FFF711FF2168D7
:103A1000019BCA19002BC2D10028CFD043001B182C
:103A2000033BCB1800219970C8E7019B002BB6D14E
:103A3000C4E7500080180338091848788346484680
:103A40004870587041462000FFF7F2FE5946804604
:103A50002000FFF73FFF414602002000FFF7E8FE8D
:103A60008046CFE7F0B557464546DE464E46E0B5C0
:103A700083B00191457B04006B0000685B19DF1E79
:103A8000C15DC219002952D04B005B18033BC3181B
:103A90005E78B446002E1CD1019E002E44D0E67BF9
:103AA000002E04D073009B19C318033B5D70A37BE9
:103AB000002B00D1A573E573002931D10023280024
:103AC0005370617303B0F0BCBB46B246A946A04632
:103AD000F0BD72006244033A80184278904600229A
:103AE000427091465A7020003200FFF7A1FE434613
:103AF0008246002B07D05B0021684344033BCB1870
:103B00005A78002A17D1424651462000FFF790FE0E
:103B1000019B01002068C219002BC0D10029CDD023
:103B20004B005B18033BC31800209870C6E7019B4D
:103B3000002BB4D1C2E75000801803380918487828
:103B4000834648464870587041462000FFF770FE93
:103B5000594680462000FFF7BDFE41460200200086
:103B6000FFF766FE8046CEE770B5040000292CD032
:103B7000437B8B422ED00568480040180338281834
:103B80008278002A21D053009B18033BEA5CEE1890
:103B90008A4202D11BE0002A08D053009B18033B45
:103BA000EB185A788A42F6D142785A7000230122E3
:103BB000837043702000FFF7D5FE617B0200200078
:103BC000FFF736FE6073012000E0002070BD4378EF
:103BD0003370EBE701221900FFF7C4FE6073012088
:103BE000F4E7C046F8B5CE464746040080B5062047
:103BF0000E0000F023FA051E51D0524B5249E21834
:103C000053425A418023DB039C4692054F4B62444A
:103C10001A604F4B1A6010008B689843FBD1494BD8
:103C20008021E3185A4253414A4A5B0049009952A5
:103C3000062000F003FA3100C00001F0C3FEC30902
:103C400032D14022012190466162A362256BEB07CD
:103C500036D427008026E36A00232C3776013E43C2
:103C600033600620256300F0E9F94146800001F049
:103C7000A9FE236B05009846DB073BD46022E36A6C
:103C80005A406E231340336043462363802310223F
:103C90009B013B431A60304B23630323A36428003A
:103CA000C0BCB946B046F8BD2C4A93423FD9002368
:103CB0002B492C4A6162A362256B9046EB07C8D55D
:103CC0002200C02330329B011343234A06201A608E
:103CD000666AA26AB601B61800F0B0F9224901F08E
:103CE00071FEB6020100300001F06CFE0021FFF70A
:103CF00097FCAEE72200C02330329B011343164AE3
:103D000006201A60636AA26A9B019946914400F0FA
:103D100095F94B4614499B02994601F053FE010068
:103D2000484601F04FFE0021FFF77AFCA6E77F220C
:103D30009901884610400130400819008044030072
:103D400082E7C0460080FCBF00C0004000E00040A9
:103D500000F00040B019002001030000FEFF000049
:103D6000FFFF0000C0FF3F004E0E000030B50C20EA
:103D700083B000F0B9F9FEF7FBFD00280ED0994B97
:103D8000994A1A605A609A60DA601A615A619A61B7
:103D9000DA611A62954A5A6203B030BD944CA0674A
:103DA00000F0AAF90122934B1A60636C012BFCD13D
:103DB0000322914B1A608E4A936B012BFCD1013385
:103DC00001218E4A8E480093043300F03DF905230B
:103DD0008C4A009301218C4800F036F98B4B5A68CD
:103DE000FF2A02D8802252005A6080227D4C824BEA
:103DF00021691201854D1A60002907D0606901F020
:103E0000E1FD431C5800C0180338FDD2E0217F4B70
:103E100002201A681140802252012A431160196859
:103E2000484003210140116004219A681142FCD0EE
:103E30008022802192012A430901116080225200D0
:103E40005A60734B2361734B5968FF2900D85A603D
:103E50000321684A6F4B116002399A681142FCD005
:103E6000E0201A681040802252011A43106018683E
:103E70004840032101400220116066498A681042CF
:103E8000FCD0802292011343802212011A6080220A
:103E9000614B52004A606361604B5968FF2900D84A
:103EA0005A6080225E4BE16912015C4D1A60002964
:103EB00007D0606901F086FD431C5800C018033824
:103EC000FDD2E02255490B681A4080235B012B4349
:103ED0001A60802380229B012B4312011A608022EA
:103EE000414B52004A60E3614E4B5968FF2900D8AC
:103EF0005A6080224C4B216A12014A4D1A600029F7
:103F000007D0606901F05EFD431C5800C0180338FB
:103F1000FDD2E02243490B681A4080235B012B430A
:103F20001A60802380229B012B4312011A60802398
:103F300080225B004B602C4BD20223623B4B5968C2
:103F4000914200D25A608022394B616A1201374D8A
:103F50001A60002907D0606901F034FD431C580045
:103F6000C0180338FDD2E02230490B681A40802384
:103F70005B012B431A60802380229B012B4312019B
:103F80001A608023DB024B60184B6362294B5A682E
:103F9000FF2A02D8802252005A608022264BA16953
:103FA0001201244D1A60002907D0606901F00AFD52
:103FB000431C5800C0180338FDD2E0221D490B688D
:103FC0001A4080235B012B431A60802380229B01CF
:103FD0002B4312011A6080235B004B600E4BA361E0
:103FE000DAE6C046D8130020006CDC021BB70000E4
:103FF000008000403CB0004030B00040002F6859C5
:1040000000800240008C864700C0024030800040A3
:10401000001BB7003C8000404059730754800040AB
:1040200054B000406080004060B000406C800040B0
:104030006CB000404880004048B00040014B800018
:10404000C0587047D8130020F8B5040021481D005F
:1040500017000E0001F0B6FC0100380001F0B2FCC0
:10406000069B29041B0319432368002B20DB1A4BF2
:104070001A4DE21853425A4180235B019C461203B9
:10408000174B62441A60174B1A601700AB689F43C6
:10409000FBD1C022231D92011A4321232660A06078
:1040A00013602368002BFCDA0823E1601360F8BD7D
:1040B0003F2322681340B342D9D1A3681B051B0DCF
:1040C0008342D4D1EE22E368D20213408B42CED198
:1040D000EDE7C046001BB7000040FDBF00C0004038
:1040E00000E0004000F000408023024A9B000343B0
:1040F000D362704700800540AA23064A1B01136063
:104100002F230549D360054B19605368002BFCDA57
:104110007047C0460040024000B0FA000060024014
:104120002C4B2D4A70B51A602C4A2D4B2D491A6024
:1041300014008B689C43FBD12B4D2C4EB54208D20A
:10414000013E761BB60808CD984723000134B342E0
:10415000F9D1FFF70BFE264A214B1A60214A9368DA
:10416000DB43DB01DD09002BF9D14022214B224C3E
:10417000224E9A675A671A67DA66B44208D22368F1
:104180002000002B20D00834FEF758FEB442F6D3AE
:104190001B4E1C4CC022A168300002F031F9A66011
:1041A000FEF774FCFEF712FEFEF7F6FF164C174EF4
:1041B000B44208D2013E361BB60808CC98472B0003
:1041C00001359E42F9D170BD0834FEF729FEB44294
:1041D000D5D3DDE700E00040BFCDFBFEFE7F3C0015
:1041E00000F0004000C00040D00E0020E00E002093
:1041F000FFFFFF0100F00140C00E0020D00E0020A4
:104200000000002000ED00E0E00E0020E40E0020A1
:1042100000BEFDE7094A03001068002805D00849E0
:10422000C3188B4207D81360704706480449C31867
:1042300010608B42F7D901204042F5E7501800206A
:1042400000000420C419002010B5FFF7E1FFC046AC
:1042500010B50C0082B01900002A0AD0064B01925A
:10426000009302002300054801F00CFB0120FFF73A
:10427000CFFF034B1A00F2E70C3201101C32011081
:10428000143801100FB400B5084883B002F01CFACE
:10429000049B002B07D005A91800019101F012FB27
:1042A000034802F011FA0120FFF7B2FF4C3201106F
:1042B000D039011010B50148FFF7E4FF5C3201105E
:1042C0009A4200D2885470477047C046F8B55746A6
:1042D0004E464546DE46E0B599460A9B07009A469B
:1042E0000D9B8846934615000B9E9B0710D10C9B97
:1042F0009E420DD29D1B14000E005D4422004B46D1
:10430000013431002020B847A542F7D1B0460B9EBA
:10431000002E27D0444675195346AA1B013E985DCE
:1043200021004B46B847002EF6D123002C009846BA
:104330000D9B9B070FD55B46E51A0C9BAB420AD938
:104340004646984622004B46310020200135B847AA
:104350000134A845F6D82000F0BCBB46B246A946B9
:10436000A046F8BD2C00E3E7F0B54F464646D646DA
:10437000C0B584B098460EAB1B78129F9946944600
:104380000D9C109B119EBA0725D4002E4BD19C4248
:1043900000D3BFE001223A4092461F2C00D9B8E07A
:1043A0000C9A551E302201E0202C03D001342A55EE
:1043B000A342F9D85246002A0DD0A6420BD9202C90
:1043C00044D00C9A551E302201E0202C3ED00134FE
:1043D0002A55B442F9D1FA064DD57A053FD4002CBE
:1043E00039D10F9B102B00D179E00F9B022B00D10C
:1043F0008AE030230C9A012413704B46002B3FD0E7
:104400002D230C9A135501340C9B6246009303979D
:10441000434602960194FFF759FF04B0E0BCBA4648
:10442000B146A846F0BD012215003D40AA463A42D9
:104430002FD04A46002A02D10C323A4200D0013E27
:104440009C42BAD21F2CABD9202E27D92024FA06A1
:10445000DAD57A0503D4A3422DD0A6422BD00F9BE8
:10446000102B32D0022B20D0202CCDD030220C9B10
:104470001B191A700134202CC6D04B46002BBFD11B
:104480007B070DD43B07BFD520230C9A135501346D
:10449000BAE79C429FD21F2C00D881E720249AE7DC
:1044A0002B230C9A13550134AEE7202CACD00C9B77
:1044B0001B1901343AE0631E012C92D00F9A102A86
:1044C0002AD0022A2FD01C00D0E7BB060ED4202C05
:1044D0009AD00C9B1A19013478231370C4E7BB06D9
:1044E0000DD478230C9A01241370BFE7202C00D13F
:1044F0008AE758220C9B1B191A700134B4E7582321
:104500000C9A01241370B1E70C9A603301241370E4
:10451000ACE7202400265EE7023CBA06E9D40C9AF8
:1045200012191C00D8E70C9A9246534462221A7062
:104530009AE7C04610B5002800D110BD02F078F807
:10454000FBE7C0460B0010B5002802D049681B6885
:10455000984710BDF0B5DE4657464E464546E0B595
:104560009BB09B46249B89469846259B0B900C92BA
:104570004046424619009A4601F0E5FC002800D06A
:10458000D8E0012240465146774B524201F0D6FC1A
:10459000002800D0CEE0012240465146734B5242E3
:1045A00001F0B6FC002800D0C4E000220023404601
:1045B000514601F0ADFC002800D0B9E14246534617
:1045C0000A9209938023289ADB001A400E92289AB7
:1045D0001A4201D1062326930A9A099B1600134317
:1045E00000D0C7E0289B002500261B0500D49BE1D6
:1045F00000230D93269A0D9B9A4200DC9FE1D01A6E
:10460000431E26938023289ADB001A4300230027A9
:1046100028920D93279B0024BB4200D9DC1B022368
:10462000289A1A400E92289A134203D07B427B416B
:104630005B421C400D9B002B07D00A9809992A0069
:10464000330001F004FC0A90099100220023404647
:10465000514601F05DFC002805D08020000684460C
:10466000099961440991289A414B0B9D1340049389
:10467000269B0A9A0293099B039400920193494650
:104680005B4628000C9A00F08BF90400002F62D0E2
:10469000289B220098061F23C0179843631C984646
:1046A00049465B466530A8470D9B0025DA179C18E4
:1046B000DB0F9A465440013F01E0202D13D00AAA97
:1046C00094461F23200063440A2101355E1901F03E
:1046D00079F93031317020000A2101F073F9260098
:1046E0000400092EE9D805230693002304930A3316
:1046F0000393534605970B9F029312AB00934246D8
:104700005B46494638000195FFF72EFE0E9B0400DC
:10471000002B20D00C9BC51A279BAB421BD91E0037
:1047200022005B46494620200135B8470134AE429D
:10473000F6D810E0289B42460493279B49460393F2
:10474000269B0B9802935346009201935B460C9A6A
:1047500000F026F9040020001BB0F0BCBB46B246B6
:10476000A946A046F0BDC046FFFFEF7FFFFFEFFF69
:10477000FFF7FFFF734B099F9C467800400D604494
:1047800001F0F4FB704A714B01F07BFB704A714BF6
:1047900001F058FB3B03704A1B0B1A4304000D0049
:1047A000300011006D4B002201F047FB6C4A6D4B4D
:1047B00001F067FB02000B002000290001F042FB22
:1047C00001F0ECFB0D9001F0D1FB674A674B040050
:1047D0000D0001F056FB0022654B01F033FB01F0A8
:1047E000DDFB644A0600644B2000290001F049FB10
:1047F000040030000D000F9601F0B8FB5F4A604BDB
:1048000001F03FFB02000B002000290001F015FB26
:1048100002000B0006000F0001F033FB3200040021
:104820000D003B003000390001F00CFB002210901D
:104830001191544B2000290001F009FB0022524B3A
:1048400001F000FB02000B002000290001F0FFFA3C
:1048500000224E4B01F0F6FA02000B002000290066
:1048600001F0F5FA0D008021040032003B00002029
:10487000C90501F0E2FA02000B002000290001F056
:10488000E1FA02000B001098119901F0E0FA002201
:10489000314B01F0D7FA3E4B0F9C9C4664440022FA
:1048A000230501F0EEFA05000E0002000B000A9845
:1048B000099901F02DFB00280AD00D9B2800013B2F
:1048C00031000D930022304B01F0C1FA05000E00BB
:1048D000C6270D992B0063318F42BF4128997F4233
:1048E0000437090500D495E6334300D182E6099CDC
:1048F000284A2100284B0A9801F018FB002808D00C
:1049000000222100254B0A9801F002FB002800D06C
:1049100070E6269B002B00D17CE60E9B5A1E93412D
:10492000269AD31A269375E6002304270D9371E681
:1049300043460A9380231B065344099342E600230F
:1049400026935FE601FCFFFFFB799F501344D33FA2
:10495000B3C8608B288AC63F0000F03F0000F83FD4
:1049600061436F63A787D23F71A379094F930A40D0
:104970000000E03F1655B5BBB16B0240EF39FAFEBF
:10498000422EE63F00002C4000002440000018406A
:10499000FF0300002D431CEBE2361A3F80842E41BA
:1049A000F0B54E46DE4657464546E0B597B09946C7
:1049B000209E219F229B8346984607910C923B00A4
:1049C00032003000390001F0BEFA002800D0A9E121
:1049D000012230003900CA4B524201F099FA0028F6
:1049E00000D0E1E0012230003900C64B524201F014
:1049F000A5FA002800D0B7E0002230003900C24BF1
:104A000001F09CFA002800D099E000223000390023
:104A1000BE4B01F07DFA002800D090E00022002378
:104A20003000390001F074FA002800D0B1E0002312
:104A30000D93249B5B0501D40623984608AB9C4646
:104A40001722002430234146624404E00134135508
:104A50000139202C01D00929F8D8884630003900C6
:104A600001F09CFA4346DA00A94B05009B181A682E
:104A70005B680892099301F079FA02000B0030009C
:104A8000390001F0DAF9089A099B01F0FAF90A9065
:104A90000B9101F0A7FA824601F064FA02000B00C4
:104AA0000A980B9901F0C9F900229A4B0A900B91D0
:104AB00001F044FA002800D1C0E001239C46E24402
:104AC000504601F04FFA02000B000898099901F0D6
:104AD00025FA002802D000239A4601354346002BD0
:104AE0006AD008AB17269C4608956644554614E0E4
:104AF00001235B4243440A2128009A4600F062FFEA
:104B0000013430313719397028000A2100F05AFF7A
:104B1000092D00D8D0E0D0460500202CE8D10EABFE
:104B200098460323249A1340012B00D196E02023BA
:104B3000249A01930392239A434602921EE0249BF7
:104B400058460493239B00960197039343460C9A7F
:104B5000029307994B46FFF7FDFC17B0F0BCBB462C
:104B6000B246A946A046F0BD249B5B070ED40322A3
:104B7000694B24990192039123990291009358461D
:104B80004B460C9A0799FFF7A1FBE6E70422634B1B
:104B9000EFE73B0032000020002101F04EF9012335
:104BA00006000F000D9344E7249B0393239B02937D
:104BB000042301935A4BE1E7280001F0D7F90200E2
:104BC0000B003000390001F038F9524B002206008A
:104BD0000F0001F09DF90EAB984600280AD1002283
:104BE000300039004B4B01F0A9F9002802D1EB0746
:104BF00000D50135202C94D008AA9446172328000C
:104C000063440A2101341E1900F0B4FE303128003B
:104C100031700A2100F0AEFE051EEBD10323249A69
:104C20001340012B1BD0202C00D180E70D9B002BC3
:104C300035D02D224146631C0A5579E700220A9897
:104C40000B99344B01F064F9002800D046E7534635
:104C5000002B51D101239C46E2443FE72024239BB3
:104C6000002BE0D00D9B002B03D1249A0C33134270
:104C700002D0239B013B2393239BA342D3D908ABB0
:104C80009C46172230236244202C00D14FE7239901
:104C9000013413558C42C6D0202CF8D147E7249B11
:104CA0005B0724D4249A2300120700D440E7202273
:104CB000414601330A553BE75746089D202C00D159
:104CC0002DE7220030214046002F09D00132B15497
:104CD000202A00D123E7D3431B191B18002BF5D141
:104CE0000EAB98462E234146541C8B5482E72B2250
:104CF0004146631C0A551BE7DB0700D4EEE6A9E733
:104D0000FFFFEFFFFFFFEF7F65CDCD4165CDCDC14B
:104D1000603401100000E03F683201106C32011075
:104D200078320110249B0393239B02930323019366
:104D3000004B23E774320110F0B5DE464E4657466D
:104D40004546E0B59FB01C00289B91460993C94A8F
:104D5000C94B8B4608901A60002900D118E2002345
:104D600020789A46002800D11AE226001D005C46F1
:104D70000AE02A006F1C4B46089D2100A8473D0011
:104D800001363078002870D02528F2D110239B46B8
:104D9000083B9A46043B9846023B00219C46721C05
:104DA000107816000300203BDBB2102B03D8B34F62
:104DB0009B00FB589F460300303B092B32D9002350
:104DC0000A932A2868D0002398462E283ED0030054
:104DD000683BDBB2122B1CD8A94A9B00D3589F46D4
:104DE000012301321943DBE7634601321943D7E758
:104DF000434601321943D3E75B4601321943CFE7FB
:104E0000534601321943CBE780235B007078194386
:104E100001360300253BDBB2532BAAD8994A9B00ED
:104E2000D3589F4600270300B800C0190136400040
:104E3000C018337830381A00303A0700092AF3D9FD
:104E40000A901800002398462E28C0D1802370783D
:104E5000DB0019430300303B721C092B00D8A1E191
:104E60002A2800D1B2E11600B1E7A346AA462C00D9
:104E7000D14503D801235B424B449A464B465246E8
:104E800059460020089DA84720001FB0F0BCBB4633
:104E9000B246A946A046F0BD099B40CB0A96002E1B
:104EA00003DB50780993561C8DE728380143704284
:104EB0000A9009935078561C85E7782800D1DFE1E5
:104EC000582800D14CE26F2800D14FE3622801D16D
:104ED00000F030FC10230A009A430B92692801D09D
:104EE00000F0A9FC0A230C934B0500D5D0E10B9AE6
:104EF000802311009B0019408B461A4200D0A1E28A
:104F0000802311005B0019408A461A4200D0B6E3A4
:104F100013005B0600D5EDE2130009991B0601D4CE
:104F200000F076FC08C91BB2D8171A18424092B29A
:104F300009919346DA0F1292002B09D18023102297
:104F40000B99DB000B4091430B91002B00D0E4E266
:104F50000B9A6123920600D541230EA91F228C468D
:104F6000DBB262440A3B5F461395A34655460C9C50
:104F7000B2460D9316000AE03033DBB201357355AB
:104F8000A74200D2EDE2202D00D1EAE20700210085
:104F9000380000F017FDCBB20929EDD90D9A9446DF
:104FA0006344DBB2EAE780239B0070781943013643
:104FB0002FE77078682800D1CDE1802301361943AE
:104FC00027E770786C2800D1BFE180235B0019438C
:104FD00001361EE7462800D19BE10722099B049178
:104FE000073393430A9A19000392424602920CC96E
:104FF00008980092019309912A004B462100FFF77F
:10500000CFFC01360500BCE62A006F1C4B46089D0C
:1050100021002520A84701363D00B2E68B0700D4C9
:10502000ADE1099B2A009A466B1C9846534601CB7A
:1050300021009A46089F4B46C0B2B8470A9B9C463F
:105040006544012B00D886E2089B4746B0462600FF
:105050004C4699463A002300013731002020C847CA
:10506000AF42F7D1A1465346340046460993013674
:1050700087E6C046394D00105C18002080320110D0
:10508000C432011010330110099B04CB9B464346E8
:105090000992002B00D1C6E013789C46002B00D16A
:1050A000BDE34346013B099A0133D0180A9F130020
:1050B00001E0834203D05A780133002AF9D1099ADA
:1050C0000A979B1A0B9380230A00DB001A400C926C
:1050D000194204D00B9B434501D943460B9302234D
:1050E0001A000A400D920B4200D187E16046002869
:1050F00000D168E10C9B002B00D10DE1A844C24611
:10510000099B57465B1B9846089BB2462A0026001F
:105110004C46994609E023003100551CC8474346D8
:10512000585D002800D126E12A009742F3D1A1461C
:105130003D00340056460D9B002B00D043E15B46FA
:10514000013609931DE6099B1A0008CA9246002BF6
:1051500048D0212211438B460EA884461F2161446A
:10516000099500220F27A4460D0002E0202A0CD04A
:105170000B003C001C4020003730092C00D80738B9
:105180000132A85419090F2BF0D86446099D32E06A
:10519000DC4B2078089300239A46002800D0E4E5F1
:1051A000002465E6434606000A9F9800C0180132B5
:1051B000400080191678030030003038303B092851
:1051C000F3D93000984616000A9700E6099B02368C
:1051D00004CB9046D2434046D217104080460993F4
:1051E0003078F4E5102208009043113210438346D2
:1051F00000224905B0D55B46069308230593434634
:105200000493102303930023029316AB019200939F
:105210002A004B4621000898FFF7A6F853460500E0
:1052200001360993ADE513789C46002B00D1F7E2D7
:1052300002235B4237E7202302009A43472A04D126
:1052400080231B01194302239843452801D12023C1
:1052500019430722099B0491073393430A9A1900C3
:105260000392424602920CC9089800920193099158
:105270002A004B462100FFF76DF90136050080E555
:1052800010230C930C230A009A430B924B0503D571
:1052900001230B9A9A430B92692800D127E66428D0
:1052A00000D124E60B9A802311009B0019408B4605
:1052B0001A4200D066E1802311005B0019408A4643
:1052C0001A4200D039E213005B0600D53CE113001E
:1052D0001B0600D4A6E2099B04CB1204120C9346D1
:1052E00009935B46002B00D09AE10B9A1033110012
:1052F00099430B91520500D492E100239A460B9BEF
:1053000006930A9B0593434604930C9B0393002347
:105310000CE12023194360E6099B0A9A5B1B98461F
:105320004B4691461F00B2462600089C2A003B00CF
:105330003100A04743460135585D0028F6D14A4662
:105340003400B94656460A92F5E6C0239B00B07871
:10535000194302365DE5C023B0781943023658E59B
:105360000C230A009A4314331A43103B0B920C93FC
:105370004B058DD496E7A14634005646DBE60A9AE3
:10538000012A00D853E26B1E9F18089BB0462600E6
:105390004C4699462A002300013531002020C84799
:1053A000BD42F7D1A14634004646099B3A0001CBE5
:1053B000210098467D1C4B46089FC0B2B847434623
:1053C00001360993DDE40B9B0A9AA8469A4200D85D
:1053D000B5E694466544ED1A089B4746B04626005C
:1053E0004C4699463A002300013731002020C84737
:1053F000AF42F7D1A14634004646A0E60B9A0A997F
:10540000531C914200D814E24B199B1A1F00089BB1
:10541000B24626004C4699462A0023000135310049
:105420002020C847BD42F7D10A9BA14601330B9308
:10543000099B34001B7856469C466046002800D0E5
:1054400058E67CE60722099B0733934301329446D2
:105450009C4462465F6809921A68FB171093119387
:1054600010981199030053400E930B007B400F934B
:1054700094460E9A0F9B121A8B410E920F93FB0FBC
:105480006246129300233A439B463DD00B9A612318
:10549000920600D541230022DBB20EA90A3B8C46BE
:1054A00092460D9343461F32624413951596554616
:1054B0000E9E0F9FA24690460C9C14930CE0303237
:1054C000D2B2434601355A55BB4500D18AE1202D61
:1054D00000D18AE106000F002200002330003900CD
:1054E00000F0AEFAD2B2092AE9D90D9B9C4662447B
:1054F000D2B2E6E7FF23099904C913401A000991C3
:1055000017E5C046C94200100B9A103311009943A9
:105510000B915205BAD500239A460B9B06930A9B22
:105520000593434604930C9B0393129B02935346AB
:10553000019316AB2A00009321004B460898FEF712
:1055400013FF013605001CE4FF22099B02CB11402A
:105550008B460993C5E65346454609930136FFF746
:1055600010FC56465C46AA46139DD6E708230C93CA
:105570000B910B99642800D084E60B9B5B0500D54A
:1055800086E6B4E40722099B07339343013294462D
:105590009C44624609921A685B6810009B4613009F
:1055A0005A46134307D10B9A1033110099430B91BC
:1055B000520500D5A1E60B9A6123920600D541233E
:1055C0000022DBB20EA90A3B8C4692460D9343465D
:1055D0001F3262445F461295A34655460400B24608
:1055E00090460C9E13930DE03032D2B24346013503
:1055F0005A550023BB4200D100E1202D00D100E12B
:1056000004000F00320000232000390000F018FAD7
:10561000D2B2092AE8D90D9B9C466244D2B2E5E792
:105620000B9A6123920600D54123DBB20EA90A3BF7
:105630001F228C460D93230062445C46129517008E
:1056400055469B46B2460C9E08E03033DBB201352E
:105650007B55B4420ED3202D0CD004003100200025
:1056600000F0B0F9CBB20929EFD90D9A9446634402
:10567000DBB2ECE756465C46AA46129D3FE6099B24
:105680001A0008CAD91713925A184A409246DA0FDC
:105690001292002B08D1802310220B99DB000B40C3
:1056A00091430B91002B2BD10B9A6123920600D5CD
:1056B00041230EAA1F279446DBB20A3B0D9567448F
:1056C0005D460993A3465446B2460C9E08E030332B
:1056D000DBB201357B55B4420ED3202D0CD0040033
:1056E0003100200000F06EF9CBB20929EFD9099AF8
:1056F00094466344DBB2ECE756465C46AB460D9DF0
:105700000B9B2A0006930A9B2100059343460493B2
:105710000C9B08980393129B013602935B460193FE
:1057200016AB00934B46FEF71FFE139B0500099333
:10573000FFF727FB02230C931AE7099B04CB924641
:105740001293002A08D1802310220B99DB000B4012
:1057500091430B91002B2BD10B9A6123920600D51C
:1057600041230EAA1F279446DBB20A3B0D956744DE
:105770005D460993A3465446B2460C9E08E030337A
:10578000DBB201357B55B4420ED3202D0CD0040082
:105790003100200000F016F9CBB20929EFD9099A9F
:1057A00094466344DBB2ECE756465C46AB460D9D3F
:1057B0000B9B2A0006930A9B210005934346049302
:1057C0000C9B08980393002302935B46019316AB4E
:1057D00000934B46FEF7C8FD129B05000993013666
:1057E000FFF7CFFAB44200D871E6149B54460E96E8
:1057F0000F97AA469846159E139D8EE6A64200D89E
:10580000FBE6139B56469846AA465C46129D76E5F3
:1058100008C9D8171A1842400991FFF78AFB0023DC
:105820000B9350E4099B04CB9346099359E52F0051
:10583000BBE50B9301E6063B0C939AE60CB410B55E
:1058400084B006AC08CC0A0000940100044803941C
:10585000FFF772FA04B010BC08BC02B01847C0468B
:10586000C142001000B585B0039101210290009360
:10587000034813004A4202A9FFF75EFA05B000BDD3
:10588000454500100FB410B50C4984B006AA08CAEB
:105890000C680392002C0BD000920122084852425F
:1058A00002A9A047012004B010BC08BC04B01847EE
:1058B000180000F009FF0020F5E7C0465C18002042
:1058C0003545001010B5094A0300146884B0002C57
:1058D00008D0012200910648524203A9A0470120A6
:1058E00004B010BD00F0F0FE0020F9E75C180020C5
:1058F0003545001001480421014B18477004002071
:1059000031590010014B9B681847000070040020BB
:10591000142310B50100188804331B88984710BD64
:10592000162310B50100188802331B88984710BD54
:10593000F8B54746CE4680B50F1E19D014239946B8
:10594000043304000025012698464B461888434638
:1059500021681B88984701C4431E98410135404285
:105960000640AF42F1D13000C0BCB946B046F8BDE8
:105970000126F8E7124A936F9B0815D29066D1660C
:10598000002905D0FFE7FFE7FFE7516F106F704771
:1059900004B580210906C2175140002800D0C84331
:1059A0000DF05EFB002104BDF0B5146E556E576F0F
:1059B000166FFFF7E3FF1466556657671667F0BD6D
:1059C000000000D0114A936F9B0813D210665166F5
:1059D000002905D0FFE7FFE7FFE7516F106F704721
:1059E00004B5002801D00020C0430DF039FB002190
:1059F00004BDC046F0B5146E556E576F166FFFF7B5
:105A0000E5FF1466556657671667F0BD000000D0C5
:105A100094464A4A926F9208624601D228E0C046F4
:105A2000F0B5464E346E756E776F366F00F020F825
:105A30009446424A14665566576716676246F0BD3B
:105A400094463E4A926F9208624601D254E0C046A4
:105A5000F0B53A4E346E756E776F366F00F04CF8D5
:105A60009446364A14665566576716676246F0BD17
:105A7000002B24DB11D000293EDA00B5C943404297
:105A800000D1013100F038F8C943404200D1013162
:105A9000DB43524200D1013300BD002AEBD1002884
:105AA00001D1002905D00020C90FC90701D1C04389
:105AB000410800B50DF0BCFA0022002300BD00B57E
:105AC00000290ADBDB43524200D1013300F014F815
:105AD000C943404200D1013100BDC943404200D119
