:020000041000EA
:1000000000B5324B212058609868022188439860DF
:10001000D860186158612E4B002199600221596106
:100020000121F02299502B49196001219960352056
:1000300000F044F80222904214D00621196600F024
:1000400034F8196E01211966002018661A6600F04E
:100050002CF8196E196E196E052000F02FF8012189
:100060000842F9D1002199601B49196000215960AB
:100070001A491B48016001219960EB211966A021F2
:10008000196600F012F800219960164914480160C1
:100090000121996001BC002800D000471248134993
:1000A000086003C880F30888084703B5996A0420EC
:1000B0000142FBD001200142F8D103BD02B5186610
:1000C0001866FFF7F2FF186E186E02BD00000240BE
:1000D000000000180000070000035F00212200005C
:1000E000F4000018222000A00001001008ED00E03C
:1000F00000000000000000000000000074B24E7A12
:1001000000200420F7010010C3010010C5010010F9
:10011000C1010010C1010010C1010010C101001097
:10012000C1010010C1010010C1010010C701001081
:10013000C1010010C1010010C9010010CB01001065
:10014000CD010010CD010010CD010010CD01001037
:10015000CD010010CD010010CD010010CD01001027
:10016000CD010010CD010010CD010010CD01001017
:10017000CD010010CD010010CD010010CD01001007
:10018000CD010010CD010010CD010010CD010010F7
:10019000CD010010CD010010CD010010CD010010E7
:1001A000CD010010CD010010CD010010CD010010D7
:1001B000CD010010CD010010CD010010CD010010C7
:1001C00000BE00BE00BE00BE00BE00BEEFF3058054
:1001D000103800BEF2EB887178440110944401108D
:1001E0003402001090A31AE700201F49086006C8D7
:1001F00081F3088810471D48006800282FD10DA4FE
:100200000ECC002902D000F012F8F9E71849194A7B
:10021000002000E001C19142FCD1174988471749ED
:1002200088471749884700BEFDE701C901C29A42C5
:10023000FBD3704794440110C0000020D00E002072
:10024000A45201100000042000000420A452011058
:10025000001004200010042000000000704709482E
:1002600004F0C8FD0047000008ED00E0000000D0E9
:10027000D00E0020481900201136001089120010FD
:10028000393700105756000006005250ABB3605388
:10029000F806011006005250861C030218070110D0
:1002A000060052505422A29D200701100500525012
:1002B000DE65F468A4520110F8B5C0460448054B49
:1002C00010B5834203D0044B002B00D0984710BDDB
:1002D000D00E0020D00E0020000000000648074984
:1002E000091A8B10C90FC91810B5491003D0044B57
:1002F000002B00D0984710BDD00E0020D00E00205B
:100300000000000010B5074C2378002B09D1FFF73F
:10031000D5FF054B002B02D0044800E000BF0123AD
:10032000237010BD70110020000000003003011088
:10033000054B10B5002B03D00449054800E000BF71
:10034000FFF7CCFF10BDC046000000007411002074
:100350003003011070B5072001F064FD1B2001F08F
:1003600061FDD025182001F05DFD80232D066B6214
:1003700080231B056B6280239621104C5B046B620B
:100380008901200002F0A6FE02211C2001F01AFDC6
:1003900002211D2001F016FD192001F043FD8023EC
:1003A0009B046B62A369DB0607D41022A3691A427F
:1003B000FCD12368A3691A42F8D070BD0040034005
:1003C00086239B00F0B5C358D6464F46464698460E
:1003D000B423C0B5C35882B09946484B0600050007
:1003E00007000400006C9A4605F094F9444A009016
:1003F00001911121504604F099FC53465D37FF37B7
:10040000BB62380007F012FEFB68B936E535FF36EF
:10041000FF35002B06D0C2235B0001223800E158D3
:1004200007F0ACFB4346A16A986A05F0EAF8216C34
:1004300005F03EF900282FD000233000B36207F00A
:10044000F5FDF368002B06D0F0235B00012230009D
:10045000E15807F093FB00232800AB6207F0E6FDAC
:10046000EB68002B06D083239B0001222800E15873
:1004700007F084FB43469B6AA3624B469B6AE36298
:100480009723DB00E318A3610123237702B0E0BCCC
:10049000BA46B146A846F0BD27001A4B3137FF37A0
:1004A000BB62380007F0C2FDFB68002B06D0AC230E
:1004B0005B0001223800E15807F060FBE36B30007D
:1004C000B36207F0B3FDF368002B06D0F0235B00A6
:1004D00001223000E15807F051FBE36B2800AB62CA
:1004E00007F0A4FDEB68002BD0D083239B000122F2
:1004F0002800E15807F042FBC8E7C0465813002027
:100500003003011040030110B423426CF0B5C6580B
:1005100053009B181A019B1A374AC646904607009B
:100520000500112100B5354ADB000400404604F007
:10053000FDFB43468937FF37BB62380007F076FD85
:10054000FB68B935FF35002B06D0D8235B000122AC
:100550003800E15807F012FBE16AB06A05F051F883
:10056000071C606C43001B181801181AC00005F026
:10057000A9F8011C381C05F08DF8002819D00023BB
:100580002800AB6207F052FDEB68002B06D0F02389
:100590005B0001222800E15807F0F0FAB36AE36239
:1005A0009423DB00E318A3610123237780BCB846C2
:1005B000F0BD2600124B3136FF36B362300007F033
:1005C00035FDF368002B06D0AC235B000122300020
:1005D000E15807F0D3FAE36B2800AB6207F026FD81
:1005E000EB68002BE2D0F0235B0001222800E158E9
:1005F00007F0C4FADAE7C0464413002048030110AC
:1006000054030110F0B54E464546DE465746E0B568
:100610000E002F4905008B69DB061FD43423994651
:10062000333B9C460133984600239B46294BFC27CD
:1006300010229A46C46CBF0510008B6918401A42FC
:10064000FAD10B68DBB2212B0ED0622C03DC3355C0
:10065000EB6C5C1CEC648B691A42EDD0F0BCBB46C1
:10066000B246A946A046F0BD3055E864686A0378F2
:10067000302B01D153462B634378302B02D100231A
:10068000EB634378312B03D1FA239B05EB6343786B
:10069000322B01D1EF634378332B02D1FD239B052D
:1006A000EB634B466446EC542F640379302B07D040
:1006B000312B01D11733EC54434600246B64CAE755
:1006C00058461833E854434600246B64C3E7C046D9
:1006D000004003405C030110F8B50700030001224D
:1006E000040006007C335437451D1A70380007F0AB
:1006F0009DFC236E8836FF35002B04D00122380084
:10070000E16F07F03BFA23000122B0331A7030008A
:1007100007F08CFCF368002B05D0B02301223000D9
:10072000E15807F02BFA374B9B69DB0652D5616A1B
:10073000354805F045FB354E636A354A11213000D6
:1007400004F0F4FA3100334805F03AFB2800AE62B9
:1007500007F06CFCEB68002B06D096235B000122AF
:100760002800E15807F00AFA3423E35C002B1BD081
:100770004823E35C002B22D0D0231B065A681206C4
:100780002DD580229A61D0231B065A68D2012DD420
:10079000802252045A61D0231B065A6812012DD4BC
:1007A000802212055A6109E0D02380221B069A613B
:1007B000802212059A61802252049A61F8BDD023EA
:1007C00080221B065A61802212055A61802252043F
:1007D0005A61F3E72000616AFFF714FFA7E7802260
:1007E0005A61D0231B065A68D201D1D58022520407
:1007F0009A61D0231B065A681201D1D580221205B6
:100800009A61DBE700400340680301106C1300208D
:1008100070030110780301109A20D0B5C00005F0D4
:10082000B9FF022180234942C1508033C150EA23DD
:100830009B00C218F823C25002002C3BF832C25071
:100840000023EC22D0248350EB3A0251E4340151CE
:100850005C34015158340151D02189004418E039E9
:10086000445044182C394450203143501C394250D4
:10087000434C4031435008394450B3240431405074
:1008800048314350043143503E49A40001510434DF
:1008900003513D4E10340251083C065102260434E7
:1008A000005148340351043403510C3401510434D1
:1008B000035110340651354E083C0651E8260327F3
:1008C0000434005148340351043403510C340151B1
:1008D0000534FF340419B6008451103687512C4F6B
:1008E000083E87510436805148368351043683517F
:1008F000284E002781519721C9004618B03946502B
:10090000254943506D39FF3946187931FF3146503A
:100910004618224946500431425021494254BD39BB
:10092000FF3946189321C90046501E4943500C31E7
:1009300046181D494650043142501C4A30318354F8
:1009400002000C3242501A4E1A4946500026043119
:1009500041180E604F609621C9004354083142503F
:100960001549164A81500432821816605760992240
:10097000D2008354C3600461446183610377D0BDB6
:100980005503001080030110D9060010C1030010A8
:1009900009050010040400004404000024040000C1
:1009A0002C0400008C0400006C040000740400009F
:1009B0005C030110A404000084030110BC040000C7
:1009C000036A70B59C6A0021201C04F069FEFE21B8
:1009D000431E98416400640805008905201C04F04A
:1009E00067FE002805D007482900012209F000FA17
:1009F00070BD0549201C04F01EFE04F085FE80B287
:100A0000F2E7C046FF0F000000F07F45436D70B570
:100A10009C6A0021201C04F043FEFE21431E9841E5
:100A20006400640805008905201C04F041FE0028CC
:100A300005D007482900002209F0DAF970BD054900
:100A4000201C04F0F8FD04F05FFE80B2F2E7C0461F
:100A5000FF0F000000F07F4510B5012009F09AF962
:100A600010BDC046A62070B5800005F093FE0300BF
:100A700028330362343343658023C0649022C0501E
:100A80000023F8242D498350083A815004328050C5
:100A9000483283502A49043283500C328150043248
:100AA0008350284DE73A0251083C05510225043491
:100AB000005148340351043403510C3401510434BF
:100AC000035110340551204D083C055104340051A8
:100AD00048340351043403510C340151DC21040027
:100AE000490043508834483144500C3943500C314C
:100AF00044182C3944500431425004314354113CC1
:100B000060314350FF3C0C31445044182C39445060
:100B10000431822442500421A40001517C34035149
:100B20000400A42359349B00FF34C450C4182C3B48
:100B3000C4500433C250183BC15070BD590A001054
:100B400080030110C10900100D0A0010F0B5C6465F
:100B50000500060080211F4A040000B5D0688435D6
:100B60000006000F54360130490053680B42FCD197
:100B70000138176A0028F8D18021D068154A00048E
:100B8000000F7F420130890053680B42FCD10138CD
:100B9000536A0028F8D15B423000E767984607F0B7
:100BA00045FA236E002B04D001223000E16F06F0DD
:100BB000E5FF43462800AB6207F038FAEB68002BEC
:100BC00005D0AC2301222800E15806F0D7FF80BCF5
:100BD000B846F0BD00002050F0B5D6464F46464618
:100BE0000025C0B53D4C8AB020003D4905F0FCF819
:100BF0000223200008220021009505F059F9002267
:100C00000121082001F0F6F800220121092001F05D
:100C1000F1F88026F827C02376021B037F0202A981
:100C2000102206A89A46049302960397059504F0AD
:100C300027FE2C4B06A9102202A89946079304F020
:100C40001FFE8023DB020593274B200003938023A4
:100C50001B0398460493002202AB002105F080F9A3
:100C60000122236820001343236001210223009501
:100C70000B3205F01DF9002201210C2001F0BAF819
:100C8000002201210D2001F0B5F8534602A91022DF
:100C900006A8049302960397059504F0F1FD4B46D0
:100CA00006A9102202A8079304F0EAFDC023DB0284
:100CB00005930E4B00220393434601210493200029
:100CC00002AB05F04DF902222368134323600AB0FA
:100CD000E0BCBA46B146A846F0BDC0460000205070
:100CE0009403011080770100807701088077010C60
:100CF000862070B5800005F04DFD030028330362A7
:100D0000C022002394242049C0648350083A8150B3
:100D100004328050483283501C49043283500C32D4
:100D2000815004328350183AFF3A194D6400025141
:100D3000083C055104340051483403510434035134
:100D40000C340151C021040049004350B8344831EB
:100D500044500C3911344350FF342039445004318D
:100D60004250043143546031435001008423213107
:100D70009B00FF31C150C1182C3BC1500433C250FD
:100D8000183BC25070BDC046D90B00108003011043
:100D90004D0B00108823F0B5076AC5583433C4588A
:100DA0003B7D466D83B0002B0CD1337D002B1AD1D7
:100DB0002B7D002B28D1237D002B36D108F0AAFEF5
:100DC00003B0F0BD002380220021002000931033E7
:100DD00008F0F2FD012300220021B86A08F0C6FBEA
:100DE000337D002BE4D000238022102100200093CB
:100DF000103308F0E1FD012310220021B06A08F051
:100E0000B5FB2B7D002BD6D0002380222021002093
:100E10000093103308F0D0FD012320220021A86A9E
:100E200008F0A4FB237D002BC8D000238022009370
:100E300030210020103308F0BFFD012330220021B3
:100E4000A06A08F093FBB9E7084B10B51A78002A9E
:100E500000D010BD01321A7008F00EFB044808F0F3
:100E600005FB002008F014FBF3E7C0464119002001
:100E7000AC220110CA2070B5800005F08BFC030085
:100E8000283303623433436502008023C064903208
:100E9000C0500833C2502C33C05034320833C250D3
:100EA0002C33C050F8220023B02430498350083A34
:100EB000815004328050483283502D49043283508F
:100EC0000C32815004328350503AFF3A294D64006D
:100ED0000251083C05510434005148340351043494
:100EE00003510C340151DC21040049004350F0341B
:100EF000483144500C3943500C3144182C3944507B
:100F0000043142500431435460314350A83C0C3109
:100F1000445045182C394550043182254250042153
:100F2000AD0041517C3543510C35445146192C3D9F
:100F3000465104354251183D41517C3543510C35E1
:100F4000445146192C3D465104354251183D4151FA
:100F50007C354351C8239B00C450C4182C3BC4505B
:100F60000433C250183BC15070BDC046490E00103A
:100F700080030110950D0010942010B5400005F07D
:100F800009FC0300283303628E2300225B00C06447
:100F9000C250343B0132C25010BDC046F0B507000C
:100FA00004000600050087B003A9194808F0A8FE50
:100FB000039B5437E367380007F038F8236E843614
:100FC000B435002B04D001223800E16F06F0D6FDC5
:100FD000049B3000B362019307F028F8F368002BFC
:100FE00005D0AC2301223000E15806F0C7FD059B77
:100FF0002800AB6207F01AF8EB68002B05D0DC2361
:1010000001222800E15806F0B9FD07B0F0BDC04646
:1010100000180020054B10B51A78002A00D010BD2A
:10102000013203481A7008F021FEF8E74219002047
:1010300000180020922070B5800005F0ABFB030083
:1010400028330362F0220023AC242049C06483507B
:10105000083A815004328050483283501C4904328F
:1010600083500C32815004328350483AFF3A194D74
:1010700064000251083C05510434005148340351C6
:10108000043403510C340151D82104004900435069
:10109000E834483144500C3911344350FF3420397E
:1010A00044500431425004314354603143500100F4
:1010B000902351319B00FF31C150C1182C3BC150CE
:1010C0000433C250183BC25070BDC046151000100A
:1010D000800301109D0F0010036BF0B54F46994639
:1010E0006423D6469A4680B5050083B08244806862
:1010F00005F07EF9AB6AEC6A06000F0000930194DC
:10110000002C36DD4B46696A986A04F07DFA009A35
:10111000019B041C39003000801A994104F0DCF96D
:10112000174A184B04F01FF904F0DEF9011C201CCB
:1011300004F081FAFC21890504F07DFA296A04F0A3
:1011400063FA28628C242851504606F06FFF2B6FFB
:10115000002B04D001225046295906F00FFD4B46C2
:101160009B6AAE62EF626B6203B0C0BCBA46B14626
:10117000F0BD002C01D1002BC4D1286AE2E7C046A3
:1011800095D626E80B2E113EA42010B5400005F0A0
:1011900001FB030038330363A02200231049C0651C
:1011A0008350083A815004328050483283500D49B0
:1011B000043283500C328150043283503C328350CD
:1011C00002004133FF339832C250C2182C3BC25048
:1011D00001220433C250183B0332C25010BDC04636
:1011E000D910001080030110036A70B504000500D7
:1011F000986A04F02DF90A4B0A4A04F0B4F804F096
:1012000073F95435E067280006F010FF236E002BB9
:1012100004D001222800E16F06F0B0FC70BDC0468A
:101220007A28323F0A02D7F69C2010B5400005F01C
:10123000B1FA030028330362902200231049C064EE
:101240008350083A815004328050483283500D490F
:10125000043283500C328150043283503C3283502C
:1012600002003133FF338832C250C2182C3BC250C7
:1012700001220433C250183B0332C25010BDC04695
:10128000E91100108003011010B50021002007F0C3
:1012900007F810BD7047C0460A4B01211A680023A9
:1012A00000B589B00693059304910293019311311F
:1012B0000533039100930021043B034806F0C4FD6D
:1012C00009B000BD04130020E80F0020014B0360AB
:1012D00001207047E80F0020F0B5DE4657464E4625
:1012E0004546E0B59BB0FFF797FA9C22FD4B920074
:1012F0009A4683605B6E82181A60FB4B0022036281
:10130000FA4B0021436200238362C3629B46F84B81
:10131000040003633423C2545B468363C3630364E2
:1013200048234264C2540833C264C2548623002254
:10133000DB00C31819605A6087230021DB00C31843
:10134000EC488222186059605346D200DB6DA21827
:101350001A60002280270026E74B3F06E2509D3BA3
:10136000FF3BE3181E605F60C6239B00E3181E600E
:101370005F60E0239B00E3181E605F60FA239B0020
:10138000E3181E605F6053462200DB6F0C325B681F
:1013900002251A60FFF766FB5346020083605B6E0E
:1013A0006D428832456285655A600300C8339E6687
:1013B000DF661E605F6068339E66DF660490FFF73D
:1013C00097FC80460200504690604046802285503F
:1013D0003032855045625046436E4046B830986082
:1013E0004030066047608666C7666830FFF742FD9A
:1013F000020050468C239060C02055629565D55000
:1014000015505046436E1000F032DA60030031335D
:10141000FF331E605F609E66DF660390FFF7ACFDE2
:101420005146B02381608021E0224550C550030021
:101430009D505D620893FFF7FDFD514605008160F8
:1014400002208021B02340426850E85053462900D2
:10145000E0225B6EE831A850686219612B002933E5
:10146000FF331E605F609E66DF66FFF78DFE5146AC
:1014700003008160022090214042585059460022CA
:10148000196259625863190000238A62CB620B000B
:10149000D8331E605F600091FFF776FE534601006F
:1014A0008360022090234042C8505B4600220B62BA
:1014B0004B6200238A62CB620B00D83348631E6004
:1014C0005F600191FFF760FE534681468360010033
:1014D000022090234042C85048634B4659460022A0
:1014E00019625962494600238A62CB624B46D8335F
:1014F0001E605F60FFF798FE534602008360130092
:10150000022080214042C833505050621E605F600C
:101510000292FFF789FE5146834681600300022054
:1015200080214042585059465862C831A6230E6067
:101530004F60002603279B00E6506833E7502200E7
:101540000421C327053005F007F9BF00E051220050
:101550000421032005F000F9043FE051220004219A
:101560006836032005F0F8F8B4469C27A444664684
:101570008C21BC464900A4446746C1238C469B008D
:10158000A444E0506146066009960426643347602F
:1015900081602200E6500A970B9104200421DD2788
:1015A00005F0DAF8BF00E05122000421042005F024
:1015B000D3F8DC218900605022000421042005F0CA
:1015C000CBF8DB239B00E050A13BFF3B9C462C3338
:1015D000A4446146A2229C465200A4446346944619
:1015E0002C32A44401600591614694464360A444B2
:1015F0000693F42362469B008160C2600791E65027
:101600000C92042122000420F72605F0A5F8B6006C
:10161000A05122000421042005F09EF8043EA051B0
:1016200022000421042005F097F8F5239B00E050E8
:10163000069B059E4360CE235B009C460660079E8A
:10164000A444634686600026B022C3600D93330035
:10165000404604998E501936FF36D0328B518B504C
:10166000A03A83504933FF33DE3AC2500421424648
:10167000022005F071F8AA22434652009850042136
:101680004246022005F068F8A82342465B00D0508D
:101690000421022005F060F8A62342465B00D050EA
:1016A0009822E43B434443600F9300234244C0210B
:1016B00002600E92039A490093511E005350113359
:1016C000FF33EE507D3968330336EE502A00FF3980
:1016D000032005F041F88236FF36A8512A00042184
:1016E00003200BE0E80F00208C12002028120020BD
:1016F000C411002080F0FA024C04000005F02CF820
:10170000043EA8512A000421032005F025F8043ED8
:10171000A851153EFF3EB4469823AC4466469C460D
:10172000C822AC4463469446AC44624606604360BB
:10173000109611930126C023826000981292C65021
:1017400002000421012005F007F8CC230099C850BD
:101750000A000120042104F0FFFFC8230099C850AB
:101760000A000120042104F0F7FFC421C022009BDD
:101770005850783303600198C03986500200012028
:10178000139304F0E9FFCC230199C8500A0001200B
:10179000042104F0E1FFC822019988500A000120C9
:1017A000042104F0D9FFC421019A5050783202601C
:1017B0004946C02014920E504A460421BF3804F016
:1017C000CBFF4946CC234A46C8500421012004F0EF
:1017D000C3FF4946C8234A46C8500421012004F0EB
:1017E000BBFF4B46C4215850B0234C3949440160DB
:1017F00002981591C65002000421012004F0ACFFAC
:10180000BC22029B042198501A00012004F0A4FF7E
:10181000B8230299C8500A000120042104F09CFF5B
:10182000B421029B5A465850683303605946B02091
:101830000E500421AF38169304F08EFF5946BC2297
:1018400088505A460421012004F086FF5946B822E8
:1018500088505A460421012004F07EFF5A46B421E4
:10186000505068225A440260AC23A8206667A467DF
:101870002650E4507833E6500433E450B033E65059
:101880000433E4502833E650A8300433E4502650A3
:10189000043024502830265004302450603B8930D6
:1018A000E650FF300433E450235817921E602200A4
:1018B000B039012004F050FFC32189006358220091
:1018C0001860C2208000235804215E60012004F0CB
:1018D00043FFC3218900635822005860C220800062
:1018E000235804219E60012004F036FFC3218900A3
:1018F000635841461A68D131FF31986011608022E7
:101900005B689200AA181A60039BA6219C46890076
:1019100061440160DC208000235822001E60042105
:10192000012004F019FFE35922001860DC20800038
:10193000235804215E60012004F00EFFE3592200C9
:101940005860DC208000235804219E60012004F0B0
:1019500003FFE35922009860DC2080002358042113
:10196000DE60012004F0F8FE0499E3598C466D3FD7
:101970001A68FF3F6744D8601897176094275A6821
:10198000BF0067441760039A822194469B688900D0
:101990006144196019970F00942189006144016026
:1019A000F6218900635822001E600421012004F002
:1019B000D3FEF7218900635822001860F6208000CA
:1019C000235804215E60012004F0C6FEF72189003F
:1019D000635822005860F6208000235804219E603E
:1019E000012004F0B9FEF7218900635822009860B5
:1019F000F620800023580421DE60012004F0ACFEB4
:101A0000F7218900635818991A68D86011605A68DC
:101A100019999B6811601F60039FB821BC46474617
:101A20008900614401607E674046BF67A821A42702
:101A3000C6514050A83143584D3942461E60FF39C7
:101A4000012004F089FEAA21434649005B58414623
:101A50001860A82040000B58503842465E600421B0
:101A6000FF3804F079FEAA21434649005B585946E5
:101A7000029A58601B68F032F0311A600160D4227B
:101A8000A821D8230898806740508650C05008008D
:101A9000D8306E67AD67EE516D50AE50ED502B589B
:101AA000070080382A001E60A439FF3804F054FE75
:101AB000C22149006B58813918603800EB598038D1
:101AC0002A005E60FF39FF3804F046FEC22149005B
:101AD0006B58813958603800EB5980382A009E6075
:101AE000FF39FF3804F038FEC2214F4649006B58D9
:101AF00000991A680131FF319860116001995B68A3
:101B00004A1CFF321A607B1C8827FF330360009851
:101B10008423C0514846C951C6504946C051C820C7
:101B20000B584A461E600421C73804F015FE4B4688
:101B3000CC215B582100B8311860016002985946E9
:101B40008067584646678067B8200B585A461E6023
:101B50000421B73804F000FE5946BB368B59653670
:101B6000FF361860A319036020000499B930FF30D4
:101B700008622C3048652000543003004046036260
:101B800054300300584603624046029E843030625F
:101B90002000BC26039A3130FF301062631D2C30C8
:101BA0005065FF332C30D35190510138FF382862F3
:101BB0002800009E01995430306330300863303083
:101BC000030048462C3703636430E05186235846AF
:101BD0009B005430E0505046436B1098139F1860A0
:101BE0001198DF60586012989860149A159F059EAE
:101BF0005F61099F1A619F610A9F5E62DF610B9FAF
:101C0000069A1F62079E0C99169F9A62DE621963FC
:101C10001F640D990F9E0E9A179F59639E63DA6396
:101C20005F64A223A0279B000122E1180023BF00CC
:101C30000A604B60E1190127594E7F420E604F60E8
:101C4000BC27BF00E1190A604B6001215548083FDD
:101C5000E6194942703730607160E1190A604B60E3
:101C600001215148083FE6194942703730607160E0
:101C7000E119083FBC46012704984C4E0A604B60AE
:101C8000644401007F42266067600127A031444E12
:101C90000A604B607F4208390E604F6001270A6777
:101CA0004B67434E411CFF317F4269300E604F60ED
:101CB0000A674B67FF30012104003E48494220601B
:101CC000616041460127D031354E0A604B60444681
:101CD00008397F420E604F60012703980A674B67FF
:101CE0000100354E3134FF347F42266067600127A2
:101CF0000931FF310A604B60294E411CFF317F42A0
:101D00000E604F6001272A4E6930FF307F420A671C
:101D10004B67066047600127691CFF31204E0A604F
:101D20004B607F4208390E604F600A674B670121A4
:101D3000009C21486135FF354942286069602100D7
:101D4000019FB0310A604B60A834390001252000A2
:101D50001A4C6D42B031046045600A604B604946E0
:101D60000298A837B0313C607D6008398A60CB604A
:101D70000C604D6001009830A0310A604B60046037
:101D8000456059465846A03198300A604B6004605F
:101D900045601BB0F0BCBB46B246A946A046F0BDAC
:101DA0000000FFFF0100FFFF0400FFFF0500FFFF31
:101DB0000600FFFF0700FFFF0200FFFF0300FFFF19
:101DC0007047C046094A830094464022634410B5D8
:101DD0001C68C0006240C02414408022520113439A
:101DE0001C60034B9C466044416010BD04C0014030
:101DF000004001400A4B80009C46042360440029B7
:101E000001D00C230821002A00D10B0002685340A6
:101E10000C221A4080235B01184302607047C046C1
:101E200004C001400123D0228340120693629361D3
:101E3000094A83009446402263441968C0004A401E
:101E4000C02111408022520113431960034B9C466C
:101E5000052360444360704704C0014000400140D6
:101E6000024B18688007C00F7047C04600C006408C
:101E7000EFF3108072B6034A1368002BFCD0BFF357
:101E80005F8F70472C0100D0BFF35F8F0022024BA1
:101E90001A6080F3108870472C0100D070B5EFF302
:101EA000108C72B60D4D2B68002BFCD0BFF35F8FEA
:101EB0000724CB08C618C05C01230C40A3401C00BB
:101EC0000440034207D103433370BFF35F8F2C609C
:101ED0008CF3108870BD100001F04CFC2C0100D078
:101EE000F8B54746CE46884680B5EFF3108C72B6FB
:101EF000214D2C68002CFCD0BFF35F8F9A422CD868
:101F0000D4080727055D061901241740BC402C4260
:101F10001FD007210127894609E0D408055D06196D
:101F20004C4639001440A1400C00294211D0013226
:101F30009342F2D201204042BFF35F8F00220E4B4A
:101F40001A608CF3108800280FDBC0BCB946B0467D
:101F5000F8BD2C4310003470EEE7BFF35F8F002311
:101F60002B608CF31088012040424346002BECD0BC
:101F7000089801F0FFFBC0462C0100D00021044B63
:101F8000044ABFF35F8F02C39342FAD17047C04641
:101F9000000100D0800100D0044A1078431CDBB25D
:101FA000172B00D9102313707047C046F803002088
:101FB00000B5054B83B00100009318221F2303488E
:101FC000FFF78EFF03B000BDCC030110801300208B
:101FD00001238340002904D0034A1360034A13609D
:101FE0007047034A1360FBE780E200E000E100E095
:101FF00080E100E0024B10309B688000C0587047C1
:1020000000ED00E070B50D00EFF3108672B60F4AD8
:102010001368002BFCD0BFF35F8F0D4B10309B6813
:1020200084001B590B4A934203D09D4201D001F01A
:10203000B9FB074B9B681D51BFF35F8FBFF35F8FE9
:102040000022024B1A6086F3108870BD240100D074
:1020500000ED00E0CD010010F0B5DE4657464E46DB
:102060004546E0B50C0083B0EFF3108972B6584ACC
:102070001368002BFCD0BFF35F8F564B9A680300A8
:1020800010339F00D559544A9046954232D0A5420C
:1020900043D0524EAA1B2F2A2CD8012282409246AE
:1020A00051464F4A12681140019151464D4A116004
:1020B000BFF35F8FEFF305829346002A33D10123EC
:1020C0002A009A4393689C4208D177E04B005B1842
:1020D0009B00F3189968A1422AD01A000621515694
:1020E0000029F3DA019B002B19D052463E4B1A60AF
:1020F0003B4B1A60374B9B68DD51BFF35F8FBFF3DB
:102100005F8F0022324B1A6089F3108803B0F0BC55
:10211000BB46B246A946A046F0BD1500EAE75246C6
:10212000304B1A60E6E79342C9D001F03BFBC6E7AB
:1021300006215956002921DB4A0050188000341826
:102140008046A0689860E079D87106202056987182
:10215000002824DBA488F01A6405241544440019DF
:10216000E0240005400D24022043988052181F4BA4
:102170009200B6181A781970B271B3E7594600295F
:102180000FD1FF3191711A49918018490A789A71DB
:10219000184A9B1B5B415A43120D0A70A2E716486E
:1021A000E3E7164A1649D21A083A5002400D014395
:1021B0009980144952080A43DA8093E70621515660
:1021C00013000029B8DA5A46002AEAD14546DCE76E
:1021D000240100D000ED00E0CD010010FC03002040
:1021E00000E100E080E100E080E200E0451900202D
:1021F00001BDFFFFAAAA000001BD000036040020B7
:1022000000F0FFFF00F8FFFF70B5EFF30581012438
:102210000443EFF3108C72B6214A1368002BFCD0F4
:10222000BFF35F8F1F4B05001F4AED1A6D416A43D4
:10223000120D1E4D8900AE6852B27658A6421CD0CF
:102240000621595691421CD012215956914222D052
:102250001E215956914220D02A21595603249142D9
:1022600010D0134B19781A708171BFF35F8F002261
:102270000B4B1A608CF3108870BDAB680D4C5C5032
:10228000EFE700246100091989005B18FF219971AB
:1022900009499980E5E70124F4E70224F2E7C04602
:1022A000240100D0FC030020AAAA000000ED00E0F9
:1022B00045190020CD01001001BDFFFF054B064A66
:1022C0001360064A136053609360D36013615361D7
:1022D000936170478080808000E400E004E400E0C7
:1022E00070B504000E001500FFF756FE0100200037
:1022F00000F006F8A680E580BFF35F8F70BDC04692
:10230000024B9C46614489000160704740000034E4
:1023100010B50400FFF740FE01002000FFF7F0FFBA
:10232000FF232371BFF35F8F10BDC04610B50400BB
:10233000FFF732FE01002000FFF7E2FFFF23A3803A
:10234000BFF35F8F10BDC04610B504000120FFF73A
:102350002FFE044B9C46604480002060BFF35F8FDB
:1023600010BDC0464000003483680B4810B5844659
:1023700061446244090112019A18591854684B6863
:1023800001209C4201D802D00020C0B210BD1268CA
:102390000B689A42F9D8F7E7FFFFFF0F0A4B19685D
:1023A000EFF3108072B60A68002AFCD0BFF35F8F8B
:1023B0001B68BFF35F8F00221A6080F3108840BF54
:1023C000002000217047C04624190020F8B5574668
:1023D0004E464546DE46E0B599460CAB1C780DAB43
:1023E0001B78060090469A460768002C11D1BC7BEA
:1023F000002C42D065003B682D19033D59194B78DC
:10240000BB73002B00D1FB7300238B704B700B70E0
:1024100004E065003B682D19033D5919B2682A4B49
:1024200094464246E3181B0163441A604A465A60C8
:102430000A9A9A600B9ADA6000238B704B700B70CB
:102440007B7B9B46002B2BD022005946B8687B68CB
:1024500098473A68002816D05B4658465B005B44B4
:102460005519033BA870D118D35C002B00D06B70BA
:102470005B460C707B73A34513D0F0BCBB46B246E1
:10248000A946A046F8BD5B465B005B44033BD318FE
:102490009C705119525D002A00D05A705B460B7037
:1024A0007C7342464B46307D00F0B2FB051E06D0E1
:1024B0005346002B03D12100306800F0CDFD0E9B68
:1024C000002BDAD01D70D8E7FFFFFF0FF0B5DE4616
:1024D00057464E4645460023E0B58BB00893674B00
:1024E0008200D45800239B46099000F007FB6268E5
:1024F00006000F00EFF3108572B61368002BFCD0B6
:10250000BFF35F8F23689C465B7B9946002B00D10D
:1025100069E0A2685A4B90464B441B0198444346DD
:102520001A685B6810001900801BB941002900DCA3
:1025300063E0099800F06CFB00230022984600231A
:102540000692079300239A466368BFF35F8F5A464B
:102550001A6085F310885346002B08D10028C4D197
:102560000BB0F0BCBB46B246A946A046F0BD089BE6
:10257000414618024B461843D047626806000F00D8
:10258000EFF3108572B61368002BFCD0BFF35F8F9A
:10259000002F50DB33003B4302D02369002B61D175
:1025A0002368D97B002907D04A00521819688C4645
:1025B00049466244033A51709A7B002A01D14A4647
:1025C0009A734A46DA734B46E168013BCA5C0132B2
:1025D000CA545B4623616368BFF35F8F5A461A6033
:1025E00085F3108881E70023002298460023069295
:1025F0000793002300209A46A6E7002902D100286D
:1026000000D096E70021604600F0A4FC43461A681B
:102610005B680692079343469B689A464346DB688D
:102620009846E3684B44013B1B7808931B02034325
:102630002361002088E72369002BB1D0069A079B0D
:10264000921BBB41002B15DB5946049101210391DC
:102650004946029141460191514620000091FFF701
:10266000B5FEB6E700F04AFA32003B0012184B41C3
:10267000002BE9DA0122034B5242E5E70C18002057
:10268000FFFFFF0FFFFFFF7F10B5144C6368002BA7
:1026900004D00A211248FFF733FE10BD2300114A6F
:1026A0001021206800F070FB032000F01BFA0320CB
:1026B00000F018FB03200C4900F064FAFFF76CFCF3
:1026C0000A4B9C4603232375D0231B061B686044DA
:1026D0006375074B80006060DC60DAE7440400202B
:1026E0002419002069230010CD240010400000347C
:1026F0000C180020F0B54E464546DE465746E0B57C
:1027000085B0019310AB1B78060003930023994614
:10271000984600927268EFF3108B72B61368002B24
:10272000FCD0BFF35F8F3568AC7B002C3DD06700D9
:102730002B683F19033FDB195A78AA73002A00D18E
:10274000EA73B168474A8C4600980199A2181201B1
:102750006244106051600E9991600F99D1604246B9
:102760009A705A701A706B7B9A46002B67D02200C1
:102770001900A8686B6898472A68002852D0534609
:1027800050465B005344D719033BB870D118D35C53
:10279000002B00D07B7053460C706B7354454FD0A8
:1027A000F3681B19013B187800E000207368BFF341
:1027B0005F8F42461A608BF31088002C4FD04B4637
:1027C000002B08D10002204305B0F0BCBB46B24646
:1027D000A946A046F0BD039B002B3ED00E9B0020D7
:1027E0000F999847030004000D000B4335D00029D2
:1027F0000ADA009A019B121BAB4100920193002B55
:102800000ADB039B994685E700F078F924184D41CF
:1028100000940195002DF4DA0123134C5B420093E0
:102820000194EEE753465B005344033BD3189C707E
:10283000D119D25D002A00D05A7053460B706C73C8
:10284000307D009A019B00F0E3F981460028A7D073
:102850002100306800F000FCA2E70020B4E701206E
:102860004042B1E7FFFFFF0FFFFFFF7FF0B504001D
:102870000D0006267642F717C64636196F4100B599
:1028800084B08F4214D811D000F038F932003B00E8
:10289000121A8B41002B15DC002B3ED020002900A2
:1028A00000F060F904B080BCB846F0BD8642EBD9B8
:1028B0000026002700F022F932003B00121A8B415B
:1028C000002BE9DD002302930193154B32000093A6
:1028D00014483B00FFF70EFF0028DFDB002398467B
:1028E000BC46114A114F7B6A9C4504D8B96A8E4296
:1028F000D4D99C45D2D11168EFF3108072B60B6821
:10290000002BFCD0BFF35F8F1368BFF35F8F41468E
:10291000196080F3108820BFE5E7002ABED0D1E718
:102920009D2300104404002024190020004005408D
:1029300070B504000D0000F0E1F8001969410029AC
:1029400002DBFFF793FF70BD012001494042F8E729
:10295000FFFFFF7FF0B5EFF30583CE46474680B516
:1029600005000C0085B0002B12D02C4A0020536AC1
:102970009C4203D8926A0130AA4204D305B0C0BC7D
:10298000B946B046F0BDE01A421E9041C0B2F5E72C
:10299000234E02930193234B0200009330000B005F
:1029A000FFF7A8FE031EE0DD20BF7168EFF310877C
:1029B00072B60A68002AFCD0BFF35F8FDAB2944681
:1029C0003068427B62451DD0FF221A405100894683
:1029D0000168914488464946414403398978002971
:1029E00013D0F1681B0A88464244013A1278DBB2E0
:1029F0009A420FD07368BFF35F8F00221A6087F38B
:102A00001088B2E7FF221A40EBE732699342F1D116
:102A10003161EFE7614600F01FFBEBE70040054046
:102A2000440400209D230010F0B5EFF30582D64644
:102A30004F4646461000C0B51038EFF3108872B606
:102A4000214C2368002BFCD0BFF35F8F01231900BA
:102A500081401E4D1F006963AA461D4D29601D4D12
:102A60002E78AC463500C5402F402B4209D1BFF32C
:102A70005F8F276088F31088E0BCBA46B146A8464D
:102A8000F0BD5346144D5F6A83005D59AF420ED3CB
:102A9000124A8E439B5862461670BFF35F8F002226
:102AA000226088F31088002BE6D09847E4E70C4BAF
:102AB00092009C46624413681360BFF35F8F00234B
:102AC000236088F31088D7E7280100D00040054034
:102AD0003C700540471900202819002034130020BD
:102AE000D03F054010B50100024A0348FFF7D6F970
:102AF00010BDC046F003011043190020034B596A72
:102B00000A00986A596A8A42FAD170470040054023
:102B100070B504000D00124A536A1900966A536A90
:102B20008B42FAD13000190024184D41AB4211D824
:102B30000ED02B000A494A6A9A42FCD307D1084AB0
:102B400002E0516A994202D1916AA142F9D370BD63
:102B5000A642EED9012301246442E5175B42E9E76E
:102B600000400540064A536A9942FCD807D1044BFD
:102B700002E05A6A914202D19A6A8242F9D37047BE
:102B80000040054070B504000D00EFF3108672B6EA
:102B90001A4A1368002BFCD0BFF35F8F002D1BD0A7
:102BA0002000FFF727FA164981420AD02000FFF7DC
:102BB00029FA01212000FFF70BFA0123A340114A53
:102BC0001360114BA400E550BFF35F8F00220B4B45
:102BD0001A6086F3108870BD0B4BA200D5500122FD
:102BE000A2400A4920000B7893430B700449FFF779
:102BF00033FA00212000FFF7EBF9E5E7280100D0C8
:102C0000292A00103860054034130020471900209D
:102C1000F0B54F46D6464646C0B507002C4C616A13
:102C20000D00A66A616AA942FAD18B4208D805D084
:102C30000120E0BCBA46B146A846F0BDB242F7D981
:102C4000EFF3108A72B6234801680029FCD0BFF365
:102C50005F8F0125BD4020491D4C88460978894673
:102C60002943C9B28C46414660460870391D1B484D
:102C7000890065630A51B9000B50216A002029427E
:102C800019D0616A0800A66A616A8142FAD18B4252
:102C900019D801D1B24216D8CC4516D00C4B1F2002
:102CA0001D625D6301230740BB400D4A1E3813605F
:102CB00043464A461A70BFF35F8F0022054B1A60E5
:102CC0008AF31088B5E70020F5E70120F3E7C04656
:102CD00000400540280100D0471900202819002095
:102CE00080E200E0EFF3108C72B60A490B68002B0B
:102CF000FCD0BFF35F8F01238340074A074813626C
:102D000002789A430270BFF35F8F00230B608CF34D
:102D100010887047280100D0004005404719002066
:102D200070B5050014001600002915D00C00002A0B
:102D300012D080686B689847296800280ED073000D
:102D40009B196200033B1219CB18033A9C70881838
:102D50008A5C002A15D10670200070BD63001B1923
:102D60007200033B9219CB18033A9E7088188A5C54
:102D7000002A02D104703400EEE75A700470340067
:102D8000EAE75A700670E7E730B583600023CCB2FB
:102D900043730133047342608373C4730D0000688E
:102DA000012C06D9421C0133DBB2137003329C4262
:102DB000F9D1FF2129404B0059180023401803384E
:102DC000437030BDF8B5CE46474606000C0080B5CE
:102DD000002907D04D0003686D18033D5A19577834
:102DE000002F04D12000C0BCB946B046F8BD790020
:102DF000C9190339884643445978894600215970D6
:102E0000517073683A002100806898473368002841
:102E100014D042469A18947059195B5D002B00D06B
:102E200053700F70270049463000FFF7CBFF390081
:102E300002003000FFF774FF0400D3E7424641462A
:102E40005D19AF709A185B5C002B00D06B7014702A
:102E5000E9E7C046F0B557464546DE464E46E0B582
:102E60000D006B0001685B19DF1E0400C85D83B0B4
:102E70000192CA19002850D043001B18033BCB18FD
:102E80005E78B446002E1AD1019E002E42D0E67B19
:102E9000002E04D073009B19CB18033B5D70A37BFD
:102EA000002B00D1A573E57300282FD100235370A8
:102EB00003B0F0BCBB46B246A946A046F0BD7200C6
:102EC0006244033A89184A78904600224A70914633
:102ED0005A70010032002000FFF722FF434682466D
:102EE000002B07D05B0021684344033BCB185A7882
:102EF000002A16D1424651462000FFF711FF2168F3
:102F0000019BCA19002BC2D10028CFD043001B1847
:102F1000033BCB1800219970C8E7019B002BB6D169
:102F2000C4E750008018033809184878834648469B
:102F30004870587041462000FFF7F2FE594680461F
:102F40002000FFF73FFF414602002000FFF7E8FEA8
:102F50008046CFE7F0B557464546DE464E46E0B5DB
:102F600083B00191457B04006B0000685B19DF1E94
:102F7000C15DC219002952D04B005B18033BC31836
:102F80005E78B446002E1CD1019E002E44D0E67B14
:102F9000002E04D073009B19C318033B5D70A37B04
:102FA000002B00D1A573E573002931D1002328003F
:102FB0005370617303B0F0BCBB46B246A946A0464D
:102FC000F0BD72006244033A8018427890460022B5
:102FD000427091465A7020003200FFF7A1FE43462E
:102FE0008246002B07D05B0021684344033BCB188B
:102FF0005A78002A17D1424651462000FFF790FE2A
:10300000019B01002068C219002BC0D10029CDD03E
:103010004B005B18033BC31800209870C6E7019B68
:10302000002BB4D1C2E75000801803380918487843
:10303000834648464870587041462000FFF770FEAE
:10304000594680462000FFF7BDFE414602002000A1
:10305000FFF766FE8046CEE770B5040000292CD04D
:10306000437B8B422ED0056848004018033828184F
:103070008278002A21D053009B18033BEA5CEE18AB
:103080008A4202D11BE0002A08D053009B18033B60
:10309000EB185A788A42F6D142785A7000230122FE
:1030A000837043702000FFF7D5FE617B0200200093
:1030B000FFF736FE6073012000E0002070BD43780A
:1030C0003370EBE701221900FFF7C4FE60730120A3
:1030D000F4E7C046F8B5CE464746040080B5062062
:1030E0000E0000F023FA051E51D0524B5249E2184F
:1030F00053425A418023DB039C4692054F4B624466
:103100001A604F4B1A6010008B689843FBD1494BF3
:103110008021E3185A4253414A4A5B0049009952C0
:10312000062000F003FA3100C00001F0BDFEC30923
:1031300032D14022012190466162A362256BEB07E8
:1031400036D427008026E36A00232C3776013E43DD
:1031500033600620256300F0E9F94146800001F064
:10316000A3FE236B05009846DB073BD46022E36A8D
:103170005A406E231340336043462363802310225A
:103180009B013B431A60304B23630323A364280055
:10319000C0BCB946B046F8BD2C4A93423FD9002383
:1031A0002B492C4A6162A362256B9046EB07C8D578
:1031B0002200C02330329B011343234A06201A60A9
:1031C000666AA26AB601B61800F0B0F9224901F0A9
:1031D0006BFEB6020100300001F066FE0021FFF731
:1031E00097FCAEE72200C02330329B011343164AFE
:1031F00006201A60636AA26A9B019946914400F016
:1032000095F94B4614499B02994601F04DFE010089
:10321000484601F049FE0021FFF77AFCA6E77F222D
:10322000990188461040013040081900804403008D
:1032300082E7C0460080FCBF00C0004000E00040C4
:1032400000F000403819002001030000FEFF0000DC
:10325000FFFF0000C0FF3F004E0E000030B50C2005
:1032600083B000F0B9F9FEF7FBFD00280ED0994BB2
:10327000994A1A605A609A60DA601A615A619A61D2
:10328000DA611A62954A5A6203B030BD944CA06765
:1032900000F0AAF90122934B1A60636C012BFCD158
:1032A0000322914B1A608E4A936B012BFCD10133A0
:1032B00001218E4A8E480093043300F03DF9052326
:1032C0008C4A009301218C4800F036F98B4B5A68E8
:1032D000FF2A02D8802252005A6080227D4C824B05
:1032E00021691201854D1A60002907D0606901F03B
:1032F000DBFD431C5800C0180338FDD2E0217F4B92
:1033000002201A681140802252012A431160196874
:10331000484003210140116004219A681142FCD009
:103320008022802192012A430901116080225200EB
:103330005A60734B2361734B5968FF2900D85A6058
:103340000321684A6F4B116002399A681142FCD020
:10335000E0201A681040802252011A431060186859
:103360004840032101400220116066498A681042EA
:10337000FCD0802292011343802212011A60802225
:10338000614B52004A606361604B5968FF2900D865
:103390005A6080225E4BE16912015C4D1A6000297F
:1033A00007D0606901F080FD431C5800C018033845
:1033B000FDD2E02255490B681A4080235B012B4364
:1033C0001A60802380229B012B4312011A60802205
:1033D000414B52004A60E3614E4B5968FF2900D8C7
:1033E0005A6080224C4B216A12014A4D1A60002912
:1033F00007D0606901F058FD431C5800C01803381D
:10340000FDD2E02243490B681A4080235B012B4325
:103410001A60802380229B012B4312011A608023B3
:1034200080225B004B602C4BD20223623B4B5968DD
:10343000914200D25A608022394B616A1201374DA5
:103440001A60002907D0606901F02EFD431C580066
:10345000C0180338FDD2E02230490B681A4080239F
:103460005B012B431A60802380229B012B431201B6
:103470001A608023DB024B60184B6362294B5A6849
:10348000FF2A02D8802252005A608022264BA1696E
:103490001201244D1A60002907D0606901F004FD73
:1034A000431C5800C0180338FDD2E0221D490B68A8
:1034B0001A4080235B012B431A60802380229B01EA
:1034C0002B4312011A6080235B004B600E4BA361FB
:1034D000DAE6C04684130020006CDC021BB7000053
:1034E000008000403CB0004030B00040002F6859E0
:1034F00000800240008C864700C0024030800040BF
:10350000001BB7003C8000404059730754800040C6
:1035100054B000406080004060B000406C800040CB
:103520006CB000404880004048B00040014B800033
:10353000C058704784130020F8B5040021481D00CE
:1035400017000E0001F0B0FC0100380001F0ACFCE7
:10355000069B29041B0319432368002B20DB1A4B0D
:103560001A4DE21853425A4180235B019C461203D4
:10357000174B62441A60174B1A601700AB689F43E1
:10358000FBD1C022231D92011A4321232660A06093
:1035900013602368002BFCDA0823E1601360F8BD98
:1035A0003F2322681340B342D9D1A3681B051B0DEA
:1035B0008342D4D1EE22E368D20213408B42CED1B3
:1035C000EDE7C046001BB7000040FDBF00C0004053
:1035D00000E0004000F000408023024A9B000343CB
:1035E000D362704700800540AA23064A1B0113607E
:1035F0002F230549D360054B19605368002BFCDA73
:103600007047C0460040024000B0FA00006002402F
:103610002C4B2D4A70B51A602C4A2D4B2D491A603F
:1036200014008B689C43FBD12B4D2C4EB54208D225
:10363000013E761BB60808CD984723000134B342FB
:10364000F9D1FFF70BFE264A214B1A60214A9368F5
:10365000DB43DB01DD09002BF9D14022214B224C59
:10366000224E9A675A671A67DA66B44208D223680C
:103670002000002B20D00834FEF758FEB442F6D3C9
:103680001B4E1C4CC022A168300002F0F9F8A66065
:10369000FEF774FCFEF712FEFEF7F6FF164C174E0F
:1036A000B44208D2013E361BB60808CC98472B001E
:1036B00001359E42F9D170BD0834FEF729FEB442AF
:1036C000D5D3DDE700E00040BFCDFBFEFE7F3C0030
:1036D00000F0004000C00040BC0E0020CC0E0020D6
:1036E000FFFFFF0100F00140AC0E0020BC0E0020E7
:1036F0000000002000ED00E0CC0E0020D00E0020E5
:1037000000BEFDE7094A03001068002805D00849FB
:10371000C3188B4207D81360704706480449C31882
:1037200010608B42F7D901204042F5E7FC170020DA
:10373000000004204819002010B5FFF7E1FFC04643
:1037400010B50C0082B01900002A0AD0064B019275
:10375000009302002300054801F00CFB0120FFF755
:10376000CFFF034B1A00F2E71404011024040110E8
:10377000F80901100FB400B5084883B002F0E4F96D
:10378000049B002B07D005A91800019101F012FB42
:10379000034802F0D9F90120FFF7B2FF54040110E9
:1037A000B40B011010B50148FFF7E4FF64040110E9
:1037B0009A4200D2885470477047C046F8B55746C1
:1037C0004E464546DE46E0B599460A9B07009A46B6
:1037D0000D9B8846934615000B9E9B0710D10C9BB2
:1037E0009E420DD29D1B14000E005D4422004B46EC
:1037F000013431002020B847A542F7D1B0460B9ED6
:10380000002E27D0444675195346AA1B013E985DE9
:1038100021004B46B847002EF6D123002C009846D5
:103820000D9B9B070FD55B46E51A0C9BAB420AD953
:103830004646984622004B46310020200135B847C5
:103840000134A845F6D82000F0BCBB46B246A946D4
:10385000A046F8BD2C00E3E7F0B54F464646D646F5
:10386000C0B584B098460EAB1B78129F994694461B
:103870000D9C109B119EBA0725D4002E4BD19C4263
:1038800000D3BFE001223A4092461F2C00D9B8E095
:103890000C9A551E302201E0202C03D001342A5509
:1038A000A342F9D85246002A0DD0A6420BD9202CAB
:1038B00044D00C9A551E302201E0202C3ED0013419
:1038C0002A55B442F9D1FA064DD57A053FD4002CD9
:1038D00039D10F9B102B00D179E00F9B022B00D127
:1038E0008AE030230C9A012413704B46002B3FD002
:1038F0002D230C9A135501340C9B624600930397B9
:10390000434602960194FFF759FF04B0E0BCBA4663
:10391000B146A846F0BD012215003D40AA463A42F4
:103920002FD04A46002A02D10C323A4200D0013E42
:103930009C42BAD21F2CABD9202E27D92024FA06BC
:10394000DAD57A0503D4A3422DD0A6422BD00F9B03
:10395000102B32D0022B20D0202CCDD030220C9B2B
:103960001B191A700134202CC6D04B46002BBFD136
:103970007B070DD43B07BFD520230C9A1355013488
:10398000BAE79C429FD21F2C00D881E720249AE7F7
:103990002B230C9A13550134AEE7202CACD00C9B92
:1039A0001B1901343AE0631E012C92D00F9A102AA1
:1039B0002AD0022A2FD01C00D0E7BB060ED4202C20
:1039C0009AD00C9B1A19013478231370C4E7BB06F4
:1039D0000DD478230C9A01241370BFE7202C00D15A
:1039E0008AE758220C9B1B191A700134B4E758233C
:1039F0000C9A01241370B1E70C9A60330124137000
:103A0000ACE7202400265EE7023CBA06E9D40C9A13
:103A100012191C00D8E70C9A9246534462221A707D
:103A20009AE7C04610B5002800D110BD02F040F85A
:103A3000FBE7C0460B0010B5002802D049681B68A0
:103A4000984710BDF0B5DE4657464E464546E0B5B0
:103A50009BB09B46249B89469846259B0B900C92D5
:103A60004046424619009A4601F0DFFC002800D08B
:103A7000D8E0012240465146774B524201F0D0FC3B
:103A8000002800D0CEE0012240465146734B5242FE
:103A900001F0B0FC002800D0C4E000220023404622
:103AA000514601F0A7FC002800D0B9E14246534638
:103AB0000A9209938023289ADB001A400E92289AD2
:103AC0001A4201D1062326930A9A099B1600134332
:103AD00000D0C7E0289B002500261B0500D49BE1F1
:103AE00000230D93269A0D9B9A4200DC9FE1D01A89
:103AF000431E26938023289ADB001A4300230027C5
:103B000028920D93279B0024BB4200D9DC1B022383
:103B1000289A1A400E92289A134203D07B427B4186
:103B20005B421C400D9B002B07D00A9809992A0084
:103B3000330001F0FEFB0A90099100220023404669
:103B4000514601F057FC002805D08020000684462D
:103B5000099961440991289A414B0B9D13400493A4
:103B6000269B0A9A0293099B03940092019349466B
:103B70005B4628000C9A00F08BF90400002F62D0FD
:103B8000289B220098061F23C0179843631C984661
:103B900049465B466530A8470D9B0025DA179C18FF
:103BA000DB0F9A465440013F01E0202D13D00AAAB2
:103BB00094461F23200063440A2101355E1901F059
:103BC00073F93031317020000A2101F06DF92600BF
:103BD0000400092EE9D805230693002304930A3331
:103BE0000393534605970B9F029312AB00934246F3
:103BF0005B46494638000195FFF72EFE0E9B0400F8
:103C0000002B20D00C9BC51A279BAB421BD91E0052
:103C100022005B46494620200135B8470134AE42B8
:103C2000F6D810E0289B42460493279B494603930D
:103C3000269B0B9802935346009201935B460C9A85
:103C400000F026F9040020001BB0F0BCBB46B246D1
:103C5000A946A046F0BDC046FFFFEF7FFFFFEFFF84
:103C6000FFF7FFFF734B099F9C467800400D6044AF
:103C700001F0EEFB704A714B01F075FB704A714B1D
:103C800001F052FB3B03704A1B0B1A4304000D006A
:103C9000300011006D4B002201F041FB6C4A6D4B6E
:103CA00001F061FB02000B002000290001F03CFB49
:103CB00001F0E6FB0D9001F0CBFB674A674B040077
:103CC0000D0001F050FB0022654B01F02DFB01F0CF
:103CD000D7FB644A0600644B2000290001F043FB37
:103CE000040030000D000F9601F0B2FB5F4A604BFC
:103CF00001F039FB02000B002000290001F00FFB4E
:103D000002000B0006000F0001F02DFB3200040042
:103D10000D003B003000390001F006FB002210903E
:103D20001191544B2000290001F003FB0022524B5B
:103D300001F0FAFA02000B002000290001F0F9FA64
:103D400000224E4B01F0F0FA02000B002000290087
:103D500001F0EFFA0D008021040032003B0000204A
:103D6000C90501F0DCFA02000B002000290001F077
:103D7000DBFA02000B001098119901F0DAFA002228
:103D8000314B01F0D1FA3E4B0F9C9C46644400221B
:103D9000230501F0E8FA05000E0002000B000A9866
:103DA000099901F027FB00280AD00D9B2800013B50
:103DB00031000D930022304B01F0BBFA05000E00DC
:103DC000C6270D992B0063318F42BF4128997F424E
:103DD0000437090500D495E6334300D182E6099CF7
:103DE000284A2100284B0A9801F012FB002808D02D
:103DF00000222100254B0A9801F0FCFA002800D08F
:103E000070E6269B002B00D17CE60E9B5A1E934148
:103E1000269AD31A269375E6002304270D9371E69C
:103E200043460A9380231B065344099342E600232A
:103E300026935FE601FCFFFFFB799F501344D33FBD
:103E4000B3C8608B288AC63F0000F03F0000F83FEF
:103E500061436F63A787D23F71A379094F930A40EB
:103E60000000E03F1655B5BBB16B0240EF39FAFEDA
:103E7000422EE63F00002C40000024400000184085
:103E8000FF0300002D431CEBE2361A3F80842E41D5
:103E9000F0B54E46DE4657464546E0B597B09946E2
:103EA000209E219F229B8346984607910C923B00BF
:103EB00032003000390001F0B8FA002800D0A9E142
:103EC000012230003900CA4B524201F093FA002817
:103ED00000D0E1E0012230003900C64B524201F02F
:103EE0009FFA002800D0B7E0002230003900C24B12
:103EF00001F096FA002800D099E000223000390045
:103F0000BE4B01F077FA002800D090E00022002399
:103F10003000390001F06EFA002800D0B1E0002333
:103F20000D93249B5B0501D40623984608AB9C4661
:103F30001722002430234146624404E00134135523
:103F40000139202C01D00929F8D8884630003900E1
:103F500001F096FA4346DA00A94B05009B181A684F
:103F60005B680892099301F073FA02000B003000BD
:103F7000390001F0D4F9089A099B01F0F4F90A908C
:103F80000B9101F0A1FA824601F05EFA02000B00EB
:103F90000A980B9901F0C3F900229A4B0A900B91F1
:103FA00001F03EFA002800D1C0E001239C46E24423
:103FB000504601F049FA02000B000898099901F0F7
:103FC0001FFA002802D000239A4601354346002BF1
:103FD0006AD008AB17269C4608956644554614E0FF
:103FE00001235B4243440A2128009A4600F05CFF0B
:103FF000013430313719397028000A2100F054FF9C
:10400000092D00D8D0E0D0460500202CE8D10EAB19
:1040100098460323249A1340012B00D196E02023D5
:10402000249A01930392239A434602921EE0249B12
:1040300058460493239B00960197039343460C9A9A
:10404000029307994B46FFF7FDFC17B0F0BCBB4647
:10405000B246A946A046F0BD249B5B070ED40322BE
:10406000694B249901920391239902910093584638
:104070004B460C9A0799FFF7A1FBE6E70422634B36
:10408000EFE73B0032000020002101F048F9012356
:1040900006000F000D9344E7249B0393239B029398
:1040A000042301935A4BE1E7280001F0D1F9020003
:1040B0000B003000390001F032F9524B00220600AB
:1040C0000F0001F097F90EAB984600280AD10022A4
:1040D000300039004B4B01F0A3F9002802D1EB0767
:1040E00000D50135202C94D008AA94461723280027
:1040F00063440A2101341E1900F0AEFE303128005D
:1041000031700A2100F0A8FE051EEBD10323249A8A
:104110001340012B1BD0202C00D180E70D9B002BDE
:1041200035D02D224146631C0A5579E700220A98B2
:104130000B99344B01F05EF9002800D046E7534656
:10414000002B51D101239C46E2443FE72024239BCE
:10415000002BE0D00D9B002B03D1249A0C3313428B
:1041600002D0239B013B2393239BA342D3D908ABCB
:104170009C46172230236244202C00D14FE723991C
:10418000013413558C42C6D0202CF8D147E7249B2C
:104190005B0724D4249A2300120700D440E720228E
:1041A000414601330A553BE75746089D202C00D174
:1041B0002DE7220030214046002F09D00132B154B2
:1041C000202A00D123E7D3431B191B18002BF5D15C
:1041D0000EAB98462E234146541C8B5482E72B226B
:1041E0004146631C0A551BE7DB0700D4EEE6A9E74E
:1041F000FFFFEFFFFFFFEF7F65CDCD4165CDCDC167
:10420000680601100000E03F700401107404011002
:1042100080040110249B0393239B029303230193A7
:10422000004B23E77C040110F0B5DE464E465746AE
:104230004546E0B59FB01C00289B91460993C94AAA
:10424000C94B8B4608901A60002900D118E2002360
:1042500020789A46002800D11AE226001D005C460C
:104260000AE02A006F1C4B46089D2100A8473D002C
:1042700001363078002870D02528F2D110239B46D3
:10428000083B9A46043B9846023B00219C46721C20
:10429000107816000300203BDBB2102B03D8B34F7D
:1042A0009B00FB589F460300303B092B32D900236B
:1042B0000A932A2868D0002398462E283ED003006F
:1042C000683BDBB2122B1CD8A94A9B00D3589F46EF
:1042D000012301321943DBE7634601321943D7E773
:1042E000434601321943D3E75B4601321943CFE716
:1042F000534601321943CBE780235B0070781943A2
:1043000001360300253BDBB2532BAAD8994A9B0008
:10431000D3589F4600270300B800C019013640005B
:10432000C018337830381A00303A0700092AF3D918
:104330000A901800002398462E28C0D18023707858
:10434000DB0019430300303B721C092B00D8A1E1AC
:104350002A2800D1B2E11600B1E7A346AA462C00F4
:10436000D14503D801235B424B449A464B46524603
:1043700059460020089DA84720001FB0F0BCBB464E
:10438000B246A946A046F0BD099B40CB0A96002E36
:1043900003DB50780993561C8DE72838014370429F
:1043A0000A9009935078561C85E7782800D1DFE100
:1043B000582800D14CE26F2800D14FE3622801D188
:1043C00000F030FC10230A009A430B92692801D0B8
:1043D00000F0A9FC0A230C934B0500D5D0E10B9A01
:1043E000802311009B0019408B461A4200D0A1E2A5
:1043F000802311005B0019408A461A4200D0B6E3C0
:1044000013005B0600D5EDE2130009991B0601D4E9
:1044100000F076FC08C91BB2D8171A18424092B2B5
:1044200009919346DA0F1292002B09D180231022B2
:104430000B99DB000B4091430B91002B00D0E4E281
:104440000B9A6123920600D541230EA91F228C46A8
:10445000DBB262440A3B5F461395A34655460C9C6B
:10446000B2460D9316000AE03033DBB201357355C6
:10447000A74200D2EDE2202D00D1EAE207002100A0
:10448000380000F011FDCBB20929EDD90D9A944600
:104490006344DBB2EAE780239B007078194301365E
:1044A0002FE77078682800D1CDE1802301361943C9
:1044B00027E770786C2800D1BFE180235B001943A7
:1044C00001361EE7462800D19BE10722099B049193
:1044D000073393430A9A19000392424602920CC989
:1044E00008980092019309912A004B462100FFF79A
:1044F000CFFC01360500BCE62A006F1C4B46089D28
:1045000021002520A84701363D00B2E68B0700D4E4
:10451000ADE1099B2A009A466B1C9846534601CB95
:1045200021009A46089F4B46C0B2B8470A9B9C465A
:104530006544012B00D886E2089B4746B04626001A
:104540004C4699463A002300013731002020C847E5
:10455000AF42F7D1A146534634004646099301368F
:1045600087E6C04629420010081800208804011080
:10457000CC04011018050110099B04CB9B4643464F
:104580000992002B00D1C6E013789C46002B00D185
:10459000BDE34346013B099A0133D0180A9F13003B
:1045A00001E0834203D05A780133002AF9D1099AF5
:1045B0000A979B1A0B9380230A00DB001A400C9287
:1045C000194204D00B9B434501D943460B93022368
:1045D0001A000A400D920B4200D187E16046002884
:1045E00000D168E10C9B002B00D10DE1A844C2462C
:1045F000099B57465B1B9846089BB2462A0026003B
:104600004C46994609E023003100551CC8474346F3
:10461000585D002800D126E12A009742F3D1A14637
:104620003D00340056460D9B002B00D043E15B4615
:10463000013609931DE6099B1A0008CA9246002B11
:1046400048D0212211438B460EA884461F21614485
:10465000099500220F27A4460D0002E0202A0CD065
:104660000B003C001C4020003730092C00D80738D4
:104670000132A85419090F2BF0D86446099D32E085
:10468000DC4B2078089300239A46002800D0E4E50C
:10469000002465E6434606000A9F9800C0180132D0
:1046A000400080191678030030003038303B09286C
:1046B000F3D93000984616000A9700E6099B0236A7
:1046C00004CB9046D2434046D2171040804609930F
:1046D0003078F4E5102208009043113210438346ED
:1046E00000224905B0D55B4606930823059343464F
:1046F0000493102303930023029316AB01920093BB
:104700002A004B4621000898FFF7A6F853460500FB
:1047100001360993ADE513789C46002B00D1F7E2F2
:1047200002235B4237E7202302009A43472A04D141
:1047300080231B01194302239843452801D12023DC
:1047400019430722099B0491073393430A9A1900DE
:104750000392424602920CC9089800920193099173
:104760002A004B462100FFF76DF90136050080E570
:1047700010230C930C230A009A430B924B0503D58C
:1047800001230B9A9A430B92692800D127E66428EB
:1047900000D124E60B9A802311009B0019408B4620
:1047A0001A4200D066E1802311005B0019408A465E
:1047B0001A4200D039E213005B0600D53CE1130039
:1047C0001B0600D4A6E2099B04CB1204120C9346EC
:1047D00009935B46002B00D09AE10B9A103311002D
:1047E00099430B91520500D492E100239A460B9B0A
:1047F00006930A9B0593434604930C9B0393002363
:104800000CE12023194360E6099B0A9A5B1B98463A
:104810004B4691461F00B2462600089C2A003B00EA
:104820003100A04743460135585D0028F6D14A467D
:104830003400B94656460A92F5E6C0239B00B0788C
:10484000194302365DE5C023B0781943023658E5B6
:104850000C230A009A4314331A43103B0B920C9317
:104860004B058DD496E7A14634005646DBE60A9AFE
:10487000012A00D853E26B1E9F18089BB046260001
:104880004C4699462A002300013531002020C847B4
:10489000BD42F7D1A14634004646099B3A0001CB00
:1048A000210098467D1C4B46089FC0B2B84743463E
:1048B00001360993DDE40B9B0A9AA8469A4200D878
:1048C000B5E694466544ED1A089B4746B046260077
:1048D0004C4699463A002300013731002020C84752
:1048E000AF42F7D1A14634004646A0E60B9A0A999A
:1048F000531C914200D814E24B199B1A1F00089BCD
:10490000B24626004C4699462A0023000135310064
:104910002020C847BD42F7D10A9BA14601330B9323
:10492000099B34001B7856469C466046002800D000
:1049300058E67CE60722099B0733934301329446ED
:104940009C4462465F6809921A68FB1710931193A2
:1049500010981199030053400E930B007B400F9366
:1049600094460E9A0F9B121A8B410E920F93FB0FD7
:104970006246129300233A439B463DD00B9A612333
:10498000920600D541230022DBB20EA90A3B8C46D9
:1049900092460D9343461F32624413951596554631
:1049A0000E9E0F9FA24690460C9C14930CE0303252
:1049B000D2B2434601355A55BB4500D18AE1202D7C
:1049C00000D18AE106000F002200002330003900E8
:1049D00000F0A8FAD2B2092AE9D90D9B9C4662449C
:1049E000D2B2E6E7FF23099904C913401A000991DE
:1049F00017E5C046B93700100B9A103311009943E0
:104A00000B915205BAD500239A460B9B06930A9B3D
:104A10000593434604930C9B0393129B02935346C6
:104A2000019316AB2A00009321004B460898FEF72D
:104A300013FF013605001CE4FF22099B02CB114045
:104A40008B460993C5E65346454609930136FFF761
:104A500010FC56465C46AA46139DD6E708230C93E5
:104A60000B910B99642800D084E60B9B5B0500D565
:104A700086E6B4E40722099B073393430132944648
:104A80009C44624609921A685B6810009B461300BA
:104A90005A46134307D10B9A1033110099430B91D7
:104AA000520500D5A1E60B9A6123920600D5412359
:104AB0000022DBB20EA90A3B8C4692460D93434678
:104AC0001F3262445F461295A34655460400B24623
:104AD00090460C9E13930DE03032D2B2434601351E
:104AE0005A550023BB4200D100E1202D00D100E146
:104AF00004000F00320000232000390000F012FAF9
:104B0000D2B2092AE8D90D9B9C466244D2B2E5E7AD
:104B10000B9A6123920600D54123DBB20EA90A3B12
:104B20001F228C460D93230062445C4612951700A9
:104B300055469B46B2460C9E08E03033DBB2013549
:104B40007B55B4420ED3202D0CD004003100200040
:104B500000F0AAF9CBB20929EFD90D9A9446634423
:104B6000DBB2ECE756465C46AA46129D3FE6099B3F
:104B70001A0008CAD91713925A184A409246DA0FF7
:104B80001292002B08D1802310220B99DB000B40DE
:104B900091430B91002B2BD10B9A6123920600D5E8
:104BA00041230EAA1F279446DBB20A3B0D956744AA
:104BB0005D460993A3465446B2460C9E08E0303346
:104BC000DBB201357B55B4420ED3202D0CD004004E
:104BD0003100200000F068F9CBB20929EFD9099A19
:104BE00094466344DBB2ECE756465C46AB460D9D0B
:104BF0000B9B2A0006930A9B2100059343460493CE
:104C00000C9B08980393129B013602935B46019319
:104C100016AB00934B46FEF71FFE139B050009934E
:104C2000FFF727FB02230C931AE7099B04CB92465C
:104C30001293002A08D1802310220B99DB000B402D
:104C400091430B91002B2BD10B9A6123920600D537
:104C500041230EAA1F279446DBB20A3B0D956744F9
:104C60005D460993A3465446B2460C9E08E0303395
:104C7000DBB201357B55B4420ED3202D0CD004009D
:104C80003100200000F010F9CBB20929EFD9099AC0
:104C900094466344DBB2ECE756465C46AB460D9D5A
:104CA0000B9B2A0006930A9B21000593434604931D
:104CB0000C9B08980393002302935B46019316AB69
:104CC00000934B46FEF7C8FD129B05000993013681
:104CD000FFF7CFFAB44200D871E6149B54460E9603
:104CE0000F97AA469846159E139D8EE6A64200D8B9
:104CF000FBE6139B56469846AA465C46129D76E50F
:104D000008C9D8171A1842400991FFF78AFB0023F7
:104D10000B9350E4099B04CB9346099359E52F006C
:104D2000BBE50B9301E6063B0C939AE60CB410B579
:104D300084B006AC08CC0A00009401000448039437
:104D4000FFF772FA04B010BC08BC02B01847C046A6
:104D5000B137001000B585B0039101210290009396
:104D6000034813004A4202A9FFF75EFA05B000BDEE
:104D7000353A00100FB410B50C4984B006AA08CA21
:104D80000C680392002C0BD000920122084852427A
:104D900002A9A047012004B010BC08BC04B0184709
:104DA000180000F0D1FE0020F5E7C04608180020EA
:104DB000253A001010B5094A0300146884B0002C8D
:104DC00008D0012200910648524203A9A0470120C1
:104DD00004B010BD00F0B8FE0020F9E7081800206C
:104DE000253A001001480421014B184770040020A7
:104DF000154E0010142310B50100188804331B88C9
:104E0000984710BD162310B50100188802331B887F
:104E1000984710BDF8B54746CE4680B50F1E19D04D
:104E200014239946043304000025012698464B4676
:104E30001888434621681B88984701C4431E98413F
:104E4000013540420640AF42F1D13000C0BCB94606
:104E5000B046F8BD0126F8E7124A936F9B0815D2B9
:104E60009066D166002905D0FFE7FFE7FFE7516FA5
:104E7000106F704704B580210906C2175140002801
:104E800000D0C8430BF024FA002104BDF0B5146E25
:104E9000556E576F166FFFF7E3FF14665566576739
:104EA0001667F0BD000000D0114A936F9B0813D223
:104EB00010665166002905D0FFE7FFE7FFE7516F55
:104EC000106F704704B5002801D00020C0430BF0DC
:104ED000FFF9002104BDC046F0B5146E556E576F42
:104EE000166FFFF7E5FF1466556657671667F0BD46
:104EF000000000D094464A4A926F9208624601D25E
:104F000028E0C046F0B5464E346E756E776F366F4A
:104F100000F020F89446424A1466556657671667B3
:104F20006246F0BD94463E4A926F9208624601D2B4
:104F300054E0C046F0B53A4E346E756E776F366FFA
:104F400000F04CF89446364A146655665767166763
:104F50006246F0BD002B24DB11D000293EDA00B5FB
:104F6000C943404200D1013100F038F8C943404202
:104F700000D10131DB43524200D1013300BD002A90
:104F8000EBD1002801D1002905D00020C90FC907A5
:104F900001D1C043410800B50BF082F90022002383
:104FA00000BD00B500290ADBDB43524200D10133CA
:104FB00000F014F8C943404200D1013100BDC9439B
:104FC000404200D10131DB43524200D1013300F0B5
:104FD00005F8DB43524200D1013300BD002923D143
:104FE000002B18D1002A0CD0BC460D4F38667A66CB
:104FF00000210023FFE7FFE7FFE77A6F386F67467E
:105000007047002801D00748010000B50BF048F9AF
:105010000022002300BD02000B0000200021704789
:10502000000000D0FFFFFFFF002B00D0BFE0130CFB
:1050300028D1002AE7D080B4114F39667A66FFE79D
:10504000FFE730B4040C7B6F396F1B0423433B66CE
:105050007A66FFE7FFE7FFE7C04684B27B6F3D6FEC
:105060001B0423433B667A66FFE7FFE7C046002345
:105070002C042D0C7A6F386F00196941B0BC704751
:10508000000000D0F0B594460025140E01D11202A4
:105090000835140F01D112010435940F01D192008B
:1050A0000235D40F01D152000135D40B0134254F04
:1050B0007C66254C3C660E0C93B2FFE7FFE7FFE7EA
:1050C0003C6F6643360C7703BE467343DF0B5B04CD
:1050D000C01AB941130C7343DB18C91ACE086643D2
:1050E000360CB64493B273431F0F1B01C01AB9416B
:1050F000130C73431F0B1B05C01AB941860D8F0299
:105100003E436643360C092D24DB520A7243801A53
:105110007703460A6643360C16235B1BDE40DF40EE
:10512000BF1964466643821B70460435063301008E
:10513000D940A840C01900D30131A24206D20023B1
:10514000F0BD0000000000D0FFFFFFFF121B013088
:10515000F3D3F1E709277F1BFE406446A2B27243F6
:10516000801A00D20139220C7243130C1204821AE5
:1051700099410B007046043513370100F940A840EF
:10518000801900D30131002B02D1A2420AD2F0BD16
:10519000013000D30131121BFAD2013BF8D1A242F7
:1051A00000D2F0BD013000D30131121BF7E7F0B59A
:1051B0001C0C00D080E00CB400251C0A04D11B029A
:1051C000160E3343120208351C0B04D11B01160FB7
:1051D0003343120104359C0B04D19B00960F3343DB
:1051E00092000235DC0B02D192185B4101351C00A4
:1051F000971864410134464F7C66464C3C660E0C61
:10520000FFE7FFE7FFE7C0463C6F6643360C7703D6
:10521000BE4697B27743C01B00D20139C01B00D2F3
:1052200001399FB27743C91BC91B170C77437E0412
:10523000FF0B801BB941CE086643360C0C2D33DBC7
:10524000B644120B1F053A431B0B97B27743C01BA2
:1052500000D201399FB27743C91B170C77433E0434
:105260003F0C801BB941860D8F023E4366432927C0
:105270007F1BFE400C3D7746AF40BF1930BCA2B249
:10528000ABB272437343801A9941220C7243130CE0
:105290001204801A994102000B000137001BA9413A
:1052A000F9D2781E0021F0BD0C277F1BFE40774607
:1052B0007F0BAF40FF19E0E700245D1C07D0144FBF
:1052C0007D663966FFE7FFE7FFE7FFE73C6F95B2D2
:1052D0009EB265436643401BB141150C1E0C6543ED
:1052E000664336042F0C3E432D04401BB1419942C6
:1052F00004D202000B0020000021F0BD01D1904239
:10530000F7D3801A994101349942F2D3F6E70000AD
:10531000000000D0FFFFFFFF48404140484018B464
:10532000134B5B68019308BD18B4114B1B680193C4
:1053300008BD94460F4A926F920805D2624618B48F
:105340000B4BDB68019308BD0A4AF0B5146E556E2D
:10535000576F166F6246FFF7F2FF064A14665566EE
:1053600057671667F0BD18B4014B9B68019308BDE1
:1053700070100020000000D0FFB550404240504067
:1053800059404B40594000E0FFB5154F4C00640DAB
:1053900003D0BC4204D10C0314D80020090D090528
:1053A0005C00640D03D0BC4204D11C030AD8002267
:1053B0001B0D1B0501264B4009D44B4003D58B42E6
:1053C00000D18242FFBD9942FCD19042FFBD0B4308
:1053D000DB1803431343F5D0C9434918FFBD000050
:1053E000FF07000000B5FFF7CFFF01D0002000BD90
:1053F000012000BD00B5FFF7C7FF804100BDC046DA
:1054000000B5FFF7C1FF01D9002000BD012000BD9C
:1054100000B5FFF7B1FF01D9002000BD012000BD9C
:1054200000B5FFF7A9FF804100BD012040054A00FB
:10543000121804D85A00121801D800207047012011
:1054400070470020704700000021002805D17047F8
:10545000C1174840401AFAD0C90713B5064B1B685C
:1054600098470CBC441CA2401005120B0349091BB1
:1054700009051943114310BD201800201F04000026
:1054800010B54C00620D8023D218DB00D21A5B05E8
:105490007E2A10DD9E3A13DACC1709034908194316
:1054A0005242D140640001341532202A05DAD0403E
:1054B0000843604310BD002010BD0846604310BD86
:1054C000C80FC018013810BD18B4024B5B6A0193B5
:1054D00008BD00007010002018B4024BDB6D019372
:1054E00008BD00007010002018B4024BDB6F019360
:1054F00008BD00007010002010B50148FEF73AF911
:10550000B8060110132370B51D78012D11D035DDBB
:105510001C48FFF777FC1C4C01008022200000F0A3
:10552000AFF9022D27D01948FFF764FC184B18601B
:1055300070BD184B144C23606360A360E36023616B
:105540006361A361E36123626362A362E362236335
:105550006363A363E36323646364A364E364236515
:105560006365A365E36523666366A366E3662367F5
:105570006367A367E367084BA364D4E7024C064B59
:10558000A364D0E753440000701000204C330000A7
:1055900020180020F95400109D55001007B56046F2
:1055A00001880A0A0230DF2AFAD1C9B2820804D37C
:1055B000028840880004104300E00068014A50500F
:1055C000039007BD7010002051434343C9188C4617
:1055D000110C83B24B4310B4040C614392B280B2FD
:1055E000504362431C041B0C001910BC59411304A6
:1055F000120CC018514161447047000048404140BE
:1056000048400E4B5B6818470C4B1B6818470C4A08
:10561000936F9B0802D2094BDB681847F0B5146EF4
:10562000556E576F166FFFF7F6FF054A14665566FD
:1056300057671667F0BD014B9B6818472418002078
:10564000000000D007B548404140484001E0C04656
:1056500007B54200120E03D0FF2A03D1420218D828
:10566000C00DC0054A00120E03D0FF2A03D14A0222
:105670000FD8C90DC9050122414005D4414001D5CB
:10568000814207BD884207BD0143491801D0C0438C
:10569000001807BD00B5FFF7DBFF804100BDC04625
:1056A00000B5FFF7CFFF01D9002000BD012000BDEC
:1056B00000B5FFF7C7FF804100BD491A002807D198
:1056C00008467047C10FC90700D54042002817D0CF
:1056D000F44603B40B4B1B68984706BC81409E38C8
:1056E0004042803107D20B0607D04900490AC00565
:1056F0001043084360470130F8E7490A8902F5E79B
:105700007047000020180020014B5B6A184700001A
:1057100024180020014BDB6F1847000024180020DC
:1057200010B50148FEF726F8F8090110132310B54B
:1057300010481C78FFF766FB0100012C0AD003DD3E
:1057400080220D4800F09CF80C48FFF753FB0C4BEF
:10575000186010BD084C5422200000F091F823007E
:10576000084A80332168002900D122600434A34212
:10577000F8D1E9E753460000241800204C3300001C
:10578000201800202157001070B504000A4E300088
:105790000AF0B6FD200004F0CDFC050030000AF050
:1057A00077FD002D05D0054B2C199C4201D828000F
:1057B00070BD0348FDF7DEFFAC0E002000000420A2
:1057C000D006011070B505000C000B4E30000AF039
:1057D00097FD2800210004F073FC050030000AF05A
:1057E00057FD002D05D0054B2C199C4201D82800EF
:1057F00070BD0348FDF7BEFFAC0E00200000042082
:10580000D006011070B505000C000B4E30000AF0F8
:1058100077FD2800210004F05FFF050030000AF04A
:1058200037FD002D05D0054B2C199C4201D82800CE
:1058300070BD0348FDF79EFFAC0E00200000042061
:10584000D006011070B50400054D28000AF058FD7F
:10585000200004F079FC28000AF01AFD70BDC04653
:10586000AC0E002001480421014B184780040020A1
:10587000154E0010014B1B681847000080040020E3
:10588000014B5B681847000080040020030010B53E
:10589000080011001B68984710BDC046F0B5464689
:1058A0004F46D646C0B5437D80460E001700002BFC
:1058B00046D0002A3FDD4B1E9946244B012500248B
:1058C00000209A460DE04B461B5D0D3B5A4253416A
:1058D000325DDBB20A2A0BD02B00013401359F4226
:1058E0001ADD002CEFD14346325D1B7D0A2AF3D12D
:1058F000002BF1D1A04204DA4346211A1B6830186C
:105900009847434650461B680221984701342800B7
:105910002B0001359F42E4DC874204DD4346391AFF
:105920001B6830189847F619013E33780D3B5A42F0
:10593000534142461375E0BCBA46B146A846F0BD95
:105940000368110030009847F5E7C0465007011082
:10595000F0B5C6460C000968060000B5802906D0DF
:105960004B1C23606418267180BCB846F0BD0F4BF9
:105970001D68002D16D0231D98460D4F02E02D699D
:10598000002D0FD02B68002BF9D03B68002B01D0E5
:10599000AB42F4D1280041462268FFF77FFF2D6912
:1059A000002DEFD101230021DBE7C046F4170020D2
:1059B000F8170020F0B5DE4657464E464546E0B59E
:1059C00085B017001C0006000D00FDF797F80023B6
:1059D000304A12184B41002B58DB2F4908008A46E9
:1059E0000AF086FC01906B1C03D1300005F080F8B2
:1059F0000500002C25D1294B9846294B1C68002C0A
:105A000015D0002F20D1274F02E02469002C0ED0A2
:105A10002368002BF9D03B68002B01D0A342F4D1BE
:105A200020002A003100C0472469002CF0D1019BDE
:105A3000002B27D105B0F0BCBB46B246A946A04614
:105A4000F0BD194B9846D8E7164B994602ABDF1DBF
:105A50000A239B4602E02469002CE8D02368002B2F
:105A6000F9D04B461B68002B01D0A342F3D12A008A
:105A700031002000C0475B460122390020003B7006
:105A8000C047E8E750460AF003FCD3E70122074B82
:105A90005242A2E740420F00B40E00209D58001071
:105AA000F4170020F81700208D580010FFFFFF7F2B
:105AB000F0B5CE46474680B583B06B460600DD1D87
:105AC0002870FDF71BF800231A4A12184B41002BCF
:105AD0002BDB1949080088460AF00AFC174B81465F
