:020000041000EA
:1000000000B5324B212058609868022188439860DF
:10001000D860186158612E4B002199600221596106
:100020000121F02299502B49196001219960352056
:1000300000F044F80222904214D00621196600F024
:1000400034F8196E01211966002018661A6600F04E
:100050002CF8196E196E196E052000F02FF8012189
:100060000842F9D1002199601B49196000215960AB
:100070001A491B48016001219960EB211966A021F2
:10008000196600F012F800219960164914480160C1
:100090000121996001BC002800D000471248134993
:1000A000086003C880F30888084703B5996A0420EC
:1000B0000142FBD001200142F8D103BD02B5186610
:1000C0001866FFF7F2FF186E186E02BD00000240BE
:1000D000000000180000070000035F00212200005C
:1000E000F4000018222000A00001001008ED00E03C
:1000F00000000000000000000000000074B24E7A12
:1001000000200420F7010010C3010010C5010010F9
:10011000C1010010C1010010C1010010C101001097
:10012000C1010010C1010010C1010010C701001081
:10013000C1010010C1010010C9010010CB01001065
:10014000CD010010CD010010CD010010CD01001037
:10015000CD010010CD010010CD010010CD01001027
:10016000CD010010CD010010CD010010CD01001017
:10017000CD010010CD010010CD010010CD01001007
:10018000CD010010CD010010CD010010CD010010F7
:10019000CD010010CD010010CD010010CD010010E7
:1001A000CD010010CD010010CD010010CD010010D7
:1001B000CD010010CD010010CD010010CD010010C7
:1001C00000BE00BE00BE00BE00BE00BEEFF3058054
:1001D000103800BEF2EB8871FC7301101874011026
:1001E0003402001090A31AE700201F49086006C8D7
:1001F00081F3088810471D48006800282FD10DA4FE
:100200000ECC002902D000F012F8F9E71849194A7B
:10021000002000E001C19142FCD1174988471749ED
:1002200088471749884700BEFDE701C901C29A42C5
:10023000FBD3704718740110C0000020E40E0020AA
:100240003C82011000000420000004203C820110C8
:10025000001004200010042000000000704709482E
:1002600005F094FA0047000008ED00E0000000D01F
:10027000E80E0020EC1900209D3F001071170010BF
:10028000C54000105756000006005250ABB36053F3
:10029000B833011006005250861C0302D8330110F7
:1002A000060052505422A29DE03301100500525026
:1002B000DE65F4683C820110F8B5C0460448054B81
:1002C00010B5834203D0044B002B00D0984710BDDB
:1002D000E40E0020E40E002000000000064807495C
:1002E000091A8B10C90FC91810B5491003D0044B57
:1002F000002B00D0984710BDE40E0020E40E002033
:100300000000000010B5074C2378002B09D1FFF73F
:10031000D5FF054B002B02D0044800E000BF0123AD
:10032000237010BD8811002000000000982F0110DC
:10033000054B10B5002B03D00449054800E000BF71
:10034000FFF7CCFF10BDC046000000008C1100205C
:10035000982F011070B5072002F02AFA1B2002F036
:1003600027FAD025182002F023FA80232D066B628D
:1003700080231B056B6280239621104C5B046B620B
:100380008901200003F06CFB02211C2002F0E0F93F
:1003900002211D2002F0DCF9192002F009FA802365
:1003A0009B046B62A369DB0607D41022A3691A427F
:1003B000FCD12368A3691A42F8D070BD0040034005
:1003C000F8B5BE235B00C658D033C16AC518040017
:1003D000B06A05F006FE214905F04CFE00281CD04D
:1003E000AA239B00E75800232800AB6208F00CFC0E
:1003F000EB68002B06D09D239B0001222800E158CA
:1004000008F0AAF9B36AE362BB6AA362D923DB00EE
:10041000E318A36101232377F8BD26009427104B2E
:100420006C36E351300008F0EFFBA36F002B04D0D3
:1004300001223000E15908F08FF9FC239B05AB62E3
:10044000280008F0E1FBEB68002BE5D09D239B0022
:1004500001222800E15808F07FF9DDE700C05FC500
:10046000982F011093239B0070B5C6182C33C51824
:1004700000230400B362300008F0C6FBF368002BD1
:1004800006D09D239B0001223000E15808F064F95A
:1004900000232800AB6208F0B7FBEB68002B06D006
:1004A000A8239B0001222800E15808F055F9DC231D
:1004B000064A216BDB00E318914203D00122A361BD
:1004C000227770BDD923DB00E318F7E7A42F0110D2
:1004D000FE23F0B5DE4657464E4645465B00E0B586
:1004E000C558913BFF3B98462B8D04009946070069
:1004F000AB8D06008044688D83B0C018EB8D03215E
:10050000C01805F075F920662B8E1121E365274B85
:10051000274A9A464B46504605F0CEF8254A6B8D41
:100520009146EA8D11210192AA8D48460092224AF5
:1005300005F0C2F82B8E214D1121214A280005F02B
:10054000BBF8942352464046E2509B4608F05CFBC1
:10055000A36F9837C436002B05D05B460122404676
:10056000E15808F0F9F84B463800BB6208F04CFB44
:10057000FB68002B05D0C02301223800E15808F0A9
:10058000EBF83000B56208F03FFBF368002B05D0B4
:10059000EC2301223000E15808F0DEF803B0F0BC93
:1005A000BB46B246A946A046F0BDC0468413002013
:1005B000B02F011098130020B82F0110C013002095
:1005C000CC2F0110AA23F0B59B00DE4657464E46BD
:1005D0004546C358E0B59A46BE235B00C35885B074
:1005E000039393239B00C6182C33C518E13BFF3BB4
:1005F00099462C339846634B81440700040080449D
:10060000006C9B4605F0B2FD5F4A009001911121FC
:10061000584605F051F84B465A4648469A6208F04B
:10062000F3FA4B46DB68F037002B05D0C0230122DC
:100630004846E15808F090F8544B99465346986A5A
:1006400005F094FD524A009001911121484605F0B1
:1006500033F843464A4640469A6208F0D5FA434684
:10066000DB68002B05D0EC2301224046E15808F05E
:1006700073F8484BA06A984605F078FD464A00900A
:1006800001911121404605F017F843463800BB623E
:1006900008F0BAFAFB68002B06D08C235B0001221D
:1006A0003800E15808F058F85346A16A986A05F0F6
:1006B00098FC216C05F0E6FC002830D000233000C7
:1006C000B36208F0A1FAF368002B06D09D239B00CB
:1006D00001223000E15808F03FF800232800AB6207
:1006E00008F092FAEB68002B06D0A8239B000122A9
:1006F0002800E15808F030F853469B6AA362039B38
:100700009B6AE362DC23DB00E318A3610123237708
:1007100005B0F0BCBB46B246A946A046F0BD942346
:100720009846270042461D4B6C37A350380008F00E
:100730006BFAA36F002B05D0434601223800E15825
:1007400008F00AF8E36B3000B36208F05DFAF36872
:10075000002B06D09D239B0001223000E15807F0BA
:10076000FBFFE36B2800AB6208F04EFAEB68002B4E
:10077000CED0A8239B0001222800E15807F0ECFF0F
:10078000C6E7C04670130020D42F0110AC13002020
:10079000E42F0110D4130020F02F0110FC2F0110C2
:1007A000F8B5BE2304005B00C6582D33FF33C7588D
:1007B0005C3B1E4A1121C518436C1D4804F07CFFA8
:1007C000E16AB06A05F00DFC05F09CFCC317C01887
:1007D0005840636C984219DB00232800AB6208F094
:1007E00013FAEB68002B06D09D239B000122280002
:1007F000E15807F0B1FFB36AE362BB6AA362D92391
:10080000DB00E318A36101232377F8BDE36B280025
:10081000AB6208F0F9F9EB68002BF6D09D239B0042
:1008200001222800E15807F097FFEEE7043001109D
:100830005C13002070B5194D04002900406A0CF0CB
:100840006BFB2900206300200CF066FB0AF032FDF0
:1008500005F03AFB2900E06300200CF05DFB0AF094
:100860002FFD2900606400200CF056FB0AF022FDE9
:1008700005F02AFB2900206400200CF04DFB0AF053
:100880001FFD2900606300200CF046FB0AF018FDF4
:100890002900A06400200CF03FFB70BD1030011057
:1008A00090235B00F0B5C646984603000122493309
:1008B000FF33804405000400070000B506001A70ED
:1008C000404608F0A1F94346DB685135D134FF3585
:1008D000FF34C437002B06D0A4235B00012240461E
:1008E000F15807F039FF330001227933FF331A70D2
:1008F000280008F089F9EB68002B06D0BC235B00C8
:1009000001222800F15807F027FF33000122F933B4
:10091000FF331A70200008F077F9E368002B06D047
:10092000FC235B0001222000F15807F015FF102383
:10093000464DAA69134253D0736A984641464448CB
:1009400005F06AFF434C736A434A1121200004F00A
:10095000B3FE2100414805F05FFF3800BC6208F09B
:1009600053F9FB68002B05D0EC2301223800F15825
:1009700007F0F2FE736B002B1AD0B36C002B24D05F
:10098000D0231B065A6812064DD580229A61D023C7
:100990001B065A68D2014DD4802252045A61D023DA
:1009A0001B065A6812014DD4802212055A6109E0D3
:1009B000D02380221B069A61802212059A61802230
:1009C00052049A6180BCB846F0BDD02380221B0639
:1009D0005A61802212055A61802252045A61F1E75D
:1009E000726A9046AA691342A8D110242200AB690A
:1009F0001A401C42FAD12B68DBB2212B0BD0F26CCF
:100A0000622A04DC41468B54F36C0133F364AB6916
:100A10001C42EBD090E74346F16C30005A54F2642C
:100A2000FFF708FFF3E780225A61D0231B065A68BC
:100A3000D201B1D5802252049A61D0231B065A6894
:100A40001201B1D5802212059A61BBE70040034034
:100A500014300110E81300201C3001102430011064
:100A6000E220F8B5C00006F083FC02218E23494243
:100A70005B00C1503033C1507C33C150A123DB0037
:100A8000C218E0235B00C250C2182C3BC250DA22CD
:100A90000023CC2452008350B43AFF3A6400025140
:100AA000B03401518934FF340519913CFF3C0551A4
:100AB00005192C3C0551203403511C3C02518C3447
:100AC0000151543401519421C9004418B139FF39FE
:100AD000445044182C394450203143501C39425062
:100AE000764C4031435008394450D72404314050AB
:100AF00048314350043143507149A400015104343A
:100B00000351704D10340251083C0551043400511A
:100B100048340351043403510C340151F625043494
:100B200003510224684EAD004451083D465103264E
:100B300004354051654D0427435104354351644DFC
:100B400041510435435110354651624E083D4651DE
:100B5000614D4051614D435104354351604D415108
:100B6000D625ED0046199325ED0046511035475125
:100B70005C4F083D47515C4D40515C4D435104353D
:100B800043515B4D4151CD35FF354719C93DFF3DBF
:100B90004751052710354751564F083D4751564D8F
:100BA0004051564D435104354351554D41517D35CA
:100BB000FF354719793DFF3D47510627103547510D
:100BC000504F083D4751504D504F4051504D4351AB
:100BD000043543514F4D4151DF21C9004518293992
:100BE000FF3945504C494350DA2189004518C3214B
:100BF000C9004550E139FF39451848494550043985
:100C0000451847494550043144504649002542544F
:100C100045494350E4394418F0314450441843499D
:100C200044500431425042494254C0218900441882
:100C3000D521C90044503F4943500C3144183E4926
:100C40004450043142503D4A3031835402000C324A
:100C500042503B4C3B4944500024043141180C6045
:100C60004D60D821C900435408314250364947509D
:100C7000043141180C604D60DB21C9004354083138
:100C80004250324F32494750043141180C604D6098
:100C9000DE21C9004354083142502E4A2E4981506A
:100CA0000432821814605560E122D2008354066138
:100CB0004661C36083610377F8BDC04655030010E9
:100CC0002C300110A1080010D10400101C040000F9
:100CD0002C040000C10300103C0400008404000048
:100CE00094040000C5050010A4040000EC040000FA
:100CF000FC040000A10700100C05000054050000D2
:100D0000640500006504001074050000A42F0110A4
:100D1000BC050000CC0500000C0600001C0600000D
:100D2000EC050000F4050000540600003406000045
:100D30003C0600009C0600007C06000084060000C3
:100D400030300110B4060000CC0600003C30011029
:100D5000E4060000FC0600004C300110036A70B588
:100D60009C6A0021201C05F08DF9FE21431E98414C
:100D70006400640805008905201C05F08BF9002833
:100D800005D00748290001220AF044F970BD054941
:100D9000201C05F040F905F0E3F980B2F2E7C04607
:100DA000FF0F000000F07F45436D70B59C6A002185
:100DB000201C05F067F9FE21431E98416400640879
:100DC00005008905201C05F065F9002805D00748B5
:100DD000290000220AF01EF970BD0549201C05F00B
:100DE0001AF905F0BDF980B2F2E7C046FF0F000026
:100DF00000F07F4510B501200AF0DEF810BDC046B6
:100E0000A62070B5800006F0B3FA03002833036211
:100E1000343343658023C0649022C0500023F824FB
:100E20002D498350083A8150043280504832835013
:100E30002A49043283500C32815004328350284DA9
:100E4000E73A0251083C0551022504340051483468
:100E50000351043403510C34015104340351103450
:100E60000551204D083C05510434005148340351CC
:100E7000043403510C340151DC2104004900435077
:100E80008834483144500C3943500C3144182C39C3
:100E900044500431425004314354113C60314350BA
:100EA000FF3C0C31445044182C3944500431822406
:100EB00042500421A40001517C3403510400A423B6
:100EC00059349B00FF34C450C4182C3BC450043325
:100ED000C250183BC15070BDF50D00102C300110F0
:100EE0005D0D0010A90D0010F0B5C6460500060006
:100EF00080211F4A040000B5D06884350006000F29
:100F000054360130490053680B42FCD10138176A4E
:100F10000028F8D18021D068154A0004000F7F42D4
:100F20000130890053680B42FCD10138536A002814
:100F3000F8D15B423000E767984607F065FE236E04
:100F4000002B04D001223000E16F07F005FC43467E
:100F50002800AB6207F058FEEB68002B05D0AC23ED
:100F600001222800E15807F0F7FB80BCB846F0BD2D
:100F700000002050F0B5D6464F4646460025C0B585
:100F80003D4C8AB020003D4905F078FC022320004A
:100F900008220021009505F079FD0022012108209A
:100FA00001F0EEFB00220121092001F0E9FB80267F
:100FB000F827C02376021B037F0202A9102206A88D
:100FC0009A46049302960397059505F085F92C4BF4
:100FD00006A9102202A89946079305F07DF98023FF
:100FE000DB020593274B2000039380231B039846C5
:100FF0000493002202AB002105F0A0FD012223682A
:101000002000134323600121022300950B3205F0D9
:101010003DFD002201210C2001F0B2FB0022012144
:101020000D2001F0ADFB534602A9102206A804933F
:1010300002960397059505F04FF94B4606A9102235
:1010400002A8079305F048F9C023DB0205930E4B75
:1010500000220393434601210493200002AB05F0D4
:101060006DFD02222368134323600AB0E0BCBA4638
:10107000B146A846F0BDC0460000205054300110D3
:1010800080770100807701088077010C862070B599
:10109000800006F06DF9030028330362C0220023AC
:1010A00094242049C0648350083A8150043280500F
:1010B000483283501C49043283500C328150043230
:1010C0008350183AFF3A194D64000251083C05510B
:1010D0000434005148340351043403510C34015199
:1010E000C021040049004350B834483144500C3901
:1010F00011344350FF3420394450043142500431FC
:101100004354603143500100842321319B00FF315F
:10111000C150C1182C3BC1500433C250183BC250BF
:1011200070BDC046750F00102C300110E90E001084
:101130008823F0B5076AC5583433C4583B7D466DE3
:1011400083B0002B0CD1337D002B1AD12B7D002BCB
:1011500028D1237D002B36D109F0CAFA03B0F0BDA7
:1011600000238022002100200093103309F012FA9E
:10117000012300220021B86A08F0E6FF337D002B2E
:10118000E4D000238022102100200093103309F0C6
:1011900001FA012310220021B06A08F0D5FF2B7D4F
:1011A000002BD6D000238022202100200093103372
:1011B00009F0F0F9012320220021A86A08F0C4FFF9
:1011C000237D002BC8D000238022009330210020F3
:1011D000103309F0DFF9012330220021A06A08F062
:1011E000B3FFB9E7084B10B51A78002A00D010BD3C
:1011F00001321A7008F02EFF044808F025FF002085
:1012000008F034FFF3E7C046E11900208C4F0110CD
:10121000CA2070B5800006F0ABF8030028330362E3
:101220003433436502008023C0649032C0500833D9
:10123000C2502C33C05034320833C2502C33C0500B
:10124000F8220023B02430498350083A81500432F8
:101250008050483283502D49043283500C328150E3
:1012600004328350503AFF3A294D64000251083C41
:1012700005510434005148340351043403510C34F3
:101280000151DC21040049004350F03448314450FE
:101290000C3943500C3144182C394450043142501D
:1012A0000431435460314350A83C0C31445045183C
:1012B0002C3945500431822542500421AD00415162
:1012C0007C3543510C35445146192C3D465104356B
:1012D0004251183D41517C3543510C35445146191A
:1012E0002C3D465104354251183D41517C35435106
:1012F000C8239B00C450C4182C3BC4500433C250B4
:10130000183BC15070BDC046E51100102C300110D3
:1013100031110010942010B5400006F029F80300A8
:10132000283303628E2300225B00C064C250343B2A
:101330000132C25010BDC046F0B5070004000600DF
:10134000050087B003A9194809F0C8FA039B543770
:10135000E367380007F058FC236E8436B435002B61
:1013600004D001223800E16F07F0F6F9049B300049
:10137000B362019307F048FCF368002B05D0AC235F
:1013800001223000E15807F0E7F9059B2800AB6225
:1013900007F03AFCEB68002B05D0DC230122280083
:1013A000E15807F0D9F907B0F0BDC0467C1800201D
:1013B000054B10B51A78002A00D010BD0132034841
:1013C0001A7009F041FAF8E7E21900207C180020B1
:1013D000922070B5800005F0CBFF03002833036234
:1013E000F0220023AC242049C0648350083A815085
:1013F00004328050483283501C49043283500C32EE
:10140000815004328350483AFF3A194D640002512A
:10141000083C05510434005148340351043403514D
:101420000C340151D821040049004350E8344831BC
:1014300044500C3911344350FF34203944500431A6
:1014400042500431435460314350010090235131E4
:101450009B00FF31C150C1182C3BC1500433C25016
:10146000183BC25070BDC046B11300102C300110A3
:1014700039130010036BF0B54F4699466423D646E6
:101480009A4680B5050083B08244806805F09EFDD1
:10149000AB6AEC6A06000F0000930194002C36DD65
:1014A0004B46696A986A04F09FFD009A019B041CF0
:1014B00039003000801A994104F0DAFC174A184BC1
:1014C00004F01DFC04F000FD011C201C04F0A3FD31
:1014D000FC21890504F09FFD296A04F085FD28623E
:1014E0008C242851504607F08FFB2B6F002B04D023
:1014F00001225046295907F02FF94B469B6AAE62EC
:10150000EF626B6203B0C0BCBA46B146F0BD002CBE
:1015100001D1002BC4D1286AE2E7C04695D626E85F
:101520000B2E113EA42010B5400005F021FF030052
:1015300038330363A02200231049C0658350083A62
:10154000815004328050483283500D490432835018
:101550000C328150043283503C32835002004133BC
:10156000FF339832C250C2182C3BC25001220433C0
:10157000C250183B0332C25010BDC0467514001053
:101580002C300110036A70B504000500986A04F05D
:101590002BFC0A4B0A4A04F0B2FB04F095FC5435CC
:1015A000E067280007F030FB236E002B04D00122F7
:1015B0002800E16F07F0D0F870BDC046405F9C3F47
:1015C00030F3AF219C2010B5400005F0D1FE0300A0
:1015D00028330362902200231049C0648350083AE4
:1015E000815004328050483283500D490432835078
:1015F0000C328150043283503C328350020031332C
:10160000FF338832C250C2182C3BC250012204332F
:10161000C250183B0332C25010BDC04685150010A1
:101620002C3001102823426AD25C083BC254704718
:10163000202370B5C35C0400002B3BD12123C35C85
:10164000002B1CD009F0ECFB2000B43003001C4937
:101650000B435B071CD18B1CC31A042B18D94A8877
:101660000B8812041A43CB888D881B042B4302601D
:1016700043600B892838038607F0C6FA70BD09F06D
:1016800097FB2000B43003000E490B435B07E2D008
:10169000B42320000A888C30E2524A880233E25296
:1016A0008A880233E252CA880233E2520A8902333C
:1016B000E252E1E709F0AAFA21230122E254DDE730
:1016C000A0180020881800208A2070B5800005F03E
:1016D0004FFE03002C33436234338365842300655B
:1016E000D022C05000239C241E498350083A8150C8
:1016F00004328050483283501B49043283500C32EC
:10170000815004328350283AFF3A184D6400025148
:10171000083C05510434005148340351043403514A
:101720000C340151C8210400490043503C3143505E
:10173000C8340C31445044182C39445004314250C0
:10174000183942507C3143500100882331319B00CD
:10175000FF31C150C1182C3BC1500433C250183B5B
:10176000C25070BD251600102C300110311600102B
:1017700010B50021002007F081FB10BD7047C04666
:101780000A4B01211A68002300B589B0069305931E
:1017900004910293019313310533039100930021C7
:1017A000033B034807F03EF909B000BD1C130020BD
:1017B00000100020014B0360012070470010002042
:1017C000F0B5DE4657464E464546E0B5A3B0FFF7B6
:1017D00047F9C022FE4B9200994683605B6E8218E7
:1017E0001A60FC4BBF210362FB4BC900436200231C
:1017F0009A468362C362F94B5246036300234363F4
:1018000043648364C364036543658365C36503669A
:101810004366C8338263C26302648366002243184E
:10182000002119605A60C021C9004318002104003A
:10183000EB488027186059604946CB6DBB21C90031
:10184000621800211A60E74A0020A150C821C9008F
:101850006218002110605160C921C900621800217E
:10186000E148002610605160C421C9006218D831D7
:101870005A606218D021DD4B89003F06E2506318A0
:1018800068311E605F60631868311E605F606318B6
:1018900068311E605F60631868311E605F606318A6
:1018A00068311E605F60631868311E605F60631896
:1018B000494622001E605F60CB6F0C325B684D466C
:1018C0001A60FFF79DFA856002256D42A8464562C1
:1018D00085654D4602006B6E88325A600300C8333E
:1018E0009E66DF661E605F6068339E66DF660590F9
:1018F000FFF7CCFB43468022856083503032835013
:1019000043626B6E0500B8359D6040352E606F6098
:10191000AE66EF6683466835FFF77AFC4D46856014
:1019200045464346456285658E35435134354351BE
:101930004B4602005B6EF032DA6005000300993519
:101940003133FF33FF351E605F602E606F6006909D
:10195000FFF7E0FC49460500434681608020B02245
:101960002B506030AB502B506B621295FFF730FD5F
:101970004946424681608021E02342504146B232CE
:101980008150C150416249464B6E0100E8311961F6
:1019900003002933FF331E605F609E66DF6605002B
:1019A000FFF7C0FD49469023816041460200C150C7
:1019B0004163514613000162416200210020D83387
:1019C0009062D1621E605F600492FFF7ABFD010080
:1019D0004846902388604046C850486350460B00F4
:1019E00008624862002000219862D9621900D8314B
:1019F0000E604F600293FFF795FD4A469023826088
:101A00004246C250426352460021026242620200D4
:101A100000209062D1621100D8310E604F600792B1
:101A2000FFF7D0FD010048464346886080200391BF
:101A30000B504B62C8310E604F60FFF7C3FD494643
:101A40000300816041468020019319505962C833D8
:101A50001E605F60FFF738FE82460100484642463E
:101A600088605046C0214250012188468262C2658A
:101A70005146404608840931FF310E604F60CA2349
:101A80008E66CF6603279B00E75022006831CD2683
:101A90000421023005F04EFCB600A05122000421C2
:101AA000032005F047FC043EA051802622000421BB
:101AB000032005F03FFCB446CB23A44466469B00BC
:101AC000E05008960660AC26B446D821A444664689
:101AD0008C46A44446600C966646866009960426A9
:101AE0006433E6502200D439042005F023FCE722B9
:101AF0009200A05004212200042005F01BFCE621E6
:101B00008900605022000421042005F013FC9A2172
:101B100049008C46E523A444B22261469B00520052
:101B2000E050139101609446F221A44449006246BA
:101B30008C46A444614681601591099964334260E2
:101B4000C1601492E65022000421042005F0F2FB4B
:101B5000274A0421A0502200042005F0EBFB80213D
:101B6000C900605022000421042005F0E3FBFF239C
:101B700008990C9A9B00E05001604260611D099A2F
:101B8000FF3164338260C1602200E7500D91032071
:101B9000042105F0CFFB174B2200E0500421032065
:101BA00005F0C8FB8D22D200A050042122000320A2
:101BB00005F0C0FB104BA322E05098239B009C46ED
:101BC0009200A44463469446A444624616E0C0468C
:101BD00000100020A412002040120020DC11002080
:101BE00080F0FA0214060000009435775C060000CD
:101BF000040400006C0400006404000003600A9305
:101C0000992342600B9206220899DB008160E25022
:101C100004212200062005F08DFBFE4B2200E0503F
:101C200004210620994605F085FB9A22D200A05097
:101C300004212200062005F07DFBF74B0899E050B7
:101C40000A9B81600360A6230C990B9AC1600999D5
:101C5000DB0001610D99426041612200E6500421E0
:101C6000042005F067FBED4E2200A0510421042062
:101C700005F060FB043EA05122000421042005F081
:101C800059FB0A9EE64B0D99E05006600B9E6433AB
:101C90004660089EC16086602200E7500421032050
:101CA00005F048FBDF49220060500421032005F0C5
:101CB00041FBB421C900605022000421032005F03B
:101CC00039FBD94B0896E050866000260A990B9B99
:101CD000B02201604360C0203300059940008E505F
:101CE0001936FF368B510B505846303283504933EA
:101CF000FF33DE3AC25004215A46022005F01AFB97
:101D0000AA225B465200985004215A46022005F050
:101D100011FBA8225B465200985004215A4602202B
:101D200005F008FBA6235A465B00D05098225A447F
:101D30000260169268225A4442601792C022002123
:101D4000069B52009951995088235B00E9506833F3
:101D5000EF502A000E000320043105F0EBFA823721
:101D6000FF37E8512A000421032005F0E3FA043F7D
:101D7000E851193F2A000421FF3F032005F0DAFA59
:101D8000BC469836AC446746B446BE23AC4466466F
:101D90005B00E85019964660C826B446AC446646D7
:101DA000434686601A96C026049A07600421935120
:101DB00001201600189705F0BDFACC273200F0512B
:101DC0000421012005F0B6FAC8220421B0503200E7
:101DD0000120049605F0AEFAC426C0234146049AB9
:101DE00090517832026002981B92C1500200033178
:101DF000012005F09FFA029B0421D8511A0001200E
:101E000005F098FAC822029B042198501A0001207C
:101E100005F090FA029BC0229851783303601C931E
:101E200043460798042183500200012005F082FAFE
:101E3000079B0421D8511F001A00012005F07AFAEF
:101E40003B00C8271A00D851042101201F0005F0CB
:101E500071FAB8513E0078360660B02140460797C7
:101E6000039F1D963A007850AC3905F063FABC2602
:101E70003A00B85104210120039705F05BFAB82716
:101E8000039A0421D051012005F054FAB423039A97
:101E9000B021D05043466832026001981E924350F0
:101EA0000200AC39012005F045FA019B042198514C
:101EB0001A00012005F03EFA019B0421D8511A00B6
:101EC000012005F037FAB42301995246C850683111
:101ED00001601F91F02351460020C85050464146F2
:101EE0006833C1500331012005F024FAB223514672
:101EF0005B00C85052460421012005F01BFAB023B4
:101F000051465B00C85052460421012005F012FAE8
:101F1000AE2351465B00C850A021514401604346A6
:101F20008C202350043024504046E351E333A45125
:101F3000E0500433E4505833E0500433E4502C3381
:101F4000E0500433E4507C33E0500433E450434623
:101F50001030FF3023504046CC271433FF33E45079
:101F60005933FF33E0500433E4502833E050BF00CE
:101F70000433E450E359220020911860042105F055
:101F8000D9F93E000437E359220018604046A359AE
:101F90000421586005F0CEF9E3592200586040460C
:101FA000A3590421986005F0C5F9E359069F9421CF
:101FB000BC46293E1A689860FF3E5B68890066440B
:101FC0006144166010911960A62189006144016086
:101FD000E62080002358404622000E91186004211C
:101FE00005F0A8F9E7239B00E35822001860E620DB
:101FF0008000235840460421586005F09BF9E723F0
:102000009B00E35822005860E62080002358404699
:1020100004210BE0D4040000CC0400003C050000C7
:1020200034050000A40500009C050000986005F040
:1020300081F9E7239B00E35822009860E6208000A6
:10204000235840460421D86005F074F9E723594627
:102050009B00E358D1311A68FF31D86011608021AC
:102060005A6889006918116052469B68E132FF3254
:102070001A600E9B220003608020C0002358404657
:102080000421186005F056F9FE4B2200E3580421A4
:1020900018608020C00023584046586005F04AF977
:1020A000F84B2200E358042158608020C0002358D8
:1020B0004046986005F03EF9F24B2200E3580421B7
:1020C00098608020C00023584046D86005F032F95F
:1020D000EC4B1099E358BC461A68D86016605A68F1
:1020E0009B681160B8220E999200624419600260E8
:1020F0008D20C00023584046119204212200186010
:10210000069705F017F9E04F2200E3590421186003
:102110008D20C00023584046586005F00BF9E35964
:10212000220058608D20C00023584046042198604A
:1021300005F000F9E35905992190986082208C46BA
:102140001A68800060441060070094205B6880007B
:10215000604418600F909A20219BC0001E60235895
:10216000404622000421186005F0E4F84B46E3588D
:10217000220018609A20C00023584046042158606D
:1021800005F0D8F84B46E358220058609A20C0006A
:10219000235840460421986005F0CCF84B46E3589C
:1021A000220098609A20C000235840460421D8603D
:1021B00005F0C0F84B46E3582200D8609A20C000D2
:1021C000235840460421186105F0B4F84B46E35803
:1021D000220018619A20C00023584046042158610B
:1021E00005F0A8F84B46E3580F991A685861176034
:1021F0005A6811609A6810991660DA681B69116054
:102200000E9922001960119B04210360A720C000D1
:1022100023584046186005F08DF89C4B2200E35887
:1022200004211860A720C00023584046586005F0DC
:1022300081F8964B2200E35804215860A720C00083
:1022400023584046986005F075F8904B2200E358FB
:1022500004219860A720C00023584046D86005F0AC
:1022600069F88A4B0F99E3581A68D86017605A6862
:102270009B6811601E60119B22000360B420C000A7
:10228000235840460421186005F054F8804B220082
:10229000E35804211860B420C00023584046586019
:1022A00005F048F87A4B2200E35804215860B42026
:1022B000C00023584046986005F03CF8744B042158
:1022C000E3581A68986017605B680F9F5A461F6052
:1022D000066043465846A826A42743678067C35133
:1022E0008051A8205B4640001B584046186005F00E
:1022F00021F8AA2359465B00CB585A461860A820FB
:1023000040000B5840460421586005F013F8AA23FA
:1023100059465B00CB58039958601B68F03119602F
:10232000019BD422F0330360434612980421806756
:1023300080518350D733C0504046AD676867E8513D
:10234000DC37AD51A850ED50EB592A00186004F06D
:10235000F1FFC2235B001E00EB582A0018604046C4
:10236000EB590421586004F0E5FFAB592A0058608E
:102370000120EB590421986004F0DCFFAB59049F65
:102380001A68791CFF319860116002995B684A1CD9
:10239000FF321A60079A882613000133FF33036067
:1023A00001208423BF518951D0504433D3589251D6
:1023B000042118609146170004F0BCFFCC23FB58A1
:1023C0000121186023008133FF330360039B0198D0
:1023D0009B67B8238046C358416702008067196035
:1023E0000120033104F0A6FFBC2743460193DB59CB
:1023F00052461860AC239B00E31803600120AC2315
:10240000D0500433D250B033D3580421186004F0B4
:1024100091FFB22352465B00D35805991860802380
:102420009B00E31803609320800023182C300B627C
:10243000231858464B65593BFF3B03625B460198A6
:1024400003995433036230330B622300069A6C33D2
:1024500013622C3353652C3393512C33D351603397
:102460002B622B00049F54333B63029F30333B634A
:102470004F4630333B634946BE230797070064311C
:1024800008E0C046040400006C0400003C050000A5
:10249000A40500005B00E1502D335437FF33E750B3
:1024A00023005046D133FF338365FE238C305B001D
:1024B000E0509B4B189F5B6B01221F60199F5F6070
:1024C0001B9E1A9FDE601C9E13981E611D9E9F60BE
:1024D0005E61089E0C9F9E61099EDF611E620A9EDE
:1024E0000D9F5E630B9E58629E631498169E9862C1
:1024F0001F631598179F1E641E9ED862DF635E647B
:102500001F9E01279E64209E7F42DE64C626002314
:10251000B600A1190A604B60E022083EA119814E65
:1025200092000E604F600023A11801220A604B60E8
:10253000DE2201217C489200A618494270323060A8
:1025400071600023A11801220A604B60F822012368
:102550009200A1188A26754A5B420A604B600122EC
:102560000023F600A1190A604B6001217048083E63
:10257000A6194942306071609726F600A1190A60D9
:102580004B6001216B48083EA619494230607160DA
:10259000A426F600A1190A604B6001216648083E96
:1025A000A619494230607160B126F600A119083EB3
:1025B000B44601270598614E0A604B6064440100EF
:1025C0007F42266067600127A031564E0A604B604B
:1025D0007F4208390E604F600027012601240E67F4
:1025E0004F67574B411CFF31644269300B604C60B0
:1025F0000E674F67FF3001210400524849422060B6
:1026000061605C46D03426606760083C210001248C
:10261000444B64420B604C605C4632003B0001213D
:1026200039344948FF34226063604942083C2060E5
:1026300061600698310004003A0001230934FF3438
:1026400021606260374A441CFF345B422260636051
:1026500003003A0001273A4E6933FF337F42216776
:1026600062671E605F60130001270A006C1C2D4E1C
:10267000FF34226063607F42083C26606760226707
:10268000636701240800613519002F4BFF35644250
:102690002B606C60049B254A1C00A833B03420607A
:1026A00061601C000123029D5B42226063602C007C
:1026B000B03420606160083C226063604C46039D3A
:1026C000B03420606160083C226063602C00019D92
:1026D000A03420606160083C226063602C00A0345C
:1026E00020606160083C22606360544602000B0079
:1026F000E03422606360A266E36653460122124919
:102700004133083CFF3352422660676019605A60CB
:1027100023B0F0BCBB46B246A946A046F0BDC046B9
:10272000001000200000FFFF0100FFFF0300FFFF7B
:102730000400FFFF0500FFFF0600FFFF0700FFFF8B
:102740000800FFFF0900FFFF0200FFFF7047C046BF
:10275000094A830094464022634410B51C68C000B7
:102760006240C02414408022520113431C60034B7A
:102770009C466044416010BD04C0014000400140DF
:102780000A4B80009C4604236044002901D00C239E
:102790000821002A00D10B00026853400C221A4085
:1027A00080235B01184302607047C04604C00140AB
:1027B0000123D0228340120693629361094A830069
:1027C0009446402263441968C0004A40C021114029
:1027D0008022520113431960034B9C460523604439
:1027E0004360704704C0014000400140024B18683C
:1027F0008007C00F7047C04600C00640EFF310804E
:1028000072B6034A1368002BFCD0BFF35F8F70478A
:102810002C0100D0BFF35F8F0022024B1A6080F3BF
:10282000108870472C0100D070B5EFF3108C72B691
:102830000D4D2B68002BFCD0BFF35F8F0724CB0816
:10284000C618C05C01230C40A3401C000440034296
:1028500007D103433370BFF35F8F2C608CF3108874
:1028600070BD100001F04CFC2C0100D0F8B54746BB
:10287000CE46884680B5EFF3108C72B6214D2C6899
:10288000002CFCD0BFF35F8F9A422CD8D4080727C6
:10289000055D061901241740BC402C421FD00721BA
:1028A0000127894609E0D408055D06194C46390020
:1028B0001440A1400C00294211D001329342F2D2BF
:1028C00001204042BFF35F8F00220E4B1A608CF351
:1028D000108800280FDBC0BCB946B046F8BD2C43B9
:1028E00010003470EEE7BFF35F8F00232B608CF392
:1028F0001088012040424346002BECD0089801F09C
:10290000FFFBC0462C0100D00021044B044ABFF35A
:102910005F8F02C39342FAD17047C046000100D0D6
:10292000800100D0044A1078431CDBB2172B00D979
:10293000102313707047C046F803002000B5054B04
:1029400083B00100009318221F230348FFF78EFF76
:1029500003B000BD8C300110FC1300200123834024
:10296000002904D0034A1360034A13607047034AE6
:102970001360FBE780E200E000E100E080E100E0BE
:10298000024B10309B688000C058704700ED00E09B
:1029900070B50D00EFF3108672B60F4A1368002B66
:1029A000FCD0BFF35F8F0D4B10309B6884001B5928
:1029B0000B4A934203D09D4201D001F0B9FB074B73
:1029C0009B681D51BFF35F8FBFF35F8F0022024BE7
:1029D0001A6086F3108870BD240100D000ED00E07D
:1029E000CD010010F0B5DE4657464E464546E0B5EF
:1029F0000C0083B0EFF3108972B6584A1368002BAD
:102A0000FCD0BFF35F8F564B9A68030010339F00D2
:102A1000D559544A9046954232D0A54243D0524EA1
:102A2000AA1B2F2A2CD801228240924651464F4A97
:102A300012681140019151464D4A1160BFF35F8FFA
:102A4000EFF305829346002A33D101232A009A43EB
:102A500093689C4208D177E04B005B189B00F31809
:102A60009968A1422AD01A00062151560029F3DAAA
:102A7000019B002B19D052463E4B1A603B4B1A600B
:102A8000374B9B68DD51BFF35F8FBFF35F8F002231
:102A9000324B1A6089F3108803B0F0BCBB46B246D3
:102AA000A946A046F0BD1500EAE75246304B1A6031
:102AB000E6E79342C9D001F03BFBC6E70621595631
:102AC000002921DB4A005018800034188046A06895
:102AD0009860E079D871062020569871002824DB90
:102AE000A488F01A6405241544440019E024000564
:102AF000400D24022043988052181F4B9200B618B4
:102B00001A781970B271B3E7594600290FD1FF3115
:102B100091711A49918018490A789A71184A9B1B39
:102B20005B415A43120D0A70A2E71648E3E7164AC2
:102B30001649D21A083A5002400D014399801449AF
:102B400052080A43DA8093E7062151561300002900
:102B5000B8DA5A46002AEAD14546DCE7240100D01B
:102B600000ED00E0CD010010FC03002000E100E0DA
:102B700080E100E080E200E0E719002001BDFFFFF6
:102B8000AAAA000001BD00003604002000F0FFFFEB
:102B900000F8FFFF70B5EFF3058101240443EFF364
:102BA000108C72B6214A1368002BFCD0BFF35F8FE4
:102BB0001F4B05001F4AED1A6D416A43120D1E4D51
:102BC0008900AE6852B27658A6421CD006215956EA
:102BD00091421CD012215956914222D01E215956A1
:102BE000914220D02A2159560324914210D0134BF0
:102BF00019781A708171BFF35F8F00220B4B1A6036
:102C00008CF3108870BDAB680D4C5C50EFE700246E
:102C10006100091989005B18FF21997109499980A0
:102C2000E5E70124F4E70224F2E7C046240100D0DE
:102C3000FC030020AAAA000000ED00E0E719002034
:102C4000CD01001001BDFFFF054B064A1360064A87
:102C5000136053609360D360136153619361704755
:102C60008080808000E400E004E400E070B50400AF
:102C70000E001500FFF756FE0100200000F006F8D8
:102C8000A680E580BFF35F8F70BDC046024B9C46B7
:102C900061448900016070474000003410B50400B1
:102CA000FFF740FE01002000FFF7F0FFFF23237134
:102CB000BFF35F8F10BDC04610B50400FFF732FEB2
:102CC00001002000FFF7E2FFFF23A380BFF35F8F27
:102CD00010BDC04610B504000120FFF72FFE044BC5
:102CE0009C46604480002060BFF35F8F10BDC046EB
:102CF0004000003483680B4810B584466144624448
:102D0000090112019A18591854684B6801209C4215
:102D100001D802D00020C0B210BD12680B689A42E0
:102D2000F9D8F7E7FFFFFF0F0A4B1968EFF31080A0
:102D300072B60A68002AFCD0BFF35F8F1B68BFF32E
:102D40005F8F00221A6080F3108840BF00200021AE
:102D50007047C046C4190020F8B557464E46454650
:102D6000DE46E0B599460CAB1C780DAB1B7806002F
:102D700090469A460768002C11D1BC7B002C42D0AB
:102D800065003B682D19033D59194B78BB73002B27
:102D900000D1FB7300238B704B700B7004E0650057
:102DA0003B682D19033D5919B2682A4B9446424697
:102DB000E3181B0163441A604A465A600A9A9A60F3
:102DC0000B9ADA6000238B704B700B707B7B9B46F9
:102DD000002B2BD022005946B8687B6898473A6888
:102DE000002816D05B4658465B005B445519033BF0
:102DF000A870D118D35C002B00D06B705B460C70B0
:102E00007B73A34513D0F0BCBB46B246A946A0468F
:102E1000F8BD5B465B005B44033BD3189C705119C3
:102E2000525D002A00D05A705B460B707C7342469C
:102E30004B46307D00F0B2FB051E06D05346002BFA
:102E400003D12100306800F0CDFD0E9B002BDAD0BD
:102E50001D70D8E7FFFFFF0FF0B5DE4657464E4620
:102E600045460023E0B58BB00893674B8200D458E9
:102E700000239B46099000F007FB626806000F00E4
:102E8000EFF3108572B61368002BFCD0BFF35F8F91
:102E900023689C465B7B9946002B00D169E0A268C1
:102EA0005A4B90464B441B01984443461A685B6852
:102EB00010001900801BB941002900DC63E009986B
:102EC00000F06CFB00230022984600230692079333
:102ED00000239A466368BFF35F8F5A461A6085F3F2
:102EE00010885346002B08D10028C4D10BB0F0BC89
:102EF000BB46B246A946A046F0BD089B4146180213
:102F00004B461843D047626806000F00EFF3108568
:102F100072B61368002BFCD0BFF35F8F002F50DB1D
:102F200033003B4302D02369002B61D12368D97B56
:102F3000002907D04A00521819688C464946624455
:102F4000033A51709A7B002A01D14A469A734A4645
:102F5000DA734B46E168013BCA5C0132CA545B46F6
:102F600023616368BFF35F8F5A461A6085F3108848
:102F700081E700230022984600230692079300234E
:102F800000209A46A6E7002902D1002800D096E743
:102F90000021604600F0A4FC43461A685B68069274
:102FA000079343469B689A464346DB689846E36826
:102FB0004B44013B1B7808931B0203432361002011
:102FC00088E72369002BB1D0069A079B921BBB416F
:102FD000002B15DB594604910121039149460291CA
:102FE00041460191514620000091FFF7B5FEB6E73A
:102FF00000F04AFA32003B0012184B41002BE9DA8C
:103000000122034B5242E5E7AC180020FFFFFF0FFF
:10301000FFFFFF7F10B5144C6368002B04D00A211A
:103020001248FFF733FE10BD2300114A102120681B
:1030300000F070FB032000F01BFA032000F018FBE7
:1030400003200C4900F064FAFFF76CFC0A4B9C4625
:1030500003232375D0231B061B6860446375074B4D
:1030600080006060DC60DAE744040020C4190020BE
:10307000F52C0010592E001040000034AC18002030
:10308000F0B54E464546DE465746E0B585B001935D
:1030900010AB1B78060003930023994698460092D4
:1030A0007268EFF3108B72B61368002BFCD0BFF37D
:1030B0005F8F3568AC7B002C3DD067002B683F19D3
:1030C000033FDB195A78AA73002A00D1EA73B1686A
:1030D000474A8C4600980199A21812016244106078
:1030E00051600E9991600F99D16042469A705A7062
:1030F0001A706B7B9A46002B67D022001900A868D3
:103100006B6898472A68002852D0534650465B00A7
:103110005344D719033BB870D118D35C002B00D0AF
:103120007B7053460C706B7354454FD0F3681B197A
:10313000013B187800E000207368BFF35F8F4246C0
:103140001A608BF31088002C4FD04B46002B08D10F
:103150000002204305B0F0BCBB46B246A946A046DB
:10316000F0BD039B002B3ED00E9B00200F9998478B
:10317000030004000D000B4335D000290ADA009A41
:10318000019B121BAB4100920193002B0ADB039BB6
:10319000994685E700F078F924184D41009401958F
:1031A000002DF4DA0123134C5B4200930194EEE707
:1031B00053465B005344033BD3189C70D119D25D36
:1031C000002A00D05A7053460B706C73307D009A01
:1031D000019B00F0E3F981460028A7D02100306868
:1031E00000F000FCA2E70020B4E701204042B1E774
:1031F000FFFFFF0FFFFFFF7FF0B504000D00062665
:103200007642F717C64636196F4100B584B08F4233
:1032100014D811D000F038F932003B00121A8B415B
:10322000002B15DC002B3ED02000290000F060F9B7
:1032300004B080BCB846F0BD8642EBD9002600271A
:1032400000F022F932003B00121A8B41002BE9DD1D
:10325000002302930193154B3200009314483B0066
:10326000FFF70EFF0028DFDB00239846BC46114A1B
:10327000114F7B6A9C4504D8B96A8E42D4D99C45CB
:10328000D2D11168EFF3108072B60B68002BFCD01E
:10329000BFF35F8F1368BFF35F8F4146196080F300
:1032A000108820BFE5E7002ABED0D1E7292D001005
:1032B00044040020C41900200040054070B50400FB
:1032C0000D0000F0E1F800196941002902DBFFF769
:1032D00093FF70BD012001494042F8E7FFFFFF7FE7
:1032E000F0B5EFF30583CE46474680B505000C00E8
:1032F00085B0002B12D02C4A0020536A9C4203D880
:10330000926A0130AA4204D305B0C0BCB946B046A7
:10331000F0BDE01A421E9041C0B2F5E7234E029381
:103320000193234B0200009330000B00FFF7A8FE2F
:10333000031EE0DD20BF7168EFF3108772B60A68E4
:10334000002AFCD0BFF35F8FDAB294463068427B2C
:1033500062451DD0FF221A40510089460168914400
:1033600088464946414403398978002913D0F168D9
:103370001B0A88464244013A1278DBB29A420FD0C7
:103380007368BFF35F8F00221A6087F31088B2E77B
:10339000FF221A40EBE732699342F1D13161EFE746
:1033A000614600F01FFBEBE70040054044040020AD
:1033B000292D0010F0B5EFF30582D6464F4646465C
:1033C0001000C0B51038EFF3108872B6214C236896
:1033D000002BFCD0BFF35F8F0123190081401E4DED
:1033E0001F006963AA461D4D29601D4D2E78AC460D
:1033F0003500C5402F402B4209D1BFF35F8F2760B6
:1034000088F31088E0BCBA46B146A846F0BD5346E2
:10341000144D5F6A83005D59AF420ED3124A8E434A
:103420009B5862461670BFF35F8F0022226088F3BC
:103430001088002BE6D09847E4E70C4B92009C469E
:10344000624413681360BFF35F8F0023236088F327
:103450001088D7E7280100D0004005403C700540A7
:10346000EA190020C81900204C130020D03F054065
:1034700010B50100024A0348FFF7D6F910BDC04657
:10348000B0300110E3190020034B596A0A00986A12
:10349000596A8A42FAD170470040054070B504006D
:1034A0000D00124A536A1900966A536A8B42FAD188
:1034B0003000190024184D41AB4211D80ED02B001A
:1034C0000A494A6A9A42FCD307D1084A02E0516A83
:1034D000994202D1916AA142F9D370BDA642EED9B8
:1034E000012301246442E5175B42E9E700400540FF
:1034F000064A536A9942FCD807D1044B02E05A6A43
:10350000914202D19A6A8242F9D370470040054045
:1035100070B504000D00EFF3108672B61A4A1368F6
:10352000002BFCD0BFF35F8F002D1BD02000FFF7D6
:1035300027FA164981420AD02000FFF729FA012113
:103540002000FFF70BFA0123A340114A1360114B2F
:10355000A400E550BFF35F8F00220B4B1A6086F387
:10356000108870BD0B4BA200D5500122A2400A4921
:1035700020000B7893430B700449FFF733FA0021C6
:103580002000FFF7EBF9E5E7280100D0B533001084
:10359000386005404C130020EA190020F0B54F4672
:1035A000D6464646C0B507002C4C616A0D00A66A97
:1035B000616AA942FAD18B4208D805D00120E0BC4B
:1035C000BA46B146A846F0BDB242F7D9EFF3108A29
:1035D00072B6234801680029FCD0BFF35F8F012534
:1035E000BD4020491D4C8846097889462943C9B207
:1035F0008C46414660460870391D1B48890065634A
:103600000A51B9000B50216A0020294219D0616A81
:103610000800A66A616A8142FAD18B4219D801D1A9
:10362000B24216D8CC4516D00C4B1F201D625D63EC
:1036300001230740BB400D4A1E38136043464A46EB
:103640001A70BFF35F8F0022054B1A608AF310884F
:10365000B5E70020F5E70120F3E7C046004005404C
:10366000280100D0EA190020C819002080E200E0FB
:10367000EFF3108C72B60A490B68002BFCD0BFF335
:103680005F8F01238340074A0748136202789A43F9
:103690000270BFF35F8F00230B608CF310887047BC
:1036A000280100D000400540EA19002070B505004F
:1036B00014001600002915D00C00002A12D08068D2
:1036C0006B689847296800280ED073009B19620028
:1036D000033B1219CB18033A9C7088188A5C002AA5
:1036E00015D10670200070BD63001B197200033BEA
:1036F0009219CB18033A9E7088188A5C002A02D16E
:1037000004703400EEE75A7004703400EAE75A702F
:103710000670E7E730B583600023CCB24373013312
:10372000047342608373C4730D000068012C06D9D2
:10373000421C0133DBB2137003329C42F9D1FF21EA
:1037400029404B005918002340180338437030BDFE
:10375000F8B5CE46474606000C0080B5002907D0D4
:103760004D0003686D18033D5A195778002F04D196
:103770002000C0BCB946B046F8BD7900C91903396C
:1037800088464344597889460021597051707368BE
:103790003A002100806898473368002814D04246D8
:1037A0009A18947059195B5D002B00D053700F70FC
:1037B000270049463000FFF7CBFF390002003000F8
:1037C000FFF774FF0400D3E7424641465D19AF702E
:1037D0009A185B5C002B00D06B701470E9E7C04650
:1037E000F0B557464546DE464E46E0B50D006B0047
:1037F00001685B19DF1E0400C85D83B00192CA191D
:10380000002850D043001B18033BCB185E78B44609
:10381000002E1AD1019E002E42D0E67B002E04D04D
:1038200073009B19CB18033B5D70A37B002B00D169
:10383000A573E57300282FD10023537003B0F0BCAB
:10384000BB46B246A946A046F0BD72006244033AA8
:1038500089184A78904600224A7091465A700100B1
:1038600032002000FFF722FF43468246002B07D09C
:103870005B0021684344033BCB185A78002A16D1D9
:10388000424651462000FFF711FF2168019BCA19EB
:10389000002BC2D10028CFD043001B18033BCB180C
:1038A00000219970C8E7019B002BB6D1C4E75000F6
:1038B000801803380918487883464846487058707D
:1038C00041462000FFF7F2FE594680462000FFF7F0
:1038D0003FFF414602002000FFF7E8FE8046CFE7A9
:1038E000F0B557464546DE464E46E0B583B00191F9
:1038F000457B04006B0000685B19DF1EC15DC219C7
:10390000002952D04B005B18033BC3185E78B446C5
:10391000002E1CD1019E002E44D0E67B002E04D048
:1039200073009B19C318033B5D70A37B002B00D170
:10393000A573E573002931D100232800537061730A
:1039400003B0F0BCBB46B246A946A046F0BD72002B
:103950006244033A801842789046002242709146B1
:103960005A7020003200FFF7A1FE43468246002B2A
:1039700007D05B0021684344033BCB185A78002AE8
:1039800017D1424651462000FFF790FE019B0100EF
:103990002068C219002BC0D10029CDD04B005B1884
:1039A000033BC31800209870C6E7019B002BB4D1DD
:1039B000C2E7500080180338091848788346484603
:1039C0004870587041462000FFF770FE5946804607
:1039D0002000FFF7BDFE414602002000FFF766FE13
:1039E0008046CEE770B5040000292CD0437B8B4283
:1039F0002ED0056848004018033828188278002A1D
:103A000021D053009B18033BEA5CEE188A4202D196
:103A10001BE0002A08D053009B18033BEB185A7890
:103A20008A42F6D142785A70002301228370437093
:103A30002000FFF7D5FE617B02002000FFF736FE75
:103A40006073012000E0002070BD43783370EBE725
:103A500001221900FFF7C4FE60730120F4E7C0469D
:103A6000F8B5CE464746040080B506200E0000F0AB
:103A700023FA051E51D0524B5249E21853425A4183
:103A80008023DB039C4692054F4B62441A604F4BE8
:103A90001A6010008B689843FBD1494B8021E318D2
:103AA0005A4253414A4A5B0049009952062000F0AD
:103AB00003FA3100C00001F0C3FEC30932D1402235
:103AC000012190466162A362256BEB0736D4270083
:103AD0008026E36A00232C3776013E4333600620BC
:103AE000256300F0E9F94146800001F0A9FE236B4F
:103AF00005009846DB073BD46022E36A5A406E23F8
:103B00001340336043462363802310229B013B43D1
:103B10001A60304B23630323A3642800C0BCB9465A
:103B2000B046F8BD2C4A93423FD900232B492C4A7A
:103B30006162A362256B9046EB07C8D52200C023C3
:103B400030329B011343234A06201A60666AA26A38
:103B5000B601B61800F0B0F9224901F071FEB602C4
:103B60000100300001F06CFE0021FFF797FCAEE78A
:103B70002200C02330329B011343164A06201A60EC
:103B8000636AA26A9B019946914400F095F94B46FD
:103B900014499B02994601F053FE0100484601F08A
:103BA0004FFE0021FFF77AFCA6E77F2299018846A5
:103BB00010400130400819008044030082E7C046ED
:103BC0000080FCBF00C0004000E0004000F000406A
:103BD000D819002001030000FEFF0000FFFF0000D5
:103BE000C0FF3F004E0E000030B50C2083B000F047
:103BF000B9F9FEF7FBFD00280ED0994B994A1A60DF
:103C00005A609A60DA601A615A619A61DA611A62DE
:103C1000954A5A6203B030BD944CA06700F0AAF9EF
:103C20000122934B1A60636C012BFCD10322914B50
:103C30001A608E4A936B012BFCD1013301218E4A0D
:103C40008E480093043300F03DF905238C4A00931D
:103C500001218C4800F036F98B4B5A68FF2A02D8B4
:103C6000802252005A6080227D4C824B21691201D1
:103C7000854D1A60002907D0606901F0E1FD431C01
:103C80005800C0180338FDD2E0217F4B02201A688B
:103C90001140802252012A431160196848400321D3
:103CA0000140116004219A681142FCD080228021D9
:103CB00092012A4309011160802252005A60734B1D
:103CC0002361734B5968FF2900D85A600321684A61
:103CD0006F4B116002399A681142FCD0E0201A68DB
:103CE0001040802252011A43106018684840032196
:103CF00001400220116066498A681042FCD080228F
:103D000092011343802212011A608022614B5200FB
:103D10004A606361604B5968FF2900D85A6080226D
:103D20005E4BE16912015C4D1A60002907D06069A1
:103D300001F086FD431C5800C0180338FDD2E02274
:103D400055490B681A4080235B012B431A6080237E
:103D500080229B012B4312011A608022414B5200AA
:103D60004A60E3614E4B5968FF2900D85A608022AF
:103D70004C4B216A12014A4D1A60002907D0606934
:103D800001F05EFD431C5800C0180338FDD2E0224C
:103D900043490B681A4080235B012B431A60802340
:103DA00080229B012B4312011A60802380225B003A
:103DB0004B602C4BD20223623B4B5968914200D29C
:103DC0005A608022394B616A1201374D1A6000290E
:103DD00007D0606901F034FD431C5800C018033857
:103DE000FDD2E02230490B681A4080235B012B434F
:103DF0001A60802380229B012B4312011A608023CA
:103E0000DB024B60184B6362294B5A68FF2A02D8C9
:103E1000802252005A608022264BA1691201244D53
:103E20001A60002907D0606901F00AFD431C5800A0
:103E3000C0180338FDD2E0221D490B681A408023C8
:103E40005B012B431A60802380229B012B431201CC
:103E50001A6080235B004B600E4BA361DAE6C0461C
:103E600000140020006CDC021BB700000080004042
:103E70003CB0004030B00040002F68590080024044
:103E8000008C864700C0024030800040001BB70015
:103E90003C800040405973075480004054B00040BB
:103EA0006080004060B000406C8000406CB000401A
:103EB0004880004048B00040014B8000C058704727
:103EC00000140020F8B5040021481D0017000E0062
:103ED00001F0B6FC0100380001F0B2FC069B290499
:103EE0001B0319432368002B20DB1A4B1A4DE218E1
:103EF00053425A4180235B019C461203174B624494
:103F00001A60174B1A601700AB689F43FBD1C022A1
:103F1000231D92011A4321232660A06013602368A9
:103F2000002BFCDA0823E1601360F8BD3F23226810
:103F30001340B342D9D1A3681B051B0D8342D4D1D2
:103F4000EE22E368D20213408B42CED1EDE7C046A9
:103F5000001BB7000040FDBF00C0004000E0004073
:103F600000F000408023024A9B000343D362704765
:103F700000800540AA23064A1B0113602F23054930
:103F8000D360054B19605368002BFCDA7047C046BC
:103F90000040024000B0FA00006002402C4B2D4A65
:103FA00070B51A602C4A2D4B2D491A6014008B688D
:103FB0009C43FBD12B4D2C4EB54208D2013E761BC3
:103FC000B60808CD984723000134B342F9D1FFF772
:103FD0000BFE264A214B1A60214A9368DB43DB0122
:103FE000DD09002BF9D14022214B224C224E9A6749
:103FF0005A671A67DA66B44208D223682000002B99
:1040000020D00834FEF758FEB442F6D31B4E1C4CA9
:10401000C022A168300002F05FF9A660FEF774FCD0
:10402000FEF712FEFEF7F6FF164C174EB44208D20A
:10403000013E361BB60808CC98472B0001359E423E
:10404000F9D170BD0834FEF729FEB442D5D3DDE7BF
:1040500000E00040BFCDFBFEFE7F3C0000F00040D2
:1040600000C00040D00E0020E00E0020FFFFFF0146
:1040700000F00140C00E0020D00E00200000002003
:1040800000ED00E0E00E0020E40E002000BEFDE7A1
:10409000094A03001068002805D00849C3188B425C
:1040A00007D81360704706480449C31810608B4254
:1040B000F7D901204042F5E77818002000000420DD
:1040C000EC19002010B5FFF7E1FFC04610B50C0059
:1040D00082B01900002A0AD0064B01920093020018
:1040E0002300054801F00CFB0120FFF7CFFF034B35
:1040F0001A00F2E7D4300110E4300110DC36011070
:104100000FB400B5084883B002F04AFA049B002BB4
:1041100007D005A91800019101F012FB034802F035
:104120003FFA0120FFF7B2FF143101109838011057
:1041300010B50148FFF7E4FF243101109A4200D284
:10414000885470477047C046F8B557464E464546B6
:10415000DE46E0B599460A9B07009A460D9B8846C5
:10416000934615000B9E9B0710D10C9B9E420DD2CF
:104170009D1B14000E005D4422004B4601343100AB
:104180002020B847A542F7D1B0460B9E002E27D07D
:10419000444675195346AA1B013E985D21004B46C3
:1041A000B847002EF6D123002C0098460D9B9B07A4
:1041B0000FD55B46E51A0C9BAB420AD9464698469A
:1041C00022004B46310020200135B8470134A84574
:1041D000F6D82000F0BCBB46B246A946A046F8BDC2
:1041E0002C00E3E7F0B54F464646D646C0B584B04E
:1041F00098460EAB1B78129F994694460D9C109BD7
:10420000119EBA0725D4002E4BD19C4200D3BFE0AB
:1042100001223A4092461F2C00D9B8E00C9A551E54
:10422000302201E0202C03D001342A55A342F9D8D2
:104230005246002A0DD0A6420BD9202C44D00C9A0D
:10424000551E302201E0202C3ED001342A55B442C4
:10425000F9D1FA064DD57A053FD4002C39D10F9B00
:10426000102B00D179E00F9B022B00D18AE0302384
:104270000C9A012413704B46002B3FD02D230C9A2F
:10428000135501340C9B62460093039743460296F4
:104290000194FFF759FF04B0E0BCBA46B146A84606
:1042A000F0BD012215003D40AA463A422FD04A46B1
:1042B000002A02D10C323A4200D0013E9C42BAD2CE
:1042C0001F2CABD9202E27D92024FA06DAD57A055F
:1042D00003D4A3422DD0A6422BD00F9B102B32D05B
:1042E000022B20D0202CCDD030220C9B1B191A7011
:1042F0000134202CC6D04B46002BBFD17B070DD4F8
:104300003B07BFD520230C9A13550134BAE79C42D2
:104310009FD21F2C00D881E720249AE72B230C9AE8
:1043200013550134AEE7202CACD00C9B1B19013483
:104330003AE0631E012C92D00F9A102A2AD0022A4A
:104340002FD01C00D0E7BB060ED4202C9AD00C9B9B
:104350001A19013478231370C4E7BB060DD47823EF
:104360000C9A01241370BFE7202C00D18AE7582251
:104370000C9B1B191A700134B4E758230C9A0124C2
:104380001370B1E70C9A603301241370ACE720245A
:1043900000265EE7023CBA06E9D40C9A12191C000A
:1043A000D8E70C9A9246534462221A709AE7C046A4
:1043B00010B5002800D110BD02F0A6F8FBE7C046FA
:1043C0000B0010B5002802D049681B68984710BD43
:1043D000F0B5DE4657464E464546E0B59BB09B4697
:1043E000249B89469846259B0B900C92404642465A
:1043F00019009A4601F0E5FC002800D0D8E001221F
:1044000040465146774B524201F0D6FC002800D07E
:10441000CEE0012240465146734B524201F0B6FCB9
:10442000002800D0C4E0002200234046514601F09D
:10443000ADFC002800D0B9E1424653460A920993E8
:104440008023289ADB001A400E92289A1A4201D142
:10445000062326930A9A099B1600134300D0C7E04F
:10446000289B002500261B0500D49BE100230D930B
:10447000269A0D9B9A4200DC9FE1D01A431E269398
:104480008023289ADB001A430023002728920D93EB
:10449000279B0024BB4200D9DC1B0223289A1A4028
:1044A0000E92289A134203D07B427B415B421C4010
:1044B0000D9B002B07D00A9809992A00330001F0C0
:1044C00004FC0A900991002200234046514601F065
:1044D0005DFC002805D080200006844609996144CF
:1044E0000991289A414B0B9D13400493269B0A9AED
:1044F0000293099B03940092019349465B4628006E
:104500000C9A00F08BF90400002F62D0289B220047
:1045100098061F23C0179843631C984649465B467C
:104520006530A8470D9B0025DA179C18DB0F9A46CB
:104530005440013F01E0202D13D00AAA94461F23C6
:10454000200063440A2101355E1901F079F9303108
:10455000317020000A2101F073F926000400092EB1
:10456000E9D805230693002304930A3303935346A3
:1045700005970B9F029312AB009342465B46494658
:1045800038000195FFF72EFE0E9B0400002B20D073
:104590000C9BC51A279BAB421BD91E0022005B4611
:1045A000494620200135B8470134AE42F6D810E024
:1045B000289B42460493279B49460393269B0B98CE
:1045C00002935346009201935B460C9A00F026F941
:1045D000040020001BB0F0BCBB46B246A946A04672
:1045E000F0BDC046FFFFEF7FFFFFEFFFFFF7FFFFCC
:1045F000734B099F9C467800400D604401F0F4FB2A
:10460000704A714B01F07BFB704A714B01F058FB13
:104610003B03704A1B0B1A4304000D0030001100CD
:104620006D4B002201F047FB6C4A6D4B01F067FBBC
:1046300002000B002000290001F042FB01F0ECFB1E
:104640000D9001F0D1FB674A674B04000D0001F0AB
:1046500056FB0022654B01F033FB01F0DDFB644AA1
:104660000600644B2000290001F049FB04003000E3
:104670000D000F9601F0B8FB5F4A604B01F03FFB65
:1046800002000B002000290001F015FB02000B00C6
:1046900006000F0001F033FB320004000D003B0068
:1046A0003000390001F00CFB002210901191544BA6
:1046B0002000290001F009FB0022524B01F000FB11
:1046C00002000B002000290001F0FFFA00224E4BEF
:1046D00001F0F6FA02000B002000290001F0F5FAC3
:1046E0000D008021040032003B000020C90501F0CC
:1046F000E2FA02000B002000290001F0E1FA0200BA
:104700000B001098119901F0E0FA0022314B01F0F2
:10471000D7FA3E4B0F9C9C4664440022230501F0CF
:10472000EEFA05000E0002000B000A98099901F04C
:104730002DFB00280AD00D9B2800013B31000D9372
:104740000022304B01F0C1FA05000E00C6270D997A
:104750002B0063318F42BF4128997F4204370905FE
:1047600000D495E6334300D182E6099C284A210013
:10477000284B0A9801F018FB002808D000222100DD
:10478000254B0A9801F002FB002800D070E6269B1A
:10479000002B00D17CE60E9B5A1E9341269AD31A19
:1047A000269375E6002304270D9371E643460A938A
:1047B00080231B065344099342E6002326935FE6B9
:1047C00001FCFFFFFB799F501344D33FB3C8608BBC
:1047D000288AC63F0000F03F0000F83F61436F6346
:1047E000A787D23F71A379094F930A400000E03FA9
:1047F0001655B5BBB16B0240EF39FAFE422EE63FCB
:1048000000002C400000244000001840FF0300007E
:104810002D431CEBE2361A3F80842E41F0B54E4604
:10482000DE4657464546E0B597B09946209E219F03
:10483000229B8346984607910C923B003200300041
:10484000390001F0BEFA002800D0A9E101223000B1
:104850003900CA4B524201F099FA002800D0E1E039
:10486000012230003900C64B524201F0A5FA00285F
:1048700000D0B7E0002230003900C24B01F09CFAB2
:10488000002800D099E0002230003900BE4B01F032
:104890007DFA002800D090E000220023300039008B
:1048A00001F074FA002800D0B1E000230D93249B9E
:1048B0005B0501D40623984608AB9C4617220024CA
:1048C00030234146624404E0013413550139202C61
:1048D00001D00929F8D888463000390001F09CFA47
:1048E0004346DA00A94B05009B181A685B680892DA
:1048F000099301F079FA02000B003000390001F051
:10490000DAF9089A099B01F0FAF90A900B9101F083
:10491000A7FA824601F064FA02000B000A980B998C
:1049200001F0C9F900229A4B0A900B9101F044FA68
:10493000002800D1C0E001239C46E244504601F02B
:104940004FFA02000B000898099901F025FA002897
:1049500002D000239A4601354346002B6AD008ABAB
:1049600017269C4608956644554614E001235B4291
:1049700043440A2128009A4600F062FF0134303196
:104980003719397028000A2100F05AFF092D00D884
:10499000D0E0D0460500202CE8D10EAB984603238A
:1049A000249A1340012B00D196E02023249A0193EE
:1049B0000392239A434602921EE0249B5846049396
:1049C000239B00960197039343460C9A0293079901
:1049D0004B46FFF7FDFC17B0F0BCBB46B246A946FC
:1049E000A046F0BD249B5B070ED40322694B24999B
:1049F0000192039123990291009358464B460C9AD9
:104A00000799FFF7A1FBE6E70422634BEFE73B00C2
:104A100032000020002101F04EF9012306000F00B2
:104A20000D9344E7249B0393239B02930423019358
:104A30005A4BE1E7280001F0D7F902000B003000E3
:104A4000390001F038F9524B002206000F0001F046
:104A50009DF90EAB984600280AD10022300039009B
:104A60004B4B01F0A9F9002802D1EB0700D5013525
:104A7000202C94D008AA94461723280063440A21C6
:104A800001341E1900F0B4FE3031280031700A21C3
:104A900000F0AEFE051EEBD10323249A1340012B38
:104AA0001BD0202C00D180E70D9B002B35D02D2270
:104AB0004146631C0A5579E700220A980B99344B4A
:104AC00001F064F9002800D046E75346002B51D18D
:104AD00001239C46E2443FE72024239B002BE0D0A7
:104AE0000D9B002B03D1249A0C33134202D0239B3D
:104AF000013B2393239BA342D3D908AB9C461722A7
:104B000030236244202C00D14FE723990134135500
:104B10008C42C6D0202CF8D147E7249B5B0724D4D5
:104B2000249A2300120700D440E720224146013393
:104B30000A553BE75746089D202C00D12DE722005F
:104B400030214046002F09D00132B154202A00D133
:104B500023E7D3431B191B18002BF5D10EAB984646
:104B60002E234146541C8B5482E72B224146631C62
:104B70000A551BE7DB0700D4EEE6A9E7FFFFEFFFCE
:104B8000FFFFEF7F65CDCD4165CDCDC1283301104D
:104B90000000E03F3031011034310110403101108C
:104BA000249B0393239B029303230193004B23E74E
:104BB0003C310110F0B5DE464E4657464546E0B55D
:104BC0009FB01C00289B91460993C94AC94B8B464C
:104BD00008901A60002900D118E2002320789A4634
:104BE000002800D11AE226001D005C460AE02A00D7
:104BF0006F1C4B46089D2100A8473D0001363078C8
:104C0000002870D02528F2D110239B46083B9A46F5
:104C1000043B9846023B00219C46721C107816000B
:104C20000300203BDBB2102B03D8B34F9B00FB5893
:104C30009F460300303B092B32D900230A932A28D0
:104C400068D0002398462E283ED00300683BDBB294
:104C5000122B1CD8A94A9B00D3589F46012301322E
:104C60001943DBE7634601321943D7E74346013274
:104C70001943D3E75B4601321943CFE7534601326C
:104C80001943CBE780235B0070781943013603009A
:104C9000253BDBB2532BAAD8994A9B00D3589F4699
:104CA00000270300B800C01901364000C01833784F
:104CB00030381A00303A0700092AF3D90A90180050
:104CC000002398462E28C0D180237078DB0019433A
:104CD0000300303B721C092B00D8A1E12A2800D127
:104CE000B2E11600B1E7A346AA462C00D14503D88D
:104CF00001235B424B449A464B465246594600209C
:104D0000089DA84720001FB0F0BCBB46B246A9468C
:104D1000A046F0BD099B40CB0A96002E03DB5078DD
:104D20000993561C8DE72838014370420A90099375
:104D30005078561C85E7782800D1DFE1582800D14B
:104D40004CE26F2800D14FE3622801D100F030FC23
:104D500010230A009A430B92692801D000F0A9FCA5
:104D60000A230C934B0500D5D0E10B9A8023110048
:104D70009B0019408B461A4200D0A1E2802311000B
:104D80005B0019408A461A4200D0B6E313005B0666
:104D900000D5EDE2130009991B0601D400F076FC62
:104DA00008C91BB2D8171A18424092B2099193460B
:104DB000DA0F1292002B09D1802310220B99DB000D
:104DC0000B4091430B91002B00D0E4E20B9A61233E
:104DD000920600D541230EA91F228C46DBB2624405
:104DE0000A3B5F461395A34655460C9CB2460D936D
:104DF00016000AE03033DBB201357355A74200D20A
:104E0000EDE2202D00D1EAE207002100380000F099
:104E100017FDCBB20929EDD90D9A94466344DBB254
:104E2000EAE780239B007078194301362FE77078FA
:104E3000682800D1CDE180230136194327E7707837
:104E40006C2800D1BFE180235B00194301361EE7C7
:104E5000462800D19BE10722099B04910733934325
:104E60000A9A19000392424602920CC908980092CD
:104E7000019309912A004B462100FFF7CFFC013630
:104E80000500BCE62A006F1C4B46089D210025202A
:104E9000A84701363D00B2E68B0700D4ADE1099B7F
:104EA0002A009A466B1C9846534601CB21009A462D
:104EB000089F4B46C0B2B8470A9B9C466544012BED
:104EC00000D886E2089B4746B04626004C469946E5
:104ED0003A002300013731002020C847AF42F7D104
:104EE000A1465346340046460993013687E6C0463C
:104EF000B54B001084180020483101108C3101108E
:104F0000D8310110099B04CB9B4643460992002BE4
:104F100000D1C6E013789C46002B00D1BDE3434688
:104F2000013B099A0133D0180A9F130001E0834224
:104F300003D05A780133002AF9D1099A0A979B1AAB
:104F40000B9380230A00DB001A400C92194204D014
:104F50000B9B434501D943460B9302231A000A4099
:104F60000D920B4200D187E16046002800D168E134
:104F70000C9B002B00D10DE1A844C246099B57466B
:104F80005B1B9846089BB2462A0026004C46994671
:104F900009E023003100551CC8474346585D0028EE
:104FA00000D126E12A009742F3D1A1463D0034000A
:104FB00056460D9B002B00D043E15B46013609931A
:104FC0001DE6099B1A0008CA9246002B48D02122F0
:104FD00011438B460EA884461F2161440995002287
:104FE0000F27A4460D0002E0202A0CD00B003C0045
:104FF0001C4020003730092C00D807380132A85453
:1050000019090F2BF0D86446099D32E0DC4B20785B
:10501000089300239A46002800D0E4E5002465E6C2
:10502000434606000A9F9800C018013240008019CC
:105030001678030030003038303B0928F3D93000AF
:10504000984616000A9700E6099B023604CB904664
:10505000D2434046D2171040804609933078F4E599
:105060001022080090431132104383460022490564
:10507000B0D55B460693082305934346049310235B
:1050800003930023029316AB019200932A004B4630
:1050900021000898FFF7A6F853460500013609934A
:1050A000ADE513789C46002B00D1F7E202235B426A
:1050B00037E7202302009A43472A04D180231B01AB
:1050C000194302239843452801D12023194307227D
:1050D000099B0491073393430A9A190003924246AD
:1050E00002920CC908980092019309912A004B463C
:1050F0002100FFF76DF90136050080E510230C93C0
:105100000C230A009A430B924B0503D501230B9AFB
:105110009A430B92692800D127E6642800D124E63F
:105120000B9A802311009B0019408B461A4200D035
:1051300066E1802311005B0019408A461A4200D0C4
:1051400039E213005B0600D53CE113001B0600D4D6
:10515000A6E2099B04CB1204120C934609935B460A
:10516000002B00D09AE10B9A1033110099430B9158
:10517000520500D492E100239A460B9B06930A9BAA
:105180000593434604930C9B039300230CE12023D7
:10519000194360E6099B0A9A5B1B98464B46914669
:1051A0001F00B2462600089C2A003B003100A047A1
:1051B00043460135585D0028F6D14A463400B946C9
:1051C00056460A92F5E6C0239B00B0781943023692
:1051D0005DE5C023B0781943023658E50C230A0078
:1051E0009A4314331A43103B0B920C934B058DD406
:1051F00096E7A14634005646DBE60A9A012A00D813
:1052000053E26B1E9F18089BB04626004C469946F9
:105210002A002300013531002020C847BD42F7D1C4
:10522000A14634004646099B3A0001CB210098462E
:105230007D1C4B46089FC0B2B847434601360993D0
:10524000DDE40B9B0A9AA8469A4200D8B5E694463C
:105250006544ED1A089B4746B04626004C469946E1
:105260003A002300013731002020C847AF42F7D170
:10527000A14634004646A0E60B9A0A99531C914277
:1052800000D814E24B199B1A1F00089BB246260057
:105290004C4699462A002300013531002020C8479A
:1052A000BD42F7D10A9BA14601330B93099B340001
:1052B0001B7856469C466046002800D058E67CE69F
:1052C0000722099B07339343013294469C4462466C
:1052D0005F6809921A68FB1710931193109811993F
:1052E000030053400E930B007B400F9394460E9A9D
:1052F0000F9B121A8B410E920F93FB0F6246129373
:1053000000233A439B463DD00B9A6123920600D579
:1053100041230022DBB20EA90A3B8C4692460D9334
:1053200043461F3262441395159655460E9E0F9FB5
:10533000A24690460C9C14930CE03032D2B2434605
:1053400001355A55BB4500D18AE1202D00D18AE1B3
:1053500006000F00220000233000390000F0AEFAF2
:10536000D2B2092AE9D90D9B9C466244D2B2E6E743
:10537000FF23099904C913401A00099117E5C04693
:10538000454100100B9A1033110099430B915205BF
:10539000BAD500239A460B9B06930A9B0593434676
:1053A00004930C9B0393129B02935346019316ABF9
:1053B0002A00009321004B460898FEF713FF0136A0
:1053C00005001CE4FF22099B02CB11408B46099388
:1053D000C5E65346454609930136FFF710FC56468D
:1053E0005C46AA46139DD6E708230C930B910B99B4
:1053F000642800D084E60B9B5B0500D586E6B4E408
:105400000722099B07339343013294469C4462462A
:1054100009921A685B6810009B4613005A461343B2
:1054200007D10B9A1033110099430B91520500D507
:10543000A1E60B9A6123920600D541230022DBB23C
:105440000EA90A3B8C4692460D9343461F32624496
:105450005F461295A34655460400B24690460C9E00
:1054600013930DE03032D2B2434601355A55002332
:10547000BB4200D100E1202D00D100E104000F006B
:10548000320000232000390000F018FAD2B2092AB5
:10549000E8D90D9B9C466244D2B2E5E70B9A6123A2
:1054A000920600D54123DBB20EA90A3B1F228C468F
:1054B0000D93230062445C461295170055469B46A7
:1054C000B2460C9E08E03033DBB201357B55B44266
:1054D0000ED3202D0CD004003100200000F0B0F9D4
:1054E000CBB20929EFD90D9A94466344DBB2ECE7BD
:1054F00056465C46AA46129D3FE6099B1A0008CA1A
:10550000D91713925A184A409246DA0F1292002B7A
:1055100008D1802310220B99DB000B4091430B91A3
:10552000002B2BD10B9A6123920600D541230EAAA2
:105530001F279446DBB20A3B0D9567445D460993ED
:10554000A3465446B2460C9E08E03033DBB2013528
:105550007B55B4420ED3202D0CD004003100200026
:1055600000F06EF9CBB20929EFD9099A9446634449
:10557000DBB2ECE756465C46AB460D9D0B9B2A0022
:1055800006930A9B21000593434604930C9B0898BD
:105590000393129B013602935B46019316AB009373
:1055A0004B46FEF71FFE139B05000993FFF727FBF1
:1055B00002230C931AE7099B04CB92461293002A0C
:1055C00008D1802310220B99DB000B4091430B91F3
:1055D000002B2BD10B9A6123920600D541230EAAF2
:1055E0001F279446DBB20A3B0D9567445D4609933D
:1055F000A3465446B2460C9E08E03033DBB2013578
:105600007B55B4420ED3202D0CD004003100200075
:1056100000F016F9CBB20929EFD9099A94466344F0
:10562000DBB2ECE756465C46AB460D9D0B9B2A0071
:1056300006930A9B21000593434604930C9B08980C
:105640000393002302935B46019316AB00934B46F2
:10565000FEF7C8FD129B050009930136FFF7CFFA4C
:10566000B44200D871E6149B54460E960F97AA4692
:105670009846159E139D8EE6A64200D8FBE6139B26
:1056800056469846AA465C46129D76E508C9D81744
:105690001A1842400991FFF78AFB00230B9350E44C
:1056A000099B04CB9346099359E52F00BBE50B9367
:1056B00001E6063B0C939AE60CB410B584B006AC38
:1056C00008CC0A000094010004480394FFF772FA22
:1056D00004B010BC08BC02B01847C0463D410010E1
:1056E00000B585B003910121029000930348130097
:1056F0004A4202A9FFF75EFA05B000BDC14300109F
:105700000FB410B50C4984B006AA08CA0C680392FD
:10571000002C0BD0009201220848524202A9A04757
:10572000012004B010BC08BC04B01847180000F0F9
:1057300037FF0020F5E7C04684180020B143001071
:1057400010B5094A0300146884B0002C08D0012267
:1057500000910648524203A9A047012004B010BDA1
:1057600000F01EFF0020F9E784180020B14300106C
:1057700001480421014B184770040020AD57001068
:10578000014B9B681847000070040020142310B5DB
:105790000100188804331B88984710BD162310B5E4
:1057A0000100188802331B88984710BDF8B547469A
:1057B000CE4680B50F1E19D0142399460433040039
:1057C0000025012698464B461888434621681B88C9
:1057D000984701C4431E9841013540420640AF42FC
:1057E000F1D13000C0BCB946B046F8BD0126F8E79B
:1057F000124A936F9B0815D29066D166002905D096
:10580000FFE7FFE7FFE7516F106F704704B5802196
:105810000906C2175140002800D0C8430DF08CFB88
:10582000002104BDF0B5146E556E576F166FFFF76B
:10583000E3FF1466556657671667F0BD000000D099
:10584000114A936F9B0813D210665166002905D048
:10585000FFE7FFE7FFE7516F106F704704B50028BF
:1058600001D00020C0430DF067FB002104BDC046FD
:10587000F0B5146E556E576F166FFFF7E5FF14669F
:10588000556657671667F0BD000000D094464A4A37
:10589000926F9208624601D228E0C046F0B5464EAB
:1058A000346E756E776F366F00F020F89446424A7A
:1058B00014665566576716676246F0BD94463E4AC1
:1058C000926F9208624601D254E0C046F0B53A4E5B
:1058D000346E756E776F366F00F04CF89446364A2A
:1058E00014665566576716676246F0BD002B24DBC9
:1058F00011D000293EDA00B5C943404200D1013140
:1059000000F038F8C943404200D10131DB43524234
:1059100000D1013300BD002AEBD1002801D10029BC
:1059200005D00020C90FC90701D1C043410800B507
:105930000DF0EAFA0022002300BD00B500290ADBC1
:10594000DB43524200D1013300F014F8C943404216
:1059500000D1013100BDC943404200D10131DB43D8
:10596000524200D1013300F005F8DB43524200D12E
:10597000013300BD002923D1002B18D1002A0CD0FF
:10598000BC460D4F38667A6600210023FFE7FFE72B
:10599000FFE77A6F386F67467047002801D00748E5
:1059A000010000B50DF0B0FA0022002300BD020096
:1059B0000B00002000217047000000D0FFFFFFFF18
:1059C000002B00D0BFE0130C28D1002AE7D080B410
:1059D000114F39667A66FFE7FFE730B4040C7B6F3E
:1059E000396F1B0423433B667A66FFE7FFE7FFE757
:1059F000C04684B27B6F3D6F1B0423433B667A66CF
:105A0000FFE7FFE7C04600232C042D0C7A6F386FA8
:105A100000196941B0BC7047000000D0F0B5944651
:105A20000025140E01D112020835140F01D1120104
:105A30000435940F01D192000235D40F01D15200E8
:105A40000135D40B0134254F7C66254C3C660E0C89
:105A500093B2FFE7FFE7FFE73C6F6643360C77033F
:105A6000BE467343DF0B5B04C01AB941130C73438A
:105A7000DB18C91ACE086643360CB64493B273439A
:105A80001F0F1B01C01AB941130C73431F0B1B05D9
:105A9000C01AB941860D8F023E436643360C092D6C
:105AA00024DB520A7243801A7703460A6643360C97
:105AB00016235B1BDE40DF40BF1964466643821B32
:105AC0007046043506330100D940A840C01900D300
:105AD0000131A24206D20023F0BD0000000000D038
