:020000041000EA
:1000000000B5324B212058609868022188439860DF
:10001000D860186158612E4B002199600221596106
:100020000121F02299502B49196001219960352056
:1000300000F044F80222904214D00621196600F024
:1000400034F8196E01211966002018661A6600F04E
:100050002CF8196E196E196E052000F02FF8012189
:100060000842F9D1002199601B49196000215960AB
:100070001A491B48016001219960EB211966A021F2
:10008000196600F012F800219960164914480160C1
:100090000121996001BC002800D000471248134993
:1000A000086003C880F30888084703B5996A0420EC
:1000B0000142FBD001200142F8D103BD02B5186610
:1000C0001866FFF7F2FF186E186E02BD00000240BE
:1000D000000000180000070000035F00212200005C
:1000E000F4000018222000A00001001008ED00E03C
:1000F00000000000000000000000000074B24E7A12
:1001000000200420F7010010C3010010C5010010F9
:10011000C1010010C1010010C1010010C101001097
:10012000C1010010C1010010C1010010C701001081
:10013000C1010010C1010010C9010010CB01001065
:10014000CD010010CD010010CD010010CD01001037
:10015000CD010010CD010010CD010010CD01001027
:10016000CD010010CD010010CD010010CD01001017
:10017000CD010010CD010010CD010010CD01001007
:10018000CD010010CD010010CD010010CD010010F7
:10019000CD010010CD010010CD010010CD010010E7
:1001A000CD010010CD010010CD010010CD010010D7
:1001B000CD010010CD010010CD010010CD010010C7
:1001C00000BE00BE00BE00BE00BE00BEEFF3058054
:1001D000103800BEF2EB8871E4700110007101105C
:1001E0003402001090A31AE700201F49086006C8D7
:1001F00081F3088810471D48006800282FD10DA4FE
:100200000ECC002902D000F012F8F9E71849194A7B
:10021000002000E001C19142FCD1174988471749ED
:1002200088471749884700BEFDE701C901C29A42C5
:10023000FBD3704700710110C0000020E40E0020C5
:10024000247F01100000042000000420247F0110FE
:10025000001004200010042000000000704709482E
:1002600005F016F90047000008ED00E0000000D09E
:10027000E80E0020C4190020A13C0010E515001074
:10028000C93D00105756000006005250ABB36053F2
:10029000A030011006005250861C0302C03001102D
:1002A000060052505422A29DC83001100500525041
:1002B000DE65F468247F0110F8B5C0460448054B9C
:1002C00010B5834203D0044B002B00D0984710BDDB
:1002D000E40E0020E40E002000000000064807495C
:1002E000091A8B10C90FC91810B5491003D0044B57
:1002F000002B00D0984710BDE40E0020E40E002033
:100300000000000010B5074C2378002B09D1FFF73F
:10031000D5FF054B002B02D0044800E000BF0123AD
:10032000237010BD8811002000000000982C0110DF
:10033000054B10B5002B03D00449054800E000BF71
:10034000FFF7CCFF10BDC046000000008C1100205C
:10035000982C01106423F0B5C646984600B50400F9
:10036000070006008044072002F0A4F81B2002F0DA
:10037000A1F8D025182002F09DF880232D066B628D
:1003800080231B056B62802396215B046B628901CD
:10039000254803F0E7F902211C2002F05BF8022156
:1003A0001D2002F057F8192002F084F880239B04E6
:1003B0006B628C251D4B4046635108F0A7FA236FF2
:1003C0009037BC36002B04D001224046615908F01A
:1003D00045F8174B3800BB6208F098FAFB68002B11
:1003E00005D0B82301223800E15808F037F8114B46
:1003F0003000B36208F08AFAF368002B05D0E423DA
:1004000001223000E15808F029F8074A9369DB0619
:1004100007D4102193691942FCD1136893691942DA
:10042000F8D080BCB846F0BD00400340982C0110C5
:10043000A42C0110B42C011070B50300050000229B
:1004400019354133FF33FF351A700400280008F0D6
:100450005DFAEB68002B06D0A0235B000122280088
:10046000E15807F0FBFF70BDB823F0B557464E4684
:100470004546DE465B00E0B5C7580D3BFF3B98465E
:1004800028339A46404B0400994653464A46060094
:1004900005008044C25083B0404608F037FA236F0D
:1004A0009036BC35002B05D0534601224046E1581A
:1004B00007F0D4FF4B463000B36208F027FAF36828
:1004C000002B05D0B82301223000E15807F0C6FF09
:1004D0004B462800AB6208F019FAEB68002B05D0F8
:1004E000E42301222800E15807F0B8FF274A3B8D9A
:1004F00093467A8D112100925846254A04F05EFFFA
:10050000244ABB8D92461121234A504604F056FFDF
:10051000224AFB8D91463A8E112100924846204A8C
:1005200004F04CFF8C275B464046E35108F0EEF99F
:10053000236F002B04D001224046E15907F08EFFC3
:1005400053463000B36208F0E1F9F368002B05D0A0
:10055000B82301223000E15807F080FF4B46280005
:10056000AB6208F0D3F9EB68002B05D0E42301223D
:100570002800E15807F072FF03B0F0BCBB46B2465A
:10058000A946A046F0BDC046C43301108413002024
:10059000C42C011098130020D02C0110AC130020A3
:1005A000D82C0110B4239B00F0B5C646C758AC3B0D
:1005B000C35800B598469D239B00C6182C3382B0C3
:1005C000C5180400006C05F053FC2E4A0090019100
:1005D00011212D4804F0F2FEA16AB86A05F083FBF0
:1005E000216C05F0D1FB00282CD000233000B36231
:1005F00008F08CF9F368002B06D0A7239B0001229A
:100600003000E15807F02AFF00232800AB6208F011
:100610007DF9EB68002B06D0B2239B000122280055
:10062000E15807F01BFFBB6AA36243469B6AE36283
:10063000D123DB00E318A3610123237702B080BC40
:10064000B846F0BDE36B3000B36208F05FF9F368C1
:10065000002B06D0A7239B0001223000E15807F0B1
:10066000FDFEE36B2800AB6208F050F9EB68002B4D
:10067000E4D0B2239B0001222800E15807F0EEFEEF
:10068000DCE7C046E42C0110701300208923F0B58C
:100690009B00C658AC33C7585C3B83B0C5180400F8
:1006A000406C05F0E5FB214A0090019111212048A2
:1006B00004F084FEE16AB06A05F015FB05F0A4FBC6
:1006C000C317C018584005F07DFB616C05F05CFB5A
:1006D00000281AD000232800AB6208F017F9EB6855
:1006E000002B06D0A7239B0001222800E15807F029
:1006F000B5FEB36AE362BB6AA362CE23DB00E318F4
:10070000A3610123237703B0F0BDE36B2800AB6244
:1007100008F0FCF8EB68002BF5D0A7239B00012222
:100720002800E15807F09AFEEDE7C046F42C0110CE
:100730005C13002070B51A4D04002900406A0CF0CB
:100740006DFA2900206300200CF068FA0AF034FCEE
:1007500005F03CFA2900E06300200CF05FFA0AF093
:1007600031FC2900606300200CF058FA0AF024FCE8
:1007700005F02CFA2900206400200CF04FFA0AF052
:1007800021FC2900A06400200CF048FA0AF014FCB7
:1007900005F01CFAFC239B056064636570BDC046D0
:1007A000002D0110E2235B00F0B5C6469846030019
:1007B0000122ED33FF33804405000400070000B53B
:1007C00006001A70404608F0A1F84346DB68F93588
:1007D0004534FF35FF34BC37002B06D0F6235B00D1
:1007E00001224046F15807F039FE882301229B0080
:1007F000F3181A70280008F089F8EB68002B06D06F
:1008000088239B0001222800F15807F027FE3300BF
:1008100001226D33FF331A70200008F077F8E36887
:10082000002B06D0B6235B0001222000F15807F010
:1008300015FE1023464DAA69134253D0736A984699
:100840004146444805F06AFE434C736A434A11210D
:10085000200004F0B3FD2100414805F05FFE3800A0
:10086000BC6208F053F8FB68002B05D0E42301229A
:100870003800F15807F0F2FD736B002B1AD0B36CFF
:10088000002B24D0D0231B065A6812064DD5802297
:100890009A61D0231B065A68D2014DD4802252049B
:1008A0005A61D0231B065A6812014DD480221205CA
:1008B0005A6109E0D02380221B069A61802212052A
:1008C0009A61802252049A6180BCB846F0BDD02360
:1008D00080221B065A61802212055A61802252042E
:1008E0005A61F1E7726A9046AA691342A8D11024AE
:1008F0002200AB691A401C42FAD12B68DBB2212BD3
:100900000BD0F26C622A04DC41468B54F36C013349
:10091000F364AB691C42EBD090E74346F16C3000C6
:100920005A54F264FFF706FFF3E780225A61D0239E
:100930001B065A68D201B1D5802252049A61D02395
:100940001B065A681201B1D5802212059A61BBE7D5
:1009500000400340042D0110C01300200C2D011095
:10096000142D0110D420D0B5C00006F083FB022165
:100970008A2349425B00C150AC33C1508C23DB0059
:10098000C218DC235B00C250C2182C3BC250D622D6
:100990000023C82452008350AC3AFF3A640002514D
:1009A0006034015180340151A624E40006199A24D0
:1009B000A400065106192C3C0651203403511C3C5E
:1009C00002518C340151543401519921C900441809
:1009D000B139FF39445044182C3944502031435028
:1009E0001C3942505B4C4031435008394450E1249B
:1009F0000431405048314350043143505649A4001B
:100A0000015104340351554E10340251083C065133
:100A100002260434005148340351043403510C3489
:100A2000015104340351103406514D4E083C065117
:100A30000326043400514B4C052703510434035161
:100A4000494C01510434035110340651474E083CBF
:100A500006510426464C0051464C035104340351C0
:100A6000454C01510434035110340651434E083CA7
:100A70000651A526424CF6000051424C0351043465
:100A80000351414C01514D34FF3404198451103647
:100A900087513E4F083E87513D4E002780513D4EC5
:100AA0008351043683513C4E8151D121C9004618EF
:100AB000F839465039494350D539FF394618E131A4
:100AC000FF314650461836494650043142503549A8
:100AD000425435494350E42189004618C421C900D5
:100AE000465046183149465004314250304942542C
:100AF000CA2189004618CD21C90046502D494350CE
:100B00000C3146182C494650043142502B4A3031A2
:100B1000835402000C324250294E2A494650002686
:100B2000043141180E604F60D021C9004354083190
:100B30004250254A25498150043282181660576078
:100B4000D322D2008354C36004614461836103777C
:100B5000D0BDC046550300101C2D011039040010F3
:100B6000A5070010440400005404000069040010AC
:100B700064040000AC040000BC040000A5050010E3
:100B8000CC04000014050000240500008D060010B0
:100B9000340500007C0500008C050000CC05000039
:100BA000AC050000B405000014060000F4050000C8
:100BB000FC0500005C0600003C0600004406000046
:100BC000202D0110740600008C0600002C2D011051
:100BD000036A70B59C6A0021201C05F0D5F8FE213F
:100BE000431E98416400640805008905201C05F037
:100BF000D3F8002805D00748290001220AF08CF814
:100C000070BD0549201C05F088F805F02BF980B26D
:100C1000F2E7C046FF0F000000F07F45436D70B55E
:100C20009C6A0021201C05F0AFF8FE21431E98416C
:100C30006400640805008905201C05F0ADF8002853
:100C400005D00748290000220AF066F870BD054962
:100C5000201C05F062F805F005F980B2F2E7C04605
:100C6000FF0F000000F07F4510B501200AF026F8C4
:100C700010BDC046A62070B5800006F0FBF9030049
:100C800028330362343343658023C0649022C0500C
:100C90000023F8242D498350083A815004328050B3
:100CA000483283502A49043283500C328150043236
:100CB0008350284DE73A0251083C0551022504347F
:100CC000005148340351043403510C3401510434AD
:100CD000035110340551204D083C05510434005196
:100CE00048340351043403510C340151DC21040015
:100CF000490043508834483144500C3943500C313A
:100D000044182C3944500431425004314354113CAE
:100D100060314350FF3C0C31445044182C3944504E
:100D20000431822442500421A40001517C34035137
:100D30000400A42359349B00FF34C450C4182C3B36
:100D4000C4500433C250183BC15070BD690C001030
:100D50001C2D0110D10B00101D0C0010F0B5C64663
:100D60000500060080211F4A040000B5D0688435C4
:100D70000006000F54360130490053680B42FCD185
:100D80000138176A0028F8D18021D068154A00047C
:100D9000000F7F420130890053680B42FCD10138BB
:100DA000536A0028F8D15B423000E767984607F0A5
:100DB000ADFD236E002B04D001223000E16F07F05F
:100DC0004DFB43462800AB6207F0A0FDEB68002B0B
:100DD00005D0AC2301222800E15807F03FFB80BC7E
:100DE000B846F0BD00002050F0B5D6464F46464606
:100DF0000025C0B53D4C8AB020003D4905F0C0FB40
:100E00000223200008220021009505F0C1FC0022E9
:100E10000121082001F036FB00220121092001F008
:100E200031FB8026F827C02376021B037F0202A92C
:100E3000102206A89A46049302960397059505F09A
:100E4000CDF82C4B06A9102202A89946079305F06D
:100E5000C5F88023DB020593274B200003938023F2
:100E60001B0398460493002202AB002105F0E8FC26
:100E700001222368200013432360012102230095EF
:100E80000B3205F085FC002201210C2001F0FAFA5A
:100E9000002201210D2001F0F5FA534602A910228B
:100EA00006A8049302960397059505F097F84B461C
:100EB00006A9102202A8079305F090F8C023DB02D0
:100EC00005930E4B00220393434601210493200017
:100ED00002AB05F0B5FC02222368134323600AB07D
:100EE000E0BCBA46B146A846F0BDC046000020505E
:100EF0003C2D011080770100807701088077010C7C
:100F0000862070B5800006F0B5F803002833036230
:100F1000C022002394242049C0648350083A8150A1
:100F200004328050483283501C49043283500C32C2
:100F3000815004328350183AFF3A194D640002512F
:100F4000083C055104340051483403510434035122
:100F50000C340151C021040049004350B8344831D9
:100F600044500C3911344350FF342039445004317B
:100F700042500431435460314350010084232131F5
:100F80009B00FF31C150C1182C3BC1500433C250EB
:100F9000183BC25070BDC046E90D00101C2D011059
:100FA0005D0D00108823F0B5076AC5583433C45866
:100FB0003B7D466D83B0002B0CD1337D002B1AD1C5
:100FC0002B7D002B28D1237D002B36D109F012FA7E
:100FD00003B0F0BD002380220021002000931033D5
:100FE00009F05AF9012300220021B86A08F02EFF07
:100FF000337D002BE4D000238022102100200093B9
:10100000103309F049F9012310220021B06A08F0D9
:101010001DFF2B7D002BD6D0002380222021002015
:101020000093103309F038F9012320220021A86A27
:1010300008F00CFF237D002BC8D0002380220093F2
:1010400030210020103309F027F90123302200213C
:10105000A06A08F0FBFEB9E7084B10B51A78002A21
:1010600000D010BD01321A7008F076FE044808F076
:101070006DFE002008F07CFEF3E7C046B9190020A1
:10108000744C0110CA2070B5800005F0F3FF030016
:10109000283303623433436502008023C0649032F6
:1010A000C0500833C2502C33C05034320833C250C1
:1010B0002C33C050F8220023B02430498350083A22
:1010C000815004328050483283502D49043283507D
:1010D0000C32815004328350503AFF3A294D64005B
:1010E0000251083C05510434005148340351043482
:1010F00003510C340151DC21040049004350F03409
:10110000483144500C3943500C3144182C39445068
:10111000043142500431435460314350A83C0C31F7
:10112000445045182C394550043182254250042141
:10113000AD0041517C3543510C35445146192C3D8D
:10114000465104354251183D41517C3543510C35CF
:10115000445146192C3D465104354251183D4151E8
:101160007C354351C8239B00C450C4182C3BC45049
:101170000433C250183BC15070BDC0465910001016
:101180001C2D0110A50F0010942010B5400005F093
:1011900071FF0300283303628E2300225B00C064CA
:1011A000C250343B0132C25010BDC046F0B50700FA
:1011B00004000600050087B003A9194809F010FAD9
:1011C000039B5437E367380007F0A0FB236E843697
:1011D000B435002B04D001223800E16F07F03EF94E
:1011E000049B3000B362019307F090FBF368002B7F
:1011F00005D0AC2301223000E15807F02FF9059B00
:101200002800AB6207F082FBEB68002B05D0DC23E3
:1012100001222800E15807F021F907B0F0BDC046CF
:1012200054180020054B10B51A78002A00D010BDC4
:10123000013203481A7009F089F9F8E7BA19002059
:1012400054180020922070B5800005F013FF0300B1
:1012500028330362F0220023AC242049C064835069
:10126000083A815004328050483283501C4904327D
:1012700083500C32815004328350483AFF3A194D62
:1012800064000251083C05510434005148340351B4
:10129000043403510C340151D82104004900435057
:1012A000E834483144500C3911344350FF3420396C
:1012B00044500431425004314354603143500100E2
:1012C000902351319B00FF31C150C1182C3BC150BC
:1012D0000433C250183BC25070BDC04625120010E6
:1012E0001C2D0110AD110010036BF0B54F4699464F
:1012F0006423D6469A4680B5050083B08244806850
:1013000005F0E6FCAB6AEC6A06000F00009301945E
:10131000002C36DD4B46696A986A04F0E7FC009AB7
:10132000019B041C39003000801A994104F022FC12
:10133000174A184B04F065FB04F048FC011C201C04
:1013400004F0EBFCFC21890504F0E7FC296A04F0B9
:10135000CDFC28628C242851504607F0D7FA2B6F19
:10136000002B04D001225046295907F077F84B464C
:101370009B6AAE62EF626B6203B0C0BCBA46B14614
:10138000F0BD002C01D1002BC4D1286AE2E7C04691
:1013900095D626E80B2E113EA42010B5400005F08E
:1013A00069FE030038330363A02200231049C0659F
:1013B0008350083A815004328050483283500D499E
:1013C000043283500C328150043283503C328350BB
:1013D00002004133FF339832C250C2182C3BC25036
:1013E00001220433C250183B0332C25010BDC04624
:1013F000E91200101C2D0110036A70B504000500ED
:10140000986A04F073FB0A4B0A4A04F0FAFA04F0F3
:10141000DDFB5435E067280007F078FA236E002BD7
:1014200004D001222800E16F07F018F870BDC04613
:10143000405F9C3F30F3AF219C2010B5400005F089
:1014400019FE030028330362902200231049C06470
:101450008350083A815004328050483283500D49FD
:10146000043283500C328150043283503C3283501A
:1014700002003133FF338832C250C2182C3BC250B5
:1014800001220433C250183B0332C25010BDC04683
:10149000F91300101C2D01102823426AD25C083B6E
:1014A000C2547047202370B5C35C0400002B3BD1AD
:1014B0002123C35C002B1CD009F034FB2000B43086
:1014C00003001C490B435B071CD18B1CC31A042B64
:1014D00018D94A880B8812041A43CB888D881B04BC
:1014E0002B43026043600B892838038607F00EFA0D
:1014F00070BD09F0DFFA2000B43003000E490B4341
:101500005B07E2D0B42320000A888C30E2524A887C
:101510000233E2528A880233E252CA880233E2522C
:101520000A890233E252E1E709F0F2F921230122AC
:10153000E254DDE778180020601800208A2070B59A
:10154000800005F097FD03002C334362343383653C
:1015500084230065D022C05000239C241E49835060
:10156000083A815004328050483283501B4904327B
:1015700083500C32815004328350283AFF3A184D80
:1015800064000251083C05510434005148340351B1
:10159000043403510C340151C82104004900435064
:1015A0003C314350C8340C31445044182C39445019
:1015B00004314250183942507C3143500100882395
:1015C00031319B00FF31C150C1182C3BC150043355
:1015D000C250183BC25070BD991400101C2D011050
:1015E000A514001010B50021002007F0C9FA10BDA5
:1015F0007047C0460A4B01211A68002300B589B024
:1016000006930593049102930193143105330391DA
:1016100000930021033B034807F086F809B000BDA2
:101620001C13002000100020014B036001207047B4
:1016300000100020F0B5DE4657464E464546E0B560
:10164000A1B0FFF78FF9CA22FE4B92009846836043
:101650005B6E82181A60FC4B00210362FB4B070093
:10166000436200239B468362C362F94B5A4603637D
:10167000002343638364C36403658365C3650366B2
:10168000B7238263C2630264426442650022DB00C6
:10169000C31819605A60B8230021DB00C318ED4855
:1016A000B3221860596043460021DB6DD200BA189E
:1016B0001A60E94AE948B95002212C32BA18106080
:1016C0005160C12200210020D200BA181060516080
:1016D000BC22D200BA185A600022E14B8025FA5091
:1016E000DA2300249B002D06FB181C605D60F423A8
:1016F0009B00FB181C605D608723DB00FB181C60EF
:101700005D609423DB00FB181C605D60A123DB009F
:10171000FB181C605D60AE23DB00FB181C605D6085
:1017200043463A00DB6F0C325B6802261A60FFF713
:10173000A1FA4346020083605B6E764288324662BD
:1017400086655A600300C8339C66DD661C605D6078
:1017500068339C66DD660690FFF7D2FB42468260E6
:1017600080224346865092463032865002005B6E9D
:10177000B83246629A600300F8331C605D609C6674
:10178000DD660090FFF77EFC434683608C23414674
:10179000020046628665C6503433C6504B6EF03246
:1017A000DA6003003133FF331C605D609C66DD66E8
:1017B0000390FFF7E9FC01004046886050460E5058
:1017C00030300E5030300E504E620F91FFF73AFD20
:1017D00042468260524681468650303286503032D0
:1017E0008650466240464A46436EE8321A614B468E
:1017F0002933FF331C605D609C66DD66FFF7CCFD1E
:10180000010040465A468860902000230E500A622C
:101810004A6200228A62CB620B00D8334E631C609E
:101820005D600491FFF7B8FD4346010083605A46AE
:10183000902000230E500A624A6200228A62CB6224
:101840000B00D8334E631C605D600291FFF7A4FD6E
:10185000434683609023C6505B4600220362436286
:1018600000238262C3620200D8324663146055606E
:101870000190FFF7E1FD434683605346C6500300E5
:10188000C83346621C605D600590FFF7D5FD424697
:10189000030082605246C833865046621C605D6019
:1018A0008346FFF74BFE4246C0238260C6500300CA
:1018B00009338662C665FF33033606841C605D60AB
:1018C0009C66DD66D42303259B008246FD503A00CA
:1018D00004210320D72505F0AFFBAD0078513A0075
:1018E0000421032005F0A8FB043D78513A000421AF
:1018F0007834032005F0A0FBA4462C34BC44654694
:10190000A446D523BC4464469B00F8500894446028
:10191000D024A446BC4405600795654664338560C1
:101920003A00FE5004210120F124099505F084FBC2
:10193000A40038513A000421012005F07DFB043C4D
:10194000385196243A0004216400012005F074FB0C
:10195000A446EF23BC4464469B00F85010940460F6
:1019600004246433FC503A000421042005F064FB95
:101970003C4D3A0078510421042005F05DFB043D04
:1019800078513A000421042005F056FB364B8321A0
:10199000F850EC235B009C468900BC446346AC22B3
:1019A0008C465200BC446146944603601193099BE7
:1019B000BC44C36091236246DB00416082601291A7
:1019C000FC50139204213A00042005F035FB274B0C
:1019D0003A00F8500421042005F02EFB9222D20098
:1019E000B85004213A00042005F026FB0999204B49
:1019F000F8508160FC218C46079BBC440360089B27
:101A0000624643609E23DB00C2600B92FC503A00AA
:101A1000F839042005F010FB16493A0078500421EB
:101A2000042005F009FB9F22D200B85004213A009F
:101A3000042005F001FB104BAD21F850A2239B00C0
:101A40001CE0C04600100020A4120020401200201C
:101A5000DC11002080F0FA02D405000000E40B54F1
:101A60001C0600002C040000240400009404000064
:101A70008C040000FC040000F40400009C46BC44FC
:101A8000634689008C4603600C93079BBC448360CB
:101A9000089B6146C360AB23DB0041603A00FC5009
:101AA0000D910420042105F0C7FAFE4C3A0038518C
:101AB0000421042005F0C0FA043C38513A00042106
:101AC000042005F0B9FA0C9CF74B0022F850046092
:101AD0000D9CC0234460079C069984600B9C5B00AE
:101AE000C460B0240A5168340A51CA501300E0217E
:101AF000009849334250FF330232C250DC390200B1
:101B0000022005F099FAAA22009B52009850042165
:101B10001A00022005F090FAA823009A5B00D0502A
:101B20000421022005F088FAA623009A5B00D05019
:101B300013006833436015930023983202601492B7
:101B4000039AC02013511400400023501A00484645
:101B50001133FF33C250140003204A466833D0507B
:101B6000042105F069FAC2224B4652009850042124
:101B70004A46032005F060FA4B468134FF34185181
:101B80004A460421032005F057FABE234A465B006B
:101B9000D050153BFF3B4B4403601693C82398225B
:101BA0004B4483601893C023049C4A4442601792BC
:101BB000E65022000421012005F03EFACC23220049
:101BC000E0500421012005F037FAC8232200E0503C
:101BD00004210120049405F02FFA049AC424130070
:101BE0007833105119930360C02302980421C65022
:101BF0000200012005F020FACC230299C8500A0007
:101C00000120042105F018FAC821029A5050C43965
:101C1000012005F011FA029B04211851783303606A
:101C20001A93C0230198C6500200012005F004FA5F
:101C3000CC230199C8500A000120042105F0FCF9C9
:101C4000C821019A5050C439012005F0F5F9019AD4
:101C500004211051140078340460B0201B94059CBA
:101C600026502200AF3805F0E7F9BC220421A0502D
:101C70002200012005F0E0F9B82122006050B439BB
:101C80000120059405F0D8F9059AB42413006833AF
:101C9000105159460360B0205A460E500421AF3807
:101CA0001C9305F0C9F95946BC2288505A460421B4
:101CB000012005F0C1F95A46B8215050B43901202D
:101CC00005F0BAF959460851682159445246016055
:101CD000F0230020D0506833D6501D9101200421FC
:101CE00005F0AAF9B22253465200985004215246F8
:101CF000012005F0A1F9B02352465B00D050042129
:101D0000012005F099F9AE2352465B00D050A02285
:101D10005244026084203E5004303F50803B2830C3
:101D20003E503F513030FE505C333F50FE50043344
:101D3000FF50A833FE500433FF503033FE500433BD
:101D4000FF508430B43B3E50FF50603BFE500433A4
:101D5000FF508933FF33FE500433FF50F5302833F2
:101D6000FE50FF300433FF50D7243B581E921E60B4
:101D70003A000421012005F05FF9A4003B593A0024
:101D80001860D62080003B5804215E60012005F0D9
:101D900053F93B593A005860D62080003B58042143
:101DA0009E60012005F048F93B59039C8221A4461E
:101DB0001A688900614498600A911160A6249421F0
:101DC0005B688900A4006444614419600460F020E9
:101DD00080003B583A000E911E600421012005F05E
:101DE0002BF9F1229200BB585246186099327B5968
:101DF000FF32026004213A001E60012005F01CF948
:101E00002A4A0421BB583A0018607B5901205E60C1
:101E100005F012F9254A0421BB583A0058607B5955
:101E200001209E6005F008F9204A0421BB583A00C1
:101E300098607B590120DE6005F0FEF81B4D0421FF
:101E40007B59009D1A68D135FF35D8601560802513
:101E50005A68AD004D44156055469B68E135FF3525
:101E60001D609225ED007B5904603A001E60012040
:101E700005F0E2F80E4D3A007B59042118609220DB
:101E8000C0003B5801205E6005F0D6F87B593A004F
:101E900058609220C0003B5804219E60012005F04C
:101EA000CBF807E0640500005C0500002C0400008E
:101EB000940400007B593A0098609220C0003B587F
:101EC0000421DE60012005F0B7F87B590A9D1A68ED
:101ED000D86015605A680E9D9B6815601C60039B56
:101EE000B8259C46AD00654405601F959F25ED0013
:101EF0007B593A001E600421012005F09DF82C005A
:101F0000FE4D3A007B59042118603B5901205E6068
:101F100005F092F87B593A0058603B5904219E60C5
:101F2000012005F089F87B593A0098603B5904215B
:101F3000DE60012005F080F806997B5982258C46E9
:101F400094241A68AD006544D860A40015605A68EE
:101F5000644414609B680A990E9A19600260AC2070
:101F6000C0003B583A001E600421012005F064F8CF
:101F7000E34A0421BB583A001860AC20C0003B582B
:101F800001205E6005F058F8DD4A0421BB583A0094
:101F90005860AC20C0003B5801209E6005F04CF812
:101FA000D74A0421BB583A009860AC20C0003B5887
:101FB0000120DE6005F040F8D14AA821BB58490055
:101FC0001A68D86015605A680A9D9B6814601D6085
:101FD0001F9DA8240560A425009843584D394667E5
:101FE000806702004651FF3900511E60012005F054
:101FF00023F8AA22009952008B580A001860A820E2
:1020000040000B5850385E600421FF3805F014F88A
:10201000AA22009952008B585A46059958601B68AD
:10202000F031F03219600260D823D4220F980421D5
:10203000806700518650C0504846466780674651C9
:10204000C0256D0000518650C05043594A461E605D
:10205000012004F0F1FF4A46DC34135904211860D2
:10206000535901205E6004F0E7FF4A4613590421EA
:102070005860535901209E6004F0DEFF4A46135910
:10208000049C1A68029D611CFF31986011605B68B6
:1020900001996A1CFF321A600B000133FF330360A1
:1020A0008823E450ED5084254E511D004035C95021
:1020B0004B590C000A001E600421012004F0BCFFF3
:1020C000CC238A25E358AD0018607B19036058467D
:1020D000059D0194AD675C4646678067B82023582C
:1020E0005A461E600421B73804F0A6FFBC23B6216F
:1020F000E358890018607B1803605046AC23C65033
:102100000433C050B020514640000B58603852464E
:102110001E600421FF3804F08FFF53466436FF36FB
:102120009B593E007936FF36186006609D26A82030
:10213000B600BB19069E800033623B183800C530DC
:10214000FF307365030000985946040003623800AD
:10215000039A54340C62643030342C6210622C3098
:1021600050652C300300882013503800E8300300FD
:10217000BC2013503800F930FF3003004846049C5F
:10218000036205955430029D206330302863019D21
:1021900030302863892328005D4664309B00F85066
:1021A0005435AC33FD503D001935FF352B005546F5
:1021B0006B623D004535FF352B005546AB65B823B6
:1021C0008C355B00FD5045466B6B169D01221D60F2
:1021D000179D52425D601998079CD8601A989C61BF
:1021E00018611B98089C58610998DC611862109866
:1021F0000B9C58621198159998625C6312980C9C1C
:10220000189DD8629C6313980D9C196414999D6065
:102210001863DC6359641C99012499641D99002595
:10222000D9641E991965D02189007B1808391C6072
:102230005D607B18334919605A60EA2189007B1878
:102240001C605D600123304A083979185B420A60DE
:102250004B6082210122C9007B1808391C605D6037
:102260007B182A49524219605A608F23DB00FB1801
:102270001C605D608E2301222549DB00FB18524261
:1022800019605A609C23DB00FB181C605D609B2377
:10229000DB00F91801231F4A5B420A604B60A92347
:1022A000DB00FB181C605D60A823DB00F81801232D
:1022B000194A5B420260436033000121A033114898
:1022C0001C605D604942083B186059603200012182
:1022D0001C675D671148731CFF33494269321860FF
:1022E00059601C675D67FF32012316000C4A5B4290
:1022F00032607360009A012714E0C046FC040000BD
:10230000640500000000FFFF0100FFFF0200FFFF67
:102310000400FFFF0500FFFF0600FFFF0700FFFFAF
:102320000800FFFF1300454ED0331C605D607F4204
:10233000083B1E605F601C675D67130098225200B7
:10234000944601223E4903986344524219605A6000
:1023500084228446520062441460556080225200F8
:10236000624416605760B822B423520062445B0096
:10237000146055609C4602006244130001223149FA
:10238000524219605A604B46591CFF31F8330C60B9
:102390004D6048461E605F604F460123284A6937FA
:1023A0006130FF37FF305B423C607D60026043601C
:1023B000049A01271000244E7F42B030A8320460F6
:1023C000456016605760029A059B1100A832B03133
:1023D0000C604D6016605760019A58461100A83293
:1023E000B0310C604D60166057601A009833A0320F
:1023F000146055601E605F605B46A0331C605D60CA
:102400005346983006604760E03301271C605D60EA
:1024100050469C66DD6601240C4E083B7F421E60E0
:102420005F604130064BFF3064420360446021B07E
:10243000F0BCBB46B246A946A046F0BD0000FFFF77
:102440000300FFFF0700FFFF0400FFFF0200FFFF84
:102450007047C046094A830094464022634410B541
:102460001C68C0006240C024144080225201134303
:102470001C60034B9C466044416010BD04C0014099
:10248000004001400A4B80009C4604236044002920
:1024900001D00C230821002A00D10B000268534010
:1024A0000C221A4080235B01184302607047C0462B
:1024B00004C001400123D02283401206936293613D
:1024C000094A83009446402263441968C0004A4088
:1024D000C02111408022520113431960034B9C46D6
:1024E000052360444360704704C001400040014040
:1024F000024B18688007C00F7047C04600C00640F6
:10250000EFF3108072B6034A1368002BFCD0BFF3C0
:102510005F8F70472C0100D0BFF35F8F0022024B0A
:102520001A6080F3108870472C0100D070B5EFF36B
:10253000108C72B60D4D2B68002BFCD0BFF35F8F53
:102540000724CB08C618C05C01230C40A3401C0024
:102550000440034207D103433370BFF35F8F2C6005
:102560008CF3108870BD100001F04CFC2C0100D0E1
:10257000F8B54746CE46884680B5EFF3108C72B664
:10258000214D2C68002CFCD0BFF35F8F9A422CD8D1
:10259000D4080727055D061901241740BC402C42CA
:1025A0001FD007210127894609E0D408055D0619D7
:1025B0004C4639001440A1400C00294211D0013290
:1025C0009342F2D201204042BFF35F8F00220E4BB4
:1025D0001A608CF3108800280FDBC0BCB946B046E7
:1025E000F8BD2C4310003470EEE7BFF35F8F00237B
:1025F0002B608CF31088012040424346002BECD026
:10260000089801F0FFFBC0462C0100D00021044BCC
:10261000044ABFF35F8F02C39342FAD17047C046AA
:10262000000100D0800100D0044A1078431CDBB2C6
:10263000172B00D9102313707047C046F8030020F1
:1026400000B5054B83B00100009318221F230348F7
:10265000FFF78EFF03B000BD742D0110D4130020CE
:1026600001238340002904D0034A1360034A136006
:102670007047034A1360FBE780E200E000E100E0FE
:1026800080E100E0024B10309B688000C05870472A
:1026900000ED00E070B50D00EFF3108672B60F4A42
:1026A0001368002BFCD0BFF35F8F0D4B10309B687D
:1026B00084001B590B4A934203D09D4201D001F084
:1026C000B9FB074B9B681D51BFF35F8FBFF35F8F53
:1026D0000022024B1A6086F3108870BD240100D0DE
:1026E00000ED00E0CD010010F0B5DE4657464E4645
:1026F0004546E0B50C0083B0EFF3108972B6584A36
:102700001368002BFCD0BFF35F8F564B9A68030011
:1027100010339F00D559544A9046954232D0A54275
:1027200043D0524EAA1B2F2A2CD801228240924617
:1027300051464F4A12681140019151464D4A11606D
:10274000BFF35F8FEFF305829346002A33D1012355
:102750002A009A4393689C4208D177E04B005B18AB
:102760009B00F3189968A1422AD01A0006215156FD
:102770000029F3DA019B002B19D052463E4B1A6018
:102780003B4B1A60374B9B68DD51BFF35F8FBFF344
:102790005F8F0022324B1A6089F3108803B0F0BCBF
:1027A000BB46B246A946A046F0BD1500EAE7524630
:1027B000304B1A60E6E79342C9D001F03BFBC6E715
:1027C00006215956002921DB4A0050188000341890
:1027D0008046A0689860E079D871062020569871EC
:1027E000002824DBA488F01A640524154444001949
:1027F000E0240005400D24022043988052181F4B0E
:102800009200B6181A781970B271B3E759460029C8
:102810000FD1FF3191711A49918018490A789A7144
:10282000184A9B1B5B415A43120D0A70A2E71648D7
:10283000E3E7164A1649D21A083A5002400D0143FE
:102840009980144952080A43DA8093E706215156C9
:1028500013000029B8DA5A46002AEAD14546DCE7D7
:10286000240100D000ED00E0CD010010FC030020A9
:1028700000E100E080E100E080E200E0BF1900201C
:1028800001BDFFFFAAAA000001BD00003604002020
:1028900000F0FFFF00F8FFFF70B5EFF305810124A2
:1028A0000443EFF3108C72B6214A1368002BFCD05E
:1028B000BFF35F8F1F4B05001F4AED1A6D416A433E
:1028C000120D1E4D8900AE6852B27658A6421CD039
:1028D0000621595691421CD012215956914222D0BC
:1028E0001E215956914220D02A2159560324914243
:1028F00010D0134B19781A708171BFF35F8F0022CB
:102900000B4B1A608CF3108870BDAB680D4C5C509B
:10291000EFE700246100091989005B18FF21997114
:1029200009499980E5E70124F4E70224F2E7C0466B
:10293000240100D0FC030020AAAA000000ED00E062
:10294000BF190020CD01001001BDFFFF054B064A55
:102950001360064A136053609360D3601361536140
:10296000936170478080808000E400E004E400E030
:1029700070B504000E001500FFF756FE01002000A0
:1029800000F006F8A680E580BFF35F8F70BDC046FB
:10299000024B9C466144890001607047400000344E
:1029A00010B50400FFF740FE01002000FFF7F0FF24
:1029B000FF232371BFF35F8F10BDC04610B5040025
:1029C000FFF732FE01002000FFF7E2FFFF23A380A4
:1029D000BFF35F8F10BDC04610B504000120FFF7A4
:1029E0002FFE044B9C46604480002060BFF35F8F45
:1029F00010BDC0464000003483680B4810B58446C3
:102A000061446244090112019A18591854684B68CC
:102A100001209C4201D802D00020C0B210BD126833
:102A20000B689A42F9D8F7E7FFFFFF0F0A4B1968C6
:102A3000EFF3108072B60A68002AFCD0BFF35F8FF4
:102A40001B68BFF35F8F00221A6080F3108840BFBD
:102A5000002000217047C0469C190020F8B5574659
:102A60004E464546DE46E0B599460CAB1C780DABAC
:102A70001B78060090469A460768002C11D1BC7B53
:102A8000002C42D065003B682D19033D59194B7845
:102A9000BB73002B00D1FB7300238B704B700B704A
:102AA00004E065003B682D19033D5919B2682A4BB3
:102AB00094464246E3181B0163441A604A465A6032
:102AC0000A9A9A600B9ADA6000238B704B700B7035
:102AD0007B7B9B46002B2BD022005946B8687B6835
:102AE00098473A68002816D05B4658465B005B441E
:102AF0005519033BA870D118D35C002B00D06B7024
:102B00005B460C707B73A34513D0F0BCBB46B2464A
:102B1000A946A046F8BD5B465B005B44033BD31867
:102B20009C705119525D002A00D05A705B460B70A0
:102B30007C7342464B46307D00F0B2FB051E06D04A
:102B40005346002B03D12100306800F0CDFD0E9BD1
:102B5000002BDAD01D70D8E7FFFFFF0FF0B5DE467F
:102B600057464E4645460023E0B58BB00893674B69
:102B70008200D45800239B46099000F007FB62684E
:102B800006000F00EFF3108572B61368002BFCD01F
:102B9000BFF35F8F23689C465B7B9946002B00D177
:102BA00069E0A2685A4B90464B441B019844434647
:102BB0001A685B6810001900801BB941002900DC0D
:102BC00063E0099800F06CFB002300229846002384
:102BD0000692079300239A466368BFF35F8F5A46B5
:102BE0001A6085F310885346002B08D10028C4D101
:102BF0000BB0F0BCBB46B246A946A046F0BD089B50
:102C0000414618024B461843D047626806000F0041
:102C1000EFF3108572B61368002BFCD0BFF35F8F03
:102C2000002F50DB33003B4302D02369002B61D1DE
:102C30002368D97B002907D04A00521819688C46AE
:102C400049466244033A51709A7B002A01D14A46B0
:102C50009A734A46DA734B46E168013BCA5C01321B
:102C6000CA545B4623616368BFF35F8F5A461A609C
:102C700085F3108881E700230022984600230692FE
:102C80000793002300209A46A6E7002902D10028D6
:102C900000D096E70021604600F0A4FC43461A6885
:102CA0005B680692079343469B689A464346DB68F7
:102CB0009846E3684B44013B1B7808931B0203438F
:102CC0002361002088E72369002BB1D0069A079B77
:102CD000921BBB41002B15DB594604910121039146
:102CE0004946029141460191514620000091FFF76B
:102CF000B5FEB6E700F04AFA32003B0012184B412D
:102D0000002BE9DA0122034B5242E5E78418002048
:102D1000FFFFFF0FFFFFFF7F10B5144C6368002B10
:102D200004D00A211248FFF733FE10BD2300114AD8
:102D30001021206800F070FB032000F01BFA032034
:102D400000F018FB03200C4900F064FAFFF76CFC5C
:102D50000A4B9C4603232375D0231B061B68604443
:102D60006375074B80006060DC60DAE74404002094
:102D70009C190020F92900105D2B00104000003440
:102D800084180020F0B54E464546DE465746E0B56D
:102D900085B0019310AB1B7806000393002399467E
:102DA000984600927268EFF3108B72B61368002B8E
:102DB000FCD0BFF35F8F3568AC7B002C3DD0670043
:102DC0002B683F19033FDB195A78AA73002A00D1F8
:102DD000EA73B168474A8C4600980199A21812011B
:102DE0006244106051600E9991600F99D160424623
:102DF0009A705A701A706B7B9A46002B67D022002B
:102E00001900A8686B6898472A68002852D0534672
:102E100050465B005344D719033BB870D118D35CBC
:102E2000002B00D07B7053460C706B7354454FD011
:102E3000F3681B19013B187800E000207368BFF3AA
:102E40005F8F42461A608BF31088002C4FD04B46A0
:102E5000002B08D10002204305B0F0BCBB46B246AF
:102E6000A946A046F0BD039B002B3ED00E9B002040
:102E70000F999847030004000D000B4335D000293B
:102E80000ADA009A019B121BAB4100920193002BBE
:102E90000ADB039B994685E700F078F924184D4139
:102EA00000940195002DF4DA0123134C5B4200934A
:102EB0000194EEE753465B005344033BD3189C70E8
:102EC000D119D25D002A00D05A7053460B706C7332
:102ED000307D009A019B00F0E3F981460028A7D0DD
:102EE0002100306800F000FCA2E70020B4E70120D8
:102EF0004042B1E7FFFFFF0FFFFFFF7FF0B5040087
:102F00000D0006267642F717C64636196F4100B502
:102F100084B08F4214D811D000F038F932003B0051
:102F2000121A8B41002B15DC002B3ED0200029000B
:102F300000F060F904B080BCB846F0BD8642EBD921
:102F40000026002700F022F932003B00121A8B41C4
:102F5000002BE9DD002302930193154B320000930F
:102F600014483B00FFF70EFF0028DFDB00239846E4
:102F7000BC46114A114F7B6A9C4504D8B96A8E42FF
:102F8000D4D99C45D2D11168EFF3108072B60B688A
:102F9000002BFCD0BFF35F8F1368BFF35F8F4146F8
:102FA000196080F3108820BFE5E7002ABED0D1E782
:102FB0002D2A0010440400209C19002000400540E8
:102FC00070B504000D0000F0E1F800196941002916
:102FD00002DBFFF793FF70BD012001494042F8E793
:102FE000FFFFFF7FF0B5EFF30583CE46474680B580
:102FF00005000C0085B0002B12D02C4A0020536A2B
:103000009C4203D8926A0130AA4204D305B0C0BCE6
:10301000B946B046F0BDE01A421E9041C0B2F5E795
:10302000234E02930193234B0200009330000B00C8
:10303000FFF7A8FE031EE0DD20BF7168EFF31087E5
:1030400072B60A68002AFCD0BFF35F8FDAB29446EA
:103050003068427B62451DD0FF221A4051008946EC
:1030600001689144884649464144033989780029DA
:1030700013D0F1681B0A88464244013A1278DBB249
:103080009A420FD07368BFF35F8F00221A6087F3F4
:103090001088B2E7FF221A40EBE732699342F1D180
:1030A0003161EFE7614600F01FFBEBE700400540B0
:1030B000440400202D2A0010F0B5EFF30582D64617
:1030C0004F4646461000C0B51038EFF3108872B670
:1030D000214C2368002BFCD0BFF35F8F0123190024
:1030E00081401E4D1F006963AA461D4D29601D4D7C
:1030F0002E78AC463500C5402F402B4209D1BFF396
:103100005F8F276088F31088E0BCBA46B146A846B6
:10311000F0BD5346144D5F6A83005D59AF420ED334
:10312000124A8E439B5862461670BFF35F8F00228F
:10313000226088F31088002BE6D09847E4E70C4B18
:1031400092009C46624413681360BFF35F8F0023B4
:10315000236088F31088D7E7280100D0004005409D
:103160003C700540C2190020A01900204C1300201B
:10317000D03F054010B50100024A0348FFF7D6F9D9
:1031800010BDC046982D0110BB190020034B596A91
:103190000A00986A596A8A42FAD17047004005408D
:1031A00070B504000D00124A536A1900966A536AFA
:1031B0008B42FAD13000190024184D41AB4211D88E
:1031C0000ED02B000A494A6A9A42FCD307D1084A1A
:1031D00002E0516A994202D1916AA142F9D370BDCD
:1031E000A642EED9012301246442E5175B42E9E7D8
:1031F00000400540064A536A9942FCD807D1044B67
:1032000002E05A6A914202D19A6A8242F9D3704727
:103210000040054070B504000D00EFF3108672B653
:103220001A4A1368002BFCD0BFF35F8F002D1BD010
:103230002000FFF727FA164981420AD02000FFF745
:1032400029FA01212000FFF70BFA0123A340114ABC
:103250001360114BA400E550BFF35F8F00220B4BAE
:103260001A6086F3108870BD0B4BA200D550012266
:10327000A2400A4920000B7893430B700449FFF7E2
:1032800033FA00212000FFF7EBF9E5E7280100D031
:10329000B9300010386005404C130020C2190020DE
:1032A000F0B54F46D6464646C0B507002C4C616A7D
:1032B0000D00A66A616AA942FAD18B4208D805D0EE
:1032C0000120E0BCBA46B146A846F0BDB242F7D9EB
:1032D000EFF3108A72B6234801680029FCD0BFF3CF
:1032E0005F8F0125BD4020491D4C884609788946DD
:1032F0002943C9B28C46414660460870391D1B48B7
:10330000890065630A51B9000B50216A00202942E7
:1033100019D0616A0800A66A616A8142FAD18B42BB
:1033200019D801D1B24216D8CC4516D00C4B1F206B
:103330001D625D6301230740BB400D4A1E381360C8
:1033400043464A461A70BFF35F8F0022054B1A604E
:103350008AF31088B5E70020F5E70120F3E7C046BF
:1033600000400540280100D0C2190020A01900200B
:1033700080E200E0EFF3108C72B60A490B68002B74
:10338000FCD0BFF35F8F01238340074A07481362D5
:1033900002789A430270BFF35F8F00230B608CF3B7
:1033A00010887047280100D000400540C219002055
:1033B00070B5050014001600002915D00C00002A75
:1033C00012D080686B689847296800280ED0730077
:1033D0009B196200033B1219CB18033A9C708818A2
:1033E0008A5C002A15D10670200070BD63001B198D
:1033F0007200033B9219CB18033A9E7088188A5CBE
:10340000002A02D104703400EEE75A7004703400D0
:10341000EAE75A700670E7E730B583600023CCB264
:1034200043730133047342608373C4730D000068F7
:10343000012C06D9421C0133DBB2137003329C42CB
:10344000F9D1FF2129404B005918002340180338B7
:10345000437030BDF8B5CE46474606000C0080B537
:10346000002907D04D0003686D18033D5A1957789D
:10347000002F04D12000C0BCB946B046F8BD790089
:10348000C91903398846434459788946002159703F
:10349000517073683A0021008068984733680028AB
:1034A00014D042469A18947059195B5D002B00D0D5
:1034B00053700F70270049463000FFF7CBFF3900EB
:1034C00002003000FFF774FF0400D3E74246414694
:1034D0005D19AF709A185B5C002B00D06B70147094
:1034E000E9E7C046F0B557464546DE464E46E0B5EC
:1034F0000D006B0001685B19DF1E0400C85D83B01E
:103500000192CA19002850D043001B18033BCB1866
:103510005E78B446002E1AD1019E002E42D0E67B82
:10352000002E04D073009B19CB18033B5D70A37B66
:10353000002B00D1A573E57300282FD10023537011
:1035400003B0F0BCBB46B246A946A046F0BD72002F
:103550006244033A89184A78904600224A7091469C
:103560005A70010032002000FFF722FF43468246D6
:10357000002B07D05B0021684344033BCB185A78EB
:10358000002A16D1424651462000FFF711FF21685C
:10359000019BCA19002BC2D10028CFD043001B18B1
:1035A000033BCB1800219970C8E7019B002BB6D1D3
:1035B000C4E7500080180338091848788346484605
:1035C0004870587041462000FFF7F2FE5946804689
:1035D0002000FFF73FFF414602002000FFF7E8FE12
:1035E0008046CFE7F0B557464546DE464E46E0B545
:1035F00083B00191457B04006B0000685B19DF1EFE
:10360000C15DC219002952D04B005B18033BC3189F
:103610005E78B446002E1CD1019E002E44D0E67B7D
:10362000002E04D073009B19C318033B5D70A37B6D
:10363000002B00D1A573E573002931D100232800A8
:103640005370617303B0F0BCBB46B246A946A046B6
:10365000F0BD72006244033A80184278904600221E
:10366000427091465A7020003200FFF7A1FE434697
:103670008246002B07D05B0021684344033BCB18F4
:103680005A78002A17D1424651462000FFF790FE93
:10369000019B01002068C219002BC0D10029CDD0A8
:1036A0004B005B18033BC31800209870C6E7019BD2
:1036B000002BB4D1C2E750008018033809184878AD
:1036C000834648464870587041462000FFF770FE18
:1036D000594680462000FFF7BDFE4146020020000B
:1036E000FFF766FE8046CEE770B5040000292CD0B7
:1036F000437B8B422ED005684800401803382818B9
:103700008278002A21D053009B18033BEA5CEE1814
:103710008A4202D11BE0002A08D053009B18033BC9
:10372000EB185A788A42F6D142785A700023012267
:10373000837043702000FFF7D5FE617B02002000FC
:10374000FFF736FE6073012000E0002070BD437873
:103750003370EBE701221900FFF7C4FE607301200C
:10376000F4E7C046F8B5CE464746040080B50620CB
:103770000E0000F023FA051E51D0524B5249E218B8
:1037800053425A418023DB039C4692054F4B6244CF
:103790001A604F4B1A6010008B689843FBD1494B5D
:1037A0008021E3185A4253414A4A5B00490099522A
:1037B000062000F003FA3100C00001F0C3FEC30987
:1037C00032D14022012190466162A362256BEB0752
:1037D00036D427008026E36A00232C3776013E4347
:1037E00033600620256300F0E9F94146800001F0CE
:1037F000A9FE236B05009846DB073BD46022E36AF1
:103800005A406E23134033604346236380231022C3
:103810009B013B431A60304B23630323A3642800BE
:10382000C0BCB946B046F8BD2C4A93423FD90023EC
:103830002B492C4A6162A362256B9046EB07C8D5E1
:103840002200C02330329B011343234A06201A6012
:10385000666AA26AB601B61800F0B0F9224901F012
:1038600071FEB6020100300001F06CFE0021FFF78E
:1038700097FCAEE72200C02330329B011343164A67
:1038800006201A60636AA26A9B019946914400F07F
:1038900095F94B4614499B02994601F053FE0100ED
:1038A000484601F04FFE0021FFF77AFCA6E77F2291
:1038B00099018846104001304008190080440300F7
:1038C00082E7C0460080FCBF00C0004000E000402E
:1038D00000F00040B019002001030000FEFF0000CE
:1038E000FFFF0000C0FF3F004E0E000030B50C206F
:1038F00083B000F0B9F9FEF7FBFD00280ED0994B1C
:10390000994A1A605A609A60DA601A615A619A613B
:10391000DA611A62954A5A6203B030BD944CA067CE
:1039200000F0AAF90122934B1A60636C012BFCD1C1
:103930000322914B1A608E4A936B012BFCD1013309
:1039400001218E4A8E480093043300F03DF905238F
:103950008C4A009301218C4800F036F98B4B5A6851
:10396000FF2A02D8802252005A6080227D4C824B6E
:1039700021691201854D1A60002907D0606901F0A4
:10398000E1FD431C5800C0180338FDD2E0217F4BF5
:1039900002201A681140802252012A4311601968DE
:1039A000484003210140116004219A681142FCD073
:1039B0008022802192012A43090111608022520055
:1039C0005A60734B2361734B5968FF2900D85A60C2
:1039D0000321684A6F4B116002399A681142FCD08A
:1039E000E0201A681040802252011A4310601868C3
:1039F0004840032101400220116066498A68104254
:103A0000FCD0802292011343802212011A6080228E
:103A1000614B52004A606361604B5968FF2900D8CE
:103A20005A6080225E4BE16912015C4D1A600029E8
:103A300007D0606901F086FD431C5800C0180338A8
:103A4000FDD2E02255490B681A4080235B012B43CD
:103A50001A60802380229B012B4312011A6080226E
:103A6000414B52004A60E3614E4B5968FF2900D830
:103A70005A6080224C4B216A12014A4D1A6000297B
:103A800007D0606901F05EFD431C5800C018033880
:103A9000FDD2E02243490B681A4080235B012B438F
:103AA0001A60802380229B012B4312011A6080231D
:103AB00080225B004B602C4BD20223623B4B596847
:103AC000914200D25A608022394B616A1201374D0F
:103AD0001A60002907D0606901F034FD431C5800CA
:103AE000C0180338FDD2E02230490B681A40802309
:103AF0005B012B431A60802380229B012B43120120
:103B00001A608023DB024B60184B6362294B5A68B2
:103B1000FF2A02D8802252005A608022264BA169D7
:103B20001201244D1A60002907D0606901F00AFDD6
:103B3000431C5800C0180338FDD2E0221D490B6811
:103B40001A4080235B012B431A60802380229B0153
:103B50002B4312011A6080235B004B600E4BA36164
:103B6000DAE6C046D8130020006CDC021BB7000068
:103B7000008000403CB0004030B00040002F685949
:103B800000800240008C864700C002403080004028
:103B9000001BB7003C800040405973075480004030
:103BA00054B000406080004060B000406C80004035
:103BB0006CB000404880004048B00040014B80009D
:103BC000C0587047D8130020F8B5040021481D00E4
:103BD00017000E0001F0B6FC0100380001F0B2FC45
:103BE000069B29041B0319432368002B20DB1A4B77
:103BF0001A4DE21853425A4180235B019C4612033E
:103C0000174B62441A60174B1A601700AB689F434A
:103C1000FBD1C022231D92011A4321232660A060FC
:103C200013602368002BFCDA0823E1601360F8BD01
:103C30003F2322681340B342D9D1A3681B051B0D53
:103C40008342D4D1EE22E368D20213408B42CED11C
:103C5000EDE7C046001BB7000040FDBF00C00040BC
:103C600000E0004000F000408023024A9B00034334
:103C7000D362704700800540AA23064A1B011360E7
:103C80002F230549D360054B19605368002BFCDADC
:103C90007047C0460040024000B0FA000060024099
:103CA0002C4B2D4A70B51A602C4A2D4B2D491A60A9
:103CB00014008B689C43FBD12B4D2C4EB54208D28F
:103CC000013E761BB60808CD984723000134B34265
:103CD000F9D1FFF70BFE264A214B1A60214A93685F
:103CE000DB43DB01DD09002BF9D14022214B224CC3
:103CF000224E9A675A671A67DA66B44208D2236876
:103D00002000002B20D00834FEF758FEB442F6D332
:103D10001B4E1C4CC022A168300002F05FF9A66067
:103D2000FEF774FCFEF712FEFEF7F6FF164C174E78
:103D3000B44208D2013E361BB60808CC98472B0087
:103D400001359E42F9D170BD0834FEF729FEB44218
:103D5000D5D3DDE700E00040BFCDFBFEFE7F3C0099
:103D600000F0004000C00040D00E0020E00E002017
:103D7000FFFFFF0100F00140C00E0020D00E002028
:103D80000000002000ED00E0E00E0020E40E002026
:103D900000BEFDE7094A03001068002805D0084965
:103DA000C3188B4207D81360704706480449C318EC
:103DB00010608B42F7D901204042F5E750180020EF
:103DC00000000420C419002010B5FFF7E1FFC04631
:103DD00010B50C0082B01900002A0AD0064B0192DF
:103DE000009302002300054801F00CFB0120FFF7BF
:103DF000CFFF034B1A00F2E7BC2D0110CC2D0110B0
:103E0000C43301100FB400B5084883B002F04AFA79
:103E1000049B002B07D005A91800019101F012FBAB
:103E2000034802F03FFA0120FFF7B2FFFC2D01101A
:103E30008035011010B50148FFF7E4FF0C2E01108A
:103E40009A4200D2885470477047C046F8B557462A
:103E50004E464546DE46E0B599460A9B07009A461F
:103E60000D9B8846934615000B9E9B0710D10C9B1B
:103E70009E420DD29D1B14000E005D4422004B4655
:103E8000013431002020B847A542F7D1B0460B9E3F
:103E9000002E27D0444675195346AA1B013E985D53
:103EA00021004B46B847002EF6D123002C0098463F
:103EB0000D9B9B070FD55B46E51A0C9BAB420AD9BD
:103EC0004646984622004B46310020200135B8472F
:103ED0000134A845F6D82000F0BCBB46B246A9463E
:103EE000A046F8BD2C00E3E7F0B54F464646D6465F
:103EF000C0B584B098460EAB1B78129F9946944685
:103F00000D9C109B119EBA0725D4002E4BD19C42CC
:103F100000D3BFE001223A4092461F2C00D9B8E0FE
:103F20000C9A551E302201E0202C03D001342A5572
:103F3000A342F9D85246002A0DD0A6420BD9202C14
:103F400044D00C9A551E302201E0202C3ED0013482
:103F50002A55B442F9D1FA064DD57A053FD4002C42
:103F600039D10F9B102B00D179E00F9B022B00D190
:103F70008AE030230C9A012413704B46002B3FD06B
:103F80002D230C9A135501340C9B62460093039722
:103F9000434602960194FFF759FF04B0E0BCBA46CD
:103FA000B146A846F0BD012215003D40AA463A425E
:103FB0002FD04A46002A02D10C323A4200D0013EAC
:103FC0009C42BAD21F2CABD9202E27D92024FA0626
:103FD000DAD57A0503D4A3422DD0A6422BD00F9B6D
:103FE000102B32D0022B20D0202CCDD030220C9B95
:103FF0001B191A700134202CC6D04B46002BBFD1A0
:104000007B070DD43B07BFD520230C9A13550134F1
:10401000BAE79C429FD21F2C00D881E720249AE760
:104020002B230C9A13550134AEE7202CACD00C9BFB
:104030001B1901343AE0631E012C92D00F9A102A0A
:104040002AD0022A2FD01C00D0E7BB060ED4202C89
:104050009AD00C9B1A19013478231370C4E7BB065D
:104060000DD478230C9A01241370BFE7202C00D1C3
:104070008AE758220C9B1B191A700134B4E75823A5
:104080000C9A01241370B1E70C9A60330124137069
:10409000ACE7202400265EE7023CBA06E9D40C9A7D
:1040A00012191C00D8E70C9A9246534462221A70E7
:1040B0009AE7C04610B5002800D110BD02F0A6F85E
:1040C000FBE7C0460B0010B5002802D049681B680A
:1040D000984710BDF0B5DE4657464E464546E0B51A
:1040E0009BB09B46249B89469846259B0B900C923F
:1040F0004046424619009A4601F0E5FC002800D0EF
:10410000D8E0012240465146774B524201F0D6FC9E
:10411000002800D0CEE0012240465146734B524267
:1041200001F0B6FC002800D0C4E000220023404685
:10413000514601F0ADFC002800D0B9E1424653469B
:104140000A9209938023289ADB001A400E92289A3B
:104150001A4201D1062326930A9A099B160013439B
:1041600000D0C7E0289B002500261B0500D49BE15A
:1041700000230D93269A0D9B9A4200DC9FE1D01AF2
:10418000431E26938023289ADB001A43002300272E
:1041900028920D93279B0024BB4200D9DC1B0223ED
:1041A000289A1A400E92289A134203D07B427B41F0
:1041B0005B421C400D9B002B07D00A9809992A00EE
:1041C000330001F004FC0A900991002200234046CC
:1041D000514601F05DFC002805D080200006844691
:1041E000099961440991289A414B0B9D134004930E
:1041F000269B0A9A0293099B0394009201934946D5
:104200005B4628000C9A00F08BF90400002F62D066
:10421000289B220098061F23C0179843631C9846CA
:1042200049465B466530A8470D9B0025DA179C1868
:10423000DB0F9A465440013F01E0202D13D00AAA1B
:1042400094461F23200063440A2101355E1901F0C2
:1042500079F93031317020000A2101F073F926001C
:104260000400092EE9D805230693002304930A339A
:104270000393534605970B9F029312AB009342465C
:104280005B46494638000195FFF72EFE0E9B040061
:10429000002B20D00C9BC51A279BAB421BD91E00BC
:1042A00022005B46494620200135B8470134AE4222
:1042B000F6D810E0289B42460493279B4946039377
:1042C000269B0B9802935346009201935B460C9AEF
:1042D00000F026F9040020001BB0F0BCBB46B2463B
:1042E000A946A046F0BDC046FFFFEF7FFFFFEFFFEE
:1042F000FFF7FFFF734B099F9C467800400D604419
:1043000001F0F4FB704A714B01F07BFB704A714B7A
:1043100001F058FB3B03704A1B0B1A4304000D00CD
:10432000300011006D4B002201F047FB6C4A6D4BD1
:1043300001F067FB02000B002000290001F042FBA6
:1043400001F0ECFB0D9001F0D1FB674A674B0400D4
:104350000D0001F056FB0022654B01F033FB01F02C
:10436000DDFB644A0600644B2000290001F049FB94
:10437000040030000D000F9601F0B8FB5F4A604B5F
:1043800001F03FFB02000B002000290001F015FBAB
:1043900002000B0006000F0001F033FB32000400A6
:1043A0000D003B003000390001F00CFB00221090A2
:1043B0001191544B2000290001F009FB0022524BBF
:1043C00001F000FB02000B002000290001F0FFFAC1
:1043D00000224E4B01F0F6FA02000B0020002900EB
:1043E00001F0F5FA0D008021040032003B000020AE
:1043F000C90501F0E2FA02000B002000290001F0DB
:10440000E1FA02000B001098119901F0E0FA002285
:10441000314B01F0D7FA3E4B0F9C9C46644400227E
:10442000230501F0EEFA05000E0002000B000A98C9
:10443000099901F02DFB00280AD00D9B2800013BB3
:1044400031000D930022304B01F0C1FA05000E003F
:10445000C6270D992B0063318F42BF4128997F42B7
:104460000437090500D495E6334300D182E6099C60
:10447000284A2100284B0A9801F018FB002808D090
:1044800000222100254B0A9801F002FB002800D0F1
:1044900070E6269B002B00D17CE60E9B5A1E9341B2
:1044A000269AD31A269375E6002304270D9371E606
:1044B00043460A9380231B065344099342E6002394
:1044C00026935FE601FCFFFFFB799F501344D33F27
:1044D000B3C8608B288AC63F0000F03F0000F83F59
:1044E00061436F63A787D23F71A379094F930A4055
:1044F0000000E03F1655B5BBB16B0240EF39FAFE44
:10450000422EE63F00002C400000244000001840EE
:10451000FF0300002D431CEBE2361A3F80842E413E
:10452000F0B54E46DE4657464546E0B597B099464B
:10453000209E219F229B8346984607910C923B0028
:1045400032003000390001F0BEFA002800D0A9E1A5
:10455000012230003900CA4B524201F099FA00287A
:1045600000D0E1E0012230003900C64B524201F098
:10457000A5FA002800D0B7E0002230003900C24B75
:1045800001F09CFA002800D099E0002230003900A8
:10459000BE4B01F07DFA002800D090E000220023FD
:1045A0003000390001F074FA002800D0B1E0002397
:1045B0000D93249B5B0501D40623984608AB9C46CB
:1045C0001722002430234146624404E0013413558D
:1045D0000139202C01D00929F8D88846300039004B
:1045E00001F09CFA4346DA00A94B05009B181A68B3
:1045F0005B680892099301F079FA02000B00300021
:10460000390001F0DAF9089A099B01F0FAF90A90E9
:104610000B9101F0A7FA824601F064FA02000B0048
:104620000A980B9901F0C9F900229A4B0A900B9154
:1046300001F044FA002800D1C0E001239C46E24486
:10464000504601F04FFA02000B000898099901F05A
:1046500025FA002802D000239A4601354346002B54
:104660006AD008AB17269C4608956644554614E068
:1046700001235B4243440A2128009A4600F062FF6E
:10468000013430313719397028000A2100F05AFFFF
:10469000092D00D8D0E0D0460500202CE8D10EAB83
:1046A00098460323249A1340012B00D196E020233F
:1046B000249A01930392239A434602921EE0249B7C
:1046C00058460493239B00960197039343460C9A04
:1046D000029307994B46FFF7FDFC17B0F0BCBB46B1
:1046E000B246A946A046F0BD249B5B070ED4032228
:1046F000694B2499019203912399029100935846A2
:104700004B460C9A0799FFF7A1FBE6E70422634B9F
:10471000EFE73B0032000020002101F04EF90123B9
:1047200006000F000D9344E7249B0393239B029301
:10473000042301935A4BE1E7280001F0D7F9020066
:104740000B003000390001F038F9524B002206000E
:104750000F0001F09DF90EAB984600280AD1002207
:10476000300039004B4B01F0A9F9002802D1EB07CA
:1047700000D50135202C94D008AA94461723280090
:1047800063440A2101341E1900F0B4FE30312800C0
:1047900031700A2100F0AEFE051EEBD10323249AEE
:1047A0001340012B1BD0202C00D180E70D9B002B48
:1047B00035D02D224146631C0A5579E700220A981C
:1047C0000B99344B01F064F9002800D046E75346BA
:1047D000002B51D101239C46E2443FE72024239B38
:1047E000002BE0D00D9B002B03D1249A0C331342F5
:1047F00002D0239B013B2393239BA342D3D908AB35
:104800009C46172230236244202C00D14FE7239985
:10481000013413558C42C6D0202CF8D147E7249B95
:104820005B0724D4249A2300120700D440E72022F7
:10483000414601330A553BE75746089D202C00D1DD
:104840002DE7220030214046002F09D00132B1541B
:10485000202A00D123E7D3431B191B18002BF5D1C5
:104860000EAB98462E234146541C8B5482E72B22D4
:104870004146631C0A551BE7DB0700D4EEE6A9E7B7
:10488000FFFFEFFFFFFFEF7F65CDCD4165CDCDC1D0
:10489000103001100000E03F182E01101C2E0110F6
:1048A000282E0110249B0393239B0293032301933F
:1048B000004B23E7242E0110F0B5DE464E46574646
:1048C0004546E0B59FB01C00289B91460993C94A14
:1048D000C94B8B4608901A60002900D118E20023CA
:1048E00020789A46002800D11AE226001D005C4676
:1048F0000AE02A006F1C4B46089D2100A8473D0096
:1049000001363078002870D02528F2D110239B463C
:10491000083B9A46043B9846023B00219C46721C89
:10492000107816000300203BDBB2102B03D8B34FE6
:104930009B00FB589F460300303B092B32D90023D4
:104940000A932A2868D0002398462E283ED00300D8
:10495000683BDBB2122B1CD8A94A9B00D3589F4658
:10496000012301321943DBE7634601321943D7E7DC
:10497000434601321943D3E75B4601321943CFE77F
:10498000534601321943CBE780235B00707819430B
:1049900001360300253BDBB2532BAAD8994A9B0072
:1049A000D3589F4600270300B800C01901364000C5
:1049B000C018337830381A00303A0700092AF3D982
:1049C0000A901800002398462E28C0D180237078C2
:1049D000DB0019430300303B721C092B00D8A1E116
:1049E0002A2800D1B2E11600B1E7A346AA462C005E
:1049F000D14503D801235B424B449A464B4652466D
:104A000059460020089DA84720001FB0F0BCBB46B7
:104A1000B246A946A046F0BD099B40CB0A96002E9F
:104A200003DB50780993561C8DE728380143704208
:104A30000A9009935078561C85E7782800D1DFE169
:104A4000582800D14CE26F2800D14FE3622801D1F1
:104A500000F030FC10230A009A430B92692801D021
:104A600000F0A9FC0A230C934B0500D5D0E10B9A6A
:104A7000802311009B0019408B461A4200D0A1E20E
:104A8000802311005B0019408A461A4200D0B6E329
:104A900013005B0600D5EDE2130009991B0601D453
:104AA00000F076FC08C91BB2D8171A18424092B21F
:104AB00009919346DA0F1292002B09D1802310221C
:104AC0000B99DB000B4091430B91002B00D0E4E2EB
:104AD0000B9A6123920600D541230EA91F228C4612
:104AE000DBB262440A3B5F461395A34655460C9CD5
:104AF000B2460D9316000AE03033DBB20135735530
:104B0000A74200D2EDE2202D00D1EAE20700210009
:104B1000380000F017FDCBB20929EDD90D9A944663
:104B20006344DBB2EAE780239B00707819430136C7
:104B30002FE77078682800D1CDE180230136194332
:104B400027E770786C2800D1BFE180235B00194310
:104B500001361EE7462800D19BE10722099B0491FC
:104B6000073393430A9A19000392424602920CC9F2
:104B700008980092019309912A004B462100FFF703
:104B8000CFFC01360500BCE62A006F1C4B46089D91
:104B900021002520A84701363D00B2E68B0700D44E
:104BA000ADE1099B2A009A466B1C9846534601CBFF
:104BB00021009A46089F4B46C0B2B8470A9B9C46C4
:104BC0006544012B00D886E2089B4746B046260084
:104BD0004C4699463A002300013731002020C8474F
:104BE000AF42F7D1A14653463400464609930136F9
:104BF00087E6C046B94800105C180020302E01102E
:104C0000742E0110C02E0110099B04CB9B46434615
:104C10000992002B00D1C6E013789C46002B00D1EE
:104C2000BDE34346013B099A0133D0180A9F1300A4
:104C300001E0834203D05A780133002AF9D1099A5E
:104C40000A979B1A0B9380230A00DB001A400C92F0
:104C5000194204D00B9B434501D943460B930223D1
:104C60001A000A400D920B4200D187E160460028ED
:104C700000D168E10C9B002B00D10DE1A844C24695
:104C8000099B57465B1B9846089BB2462A002600A4
:104C90004C46994609E023003100551CC84743465D
:104CA000585D002800D126E12A009742F3D1A146A1
:104CB0003D00340056460D9B002B00D043E15B467F
:104CC000013609931DE6099B1A0008CA9246002B7B
:104CD00048D0212211438B460EA884461F216144EF
:104CE000099500220F27A4460D0002E0202A0CD0CF
:104CF0000B003C001C4020003730092C00D807383E
:104D00000132A85419090F2BF0D86446099D32E0EE
:104D1000DC4B2078089300239A46002800D0E4E575
:104D2000002465E6434606000A9F9800C018013239
:104D3000400080191678030030003038303B0928D5
:104D4000F3D93000984616000A9700E6099B023610
:104D500004CB9046D2434046D21710408046099378
:104D60003078F4E510220800904311321043834656
:104D700000224905B0D55B460693082305934346B8
:104D80000493102303930023029316AB0192009324
:104D90002A004B4621000898FFF7A6F85346050065
:104DA00001360993ADE513789C46002B00D1F7E25C
:104DB00002235B4237E7202302009A43472A04D1AB
:104DC00080231B01194302239843452801D1202346
:104DD00019430722099B0491073393430A9A190048
:104DE0000392424602920CC90898009201930991DD
:104DF0002A004B462100FFF76DF90136050080E5DA
:104E000010230C930C230A009A430B924B0503D5F5
:104E100001230B9A9A430B92692800D127E6642854
:104E200000D124E60B9A802311009B0019408B4689
:104E30001A4200D066E1802311005B0019408A46C7
:104E40001A4200D039E213005B0600D53CE11300A2
:104E50001B0600D4A6E2099B04CB1204120C934655
:104E600009935B46002B00D09AE10B9A1033110096
:104E700099430B91520500D492E100239A460B9B73
:104E800006930A9B0593434604930C9B03930023CC
:104E90000CE12023194360E6099B0A9A5B1B9846A4
:104EA0004B4691461F00B2462600089C2A003B0054
:104EB0003100A04743460135585D0028F6D14A46E7
:104EC0003400B94656460A92F5E6C0239B00B078F6
:104ED000194302365DE5C023B0781943023658E520
:104EE0000C230A009A4314331A43103B0B920C9381
:104EF0004B058DD496E7A14634005646DBE60A9A68
:104F0000012A00D853E26B1E9F18089BB04626006A
:104F10004C4699462A002300013531002020C8471D
:104F2000BD42F7D1A14634004646099B3A0001CB69
:104F3000210098467D1C4B46089FC0B2B8474346A7
:104F400001360993DDE40B9B0A9AA8469A4200D8E1
:104F5000B5E694466544ED1A089B4746B0462600E0
:104F60004C4699463A002300013731002020C847BB
:104F7000AF42F7D1A14634004646A0E60B9A0A9903
:104F8000531C914200D814E24B199B1A1F00089B36
:104F9000B24626004C4699462A00230001353100CE
:104FA0002020C847BD42F7D10A9BA14601330B938D
:104FB000099B34001B7856469C466046002800D06A
:104FC00058E67CE60722099B073393430132944657
:104FD0009C4462465F6809921A68FB17109311930C
:104FE00010981199030053400E930B007B400F93D0
:104FF00094460E9A0F9B121A8B410E920F93FB0F41
:105000006246129300233A439B463DD00B9A61239C
:10501000920600D541230022DBB20EA90A3B8C4642
:1050200092460D9343461F3262441395159655469A
:105030000E9E0F9FA24690460C9C14930CE03032BB
:10504000D2B2434601355A55BB4500D18AE1202DE5
:1050500000D18AE106000F00220000233000390051
:1050600000F0AEFAD2B2092AE9D90D9B9C466244FF
:10507000D2B2E6E7FF23099904C913401A00099147
:1050800017E5C046493E00100B9A103311009943B2
:105090000B915205BAD500239A460B9B06930A9BA7
:1050A0000593434604930C9B0393129B0293534630
:1050B000019316AB2A00009321004B460898FEF797
:1050C00013FF013605001CE4FF22099B02CB1140AF
:1050D0008B460993C5E65346454609930136FFF7CB
:1050E00010FC56465C46AA46139DD6E708230C934F
:1050F0000B910B99642800D084E60B9B5B0500D5CF
:1051000086E6B4E40722099B0733934301329446B1
:105110009C44624609921A685B6810009B46130023
:105120005A46134307D10B9A1033110099430B9140
:10513000520500D5A1E60B9A6123920600D54123C2
:105140000022DBB20EA90A3B8C4692460D934346E1
:105150001F3262445F461295A34655460400B2468C
:1051600090460C9E13930DE03032D2B24346013587
:105170005A550023BB4200D100E1202D00D100E1AF
:1051800004000F00320000232000390000F018FA5C
:10519000D2B2092AE8D90D9B9C466244D2B2E5E717
:1051A0000B9A6123920600D54123DBB20EA90A3B7C
:1051B0001F228C460D93230062445C461295170013
:1051C00055469B46B2460C9E08E03033DBB20135B3
:1051D0007B55B4420ED3202D0CD0040031002000AA
:1051E00000F0B0F9CBB20929EFD90D9A9446634487
:1051F000DBB2ECE756465C46AA46129D3FE6099BA9
:105200001A0008CAD91713925A184A409246DA0F60
:105210001292002B08D1802310220B99DB000B4047
:1052200091430B91002B2BD10B9A6123920600D551
:1052300041230EAA1F279446DBB20A3B0D95674413
:105240005D460993A3465446B2460C9E08E03033AF
:10525000DBB201357B55B4420ED3202D0CD00400B7
:105260003100200000F06EF9CBB20929EFD9099A7C
:1052700094466344DBB2ECE756465C46AB460D9D74
:105280000B9B2A0006930A9B210005934346049337
:105290000C9B08980393129B013602935B46019383
:1052A00016AB00934B46FEF71FFE139B05000993B8
:1052B000FFF727FB02230C931AE7099B04CB9246C6
:1052C0001293002A08D1802310220B99DB000B4097
:1052D00091430B91002B2BD10B9A6123920600D5A1
:1052E00041230EAA1F279446DBB20A3B0D95674463
:1052F0005D460993A3465446B2460C9E08E03033FF
:10530000DBB201357B55B4420ED3202D0CD0040006
:105310003100200000F016F9CBB20929EFD9099A23
:1053200094466344DBB2ECE756465C46AB460D9DC3
:105330000B9B2A0006930A9B210005934346049386
:105340000C9B08980393002302935B46019316ABD2
:1053500000934B46FEF7C8FD129B050009930136EA
:10536000FFF7CFFAB44200D871E6149B54460E966C
:105370000F97AA469846159E139D8EE6A64200D822
:10538000FBE6139B56469846AA465C46129D76E578
:1053900008C9D8171A1842400991FFF78AFB002361
:1053A0000B9350E4099B04CB9346099359E52F00D6
:1053B000BBE50B9301E6063B0C939AE60CB410B5E3
:1053C00084B006AC08CC0A000094010004480394A1
:1053D000FFF772FA04B010BC08BC02B01847C04610
:1053E000413E001000B585B0039101210290009369
:1053F000034813004A4202A9FFF75EFA05B000BD58
:10540000C54000100FB410B50C4984B006AA08CAF4
:105410000C680392002C0BD00092012208485242E3
:1054200002A9A047012004B010BC08BC04B0184772
:10543000180000F037FF0020F5E7C0465C18002098
:10544000B540001010B5094A0300146884B0002C60
:1054500008D0012200910648524203A9A04701202A
:1054600004B010BD00F01EFF0020F9E75C1800201A
:10547000B540001001480421014B1847700400207A
:10548000B1540010014B9B681847000070040020C5
:10549000142310B50100188804331B88984710BDE9
:1054A000162310B50100188802331B88984710BDD9
:1054B000F8B54746CE4680B50F1E19D0142399463D
:1054C000043304000025012698464B4618884346BD
:1054D00021681B88984701C4431E9841013540420A
:1054E0000640AF42F1D13000C0BCB946B046F8BD6D
:1054F0000126F8E7124A936F9B0815D29066D16691
:10550000002905D0FFE7FFE7FFE7516F106F7047F5
:1055100004B580210906C2175140002800D0C843B5
:105520000DF08AFB002104BDF0B5146E556E576F67
:10553000166FFFF7E3FF1466556657671667F0BDF1
:10554000000000D0114A936F9B0813D21066516679
:10555000002905D0FFE7FFE7FFE7516F106F7047A5
:1055600004B5002801D00020C0430DF065FB0021E8
:1055700004BDC046F0B5146E556E576F166FFFF739
:10558000E5FF1466556657671667F0BD000000D04A
:1055900094464A4A926F9208624601D228E0C04679
:1055A000F0B5464E346E756E776F366F00F020F8AA
:1055B0009446424A14665566576716676246F0BDC0
:1055C00094463E4A926F9208624601D254E0C04629
:1055D000F0B53A4E346E756E776F366F00F04CF85A
:1055E0009446364A14665566576716676246F0BD9C
:1055F000002B24DB11D000293EDA00B5C94340421C
:1056000000D1013100F038F8C943404200D10131E6
:10561000DB43524200D1013300BD002AEBD1002808
:1056200001D1002905D00020C90FC90701D1C0430D
:10563000410800B50DF0E8FA0022002300BD00B5D6
:1056400000290ADBDB43524200D1013300F014F899
:10565000C943404200D1013100BDC943404200D19D
:105660000131DB43524200D1013300F005F8DB4346
:10567000524200D1013300BD002923D1002B18D1A3
:10568000002A0CD0BC460D4F38667A6600210023F4
:10569000FFE7FFE7FFE77A6F386F6746704700283C
:1056A00001D00748010000B50DF0AEFA002200233A
:1056B00000BD02000B00002000217047000000D058
:1056C000FFFFFFFF002B00D0BFE0130C28D1002A02
:1056D000E7D080B4114F39667A66FFE7FFE730B450
:1056E000040C7B6F396F1B0423433B667A66FFE72C
:1056F000FFE7FFE7C04684B27B6F3D6F1B04234387
:105700003B667A66FFE7FFE7C04600232C042D0CBA
:105710007A6F386F00196941B0BC7047000000D043
:10572000F0B594460025140E01D112020835140F6D
:1057300001D112010435940F01D192000235D40F2A
:1057400001D152000135D40B0134254F7C66254C24
:105750003C660E0C93B2FFE7FFE7FFE73C6F664342
:10576000360C7703BE467343DF0B5B04C01AB941A6
:10577000130C7343DB18C91ACE086643360CB644C3
:1057800093B273431F0F1B01C01AB941130C73432B
:105790001F0B1B05C01AB941860D8F023E4366439D
:1057A000360C092D24DB520A7243801A7703460A0D
:1057B0006643360C16235B1BDE40DF40BF19644690
:1057C0006643821B7046043506330100D940A84069
:1057D000C01900D30131A24206D20023F0BD00005F
:1057E000000000D0FFFFFFFF121B0130F3D3F1E7F1
:1057F00009277F1BFE406446A2B27243801A00D282
:105800000139220C7243130C1204821A99410B00C5
:105810007046043513370100F940A840801900D3C1
:105820000131002B02D1A2420AD2F0BD013000D3D7
:105830000131121BFAD2013BF8D1A24200D2F0BDD5
:10584000013000D30131121BF7E7F0B51C0C00D07A
:1058500080E00CB400251C0A04D11B02160E334351
:10586000120208351C0B04D11B01160F3343120121
:1058700004359C0B04D19B00960F334392000235F4
:10588000DC0B02D192185B4101351C009718644172
:105890000134464F7C66464C3C660E0CFFE7FFE742
:1058A000FFE7C0463C6F6643360C7703BE4697B2AF
:1058B0007743C01B00D20139C01B00D201399FB20F
:1058C0007743C91BC91B170C77437E04FF0B801B52
:1058D000B941CE086643360C0C2D33DBB644120BAF
:1058E0001F053A431B0B97B27743C01B00D2013907
:1058F0009FB27743C91B170C77433E043F0C801BB4
:10590000B941860D8F023E43664329277F1BFE4027
:105910000C3D7746AF40BF1930BCA2B2ABB2724368
:105920007343801A9941220C7243130C1204801A9B
:10593000994102000B000137001BA941F9D2781EE2
:105940000021F0BD0C277F1BFE4077467F0BAF4048
:10595000FF19E0E700245D1C07D0144F7D6639660F
:10596000FFE7FFE7FFE7FFE73C6F95B29EB26543B5
:105970006643401BB141150C1E0C6543664336045B
:105980002F0C3E432D04401BB141994204D202002A
:105990000B0020000021F0BD01D19042F7D3801A06
:1059A000994101349942F2D3F6E70000000000D09B
:1059B000FFFFFFFF48404140484018B4134B5B686D
:1059C000019308BD18B4114B1B68019308BD9446A0
:1059D0000F4A926F920805D2624618B40B4BDB68EF
:1059E000019308BD0A4AF0B5146E556E576F166FD5
:1059F0006246FFF7F2FF064A146655665767166758
:105A0000F0BD18B4014B9B68019308BD88100020BD
:105A1000000000D0FFB550404240504059404B403C
:105A2000594000E0FFB5154F4C00640D03D0BC4257
:105A300004D10C0314D80020090D09055C00640D85
:105A400003D0BC4204D11C030AD800221B0D1B0545
:105A500001264B4009D44B4003D58B4200D18242F2
:105A6000FFBD9942FCD19042FFBD0B43DB180343BD
:105A70001343F5D0C9434918FFBD0000FF070000DC
:105A800000B5FFF7CFFF01D0002000BD012000BD11
:105A900000B5FFF7C7FF804100BDC04600B5FFF766
:105AA000C1FF01D9002000BD012000BD00B5FFF7F6
:105AB000B1FF01D9002000BD012000BD00B5FFF7F6
:105AC000A9FF804100BD012040054A00121804D8FA
:105AD0005A00121801D8002070470120704700209A
