:020000041000EA
:1000000000B5324B212058609868022188439860DF
:10001000D860186158612E4B002199600221596106
:100020000121F02299502B49196001219960352056
:1000300000F044F80222904214D00621196600F024
:1000400034F8196E01211966002018661A6600F04E
:100050002CF8196E196E196E052000F02FF8012189
:100060000842F9D1002199601B49196000215960AB
:100070001A491B48016001219960EB211966A021F2
:10008000196600F012F800219960164914480160C1
:100090000121996001BC002800D000471248134993
:1000A000086003C880F30888084703B5996A0420EC
:1000B0000142FBD001200142F8D103BD02B5186610
:1000C0001866FFF7F2FF186E186E02BD00000240BE
:1000D000000000180000070000035F00212200005C
:1000E000F4000018222000A00001001008ED00E03C
:1000F00000000000000000000000000074B24E7A12
:1001000000200420F7010010C3010010C5010010F9
:10011000C1010010C1010010C1010010C101001097
:10012000C1010010C1010010C1010010C701001081
:10013000C1010010C1010010C9010010CB01001065
:10014000CD010010CD010010CD010010CD01001037
:10015000CD010010CD010010CD010010CD01001027
:10016000CD010010CD010010CD010010CD01001017
:10017000CD010010CD010010CD010010CD01001007
:10018000CD010010CD010010CD010010CD010010F7
:10019000CD010010CD010010CD010010CD010010E7
:1001A000CD010010CD010010CD010010CD010010D7
:1001B000CD010010CD010010CD010010CD010010C7
:1001C00000BE00BE00BE00BE00BE00BEEFF3058054
:1001D000103800BEF2EB887184760110A076011011
:1001E0003402001090A31AE700201F49086006C8D7
:1001F00081F3088810471D48006800282FD10DA4FE
:100200000ECC002902D000F012F8F9E71849194A7B
:10021000002000E001C19142FCD1174988471749ED
:1002200088471749884700BEFDE701C901C29A42C5
:10023000FBD37047A0760110C0000020340F0020CF
:100240001485011000000420000004201485011012
:10025000001004200010042000000000704709482E
:1002600005F0B6FF0047000008ED00E0000000D0F8
:10027000380F002060190020ED490010491D0010C2
:10028000154B00105756000006005250ABB3605398
:100290008036011006005250861C0302A036011061
:1002A000060052505422A29DB03601100500525053
:1002B000DE65F46814850110F8B5C0460448054BA6
:1002C00010B5834203D0044B002B00D0984710BDDB
:1002D000340F0020340F00200000000006480749BA
:1002E000091A8B10C90FC91810B5491003D0044B57
:1002F000002B00D0984710BD340F0020340F002091
:100300000000000010B5074C2378002B09D1FFF73F
:10031000D5FF054B002B02D0044800E000BF0123AD
:10032000237010BDD81100200000000060320110C1
:10033000054B10B5002B03D00449054800E000BF71
:10034000FFF7CCFF10BDC04600000000DC1100200C
:1003500060320110B62370B505005B00C3580B4E28
:100360009B6A8C3511210A4A0400300005F0CCFE4E
:100370002800AE6209F018F9EB68002B05D0B42311
:1003800001222800E15808F0B7FE70BD10180020C7
:1003900060320110DA2370B55B00C35882B00500EB
:1003A0000400986A06F016FC0B4E00900191B835D7
:1003B00011210A4A300005F0A7FE2800AE6209F0BC
:1003C000F3F8EB68002B05D0E02301222800E15868
:1003D00008F092FE02B070BD5C130020683201107C
:1003E0008D23F0B5DE4657464E4645469B00E0B5A8
:1003F000C558D53BFF3B9C468444634685B0039378
:10040000E82399462C339A46F4339846A24B0400CD
:100410009B46070006001121AB6AA04A8144824432
:100420008044584605F070FE5B463437E36538007B
:1004300009F0BAF8236C4136FF36002B04D00122B4
:100440003800E16D08F058FE236AAF6A18009B4639
:100450000BF012FE39000500020058460BF03AFE80
:10046000002800D191E0656A28000BF005FE3900F4
:100470008346020028000BF02DFE002848D0A56A14
:1004800028000BF0F9FD39008346020028000BF02C
:1004900021FE002800D1A4E0E56A28000BF0ECFD65
:1004A00039000200834628000BF014FE00250028C6
:1004B00000D1C3E03000B56209F076F8F368002B94
:1004C00006D0B4235B0001223000E15808F014FE8E
:1004D000281C06F07FFB8825714E00900191714A1F
:1004E0001121300005F010FE6651039E300009F026
:1004F0005BF8E36E002B04D001223000615908F054
:10050000FBFD05B0F0BCBB46B246A946A046F0BD17
:10051000380058440BF07AF806F0F8F902234A46FE
:10052000051C9362484609F03FF84B46DB68002BF8
:1005300006D088235B0001224846E15808F0DCFD24
:10054000230001223D33FF331A70504609F02CF886
:100550005346DB68002B06D09E235B0001225046E9
:10056000E15808F0C9FD504B42464046936209F0FD
:100570001BF84346DB68002B9CD08C239B00012298
:100580004046E15808F0B8FD94E778190BF03EF8C2
:1005900006F0BCF902234A46051C9362484609F05E
:1005A00003F84B46DB68002B06D088235B00012252
:1005B0004846E15808F0A0FD230000223D33FF33F8
:1005C0001A70504608F0F0FF5346DB68002B06D047
:1005D0009E235B0001225046E15808F08DFD334B0D
:1005E000C2E7380058440BF011F806F08FF90123E8
:1005F0004A46051C9362484608F0D6FF4B46DB6826
:10060000002B06D088235B0001224846E15808F001
:1006100073FD230000223D33FF331A70504608F06B
:10062000C3FF5346DB68002B06D09E235B000122EC
:100630005046E15808F060FD1D4B95E738005844DE
:100640000AF0E4FF06F062F901234A46051C9362B2
:10065000484608F0A9FF4B46DB68002B06D08823EC
:100660005B0001224846E15808F046FD23000122C4
:100670003D33FF331A70504608F096FF5346DB684F
:10068000002B06D09E235B0001225046E15808F063
:1006900033FD084B68E7C046F8170020743201109C
:1006A00048130020B8320110883201107C3201104A
:1006B00098320110A8320110802070B5C00007F0F8
:1006C00027FB0221E4234942C1501D33FF33C150AF
:1006D000F033C218413BFF3BC250C2182C3BC25002
:1006E000D2220023C42452008350A43AFF3A64006B
:1006F0000251D134FF340519613CFF3C0551051905
:100700002C3C0551203403511C3C0251B0340151A2
:10071000A221890044181039445044182C394450FF
:10072000203143501C3942501B4C40314350083952
:100730004450B924043140504831435004314350AF
:100740001649A400015104340351154D10340251CF
:10075000083C055102250434005148340351043447
:1007600003510C34015104340351103405510D4D23
:10077000083C0551043400514834035104340351FA
:100780000C340151EE21890043503C314350F72392
:100790009B00C25470BDC046E1030010C43201107A
:1007A000550300109503001070B504000023D434E5
:1007B000A3620500200008F0F7FEE368002B05D0D7
:1007C000FC2301222000E95808F096FC70BDC046C9
:1007D00070B5030005000122060039356133FF338F
:1007E000FF351A700400280008F0DEFEEB68AD3615
:1007F000FF36002B06D0B0235B0001222800E15811
:1008000008F07AFC23000122D533FF331A70300040
:1008100008F0CAFEF368002B06D0EA235B00012231
:100820003000E15808F068FC70BDC046B2235B00A0
:10083000C358F0B5C6469846822307009B00C618E9
:100840000023DD37FF3700B5451DBB6204003800CB
:1008500008F0AAFEFB68FF35002B06D081239B0021
:1008600001223800E15808F047FC00233000B36251
:1008700008F09AFEF368002B06D08C239B0001221F
:100880003000E15808F038FC0023A36243469B6A1D
:1008900028002363084BAB6208F086FEEB68002B50
:1008A00006D096235B0001222800E15808F024FCC2
:1008B00080BCB846F0BDC046C8320110F8B5B223BE
:1008C0005B00C258836A04005D1CC8238562DB009C
:1008D0009D4200DAF8BD016B0600906A06F0A3F8AD
:1008E000071C280006F00EF9011C381C06F0A1F8C0
:1008F0000023DD36FF366063B362300008F054FE3B
:10090000F368002B06D081239B0001223000E158C0
:1009100008F0F2FB82239B00E51800232800AB625D
:1009200008F042FEEB68002B06D08C239B000122CE
:100930002800E15808F0E0FB0B4B651DFF35AB626A
:10094000280008F031FEEB68002B06D096235B00F0
:1009500001222800E15808F0CFFBD123DB00E31887
:10096000A36101232377B5E7D43201108223F0B5C8
:100970000700C6469B00C618836BDD379B6A451D82
:10098000040000B5C26EFF37FF35022B42D0012BA9
:1009900002D080BCB846F0BD2733D35C002B00D119
:1009A00092E0802212069446036A38006344BB62D8
:1009B00008F0FAFDFB68002B06D081239B00012282
:1009C0003800E15808F098FB802212069446636ACA
:1009D0006344B362300008F0E7FDF368002B06D0F3
:1009E0008C239B0001223000E15808F085FB002396
:1009F000A3623E4B2800AB6208F0D6FDEB68002BEB
:100A000006D096235B0001222800E15808F074FB11
:100A1000D7233EE06333FF33C35898462823D35C83
:100A2000002B3CD0036A3800BB6208F0BDFDFB68B8
:100A3000002B06D081239B0001223800E15808F0EA
:100A40005BFB802212069446636A6344B362300003
:100A500008F0AAFDF368002B06D08C239B0001222E
:100A60003000E15808F048FB0023A36243469B6A2C
:100A7000280023631E4BAB6208F096FDEB68002B49
:100A800006D096235B0001222800E15808F034FBD1
:100A9000D423DB00E318A3610123237779E78022C5
:100AA00012069446036A38006344BB6208F07CFD7A
:100AB000FB68002B06D081239B0001223800E158FF
:100AC00008F01AFB636AC1E7036A3800BB6208F0EA
:100AD0006BFDFB68002B06D081239B0001223800B0
:100AE000E15808F009FB636A73E7C046E43201107D
:100AF000DC320110A02370B50400C558836A581C6D
:100B0000A06205F0FFFFA96A05F0E6FF002800D10A
:100B100070BD25000023DD35FF35AB62280008F0ED
:100B200043FDEB68002B06D081239B0001222800A7
:100B3000E15808F0E1FA82239B00E5180023280021
:100B4000AB6208F031FDEB68002B06D08C239B00D4
:100B500001222800E15808F0CFFA0C4B651DFF3543
:100B6000AB62280008F020FDEB68002B06D096232E
:100B70005B0001222800E15808F0BEFAD123DB0017
:100B8000E318A36101232377C2E7C046D4320110E2
:100B9000A022B223F0B5C64687585B00826AC358CC
:100BA000551C00B5016B040085620600986A05F0CB
:100BB0003AFF374905F051FF8046280005F0A2FFB3
:100BC000616B05F04AFF011C404605F02CFFE06216
:100BD000051C05F0B9FFC317C018584005F092FF77
:100BE000B96AD43605F078FF002813D12949281CAA
:100BF00006F02AF8B062300008F0D6FCF368002B4B
:100C000005D0FC2301223000E15808F075FA80BCC1
:100C1000B846F0BD25000023DD35FF35AB62280066
:100C200008F0C2FCEB68002B06D081239B00012258
:100C30002800E15808F060FA82239B00E5180023A1
:100C40002800AB6208F0B0FCEB68002B06D08C23C8
:100C50009B0001222800E15808F04EFA0E4B651D5A
:100C6000FF35AB62280008F09FFCEB68002B06D034
:100C700096235B0001222800E15808F03DFAD123B9
:100C8000DB00E318A3610123E56A2377AEE7C046E2
:100C90002222823F0000B443D4320110F0B5DA20A2
:100CA000C646C00000B507F033F803004033836345
:100CB0003433C366020098234066A832C05008331C
:100CC000C25002222C33C0505242DC33CE21C250DB
:100CD0000023490043501C394350583142505C3185
:100CE00042509022874992008350083A8150A521B2
:100CF0000125043280504832835004328350824AA6
:100D00008900425004314350804C1031455008391D
:100D100044500431405048314350043143500C3169
:100D200042500431435002218846C4214446890080
:100D30004450774C083944500431405048314350B6
:100D4000043143500C314250CE21DA240327C9002C
:100D50004118A4000151103407516E4F083C07514F
:100D60000434005148340351043403510C3402510B
:100D7000F827043401510424674EBF00C451083FD2
:100D8000C651D126F600B446844466460437C051A5
:100D9000624FC3510437C351614FC2510437C6512A
:100DA00005261037C6515F4E083FC651D426F600BF
:100DB000B446844466465C4FC0515C4FC35104370F
:100DC000C3515B4FC2510437C65106261037C65176
:100DD000584E083FC651584F4646C051574FC35111
:100DE0000437C351564FC251D722D2008718B13AA7
:100DF000FF3A8750534A8350A82292008718AA22AC
:100E0000D2008750E13AFF3A87184F4A8750153A87
:100E1000FF3A87181932FF328750B03A87184B4A89
:100E200087500C3A87184A4A875004328450494AFE
:100E300085548E2292008718B422D2008750C22295
:100E400092008718444A8750444A83500C328718CE
:100E5000434A875004328650424A434F8354434AA0
:100E60008350F62292008618BD22D2008650861842
:100E70003F4A865004328550183A84503D4A835088
:100E8000343A85503C4A3D4D8350343A84500200F8
:100E9000CE240C32E4000251394C055104340025B3
:100EA0000619002434607560D026F6008355083694
:100EB0008251344E87510436861934607560D326CA
:100EC000F6008355083682512F4F304E8751043635
:100ED000861934607560D626F6008355083682512F
:100EE0002B4E2C4A86500432821814605560D92249
:100EF000D2008354C360016141618361037780BC88
:100F0000B846F0BDA9070010C4320110D107001087
:100F10002D080010BD0800106D0900102404000009
:100F200034040000910B0010440400008C04000005
:100F30009C040000F50A0010AC040000F40400005A
:100F40000405000044050000540500005C05000095
:100F5000240500002C050000A405000094050000F5
:100F6000740500007C05000000330110DC05000062
:100F7000BC0500002406000064060000EC320110ED
:100F8000740600008C06000008330110A40600005F
:100F900010330110BC060000942010B5400006F08C
:100FA000B7FE0300283303628E2300225B00C06477
:100FB000C250343B0132C25010BDC046F0B50700EC
:100FC00004000600050087B003A919480AF056F985
:100FD000039B5437E367380008F0E6FA236E843643
:100FE000B435002B04D001223800E16F08F084F8FA
:100FF000049B3000B362019308F0D6FAF368002B2B
:1010000005D0AC2301223000E15808F075F8059BAB
:101010002800AB6208F0C8FAEB68002B05D0DC238F
:1010200001222800E15808F067F807B0F0BDC0467B
:10103000F0170020054B10B51A78002A00D010BD1B
:10104000013203481A700AF0CFF8F8E75A19002065
:10105000F0170020922070B5800006F059FE0300C2
:1010600028330362F0220023AC242049C06483505B
:10107000083A815004328050483283501C4904326F
:1010800083500C32815004328350483AFF3A194D54
:1010900064000251083C05510434005148340351A6
:1010A000043403510C340151D82104004900435049
:1010B000E834483144500C3911344350FF3420395E
:1010C00044500431425004314354603143500100D4
:1010D000902351319B00FF31C150C1182C3BC150AE
:1010E0000433C250183BC25070BDC04635100010CA
:1010F000C4320110BD0F0010036BF0B54F46994686
:101100006423D6469A4680B5050083B08244806841
:1011100006F02CFCAB6AEC6A06000F000093019409
:10112000002C36DD4B46696A986A05F07FFC009A10
:10113000019B041C39003000801A994105F0BAFB6C
:10114000174A184B05F0FDFA05F0E0FB011C201CC6
:1011500005F083FCFC21890505F07FFC296A05F078
:1011600065FC28628C242851504608F01DFA2B6F2C
:10117000002B04D001225046295907F0BDFF4B46F1
:101180009B6AAE62EF626B6203B0C0BCBA46B14606
:10119000F0BD002C01D1002BC4D1286AE2E7C04683
:1011A00095D626E80B2E113EA42010B5400006F07F
:1011B000AFFD030038330363A02200231049C0654C
:1011C0008350083A815004328050483283500D4990
:1011D000043283500C328150043283503C328350AD
:1011E00002004133FF339832C250C2182C3BC25028
:1011F00001220433C250183B0332C25010BDC04616
:10120000F9100010C4320110F0B5C6460500060002
:1012100080211F4A040000B5D06884350006000F05
:1012200054360130490053680B42FCD10138176A2B
:101230000028F8D18021D068154A0004000F7F42B1
:101240000130890053680B42FCD10138536A0028F1
:10125000F8D15B423000E767984608F0A5F9236EA5
:10126000002B04D001223000E16F07F045FF434618
:101270002800AB6208F098F9EB68002B05D0AC238E
:1012800001222800E15807F037FF80BCB846F0BDC6
:1012900000002050F0B5D6464F4646460025C0B562
:1012A0003D4C8AB020003D4906F05CF80223200046
:1012B00008220021009506F0B9F80022012108203B
:1012C00001F086FF00220121092001F081FF802624
:1012D000F827C02376021B037F0202A9102206A86A
:1012E0009A46049302960397059505F087FD2C4BCB
:1012F00006A9102202A89946079305F07FFD8023D6
:10130000DB020593274B2000039380231B039846A1
:101310000493002202AB002106F0E0F801222368CA
:101320002000134323600121022300950B3206F0B5
:101330007DF8002201210C2001F04AFF002201214A
:101340000D2001F045FF534602A9102206A8049380
:1013500002960397059505F051FD4B4606A910220C
:1013600002A8079305F04AFDC023DB0205930E4B4C
:1013700000220393434601210493200002AB06F0B0
:10138000ADF802222368134323600AB0E0BCBA46DA
:10139000B146A846F0BDC0460000205018330110E9
:1013A00080770100807701088077010C862070B576
:1013B000800006F0ADFC030028330362C022002346
:1013C00094242049C0648350083A815004328050EC
:1013D000483283501C49043283500C32815004320D
:1013E0008350183AFF3A194D64000251083C0551E8
:1013F0000434005148340351043403510C34015176
:10140000C021040049004350B834483144500C39DD
:1014100011344350FF3420394450043142500431D8
:101420004354603143500100842321319B00FF313C
:10143000C150C1182C3BC1500433C250183BC2509C
:1014400070BDC04695120010C43201100912001080
:10145000036C9B6A83637047436F9B6AC3637047E7
:10146000F0B54E46DE4657464546A823E0B5C65879
:101470003433C358070083B08068994606F076FA83
:10148000BA6AFB6A04000D00002B11DD2000290060
:10149000801A9941002915DC002900D17AE0BC624C
:1014A000FD6203B0F0BCBB46B246A946A046F0BD03
:1014B000002BF4D1002AF2D020002900801A994193
:1014C0000029E9DD88235B009A46B36ABA449B464B
:1014D00005F076FB324905F0C0FA05F07BFB5B4670
:1014E0003A6B00900191981A05F0A0F92D4A2E4B05
:1014F00005F027F900222D4B05F009F9009A019B10
:1015000005F005F905F002FA4B46796B9B6A061C5B
:10151000581A994605F08AF9224A234B05F011F929
:101520000022224B05F0F3F8009A019B05F0EFF83A
:1015300005F0ECF95B463B634B46311C7B63804610
:10154000B86B05F070FA53469862504608F02CF8D4
:101550005346DB68002B06D09C235B0001225046DB
:10156000F95807F0C9FD3E00F86B414605F05BFAFB
:101570004136FF36B062300008F016F8F368002BF1
:1015800000D18CE7B4235B0001223000F95807F04A
:10159000B3FD84E7064B984200D880E792E7C04647
:1015A0005F708930C3718BB665BCB93F00807640EF
:1015B0003F420F00F22070B5800006F0A9FB030047
:1015C00048330364343343670200A023C066B0325B
:1015D000C0500833C2502C33C05034320833C2508C
:1015E0009E222C33C0500B3BFF3B520083503032C5
:1015F00083500023F02436490C328350083A81503E
:1016000004328050483283503249043283500C32C5
:10161000815004328350D03AFF3A2F4D640002517A
:10162000083C055102250434005148340351043468
:1016300003510C3401510434035110340551274D2A
:10164000083C05510434005148340351043403511B
:101650000C340151A82104008900435071343C31FD
:101660004350FF340C31445044182C394450043159
:10167000AA24425005000421A4000151D9357C342C
:101680000351FF350C34055105192C3C0551DE255D
:1016900004340251183C01517C3403512D3CFF3C71
:1016A0000419AD00445146192C3D465104354251B0
:1016B000183D41517C354351F0239B00C450C41860
:1016C0002C3BC4500433C250183BC15070BDC046BF
:1016D00051140010C432011059140010611400108C
:1016E000036A70B59C6A0021201C05F0EDF9FE210B
:1016F000431E98416400640805008905201C05F01C
:10170000EBF9002805D007482900012209F02EFE38
:1017100070BD0549201C05F0A0F905F043FA80B220
:10172000F2E7C046FF0F000000F07F45436D70B543
:101730009C6A0021201C05F0C7F9FE21431E984138
:101740006400640805008905201C05F0C5F900281F
:1017500005D007482900002209F008FE70BD0549A0
:10176000201C05F07AF905F01DFA80B2F2E7C046B8
:10177000FF0F000000F07F4510B5012009F0C8FD03
:1017800010BDC046A62070B5800006F0C1FA030067
:1017900028330362343343658023C0649022C050F1
:1017A0000023F8242D498350083A81500432805098
:1017B000483283502A49043283500C32815004321B
:1017C0008350284DE73A0251083C05510225043464
:1017D000005148340351043403510C340151043492
:1017E000035110340551204D083C0551043400517B
:1017F00048340351043403510C340151DC210400FA
:10180000490043508834483144500C3943500C311E
:1018100044182C3944500431425004314354113C93
:1018200060314350FF3C0C31445044182C39445033
:101830000431822442500421A40001517C3403511C
:101840000400A42359349B00FF34C450C4182C3B1B
:10185000C4500433C250183BC15070BD79170010FA
:10186000C4320110E11600102D170010F0B5C64665
:10187000C36A04009E6A816A00B50700301C05F047
:10188000D5F88823216A051CA062301C984605F013
:10189000E4F8616A061C281C05F0DFF8011C301C06
:1018A00005F0C4F843466037E050380007F07CFE8E
:1018B000E36E002B05D0434601223800E15807F0C3
:1018C0001BFC80BCB846F0BDA02010B5400006F05F
:1018D0001FFA03003433C362982200231049806545
:1018E0008350083A815004328050483283500D4969
:1018F000043283500C328150043283503C32835086
:1019000002003933FF339032C250C2182C3BC25010
:1019100001220433C250183B0332C25010BDC046EE
:101920006D180010C4320110962110B5104C8901B9
:10193000200002F0BDFD02211C2001F031FC02213B
:101940001D2001F02DFC192001F05AFCD02380222B
:101950001B0692045A62A369DB0607D41022A3690E
:101960001A42FCD12368A3691A42F8D010BDC046C0
:10197000004003401A4A70B593690400056ADB060B
:1019800002D500232B7070BD0020102193691942ED
:10199000FCD11368DBB2622804DC0D2B0DD02B5474
:1019A0000130F3E70D2B08D010210D4A936919423D
:1019B000FCD11368DBB20D2BF8D1002326002B5489
:1019C0008425236A5C366351300007F0EDFDA36E79
:1019D000002BD8D001223000615907F08DFBD2E7EF
:1019E00000400340F0B5C64600B5836A9D6A436A6D
:1019F0002878984600283ED00D23002220249C46BB
:101A00001E4F1F490026BB5F83421BD08B691C42BF
:101A1000FCD108604046AB5C83540132A85C0028CE
:101A200016D0642AEED164239C460022BB5EE044BB
:101A30000D2B12D12021124A93691942FCD10D239A
:101A400013600AE08B691C42FCD163460B60DDE742
:101A500090440022BB5E0D2BECD0202208491000E0
:101A60008B6918401A42FAD10D230B604346187057
:101A700080BCB846F0BD014FEBE7C04650190020CE
:101A800000400340A82070B5800006F041F9030033
:101A9000303383629822002380242E49406583508E
:101AA000083A815004328050483283502A49043227
:101AB00083500C32815004328350284DEF3A640039
:101AC0000251083C055102250434005148340351A9
:101AD000043403510C3401510434035110340551C2
:101AE0001F4D083C0551043400514834035104345F
:101AF00003510C340151E0210400490043503C31B2
:101B00004350F8340C31445044182C3944500431BB
:101B10004250793C04314254FF3C6C3144500C3902
:101B200043500C3144182C39445004314250043194
:101B30004354603143500100A62361319B00FF31C3
:101B4000C150C1182C3BC1500433C250183B033262
:101B5000C25070BD29190010C4320110751900104F
:101B6000E51900108823F0B5076AC5583433C45806
:101B70003B7D466D83B0002B0CD1337D002B1AD1F9
:101B80002B7D002B28D1237D002B36D109F080FA44
:101B900003B0F0BD00238022002100200093103309
:101BA00009F0C8F9012300220021B86A08F09CFF5F
:101BB000337D002BE4D000238022102100200093ED
:101BC000103309F0B7F9012310220021B06A08F0A0
:101BD0008BFF2B7D002BD6D00023802220210020DC
:101BE0000093103309F0A6F9012320220021A86AEE
:101BF00008F07AFF237D002BC8D0002380220093B9
:101C000030210020103309F095F901233022002102
:101C1000A06A08F069FFB9E7084B10B51A78002AE6
:101C200000D010BD01321A7008F0E4FE044808F03C
:101C3000DBFE002008F0EAFEF3E7C0465919002059
:101C40003C520110CA2070B5800006F061F8030014
:101C5000283303623433436502008023C06490322A
:101C6000C0500833C2502C33C05034320833C250F5
:101C70002C33C050F8220023B02430498350083A56
:101C8000815004328050483283502D4904328350B1
:101C90000C32815004328350503AFF3A294D64008F
:101CA0000251083C055104340051483403510434B6
:101CB00003510C340151DC21040049004350F0343D
:101CC000483144500C3943500C3144182C3944509D
:101CD000043142500431435460314350A83C0C312C
:101CE000445045182C394550043182254250042176
:101CF000AD0041517C3543510C35445146192C3DC2
:101D0000465104354251183D41517C3543510C3503
:101D1000445146192C3D465104354251183D41511C
:101D20007C354351C8239B00C450C4182C3BC4507D
:101D30000433C250183BC15070BDC046191C00107E
:101D4000C4320110651B001010B50021002007F0FF
:101D500065FD10BD7047C0460A4B01211A6800237B
:101D600000B589B0069305930491029301931A314B
:101D70000733039100930021043B034807F022FB43
:101D800009B000BD0813002050100020014B036073
:101D90000120704750100020F0B5DE4657464E46F1
:101DA0004546E0B5A9B0FEF787FCFE4B00219946F9
:101DB0008360FD4B00220362FC4B05004362FC4B39
:101DC00080278362FB4B0026C362FB4B3F06036305
:101DD000F8239B00C31819605A60FA2300214A4671
:101DE0009B00C318F54818605960D36DF02292002B
:101DF000AA181A60B220FF2300229B008000EA503C
:101E00002B1868301E605F602B1868301E605F60A2
:101E10002B181E605F60FEF741FF040048468023D8
:101E2000A06002205B004042E0503033E0508C3B29
:101E30008046E0632067E0504846436E8E20C22112
:101E40008000221889001A6062185A600022DC4B58
:101E5000A262A622236263620023D200E3622363AC
:101E600063630021A318002219605A60A722D200E0
:101E7000A31800214A46D34818605960D36DA222A6
:101E8000D200A2185A600022CF4BE2509E2292004C
:101E9000A31868321E605F60A31868321E605F601E
:101EA000A31868321E605F60A31868321E605F600E
:101EB000A31868321E605F60A31868321E605F60FE
:101EC000A3184A461E605F60D36F22005B680C3225
:101ED0001A60FFF761F80200484680219060404692
:101EE0004346505030315050E230135053621092FC
:101EF000FFF7B0F84B4683468360020043468020DC
:101F000013504046B021E2305350135053624A46BA
:101F1000536E5A46E8329A604032166057609666B1
:101F2000D7666832FFF740F90200484641469060A4
:101F3000002390201150516313625362110000235B
:101F4000002206918A62CB62D8310E604F608246D1
:101F5000FFF72AF94A46434682605246835043635C
:101F60000023002203624362002302908262C36264
:101F7000D83006604760FFF717F94A46434682604B
:101F800052468350436300230022036243620023CE
:101F90008262C3620300D8331E605F600390FFF764
:101FA00005FA4A46802382604246C2503033C2500E
:101FB00042624A460100536EB830D8604030066035
:101FC00047608666C76600916830FFF7F3FA4B46B4
:101FD0008360FC239B050362FA2341469B05436211
:101FE000AC224346E231436483678350435000226E
:101FF00000238262C3620263436300238363C3637B
:102000000300B133FF331E605F60862382469B006E
:1020100053441E605F60A0239B0053441E605F60BA
:10202000FFF7B0FB4A4682604246426282654A46FA
:10203000536E020088321A610300C8339E66DF6661
:102040001E605F6068339E66DF660790FFF73CFCAA
:102050004A4682605246126A030002625246526A3F
:10206000426240468C2298501A0018630023936203
:102070001300D0331E605F600192FFF725FC030060
:10208000484698605046006A8C2218625046406A62
:102090005862404698501A00186300239362130058
:1020A000D0331E605F600492FFF7ECFC4B46414664
:1020B00083608823C1504B46C16201005B6E903142
:1020C0005961424B00210362414B002243620300ED
:1020D000E933FF3319605A60002102003D489860DF
:1020E000D9604B461100DB6DC932FF329A60812303
:1020F00000209B00C8500B00D0339E66DF661E6038
:102100005F6068339E66DF660891FFF79BFD4B4674
:10211000836043464246436283658E33C250343304
:10212000C2504B4602005B6EF0329A6103003133BD
:10213000FF331E605F609E66DF66AC2306229B0055
:10214000EA5005902A0004210620AF2705F0C2FDC1
:10215000BF00E8512A000421062005F0BBFDB94666
:10216000043FE85148272A000421062005F0B2FD6B
:10217000BC467436AC446746B446AD23AC446646B0
:102180009B00E85012964660FC2607601197B44603
:102190009427AC447F006646BC4686601396AC44E8
:1021A000AA2619E050100020480400203404002022
:1021B000200400200C040020F803002040787D015A
:1021C0009A99193E809698004C05000090120020C4
:1021D0002C12002080F0FA0267467600C760149740
:1021E000B4468727AC44BF006646BC46AC4467464D
:1021F000476116970127643306612A00EF50159650
:1022000004210120C92605F065FDB600A8512A0069
:102210000421012005F05EFD043EA8512A0004219E
:10222000012005F057FDC7239B00E850A0239C46E2
:10223000AC44634603601793E0239B00EF502A00F1
:102240000421012005F046FDE321890068502A00A1
:102250000421012005F03EFD6836A8512A00042122
:10226000012005F037FDCC229446E123AC446246C0
:102270009B00E850253BFF3B02601892E75022008C
:102280000421012005F026FD1D3EFF3EA051220045
:102290000421012005F01EFD043EA051220004216E
:1022A000012005F017FDE8218C469923A4446646D9
:1022B0009B00E050E5396433884606602200E15017
:1022C0000320013105F006FDB5229200A050042143
:1022D0002200032005F0FEFCB4229200A05004214D
:1022E0002200032005F0F6FCA621B32349008C460A
:1022F0009B00E0500D3BA444FF3B61469C46A44438
:10230000634643601A93CC230160866040469B007D
:10231000E050220019910D960421CF2605F0DAFC39
:10232000B600A05122000421032005F0D3FC043E96
:10233000A05122000421032005F0CCFCF821490023
:102340008C462C31A4446646CD238C460539A444E2
:102350009B00FF39E05063468C46A44461464360CD
:102360000993E6230660816040469B0022000A91A3
:10237000E050042105F0AEFCE9239B00E050220070
:102380000421032005F0A6FCE8239B00E050220076
:102390000421032005F09EFCE7239B00E050099BED
:1023A0000A9943608023066081604046DB0022007A
:1023B000E050042105F08EFCFE4B2200E050042189
:1023C000032005F087FC8123DB00E050220004217C
:1023D000032005F07FFCF84B0E96E0500660099E46
:1023E000643346600A9E2200866004260421E6507B
:1023F000042005F06FFCF14B2200E0500421042082
:1024000005F068FC8E23DB00E0502200042104204C
:1024100005F060FCEA4B0999E0500E9B0D9A0360B1
:102420000A9B4160C3609A23DB0082600421E6506E
:102430002200042005F04EFCE24B2200E050042173
:10244000042005F047FC9B23DB00E0502200042120
:10245000042005F03FFC0E9EDB4B5946E050066021
:10246000099E882346600D9E5B0086600A9E5A4640
:10247000C66000265846CE5041466833C1500131EF
:10248000032005F027FCC22359465B00C8505A467A
:102490000421032005F01EFCC0215B464900585072
:1024A0007D395A46FF39032005F014FCBE235946F6
:1024B0005B00C850153BFF3B5B44982103601B93B6
:1024C000C023C8365E4486601D96069E594441600E
:1024D0003200F7501C910120042105F0FBFBCC23B6
:1024E0003200F0500421012005F0F4FBC823320033
:1024F000F050042101209846069605F0EBFB069A61
:10250000C4261300C02178339051036002981E93B3
:1025100047500200BC39012005F0DCFBCC230299B6
:10252000C8500A000120042105F0D4FB4146029B5B
:1025300058501A00C439012005F0CCFB02990B0059
:102540008851C0217833036003981F9347500200DD
:10255000BC39012005F0BEFBCC21039A5050C8398C
:10256000012005F0B7FB039943468846C8500A008E
:102570000120042105F0AEFB4146885103917831DA
:10258000016020910020E021A423009A5B005050BC
:102590000230D050DC39804605F09CFBAA2300991C
:1025A0005B00C8500A000220042105F093FBA82319
:1025B00000995B00C8500A000220042105F08AFB44
:1025C000009AA62311005B00D05098316832CC23CA
:1025D000016042602191002051465B00C850683381
:1025E000C8509A20434680000B5022920421524644
:1025F000022005F06FFB9D2351469B00C8505246B8
:102600000421022005F066FB9C2351469B00C85024
:1026100052460421022005F05DFB9B2153468900B0
:102620005850AA234939FF3951445B000160534493
:1026300023918C21436024930020B023079A490002
:10264000D050505068315050B830804643460198C1
:102650007D39C7500200FF39012005F03BFB019B8B
:10266000042198511A00012005F034FBC023019980
:10267000C8500A000120042105F02CFBBC2342466F
:102680000199C85074310160049825918750042144
:102690000200012005F01EFB049A0421905116004F
:1026A000012005F017FB3200C026042190510120C3
:1026B000160005F00FFBBC230496F050743606603C
:1026C000434626960026089804218046C650683363
:1026D000C7500200012005F0FDFA962342465B0038
:1026E000D0500421012005F0F5FA942342465B0006
:1026F000D0500421012005F0EDFA434692224146D4
:1027000070335200885027930360C4238C205B00F1
:10271000CE50059B40001E5068301E508423013867
:10272000FF386F65AD652F50ED508433EF500433A3
:10273000ED502833EF500433ED50A9302833EF50DB
:10274000FF300433ED502F5004302D508046813837
:10275000FF382F5004302D5028302F5004302D508A
:10276000DD30FF302B582A0008911F600421012022
:1027700005F0B0FA4B46EB582A001860AE208000F6
:102780002B5804215F60012005F0A4FA4B46EB585A
:102790002A005860AE2080002B5804219F60012041
:1027A00005F098FA4B46EB582A009860AE2080005E
:1027B0000CE0C0460C040000040400007404000097
:1027C0006C040000DC040000D40400002B58042139
:1027D000DF60012005F07EFA4B46EB582A00D860F6
:1027E000AE2080002B5804211F61012005F072FAF1
:1027F0004B46EB582A001861AE2080002B5804216C
:102800005F61012005F066FA020048462B580599E1
:102810005A610B9282228C461868920062440260D0
:1028200094205A68800060441060B5209A68C00007
:10283000211811604830DA6821181B694030116096
:1028400022181A60089B96209C460B9A80006044D0
:102850001060C82080002B582A001F60042101202E
:1028600005F038FAC9239B00EB58A6221860059B97
:1028700092009C4662440260E22080002B582A00AD
:102880001F600421012005F025FAE3239B00EB588B
:10289000B8221860059B92009C46AC2362440260FB
:1028A00080205B00E7500433E4507033E75004337A
:1028B000E45080002C33E750245028302750404605
:1028C000093B2450FF3B0938E750FF380433E450FC
:1028D0002750043024504130FF30235822001F601D
:1028E0000421012005F0F6F99B239B00E358220008
:1028F0001860DC235B009C46AC4463460360B42054
:1029000080000F93235804211F60012005F0E2F995
:10291000B5239B00E35822001860B42080002358A0
:1029200004215F60012005F0D5F9B5239B00E35831
:1029300022005860B4208000235804219F600120A9
:1029400005F0C8F9B52380219B00E35889001A6877
:10295000594498601160009A5B68D132FF321A6066
:102960000F9B22000360CE208000235804211F60AB
:10297000012005F0AFF9CF239B00E3582200186037
:10298000CE208000235804215F60012005F0A2F9C9
:10299000CF239B00E35822005860CE2080002358AC
:1029A00004219F60CF27012005F094F9BF00E3596F
:1029B000943F1A68574498600B971760BC275B6870
:1029C000BF0057441F60B8235B009C46AC4463467D
:1029D0000360E82080000C932358013681462200D2
:1029E0001E600421012005F075F9E9239B0098463B
:1029F000E358220018604846235804215E600120F5
:102A000005F068F94346E3582200586048462358C9
:102A100004219E60012005F05DF94346E3580B99BF
:102A20001A6898605B6811601F600C9B220003604D
:102A30008120C000235881461E600421012005F03A
:102A400049F9FE4B22009846E35804211860484695
:102A5000235801205E6005F03DF94346E35822000B
:102A600058604846235804219E60012005F032F941
:102A70004346E3580B991A6898605B6811601F60C1
:102A80000C9B220003608E20C000235881461E60EC
:102A90000421012005F01EF9E94B22009846E35875
:102AA000042118604846235801205E6005F012F9A1
:102AB0004346E358220058604846235804219E604C
:102AC000012005F007F94346E35822009860484684
:102AD00023580421DE60012005F0FCF84346E3584A
:102AE0000B991A68D86011605A689B6817600F9A32
:102AF00004211A600C9B220003609B20C000235815
:102B000081461E60012005F0E5F8CE4B2200984674
:102B1000E358042118604846235801205E6005F000
:102B2000D9F84346E3582200586048462358042108
:102B30009E60012005F0CEF84346E35822009860DD
:102B4000484623580421DE60012005F0C3F84346BF
:102B5000E3580B991A68D86011605A689B6817602F
:102B60000F9FD8221F600C9FD4230760A820109FBE
:102B7000BF673F50FE50BF505F467E67BF67A427C8
:102B8000B8465F4641467E5059460F50C02040002F
:102B9000FE500B588146895007005A461E6004219A
:102BA000012005F097F85B460437DB595A46186058
:102BB00058464B46C35804215E60012005F08AF850
:102BC0005B46DB595A46586058464B46C358042169
:102BD0009E60012005F07EF85B46DB59069F1A686F
:102BE000791CFF319860116002995B684A1CFF32C2
:102BF0001A60039A13000133FF3303608820814673
:102C0000C8233F500950043816504846D358125034
:102C100004211E608738170005F05CF8CC23FB58B0
:102C20000397186023006933FF3303604346A827E6
:102C30000098042146678067C650AC339846C35855
:102C4000C05102001E60012005F044F8009AAC3724
:102C5000D3590421186043469046D35801205E6042
:102C600005F038F843460093DB59E5375860FF37E5
:102C70001B6857441F60E0239B0053440360982364
:102C800050465B00C6500433C0502C33C650B220AF
:102C9000574640003F500D30FF3080465046474673
:102CA000C35952461E600421012005F013F8534613
:102CB0000437DB595246186050464346C358042136
:102CC0005E60012005F006F853460199DB590F00BC
:102CD00058601B68F8371F60049F8422F83707602C
:102CE00080270800CE518950C021435802001E6041
:102CF000BC39012004F0EEFFC42398464246019BF4
:102D000007999B588C46186082239B00634403609C
:102D10000498403AC65180503C3283580421020046
:102D20001E60012004F0D6FF4346049A0799D35849
:102D30008C46186094239B00634403600898042128
:102D4000C667C0510700942040003B5828383A001D
:102D50001E60FF3804F0BEFF96238E265B00FB58F2
:102D6000B6001860AB1903602800A023E830A06308
:102D70002C30E0662C30E05020001533D430FF3387
:102D8000621DE850FF32483B6430EA500300584669
:102D9000069E036254303063029E30303063039EDF
:102DA00030303063B2206436400026502000AD3011
:102DB000FF3003000098DC22060054360362330023
:102DC0005646B35006005246A820843616502000BE
:102DD000DD30FF301064822080002318010050464F
:102DE000019E1130FF305367F0623000079A603067
:102DF000106250464130FF30030004980897C362C8
:102E00006B1860305065BB623A008D2328005C323D
:102E10009B00EA500599343008622C3048652C300C
:102E2000030048460B502800BC23B830C850064B5E
:102E30001B9F5B6B1E9A1F601C9F07E00C04000029
:102E400074040000DC04000050100020DA605F60B1
:102E50001F9A1D9F1A619F60259A209F19995F6193
:102E60001A62239F269A9F615A62249F0E9A996242
:102E70001A99DF61D9621A63099A119F5A63229ADB
:102E80001F649A63129A21995A64139A149F9A6440
:102E9000159AD9631A65179ADF649A65189A169F6E
:102EA000DA650D9A27991A660A9A5F655A669966D5
:102EB000A823A6279B000122E9180023BF000A606F
:102EC0004B60E9190127A64E7F420E604F60C22178
:102ED000C02789006918BF000A604B60E919012703
:102EE000A04E7F420E604F60DC27BF00E919083F0B
:102EF0000A604B60BC4601219B48654449422860FA
:102F0000696094250126AD006119083D0A604B6097
:102F10006119964D76420D604E60AE21AC250126BA
:102F200089006118AD000A604B606119904D7642CE
:102F30000D604E60C821890061180A604B60C6218F
:102F40008900651801218B48494228606960E221A7
:102F5000890061180A604B60E02189006518012131
:102F60008548494228606960FC21890061180A602F
:102F70004B60FA2189006518012180484942286088
:102F800069608B21C90061180A604B608A21C90001
:102F9000651801217A484942286069609821C90072
:102FA00061180A604B609721C9008C460127594679
:102FB000744E64447F420125266067600127013119
:102FC000FF316A4C0A604B6006980839644E6D42C6
:102FD0000C604D600A674B677F428E66CF66683132
:102FE00001000125684C0298B0310A604B606D42C7
:102FF00008390C604D6001000398B0310A604B60E5
:1030000008390C604D6001000098B0310A604B60D7
:1030100008390C604D6001000125D031534C0A6025
:103020004B606D4208390C604D600A674B67683130
:103030000E604F60514601278931FF31494E0A60C9
:103040004B607F4208390E604F600126464D0A678B
:103050004B6776428D66CE66683196218900514471
:103060000A604B6094210126484D89005144764204
:103070000D604E60079E012531003C4CA0310A6076
:103080004B606D4208390C604D6080250A674B67C4
:10309000B44601213E486D0065444942286069609C
:1030A00031007131FF310A604B60B42149008C4618
:1030B000012138486644494230607160019E3648BB
:1030C0003100A8310A604B60A0218C460121664482
:1030D000494230607160049EA025B446A82464442F
:1030E000AC46089F664422606360306071603900BE
:1030F00001250126A8311D4C0A604B606D4208393C
:103100000C604D601A4D0A674B6776428D66CE663D
:103110000125059868310A674B6701001A4C713721
:10312000FF376D423C607D6001250931FF310A6047
:103130004B600E4C411CFF316D420C604D60012410
:103140000A674B676930114BFF306442036044608B
:1031500029B0F0BCBB46B246A946A046F0BDC04669
:103160000200FFFF0900FFFF0A00FFFF0000FFFF52
:103170000100FFFF0400FFFF0500FFFF0600FFFF47
:103180000700FFFF0800FFFF0300FFFF0B00FFFF2A
:103190000D00FFFF0E00FFFF0C00FFFF7047C04651
:1031A000094A830094464022634410B51C68C0005D
:1031B0006240C02414408022520113431C60034B20
:1031C0009C466044416010BD04C001400040014085
:1031D0000A4B80009C4604236044002901D00C2344
:1031E0000821002A00D10B00026853400C221A402B
:1031F00080235B01184302607047C04604C0014051
:103200000123D0228340120693629361094A83000E
:103210009446402263441968C0004A40C0211140CE
:103220008022520113431960034B9C4605236044DE
:103230004360704704C0014000400140024B1868E1
:103240008007C00F7047C04600C00640EFF31080F3
:1032500072B6034A1368002BFCD0BFF35F8F704730
:103260002C0100D0BFF35F8F0022024B1A6080F365
:10327000108870472C0100D070B5EFF3108C72B637
:103280000D4D2B68002BFCD0BFF35F8F0724CB08BC
:10329000C618C05C01230C40A3401C00044003423C
:1032A00007D103433370BFF35F8F2C608CF310881A
:1032B00070BD100001F04CFC2C0100D0F8B5474661
:1032C000CE46884680B5EFF3108C72B6214D2C683F
:1032D000002CFCD0BFF35F8F9A422CD8D40807276C
:1032E000055D061901241740BC402C421FD0072160
:1032F0000127894609E0D408055D06194C463900C6
:103300001440A1400C00294211D001329342F2D264
:1033100001204042BFF35F8F00220E4B1A608CF3F6
:10332000108800280FDBC0BCB946B046F8BD2C435E
:1033300010003470EEE7BFF35F8F00232B608CF337
:103340001088012040424346002BECD0089801F041
:10335000FFFBC0462C0100D00021044B044ABFF300
:103360005F8F02C39342FAD17047C046000100D07C
:10337000800100D0044A1078431CDBB2172B00D91F
:10338000102313707047C0465C04002000B5054B45
:1033900083B00100009318221F230348FFF78EFF1C
:1033A00003B000BD5033011070130020012383408F
:1033B000002904D0034A1360034A13607047034A8C
:1033C0001360FBE780E200E000E100E080E100E064
:1033D000024B10309B688000C058704700ED00E041
:1033E00070B50D00EFF3108672B60F4A1368002B0C
:1033F000FCD0BFF35F8F0D4B10309B6884001B59CE
:103400000B4A934203D09D4201D001F0B9FB074B18
:103410009B681D51BFF35F8FBFF35F8F0022024B8C
:103420001A6086F3108870BD240100D000ED00E022
:10343000CD010010F0B5DE4657464E464546E0B594
:103440000C0083B0EFF3108972B6584A1368002B52
:10345000FCD0BFF35F8F564B9A68030010339F0078
:10346000D559544A9046954232D0A54243D0524E47
:10347000AA1B2F2A2CD801228240924651464F4A3D
:1034800012681140019151464D4A1160BFF35F8FA0
:10349000EFF305829346002A33D101232A009A4391
:1034A00093689C4208D177E04B005B189B00F318AF
:1034B0009968A1422AD01A00062151560029F3DA50
:1034C000019B002B19D052463E4B1A603B4B1A60B1
:1034D000374B9B68DD51BFF35F8FBFF35F8F0022D7
:1034E000324B1A6089F3108803B0F0BCBB46B24679
:1034F000A946A046F0BD1500EAE75246304B1A60D7
:10350000E6E79342C9D001F03BFBC6E706215956D6
:10351000002921DB4A005018800034188046A0683A
:103520009860E079D871062020569871002824DB35
:10353000A488F01A6405241544440019E024000509
:10354000400D24022043988052181F4B9200B61859
:103550001A781970B271B3E7594600290FD1FF31BB
:1035600091711A49918018490A789A71184A9B1BDF
:103570005B415A43120D0A70A2E71648E3E7164A68
:103580001649D21A083A5002400D01439980144955
:1035900052080A43DA8093E70621515613000029A6
:1035A000B8DA5A46002AEAD14546DCE7240100D0C1
:1035B00000ED00E0CD0100106004002000E100E01B
:1035C00080E100E080E200E05D19002001BDFFFF26
:1035D000AAAA000001BD00009A04002000F0FFFF2D
:1035E00000F8FFFF70B5EFF3058101240443EFF30A
:1035F000108C72B6214A1368002BFCD0BFF35F8F8A
:103600001F4B05001F4AED1A6D416A43120D1E4DF6
:103610008900AE6852B27658A6421CD0062159568F
:1036200091421CD012215956914222D01E21595646
:10363000914220D02A2159560324914210D0134B95
:1036400019781A708171BFF35F8F00220B4B1A60DB
:103650008CF3108870BDAB680D4C5C50EFE7002414
:103660006100091989005B18FF2199710949998046
:10367000E5E70124F4E70224F2E7C046240100D084
:1036800060040020AAAA000000ED00E05D190020FF
:10369000CD01001001BDFFFF054B064A1360064A2D
:1036A000136053609360D3601361536193617047FB
:1036B0008080808000E400E004E400E070B5040055
:1036C0000E001500FFF756FE0100200000F006F87E
:1036D000A680E580BFF35F8F70BDC046024B9C465D
:1036E00061448900016070474000003410B5040057
:1036F000FFF740FE01002000FFF7F0FFFF232371DA
:10370000BFF35F8F10BDC04610B50400FFF732FE57
:1037100001002000FFF7E2FFFF23A380BFF35F8FCC
:1037200010BDC04610B504000120FFF72FFE044B6A
:103730009C46604480002060BFF35F8F10BDC04690
:103740004000003483680B4810B5844661446244ED
:10375000090112019A18591854684B6801209C42BB
:1037600001D802D00020C0B210BD12680B689A4286
:10377000F9D8F7E7FFFFFF0F0A4B1968EFF3108046
:1037800072B60A68002AFCD0BFF35F8F1B68BFF3D4
:103790005F8F00221A6080F3108840BF0020002154
:1037A0007047C0463C190020F8B557464E4645467E
:1037B000DE46E0B599460CAB1C780DAB1B780600D5
:1037C00090469A460768002C11D1BC7B002C42D051
:1037D00065003B682D19033D59194B78BB73002BCD
:1037E00000D1FB7300238B704B700B7004E06500FD
:1037F0003B682D19033D5919B2682A4B944642463D
:10380000E3181B0163441A604A465A600A9A9A6098
:103810000B9ADA6000238B704B700B707B7B9B469E
:10382000002B2BD022005946B8687B6898473A682D
:10383000002816D05B4658465B005B445519033B95
:10384000A870D118D35C002B00D06B705B460C7055
:103850007B73A34513D0F0BCBB46B246A946A04635
:10386000F8BD5B465B005B44033BD3189C70511969
:10387000525D002A00D05A705B460B707C73424642
:103880004B46307D00F0B2FB051E06D05346002BA0
:1038900003D12100306800F0CDFD0E9B002BDAD063
:1038A0001D70D8E7FFFFFF0FF0B5DE4657464E46C6
:1038B00045460023E0B58BB00893674B8200D4588F
:1038C00000239B46099000F007FB626806000F008A
:1038D000EFF3108572B61368002BFCD0BFF35F8F37
:1038E00023689C465B7B9946002B00D169E0A26867
:1038F0005A4B90464B441B01984443461A685B68F8
:1039000010001900801BB941002900DC63E0099810
:1039100000F06CFB002300229846002306920793D8
:1039200000239A466368BFF35F8F5A461A6085F397
:1039300010885346002B08D10028C4D10BB0F0BC2E
:10394000BB46B246A946A046F0BD089B41461802B8
:103950004B461843D047626806000F00EFF310850E
:1039600072B61368002BFCD0BFF35F8F002F50DBC3
:1039700033003B4302D02369002B61D12368D97BFC
:10398000002907D04A00521819688C4649466244FB
:10399000033A51709A7B002A01D14A469A734A46EB
:1039A000DA734B46E168013BCA5C0132CA545B469C
:1039B00023616368BFF35F8F5A461A6085F31088EE
:1039C00081E70023002298460023069207930023F4
:1039D00000209A46A6E7002902D1002800D096E7E9
:1039E0000021604600F0A4FC43461A685B6806921A
:1039F000079343469B689A464346DB689846E368CC
:103A00004B44013B1B7808931B02034323610020B6
:103A100088E72369002BB1D0069A079B921BBB4114
:103A2000002B15DB5946049101210391494602916F
:103A300041460191514620000091FFF7B5FEB6E7DF
:103A400000F04AFA32003B0012184B41002BE9DA31
:103A50000122034B5242E5E724180020FFFFFF0F2D
:103A6000FFFFFF7F10B5144C6368002B04D00A21C0
:103A70001248FFF733FE10BD2300114A10212068C1
:103A800000F070FB032000F01BFA032000F018FB8D
:103A900003200C4900F064FAFFF76CFC0A4B9C46CB
:103AA00003232375D0231B061B6860446375074BF3
:103AB00080006060DC60DAE7A80400203C19002088
:103AC00045370010A93800104000003424180020A9
:103AD000F0B54E464546DE465746E0B585B0019303
:103AE00010AB1B780600039300239946984600927A
:103AF0007268EFF3108B72B61368002BFCD0BFF323
:103B00005F8F3568AC7B002C3DD067002B683F1978
:103B1000033FDB195A78AA73002A00D1EA73B1680F
:103B2000474A8C4600980199A2181201624410601D
:103B300051600E9991600F99D16042469A705A7007
:103B40001A706B7B9A46002B67D022001900A86878
:103B50006B6898472A68002852D0534650465B004D
:103B60005344D719033BB870D118D35C002B00D055
:103B70007B7053460C706B7354454FD0F3681B1920
:103B8000013B187800E000207368BFF35F8F424666
:103B90001A608BF31088002C4FD04B46002B08D1B5
:103BA0000002204305B0F0BCBB46B246A946A04681
:103BB000F0BD039B002B3ED00E9B00200F99984731
:103BC000030004000D000B4335D000290ADA009AE7
:103BD000019B121BAB4100920193002B0ADB039B5C
:103BE000994685E700F078F924184D410094019535
:103BF000002DF4DA0123134C5B4200930194EEE7AD
:103C000053465B005344033BD3189C70D119D25DDB
:103C1000002A00D05A7053460B706C73307D009AA6
:103C2000019B00F0E3F981460028A7D0210030680D
:103C300000F000FCA2E70020B4E701204042B1E719
:103C4000FFFFFF0FFFFFFF7FF0B504000D0006260A
:103C50007642F717C64636196F4100B584B08F42D9
:103C600014D811D000F038F932003B00121A8B4101
:103C7000002B15DC002B3ED02000290000F060F95D
:103C800004B080BCB846F0BD8642EBD900260027C0
:103C900000F022F932003B00121A8B41002BE9DDC3
:103CA000002302930193154B3200009314483B000C
:103CB000FFF70EFF0028DFDB00239846BC46114AC1
:103CC000114F7B6A9C4504D8B96A8E42D4D99C4571
:103CD000D2D11168EFF3108072B60B68002BFCD0C4
:103CE000BFF35F8F1368BFF35F8F4146196080F3A6
:103CF000108820BFE5E7002ABED0D1E77937001051
:103D0000A80400203C1900200040054070B50400C4
:103D10000D0000F0E1F800196941002902DBFFF70E
:103D200093FF70BD012001494042F8E7FFFFFF7F8C
:103D3000F0B5EFF30583CE46474680B505000C008D
:103D400085B0002B12D02C4A0020536A9C4203D825
:103D5000926A0130AA4204D305B0C0BCB946B0464D
:103D6000F0BDE01A421E9041C0B2F5E7234E029327
:103D70000193234B0200009330000B00FFF7A8FED5
:103D8000031EE0DD20BF7168EFF3108772B60A688A
:103D9000002AFCD0BFF35F8FDAB294463068427BD2
:103DA00062451DD0FF221A405100894601689144A6
:103DB00088464946414403398978002913D0F1687F
:103DC0001B0A88464244013A1278DBB29A420FD06D
:103DD0007368BFF35F8F00221A6087F31088B2E721
:103DE000FF221A40EBE732699342F1D13161EFE7EC
:103DF000614600F01FFBEBE700400540A8040020EF
:103E000079370010F0B5EFF30582D6464F464646A7
:103E10001000C0B51038EFF3108872B6214C23683B
:103E2000002BFCD0BFF35F8F0123190081401E4D92
:103E30001F006963AA461D4D29601D4D2E78AC46B2
:103E40003500C5402F402B4209D1BFF35F8F27605B
:103E500088F31088E0BCBA46B146A846F0BD534688
:103E6000144D5F6A83005D59AF420ED3124A8E43F0
:103E70009B5862461670BFF35F8F0022226088F362
:103E80001088002BE6D09847E4E70C4B92009C4644
:103E9000624413681360BFF35F8F0023236088F3CD
:103EA0001088D7E7280100D0004005403C7005404D
:103EB0005F1900204019002038130020D03F054032
:103EC00010B50100024A0348FFF7D6F910BDC046FD
:103ED000783301105B190020034B596A0A00986A75
:103EE000596A8A42FAD170470040054070B5040013
:103EF0000D00124A536A1900966A536A8B42FAD12E
:103F00003000190024184D41AB4211D80ED02B00BF
:103F10000A494A6A9A42FCD307D1084A02E0516A28
:103F2000994202D1916AA142F9D370BDA642EED95D
:103F3000012301246442E5175B42E9E700400540A4
:103F4000064A536A9942FCD807D1044B02E05A6AE8
:103F5000914202D19A6A8242F9D3704700400540EB
:103F600070B504000D00EFF3108672B61A4A13689C
:103F7000002BFCD0BFF35F8F002D1BD02000FFF77C
:103F800027FA164981420AD02000FFF729FA0121B9
:103F90002000FFF70BFA0123A340114A1360114BD5
:103FA000A400E550BFF35F8F00220B4B1A6086F32D
:103FB000108870BD0B4BA200D5500122A2400A49C7
:103FC00020000B7893430B700449FFF733FA00216C
:103FD0002000FFF7EBF9E5E7280100D0053E0010CF
:103FE00038600540381300205F190020F0B54F46B7
:103FF000D6464646C0B507002C4C616A0D00A66A3D
:10400000616AA942FAD18B4208D805D00120E0BCF0
:10401000BA46B146A846F0BDB242F7D9EFF3108ACE
:1040200072B6234801680029FCD0BFF35F8F0125D9
:10403000BD4020491D4C8846097889462943C9B2AC
:104040008C46414660460870391D1B4889006563EF
:104050000A51B9000B50216A0020294219D0616A27
:104060000800A66A616A8142FAD18B4219D801D14F
:10407000B24216D8CC4516D00C4B1F201D625D6392
:1040800001230740BB400D4A1E38136043464A4691
:104090001A70BFF35F8F0022054B1A608AF31088F5
:1040A000B5E70020F5E70120F3E7C04600400540F2
:1040B000280100D05F1900204019002080E200E0B4
:1040C000EFF3108C72B60A490B68002BFCD0BFF3DB
:1040D0005F8F01238340074A0748136202789A439F
:1040E0000270BFF35F8F00230B608CF31088704762
:1040F000280100D0004005405F19002070B5050080
:1041000014001600002915D00C00002A12D0806877
:104110006B689847296800280ED073009B196200CD
:10412000033B1219CB18033A9C7088188A5C002A4A
:1041300015D10670200070BD63001B197200033B8F
:104140009219CB18033A9E7088188A5C002A02D113
:1041500004703400EEE75A7004703400EAE75A70D5
:104160000670E7E730B583600023CCB243730133B8
:10417000047342608373C4730D000068012C06D978
:10418000421C0133DBB2137003329C42F9D1FF2190
:1041900029404B005918002340180338437030BDA4
:1041A000F8B5CE46474606000C0080B5002907D07A
:1041B0004D0003686D18033D5A195778002F04D13C
:1041C0002000C0BCB946B046F8BD7900C919033912
:1041D0008846434459788946002159705170736864
:1041E0003A002100806898473368002814D042467E
:1041F0009A18947059195B5D002B00D053700F70A2
:10420000270049463000FFF7CBFF3900020030009D
:10421000FFF774FF0400D3E7424641465D19AF70D3
:104220009A185B5C002B00D06B701470E9E7C046F5
:10423000F0B557464546DE464E46E0B50D006B00EC
:1042400001685B19DF1E0400C85D83B00192CA19C2
:10425000002850D043001B18033BCB185E78B446AF
:10426000002E1AD1019E002E42D0E67B002E04D0F3
:1042700073009B19CB18033B5D70A37B002B00D10F
:10428000A573E57300282FD10023537003B0F0BC51
:10429000BB46B246A946A046F0BD72006244033A4E
:1042A00089184A78904600224A7091465A70010057
:1042B00032002000FFF722FF43468246002B07D042
:1042C0005B0021684344033BCB185A78002A16D17F
:1042D000424651462000FFF711FF2168019BCA1991
:1042E000002BC2D10028CFD043001B18033BCB18B2
:1042F00000219970C8E7019B002BB6D1C4E750009C
:104300008018033809184878834648464870587022
:1043100041462000FFF7F2FE594680462000FFF795
:104320003FFF414602002000FFF7E8FE8046CFE74E
:10433000F0B557464546DE464E46E0B583B001919E
:10434000457B04006B0000685B19DF1EC15DC2196C
:10435000002952D04B005B18033BC3185E78B4466B
:10436000002E1CD1019E002E44D0E67B002E04D0EE
:1043700073009B19C318033B5D70A37B002B00D116
:10438000A573E573002931D10023280053706173B0
:1043900003B0F0BCBB46B246A946A046F0BD7200D1
:1043A0006244033A80184278904600224270914657
:1043B0005A7020003200FFF7A1FE43468246002BD0
:1043C00007D05B0021684344033BCB185A78002A8E
:1043D00017D1424651462000FFF790FE019B010095
:1043E0002068C219002BC0D10029CDD04B005B182A
:1043F000033BC31800209870C6E7019B002BB4D183
:10440000C2E75000801803380918487883464846A8
:104410004870587041462000FFF770FE59468046AC
:104420002000FFF7BDFE414602002000FFF766FEB8
:104430008046CEE770B5040000292CD0437B8B4228
:104440002ED0056848004018033828188278002AC2
:1044500021D053009B18033BEA5CEE188A4202D13C
:104460001BE0002A08D053009B18033BEB185A7836
:104470008A42F6D142785A70002301228370437039
:104480002000FFF7D5FE617B02002000FFF736FE1B
:104490006073012000E0002070BD43783370EBE7CB
:1044A00001221900FFF7C4FE60730120F4E7C04643
:1044B000F8B5CE464746040080B506200E0000F051
:1044C00023FA051E51D0524B5249E21853425A4129
:1044D0008023DB039C4692054F4B62441A604F4B8E
:1044E0001A6010008B689843FBD1494B8021E31878
:1044F0005A4253414A4A5B0049009952062000F053
:1045000003FA3100C00001F0BDFEC30932D14022E0
:10451000012190466162A362256BEB0736D4270028
:104520008026E36A00232C3776013E433360062061
:10453000256300F0E9F94146800001F0A3FE236BFA
:1045400005009846DB073BD46022E36A5A406E239D
:104550001340336043462363802310229B013B4377
:104560001A60304B23630323A3642800C0BCB94600
:10457000B046F8BD2C4A93423FD900232B492C4A20
:104580006162A362256B9046EB07C8D52200C02369
:1045900030329B011343234A06201A60666AA26ADE
:1045A000B601B61800F0B0F9224901F06BFEB60270
:1045B0000100300001F066FE0021FFF797FCAEE736
:1045C0002200C02330329B011343164A06201A6092
:1045D000636AA26A9B019946914400F095F94B46A3
:1045E00014499B02994601F04DFE0100484601F036
:1045F00049FE0021FFF77AFCA6E77F229901884651
:1046000010400130400819008044030082E7C04692
:104610000080FCBF00C0004000E0004000F000400F
:104620005019002001030000FEFF0000FFFF000002
:10463000C0FF3F004E0E000030B50C2083B000F0EC
:10464000B9F9FEF7FBFD00280ED0994B994A1A6084
:104650005A609A60DA601A615A619A61DA611A6284
:10466000954A5A6203B030BD944CA06700F0AAF995
:104670000122934B1A60636C012BFCD10322914BF6
:104680001A608E4A936B012BFCD1013301218E4AB3
:104690008E480093043300F03DF905238C4A0093C3
:1046A00001218C4800F036F98B4B5A68FF2A02D85A
:1046B000802252005A6080227D4C824B2169120177
:1046C000854D1A60002907D0606901F0DBFD431CAD
:1046D0005800C0180338FDD2E0217F4B02201A6831
:1046E0001140802252012A43116019684840032179
:1046F0000140116004219A681142FCD0802280217F
:1047000092012A4309011160802252005A60734BC2
:104710002361734B5968FF2900D85A600321684A06
:104720006F4B116002399A681142FCD0E0201A6880
:104730001040802252011A4310601868484003213B
:1047400001400220116066498A681042FCD0802234
:1047500092011343802212011A608022614B5200A1
:104760004A606361604B5968FF2900D85A60802213
:104770005E4BE16912015C4D1A60002907D0606947
:1047800001F080FD431C5800C0180338FDD2E02220
:1047900055490B681A4080235B012B431A60802324
:1047A00080229B012B4312011A608022414B520050
:1047B0004A60E3614E4B5968FF2900D85A60802255
:1047C0004C4B216A12014A4D1A60002907D06069DA
:1047D00001F058FD431C5800C0180338FDD2E022F8
:1047E00043490B681A4080235B012B431A608023E6
:1047F00080229B012B4312011A60802380225B00E0
:104800004B602C4BD20223623B4B5968914200D241
:104810005A608022394B616A1201374D1A600029B3
:1048200007D0606901F02EFD431C5800C018033802
:10483000FDD2E02230490B681A4080235B012B43F4
:104840001A60802380229B012B4312011A6080236F
:10485000DB024B60184B6362294B5A68FF2A02D86F
:10486000802252005A608022264BA1691201244DF9
:104870001A60002907D0606901F004FD431C58004C
:10488000C0180338FDD2E0221D490B681A4080236E
:104890005B012B431A60802380229B012B43120172
:1048A0001A6080235B004B600E4BA361DAE6C046C2
:1048B00074130020006CDC021BB700000080004075
:1048C0003CB0004030B00040002F685900800240EA
:1048D000008C864700C0024030800040001BB700BB
:1048E0003C800040405973075480004054B0004061
:1048F0006080004060B000406C8000406CB00040C0
:104900004880004048B00040014B8000C0587047CC
:1049100074130020F8B5040021481D0017000E0094
:1049200001F0B0FC0100380001F0ACFC069B29044A
:104930001B0319432368002B20DB1A4B1A4DE21886
:1049400053425A4180235B019C461203174B624439
:104950001A60174B1A601700AB689F43FBD1C02247
:10496000231D92011A4321232660A060136023684F
:10497000002BFCDA0823E1601360F8BD3F232268B6
:104980001340B342D9D1A3681B051B0D8342D4D178
:10499000EE22E368D20213408B42CED1EDE7C0464F
:1049A000001BB7000040FDBF00C0004000E0004019
:1049B00000F000408023024A9B000343D36270470B
:1049C00000800540AA23064A1B0113602F230549D6
:1049D000D360054B19605368002BFCDA7047C04662
:1049E0000040024000B0FA00006002402C4B2D4A0B
:1049F00070B51A602C4A2D4B2D491A6014008B6833
:104A00009C43FBD12B4D2C4EB54208D2013E761B68
:104A1000B60808CD984723000134B342F9D1FFF717
:104A20000BFE264A214B1A60214A9368DB43DB01C7
:104A3000DD09002BF9D14022214B224C224E9A67EE
:104A40005A671A67DA66B44208D223682000002B3E
:104A500020D00834FEF758FEB442F6D31B4E1C4C4F
:104A6000C022A168300002F0C9F9A660FEF774FC0C
:104A7000FEF712FEFEF7F6FF164C174EB44208D2B0
:104A8000013E361BB60808CC98472B0001359E42E4
:104A9000F9D170BD0834FEF729FEB442D5D3DDE765
:104AA00000E00040BFCDFBFEFE7F3C0000F0004078
:104AB00000C00040200F0020300F0020FFFFFF014A
:104AC00000F00140100F0020200F00200000002007
:104AD00000ED00E0300F0020340F002000BEFDE7A5
:104AE000094A03001068002805D00849C3188B4202
:104AF00007D81360704706480449C31810608B42FA
:104B0000F7D901204042F5E7EC170020000004200F
:104B10006019002010B5FFF7E1FFC04610B50C008A
:104B200082B01900002A0AD0064B019200930200BD
:104B30002300054801F00CFB0120FFF7CFFF034BDA
:104B40001A00F2E79C330110AC33011088390110D0
:104B50000FB400B5084883B002F0B4FA049B002BF0
:104B600007D005A91800019101F012FB034802F0DB
:104B7000A9FA0120FFF7B2FFDC330110443B01101A
:104B800010B50148FFF7E4FFEC3301109A4200D260
:104B9000885470477047C046F8B557464E4645465C
:104BA000DE46E0B599460A9B07009A460D9B88466B
:104BB000934615000B9E9B0710D10C9B9E420DD275
:104BC0009D1B14000E005D4422004B460134310051
:104BD0002020B847A542F7D1B0460B9E002E27D023
:104BE000444675195346AA1B013E985D21004B4669
:104BF000B847002EF6D123002C0098460D9B9B074A
:104C00000FD55B46E51A0C9BAB420AD9464698463F
:104C100022004B46310020200135B8470134A84519
:104C2000F6D82000F0BCBB46B246A946A046F8BD67
:104C30002C00E3E7F0B54F464646D646C0B584B0F3
:104C400098460EAB1B78129F994694460D9C109B7C
:104C5000119EBA0725D4002E4BD19C4200D3BFE051
:104C600001223A4092461F2C00D9B8E00C9A551EFA
:104C7000302201E0202C03D001342A55A342F9D878
:104C80005246002A0DD0A6420BD9202C44D00C9AB3
:104C9000551E302201E0202C3ED001342A55B4426A
:104CA000F9D1FA064DD57A053FD4002C39D10F9BA6
:104CB000102B00D179E00F9B022B00D18AE030232A
:104CC0000C9A012413704B46002B3FD02D230C9AD5
:104CD000135501340C9B624600930397434602969A
:104CE0000194FFF759FF04B0E0BCBA46B146A846AC
:104CF000F0BD012215003D40AA463A422FD04A4657
:104D0000002A02D10C323A4200D0013E9C42BAD273
:104D10001F2CABD9202E27D92024FA06DAD57A0504
:104D200003D4A3422DD0A6422BD00F9B102B32D000
:104D3000022B20D0202CCDD030220C9B1B191A70B6
:104D40000134202CC6D04B46002BBFD17B070DD49D
:104D50003B07BFD520230C9A13550134BAE79C4278
:104D60009FD21F2C00D881E720249AE72B230C9A8E
:104D700013550134AEE7202CACD00C9B1B19013429
:104D80003AE0631E012C92D00F9A102A2AD0022AF0
:104D90002FD01C00D0E7BB060ED4202C9AD00C9B41
:104DA0001A19013478231370C4E7BB060DD4782395
:104DB0000C9A01241370BFE7202C00D18AE75822F7
:104DC0000C9B1B191A700134B4E758230C9A012468
:104DD0001370B1E70C9A603301241370ACE7202400
:104DE00000265EE7023CBA06E9D40C9A12191C00B0
:104DF000D8E70C9A9246534462221A709AE7C0464A
:104E000010B5002800D110BD02F010F9FBE7C04634
:104E10000B0010B5002802D049681B68984710BDE8
:104E2000F0B5DE4657464E464546E0B59BB09B463C
:104E3000249B89469846259B0B900C9240464246FF
:104E400019009A4601F0DFFC002800D0D8E00122CA
:104E500040465146774B524201F0D0FC002800D02A
:104E6000CEE0012240465146734B524201F0B0FC65
:104E7000002800D0C4E0002200234046514601F043
:104E8000A7FC002800D0B9E1424653460A92099394
:104E90008023289ADB001A400E92289A1A4201D1E8
:104EA000062326930A9A099B1600134300D0C7E0F5
:104EB000289B002500261B0500D49BE100230D93B1
:104EC000269A0D9B9A4200DC9FE1D01A431E26933E
:104ED0008023289ADB001A430023002728920D9391
:104EE000279B0024BB4200D9DC1B0223289A1A40CE
:104EF0000E92289A134203D07B427B415B421C40B6
:104F00000D9B002B07D00A9809992A00330001F065
:104F1000FEFB0A900991002200234046514601F011
:104F200057FC002805D0802000068446099961447A
:104F30000991289A414B0B9D13400493269B0A9A92
:104F40000293099B03940092019349465B46280013
:104F50000C9A00F08BF90400002F62D0289B2200ED
:104F600098061F23C0179843631C984649465B4622
:104F70006530A8470D9B0025DA179C18DB0F9A4671
:104F80005440013F01E0202D13D00AAA94461F236C
:104F9000200063440A2101355E1901F073F93031B4
:104FA000317020000A2101F06DF926000400092E5D
:104FB000E9D805230693002304930A330393534649
:104FC00005970B9F029312AB009342465B464946FE
:104FD00038000195FFF72EFE0E9B0400002B20D019
:104FE0000C9BC51A279BAB421BD91E0022005B46B7
:104FF000494620200135B8470134AE42F6D810E0CA
:10500000289B42460493279B49460393269B0B9873
:1050100002935346009201935B460C9A00F026F9E6
:10502000040020001BB0F0BCBB46B246A946A04617
:10503000F0BDC046FFFFEF7FFFFFEFFFFFF7FFFF71
:10504000734B099F9C467800400D604401F0EEFBD5
:10505000704A714B01F075FB704A714B01F052FBC5
:105060003B03704A1B0B1A4304000D003000110073
:105070006D4B002201F041FB6C4A6D4B01F061FB6E
:1050800002000B002000290001F03CFB01F0E6FBD0
:105090000D9001F0CBFB674A674B04000D0001F057
:1050A00050FB0022654B01F02DFB01F0D7FB644A59
:1050B0000600644B2000290001F043FB040030008F
:1050C0000D000F9601F0B2FB5F4A604B01F039FB17
:1050D00002000B002000290001F00FFB02000B0072
:1050E00006000F0001F02DFB320004000D003B0014
:1050F0003000390001F006FB002210901191544B52
:105100002000290001F003FB0022524B01F0FAFAC3
:1051100002000B002000290001F0F9FA00224E4B9A
:1051200001F0F0FA02000B002000290001F0EFFA74
:105130000D008021040032003B000020C90501F071
:10514000DCFA02000B002000290001F0DBFA02006B
:105150000B001098119901F0DAFA0022314B01F09E
:10516000D1FA3E4B0F9C9C4664440022230501F07B
:10517000E8FA05000E0002000B000A98099901F0F8
:1051800027FB00280AD00D9B2800013B31000D931E
:105190000022304B01F0BBFA05000E00C6270D9926
:1051A0002B0063318F42BF4128997F4204370905A4
:1051B00000D495E6334300D182E6099C284A2100B9
:1051C000284B0A9801F012FB002808D00022210089
:1051D000254B0A9801F0FCFA002800D070E6269BC7
:1051E000002B00D17CE60E9B5A1E9341269AD31ABF
:1051F000269375E6002304270D9371E643460A9330
:1052000080231B065344099342E6002326935FE65E
:1052100001FCFFFFFB799F501344D33FB3C8608B61
:10522000288AC63F0000F03F0000F83F61436F63EB
:10523000A787D23F71A379094F930A400000E03F4E
:105240001655B5BBB16B0240EF39FAFE422EE63F70
:1052500000002C400000244000001840FF03000024
:105260002D431CEBE2361A3F80842E41F0B54E46AA
:10527000DE4657464546E0B597B09946209E219FA9
:10528000229B8346984607910C923B0032003000E7
:10529000390001F0B8FA002800D0A9E1012230005D
:1052A0003900CA4B524201F093FA002800D0E1E0E5
:1052B000012230003900C64B524201F09FFA00280B
:1052C00000D0B7E0002230003900C24B01F096FA5E
:1052D000002800D099E0002230003900BE4B01F0D8
:1052E00077FA002800D090E0002200233000390037
:1052F00001F06EFA002800D0B1E000230D93249B4A
:105300005B0501D40623984608AB9C46172200246F
:1053100030234146624404E0013413550139202C06
:1053200001D00929F8D888463000390001F096FAF2
:105330004346DA00A94B05009B181A685B6808927F
:10534000099301F073FA02000B003000390001F0FC
:10535000D4F9089A099B01F0F4F90A900B9101F035
:10536000A1FA824601F05EFA02000B000A980B993E
:1053700001F0C3F900229A4B0A900B9101F03EFA1A
:10538000002800D1C0E001239C46E244504601F0D1
:1053900049FA02000B000898099901F01FFA002849
:1053A00002D000239A4601354346002B6AD008AB51
:1053B00017269C4608956644554614E001235B4237
:1053C00043440A2128009A4600F05CFF0134303142
:1053D0003719397028000A2100F054FF092D00D830
:1053E000D0E0D0460500202CE8D10EAB9846032330
:1053F000249A1340012B00D196E02023249A019394
:105400000392239A434602921EE0249B584604933B
:10541000239B00960197039343460C9A02930799A6
:105420004B46FFF7FDFC17B0F0BCBB46B246A946A1
:10543000A046F0BD249B5B070ED40322694B249940
:105440000192039123990291009358464B460C9A7E
:105450000799FFF7A1FBE6E70422634BEFE73B0068
:1054600032000020002101F048F9012306000F005E
:105470000D9344E7249B0393239B029304230193FE
:105480005A4BE1E7280001F0D1F902000B0030008F
:10549000390001F032F9524B002206000F0001F0F2
:1054A00097F90EAB984600280AD100223000390047
:1054B0004B4B01F0A3F9002802D1EB0700D50135D1
:1054C000202C94D008AA94461723280063440A216C
:1054D00001341E1900F0AEFE3031280031700A216F
:1054E00000F0A8FE051EEBD10323249A1340012BE4
:1054F0001BD0202C00D180E70D9B002B35D02D2216
:105500004146631C0A5579E700220A980B99344BEF
:1055100001F05EF9002800D046E75346002B51D138
:1055200001239C46E2443FE72024239B002BE0D04C
:105530000D9B002B03D1249A0C33134202D0239BE2
:10554000013B2393239BA342D3D908AB9C4617224C
:1055500030236244202C00D14FE7239901341355A6
:105560008C42C6D0202CF8D147E7249B5B0724D47B
:10557000249A2300120700D440E720224146013339
:105580000A553BE75746089D202C00D12DE7220005
:1055900030214046002F09D00132B154202A00D1D9
:1055A00023E7D3431B191B18002BF5D10EAB9846EC
:1055B0002E234146541C8B5482E72B224146631C08
:1055C0000A551BE7DB0700D4EEE6A9E7FFFFEFFF74
:1055D000FFFFEF7F65CDCD4165CDCDC1F035011029
:1055E0000000E03FF8330110FC33011008340110D3
:1055F000249B0393239B029303230193004B23E7F4
:1056000004340110F0B5DE464E4657464546E0B537
:105610009FB01C00289B91460993C94AC94B8B46F1
:1056200008901A60002900D118E2002320789A46D9
:10563000002800D11AE226001D005C460AE02A007C
:105640006F1C4B46089D2100A8473D00013630786D
:10565000002870D02528F2D110239B46083B9A469B
:10566000043B9846023B00219C46721C10781600B1
:105670000300203BDBB2102B03D8B34F9B00FB5839
:105680009F460300303B092B32D900230A932A2876
:1056900068D0002398462E283ED00300683BDBB23A
:1056A000122B1CD8A94A9B00D3589F4601230132D4
:1056B0001943DBE7634601321943D7E7434601321A
:1056C0001943D3E75B4601321943CFE75346013212
:1056D0001943CBE780235B00707819430136030040
:1056E000253BDBB2532BAAD8994A9B00D3589F463F
:1056F00000270300B800C01901364000C0183378F5
:1057000030381A00303A0700092AF3D90A901800F5
:10571000002398462E28C0D180237078DB001943DF
:105720000300303B721C092B00D8A1E12A2800D1CC
:10573000B2E11600B1E7A346AA462C00D14503D832
:1057400001235B424B449A464B4652465946002041
:10575000089DA84720001FB0F0BCBB46B246A94632
:10576000A046F0BD099B40CB0A96002E03DB507883
:105770000993561C8DE72838014370420A9009931B
:105780005078561C85E7782800D1DFE1582800D1F1
:105790004CE26F2800D14FE3622801D100F030FCC9
:1057A00010230A009A430B92692801D000F0A9FC4B
:1057B0000A230C934B0500D5D0E10B9A80231100EE
:1057C0009B0019408B461A4200D0A1E280231100B1
:1057D0005B0019408A461A4200D0B6E313005B060C
:1057E00000D5EDE2130009991B0601D400F076FC08
:1057F00008C91BB2D8171A18424092B209919346B1
:10580000DA0F1292002B09D1802310220B99DB00B2
:105810000B4091430B91002B00D0E4E20B9A6123E3
:10582000920600D541230EA91F228C46DBB26244AA
:105830000A3B5F461395A34655460C9CB2460D9312
:1058400016000AE03033DBB201357355A74200D2AF
:10585000EDE2202D00D1EAE207002100380000F03F
:1058600011FDCBB20929EDD90D9A94466344DBB200
:10587000EAE780239B007078194301362FE77078A0
:10588000682800D1CDE180230136194327E77078DD
:105890006C2800D1BFE180235B00194301361EE76D
:1058A000462800D19BE10722099B049107339343CB
:1058B0000A9A19000392424602920CC90898009273
:1058C000019309912A004B462100FFF7CFFC0136D6
:1058D0000500BCE62A006F1C4B46089D21002520D0
:1058E000A84701363D00B2E68B0700D4ADE1099B25
:1058F0002A009A466B1C9846534601CB21009A46D3
:10590000089F4B46C0B2B8470A9B9C466544012B92
:1059100000D886E2089B4746B04626004C4699468A
:105920003A002300013731002020C847AF42F7D1A9
:10593000A1465346340046460993013687E6C046E1
:10594000055600100C1800201034011054340110BA
:10595000A0340110099B04CB9B4643460992002BBF
:1059600000D1C6E013789C46002B00D1BDE343462E
:10597000013B099A0133D0180A9F130001E08342CA
:1059800003D05A780133002AF9D1099A0A979B1A51
:105990000B9380230A00DB001A400C92194204D0BA
:1059A0000B9B434501D943460B9302231A000A403F
:1059B0000D920B4200D187E16046002800D168E1DA
:1059C0000C9B002B00D10DE1A844C246099B574611
:1059D0005B1B9846089BB2462A0026004C46994617
:1059E00009E023003100551CC8474346585D002894
:1059F00000D126E12A009742F3D1A1463D003400B0
:105A000056460D9B002B00D043E15B4601360993BF
:105A10001DE6099B1A0008CA9246002B48D0212295
:105A200011438B460EA884461F216144099500222C
:105A30000F27A4460D0002E0202A0CD00B003C00EA
:105A40001C4020003730092C00D807380132A854F8
:105A500019090F2BF0D86446099D32E0DC4B207801
:105A6000089300239A46002800D0E4E5002465E668
:105A7000434606000A9F9800C01801324000801972
:105A80001678030030003038303B0928F3D9300055
:105A9000984616000A9700E6099B023604CB90460A
:105AA000D2434046D2171040804609933078F4E53F
:105AB000102208009043113210438346002249050A
:105AC000B0D55B4606930823059343460493102301
:105AD00003930023029316AB019200932A004B46D6
