:020000041000EA
:1000000000B5324B212058609868022188439860DF
:10001000D860186158612E4B002199600221596106
:100020000121F02299502B49196001219960352056
:1000300000F044F80222904214D00621196600F024
:1000400034F8196E01211966002018661A6600F04E
:100050002CF8196E196E196E052000F02FF8012189
:100060000842F9D1002199601B49196000215960AB
:100070001A491B48016001219960EB211966A021F2
:10008000196600F012F800219960164914480160C1
:100090000121996001BC002800D000471248134993
:1000A000086003C880F30888084703B5996A0420EC
:1000B0000142FBD001200142F8D103BD02B5186610
:1000C0001866FFF7F2FF186E186E02BD00000240BE
:1000D000000000180000070000035F00212200005C
:1000E000F4000018222000A00001001008ED00E03C
:1000F00000000000000000000000000074B24E7A12
:1001000000200420F7010010C3010010C5010010F9
:10011000C1010010C1010010C1010010C101001097
:10012000C1010010C1010010C1010010C701001081
:10013000C1010010C1010010C9010010CB01001065
:10014000CD010010CD010010CD010010CD01001037
:10015000CD010010CD010010CD010010CD01001027
:10016000CD010010CD010010CD010010CD01001017
:10017000CD010010CD010010CD010010CD01001007
:10018000CD010010CD010010CD010010CD010010F7
:10019000CD010010CD010010CD010010CD010010E7
:1001A000CD010010CD010010CD010010CD010010D7
:1001B000CD010010CD010010CD010010CD010010C7
:1001C00000BE00BE00BE00BE00BE00BEEFF3058054
:1001D000103800BEF2EB8871647A0110807A011049
:1001E0003402001090A31AE700201F49086006C8D7
:1001F00081F3088810471D48006800282FD10DA4FE
:100200000ECC002902D000F012F8F9E71849194A7B
:10021000002000E001C19142FCD1174988471749ED
:1002200088471749884700BEFDE701C901C29A42C5
:10023000FBD37047807A0110C0000020340F0020EB
:10024000F48801100000042000000420F48801104C
:10025000001004200010042000000000704709482E
:1002600006F0E4F90047000008ED00E0000000D0CF
:10027000380F002060190020494E0010BD1F0010EB
:10028000714F00105756000006005250ABB3605338
:10029000603A011006005250861C0302803A011099
:1002A000060052505422A29D903A0110050052506F
:1002B000DE65F468F4880110F8B5C0460448054BC3
:1002C00010B5834203D0044B002B00D0984710BDDB
:1002D000340F0020340F00200000000006480749BA
:1002E000091A8B10C90FC91810B5491003D0044B57
:1002F000002B00D0984710BD340F0020340F002091
:100300000000000010B5074C2378002B09D1FFF73F
:10031000D5FF054B002B02D0044800E000BF0123AD
:10032000237010BDD81100200000000070360110AD
:10033000054B10B5002B03D00449054800E000BF71
:10034000FFF7CCFF10BDC04600000000DC1100200C
:1003500070360110D02370B505005B00C3580B4EFA
:100360009B6A903511210A4A0400300006F0FAF821
:100370002800AE6209F01EFBEB68002B05D0B82305
:1003800001222800E15809F0BDF870BD10180020C6
:1003900070360110F62370B55B00C35882B00500BB
:1003A0000400986A06F01CFE0B4E00900191BC35CB
:1003B00011210A4A300006F0D5F82800AE6209F093
:1003C000F9FAEB68002B05D0E42301222800E1585C
:1003D00009F098F802B070BD5C1300207836011067
:1003E000B5239B0070B5C418084B0500A36220001C
:1003F00009F0E0FAE368002B06D0BF239B0001223E
:100400002000E95809F07EF870BDC046843601101E
:10041000A223F0B5DE4657464E4645469B00E0B562
:10042000C55838239B462C339846E4339946884B6D
:1004300004009A46070006001121AB6A854A83B082
:10044000834480448144504606F08CF85346584615
:10045000236609F0AFFA636C1D377536FF37FF3638
:10046000002B04D001225846216E09F04BF8AB6AEC
:100470009A46236A18009B460CF004F85146050082
:10048000020058460CF02CF8002800D18EE0636A78
:1004900018009B460BF0F6FF514605000200584637
:1004A0000CF01EF800282BD0A36A18009B460BF016
:1004B000E9FF51460500020058460CF011F80028EB
:1004C00000D1B2E0E36A18009B460BF0DBFF514617
:1004D0000500020058460CF003F8002800D1ADE0FA
:1004E000236B180099460BF0CDFF51460200050022
:1004F00048460BF0F5FF814600286FD0002528E024
:10050000280050440BF088FA06F02EFC0223051C4C
:10051000BB62380009F04EFAFB68002B06D0A2231C
:100520005B0001223800E15808F0ECFF01222300B3
:100530007133FF331A70484609F03CFA4B46DB68CA
:10054000002B06D0B8235B0001224846E15808F092
:10055000D9FF3000B56209F02DFAF368002B06D000
:10056000CE235B0001223000E15808F0CBFF281CAD
:1005700006F036FD8C25384E00900191374A112146
:10058000300005F0EFFF4046665109F013FA236F83
:10059000002B04D001224046615908F0B3FF03B09C
:1005A000F0BCBB46B246A946A046F0BD2800504468
:1005B0000BF032FA06F0D8FB0223051CBB623800B0
:1005C00009F0F8F9FB68002B06D0A2235B0001229A
:1005D0003800E15808F096FF0022A8E728005044B0
:1005E0000BF01AFA06F0C0FB4B46051CBB62380044
:1005F00009F0E0F9FB68002B06D0A2235B00012282
:100600003800E15808F07EFF2700F0373800BD625F
:1006100009F0D0F9FB68002B9BD08C235B000122F2
:100620003800E15808F06EFF93E7280050440BF0C3
:10063000F3F906F099FB0123051CBFE7280050449D
:100640000BF0EAF906F090FB0123051C60E7C046B9
:10065000F81700209036011048130020983601103A
:100660009D2070B5C00007F059FD0221E8234942E2
:10067000C1509933FF33C150F033C218893BFF3B5F
:10068000C250C2182C3BC250EE220023E02452007C
:100690008350DC3AFF3A64000251F624A4000519A5
:1006A000A93CFF3C055105192C3C05512034035150
:1006B0001C3C02518824E4000519C93CFF3C05514B
:1006C00005192C3C0551203403511C3C0251B03417
:1006D0000151C221890044183839445044182C393A
:1006E0004450203143501C394250234C6831435010
:1006F00008394450D9240431405048314350043122
:1007000043501E49A4000151043403511C4D1034C0
:100710000251083C0551022504340051483403516C
:10072000043403510C340151043403511034055185
:10073000144D083C0551032504340051124C03515B
:1007400004340351114C0151043403511034055148
:100750000F4D083C05510F4C00510F4C0351043410
:1007600003510E4C01519421C90043500C49435090
:100770000C4BC25470BDC04611040010A4360110C9
:1007800055030010950300102404000034040000F9
:10079000E1030010440400008C0400009C040000ED
:1007A000DC040000C404000070B50400002315340C
:1007B000FF34A3620500200009F0FCF8E368002B79
:1007C00006D09E235B0001222000E95808F09AFE23
:1007D00070BDC04687239B0070B50500C618030096
:1007E0000122A935D133FF33FF351A7004002800E8
:1007F00009F0E0F8EB68002B06D0E8235B0001224B
:100800002800E15808F07EFE912301229B00E318A6
:100810001A70300009F0CEF8F368002B06D091234F
:100820009B0001223000E15808F06CFE70BDC0460C
:10083000EA235B00C358F0B5C646984693239B0055
:10084000C7182C33C6180023050000B50400BB628E
:10085000380009F0AFF8FB684535FF35002B06D0AE
:100860009D239B0001223800E15808F04BFE002335
:100870003000B36209F09EF8F368002B06D0A8237D
:100880009B0001223000E15808F03CFE0023A362E7
:1008900043469B6A2800E363084BAB6209F08AF881
:1008A000EB68002B06D0B6235B0001222800E1583C
:1008B00008F028FE80BCB846F0BDC046A83601103E
:1008C000F8B5EA235B00C258836A04005D1CC823A4
:1008D0008562DB009D4200DAF8BD93239B00C618B9
:1008E000C16B906A06F0CDFA071C280006F03EFBAB
:1008F000011C381C06F0CBFA00232064B3623000E0
:1009000009F058F8F368002B06D09D239B000122C4
:100910003000E15808F0F6FD9E239B00E518002307
:100920002800AB6209F046F8EB68002B06D0A8233C
:100930009B0001222800E15808F0E4FD25000C4B43
:100940004535FF35AB62280009F034F8EB68002B21
:1009500006D0B6235B0001222800E15808F0D2FD42
:10096000F523DB00E318A36101232377B4E7C04636
:10097000B4360110F8B593234746CE4605009B00D8
:1009800080B5C7182C33C618436C45359B6A0400E4
:10099000826FFF35022B43D0012B03D0C0BCB94678
:1009A000B046F8BD2733D35C002B00D1B1E08022E4
:1009B00012069446036A38006344BB6208F0FAFFEB
:1009C000FB68002B06D09D239B0001223800E158D4
:1009D00008F098FD802212069446636A6344B3626D
:1009E000300008F0E7FFF368002B06D0A8239B0037
:1009F00001223000E15808F085FD0023A3624D4B31
:100A00002800AB6208F0D6FFEB68002B06D0B623B7
:100A10005B0001222800E15808F074FDFB2349E047
:100A2000AA33C3589946EA235B00C3589846282343
:100A3000D35C002B44D1802212069446036A38000E
:100A40006344BB6208F0B6FFFB68002B06D09D2311
:100A50009B0001223800E15808F054FD636A300021
:100A6000B36208F0A7FFF368002B06D0A8239B0011
:100A700001223000E15808F045FD4B46606B996A51
:100A800006F002FA60630023A362E36A280023638E
:100A900043469B6AE363284BAB6208F08BFFEB682D
:100AA000002B06D0B6235B0001222800E15808F095
:100AB00029FDF823DB00E318A361012323776DE709
:100AC000036A3800BB6208F075FFFB68002B06D094
:100AD0009D239B0001223800E15808F013FD80227D
:100AE00012069446636A30006344B36208F062FF02
:100AF000F368002B06D0A8239B0001223000E158A8
:100B000008F000FD4B46606B996A06F0BAF9606325
:100B1000B9E7036A3800BB6208F04CFFFB68002BA2
:100B200006D09D239B0001223800E15808F0EAFC22
:100B3000636A54E7C4360110BC360110E023C35881
:100B400070B59B6A0500036243620300012275359C
:100B50009D33FF33FF351A700400280008F02AFF88
:100B6000EB68002B06D0CE235B0001222800E15861
:100B700008F0C8FC70BDC046AC2370B50400C55871
:100B8000836A581CA06206F0F1F9A96A06F0D8F948
:100B9000002800D170BD93239B00E5180023280096
:100BA000AB6208F007FFEB68002B06D09D239B008B
:100BB00001222800E15808F0A5FC9E239B00E518BF
:100BC00000232800AB6208F0F5FEEB68002B06D08E
:100BD000A8239B0001222800E15808F093FC25007F
:100BE000164B4535FF35AB62280008F0E3FEEB6895
:100BF000002B06D0B6235B0001222800E15808F044
:100C000081FC25002300012275359D33FF33FF351C
:100C10001A70280008F0CEFEEB68002B06D0CE2319
:100C20005B0001222800E15808F06CFCF523DB0092
:100C3000E318A36101232377ACE7C046B436011063
:100C4000F8B528230500826F1535D35C0400416B8D
:100C5000FF35C06A002B56D106F072F9002856D035
:100C600093239B00E61800233000B36208F0A2FE35
:100C7000F368002B06D09D239B0001223000E15831
:100C800008F040FC9E239B00E61800233000B3626E
:100C900008F090FEF368002B06D0A8239B000122E9
:100CA0003000E15808F02EFC2600304B4536FF3668
:100CB000B362300008F07EFEF368002B06D0B62346
:100CC0005B0001223000E15808F01CFC26002300E4
:100CD000012275369D33FF33FF361A70300008F05D
:100CE00069FEF368002B06D0CE235B0001223000A2
:100CF000E15808F007FCF523DB00E318A3610123AA
:100D0000E06A237720E006F005F90028A8D1EA235D
:100D1000A26A5B00E358561C986AE16BA66206F073
:100D2000B0F8134906F0C7F8071C300006F01EF9AA
:100D3000216C06F0C0F8011C381C06F0A2F8216BEB
:100D4000A06306F0A1F8E0620A4906F083F9A86200
:100D5000280008F02FFEEB68002B06D09E235B00D6
:100D600001222800E15808F0CDFBF8BDB43601108F
:100D70001111813F0000B443F0B5FE20D6464F4626
:100D80004646C000C0B507F0C9F903004C334364C0
:100D9000343383670200A4230067B432C0500833A1
:100DA000C2502C33C05034320833C25002222C338C
:100DB000C0500D335242FF338321C25000238900BB
:100DC00043501C394350583142505C314250AC22A0
:100DD0009D4992008350083A8150C1210124043278
:100DE00080504832835004328350984A89004250E0
:100DF00004314350964D1031445008394550043168
:100E0000405048314350043143500C31425004317A
:100E1000435002218A46E0215546890045508D4DB8
:100E20000839455004314050483143500431435053
:100E30000C314250F221C9004518F62103278900E0
:100E4000455010314750844F0839475004314050C5
:100E500082498A274350043143508149814E425090
:100E6000043145500421FF00C151083FC651F52609
:100E7000F600B1467C4F8144C0517C4F9526C3514A
:100E80000437C3517A4FF600C2514F46875110368E
:100E9000B4460526B046664647468751083EB446E6
:100EA000744EB0466646474687514F46724E805153
:100EB000724E835104368351714E825104368751EC
:100EC000A4270626FF00C6516E4E083FC651F826DD
:100ED000F600B446844466466B4FC0516B4FC35115
:100EE0000437C3516A4FC2510437C6510726103721
:100EF000C651684E083FC651674F5646C051674FAE
:100F0000C3510437C351664FC251FB22D200871828
:100F1000F93AFF3A8750634A8350C42292008718F7
:100F2000C522D2008750F822920087185E4A875067
:100F3000153AFF3A87181932FF328750B03A8718AE
:100F40005A4A87500C3A8718594A875004328150C0
:100F5000584A8454AA2292008718CF22D200875080
:100F6000DE2292008718544A8750544A83500C322C
:100F70008718534A875004328650524A00278354B8
:100F8000514A83508922D2008618D822D200865036
:100F900086184E4A865004328450183A81504C4A82
:100FA0008350343A84504B4A8350343A81504A4AF1
:100FB00083509622D2008618F122D20086508618DD
:100FC000464A865004328450183A81500200F22179
:100FD00000260C32C9004250414C42494450043171
:100FE00041180E604F60F421C9004354083142504B
:100FF0003D4C3E494450043141180E604F60F7218A
:10100000C900435408314250394C3A4944500431E4
:1010100041180E604F60FA21C90043540831425014
:10102000354A364981500432821816605760FD22D5
:10103000D200835405614561C36083610377E0BCDE
:10104000BA46B146A846F0BDA9070010A436011063
:10105000D507001031080010C10800102C04000052
:101060003C040000750900104C04000094040000CA
:10107000A40400003D0B0010B4040000FC040000B8
:101080000C050000410C00101C0500006405000068
:1010900074050000790B001084050000CC050000E9
:1010A000DC0500001C0600002C06000034060000D1
:1010B000FC050000040600007C0600006C06000031
:1010C0004C06000054060000B40600009406000020
:1010D000FC0600003C0700007C0700005C070000E5
:1010E000CC36011094070000E0360110AC07000078
:1010F000E8360110C4070000DC070000F0360110DC
:10110000942010B5400007F009F80300283303626B
:101110008E2300225B00C064C250343B0132C250B7
:1011200010BDC046F0B5070004000600050087B0FA
:1011300003A919480AF0A8FA039B5437E36738005B
:1011400008F038FC236E8436B435002B04D001221D
:101150003800E16F08F0D6F9049B3000B3620193C8
:1011600008F028FCF368002B05D0AC2301223000E6
:10117000E15808F0C7F9059B2800AB6208F01AFC9B
:10118000EB68002B05D0DC2301222800E15808F091
:10119000B9F907B0F0BDC046F0170020054B10B5F7
:1011A0001A78002A00D010BD013203481A700AF0E4
:1011B00021FAF8E75A190020F0170020922070B5A4
:1011C000800006F0ABFF030028330362F022002307
:1011D000AC242049C0648350083A815004328050C6
:1011E000483283501C49043283500C3281500432FF
:1011F0008350483AFF3A194D64000251083C0551AA
:101200000434005148340351043403510C34015167
:10121000D821040049004350E834483144500C3987
:1012200011344350FF3420394450043142500431CA
:101230004354603143500100902351319B00FF31F2
:10124000C150C1182C3BC1500433C250183BC2508E
:1012500070BDC0469D110010A4360110251100106C
:10126000036BF0B54F4699466423D6469A4680B53F
:10127000050083B08244806806F07EFDAB6AEC6AAC
:1012800006000F0000930194002C36DD4B46696A7E
:10129000986A05F0F9FD009A019B041C39003000A2
:1012A000801A994105F034FD174A184B05F077FC78
:1012B00005F05AFD011C201C05F0FDFDFC218905EF
:1012C00005F0F9FD296A05F0DFFD28628C2428511C
:1012D000504608F06FFB2B6F002B04D001225046C4
:1012E000295908F00FF94B469B6AAE62EF626B62B8
:1012F00003B0C0BCBA46B146F0BD002C01D1002BF2
:10130000C4D1286AE2E7C04695D626E80B2E113EE6
:10131000A42010B5400006F001FF0300383303633A
:10132000A02200231049C0658350083A815004323E
:101330008050483283500D49043283500C32815022
:10134000043283503C32835002004133FF339832E1
:10135000C250C2182C3BC25001220433C250183B69
:101360000332C25010BDC04661120010A4360110F5
:10137000F0B5C6460500060080211F4A040000B5EE
:10138000D06884350006000F543601304900536898
:101390000B42FCD10138176A0028F8D18021D068AF
:1013A000154A0004000F7F420130890053680B4248
:1013B000FCD10138536A0028F8D15B423000E7675E
:1013C000984608F0F7FA236E002B04D00122300073
:1013D000E16F08F097F843462800AB6208F0EAFA9C
:1013E000EB68002B05D0AC2301222800E15808F05F
:1013F00089F880BCB846F0BD00002050F0B5D64654
:101400004F4646460025C0B53D4C8AB020003D49B8
:1014100006F0AEF90223200008220021009506F014
:101420000BFA00220121082002F000F9002201211C
:10143000092002F0FBF88026F827C02376021B0360
:101440007F0202A9102206A89A46049302960397E7
:10145000059505F0D9FE2C4B06A9102202A8994645
:10146000079305F0D1FE8023DB020593274B200074
:10147000039380231B0398460493002202AB0021B0
:1014800006F032FA01222368200013432360012171
:10149000022300950B3206F0CFF9002201210C2027
:1014A00002F0C4F8002201210D2002F0BFF85346DB
:1014B00002A9102206A8049302960397059505F049
:1014C000A3FE4B4606A9102202A8079305F09CFE36
:1014D000C023DB0205930E4B0022039343460121F8
:1014E0000493200002AB06F0FFF9022223681343A5
:1014F00023600AB0E0BCBA46B146A846F0BDC0467B
:1015000000002050F8360110807701008077010834
:101510008077010C862070B5800006F0FFFD030087
:1015200028330362C022002394242049C0648350DE
:10153000083A815004328050483283501C490432AA
:1015400083500C32815004328350183AFF3A194DBF
:1015500064000251083C05510434005148340351E1
:10156000043403510C340151C0210400490043509C
:10157000B834483144500C3911344350FF342039C9
:10158000445004314250043143546031435001000F
:10159000842321319B00FF31C150C1182C3BC15025
:1015A0000433C250183BC25070BDC046FD1300103A
:1015B000A436011071130010036C9B6A836370479B
:1015C000436F9B6AC3637047F0B54E46DE4657468D
:1015D0004546A823E0B5C6583433C358070083B046
:1015E0008068994606F0C8FBBA6AFB6A04000D00E1
:1015F000002B11DD20002900801A9941002915DCFB
:10160000002900D17AE0BC62FD6203B0F0BCBB46A9
:10161000B246A946A046F0BD002BF4D1002AF2D074
:1016200020002900801A99410029E9DD88235B0008
:101630009A46B36ABA449B4605F0C8FC324905F0A5
:101640003AFC05F0CDFC5B463A6B00900191981A8C
:1016500005F01AFB2D4A2E4B05F0A1FA00222D4B66
:1016600005F083FA009A019B05F07FFA05F07CFBF8
:101670004B46796B9B6A061C581A994605F004FB89
:10168000224A234B05F08BFA0022224B05F06DFA1B
:10169000009A019B05F069FA05F066FB5B463B6327
:1016A0004B46311C7B638046B86B05F0EAFB534622
:1016B0009862504608F07EF95346DB68002B06D04E
:1016C0009C235B0001225046F95807F01BFF3E00A7
:1016D000F86B414605F0D5FB4136FF36B06230006D
:1016E00008F068F9F368002B00D18CE7B4235B00A5
:1016F00001223000F95807F005FF84E7064B9842B5
:1017000000D880E792E7C0465F708930C3718BB61E
:1017100065BCB93F008076403F420F00F22070B5B3
:10172000800006F0FBFC0300483303643433436756
:101730000200A023C066B032C0500833C2502C3320
:10174000C05034320833C2509E222C33C0500B3B61
:10175000FF3B52008350303283500023F02436493F
:101760000C328350083A8150043280504832835002
:101770003249043283500C32815004328350D03AC3
:10178000FF3A2F4D64000251083C055102250434F4
:10179000005148340351043403510C3401510434D2
:1017A000035110340551274D083C055104340051B4
:1017B00048340351043403510C340151A82104006E
:1017C0008900435071343C314350FF340C31445054
:1017D00044182C3944500431AA24425005000421F5
:1017E000A4000151D9357C340351FF350C34055127
:1017F00005192C3C0551DE2504340251183C0151D9
:101800007C3403512D3CFF3C0419AD004451461972
:101810002C3D465104354251183D41517C354351D0
:10182000F0239B00C450C4182C3BC4500433C25056
:10183000183BC15070BDC046B9150010A436011048
:10184000C1150010C9150010036A70B59C6A00210B
:10185000201C05F06DFBFE21431E984164006408C6
:1018600005008905201C05F06BFB002805D0074802
:101870002900012209F080FF70BD0549201C05F0F8
:101880001AFB05F095FB80B2F2E7C046FF0F00009F
:1018900000F07F45436D70B59C6A0021201C05F067
:1018A00047FBFE21431E984164006408050089053A
:1018B000201C05F045FB002805D007482900002220
:1018C00009F05AFF70BD0549201C05F0F4FA05F037
:1018D0006FFB80B2F2E7C046FF0F000000F07F45CB
:1018E00010B5012009F01AFF10BDC046A62070B542
:1018F000800006F013FC0300283303623433436591
:101900008023C0649022C0500023F8242D498350C6
:10191000083A815004328050483283502A490432B8
:1019200083500C32815004328350284DE73A0251E3
:10193000083C055102250434005148340351043455
:1019400003510C3401510434035110340551204D1E
:10195000083C055104340051483403510434035108
:101960000C340151DC2104004900435088344831D3
:1019700044500C3943500C3144182C394450043134
:10198000425004314354113C60314350FF3C0C3110
:10199000445044182C3944500431822442500421CC
:1019A000A40001517C3403510400A42359349B004A
:1019B000FF34C450C4182C3BC4500433C250183BED
:1019C000C15070BDE1180010A43601104918001074
:1019D00095180010F0B5C646C36A04009E6A816A75
:1019E00000B50700301C05F04FFA8823216A051C5A
:1019F000A062301C984605F05EFA616A061C281C3D
:101A000005F059FA011C301C05F03EFA43466037D8
:101A1000E050380007F0CEFFE36E002B05D04346C0
:101A200001223800E15807F06DFD80BCB846F0BDDA
:101A3000A02010B5400006F071FB03003433C362F0
:101A400098220023104980658350083A815004325F
:101A50008050483283500D49043283500C328150FB
:101A6000043283503C32835002003933FF339032CA
:101A7000C250C2182C3BC25001220433C250183B42
:101A80000332C25010BDC046D5190010A436011053
:101A9000962110B5104C8901200002F037FF022179
:101AA0001C2001F0ABFD02211D2001F0A7FD192033
:101AB00001F0D4FDD02380221B0692045A62A36950
:101AC000DB0607D41022A3691A42FCD12368A3695C
:101AD0001A42F8D010BDC046004003401A4A70B503
:101AE00093690400056ADB0602D500232B7070BDE4
:101AF0000020102193691942FCD11368DBB26228DF
:101B000004DC0D2B0DD02B540130F3E70D2B08D046
:101B100010210D4A93691942FCD11368DBB20D2BD9
:101B2000F8D1002326002B548425236A5C366351A8
:101B3000300007F03FFFA36E002BD8D00122300009
:101B4000615907F0DFFCD2E700400340F0B5C6461C
:101B500000B5836A9D6A436A2878984600283ED07B
:101B60000D23002220249C461E4F1F490026BB5FE8
:101B700083421BD08B691C42FCD108604046AB5CA1
:101B800083540132A85C002816D0642AEED1642365
:101B90009C460022BB5EE0440D2B12D12021124A4C
:101BA00093691942FCD10D2313600AE08B691C4232
:101BB000FCD163460B60DDE790440022BB5E0D2B39
:101BC000ECD02022084910008B6918401A42FAD143
:101BD0000D230B604346187080BCB846F0BD014F22
:101BE000EBE7C0465019002000400340A82070B524
:101BF000800006F093FA03003033836298220023BA
:101C000080242E4940658350083A81500432805028
:101C1000483283502A49043283500C3281500432B6
:101C20008350284DEF3A64000251083C05510225CB
:101C30000434005148340351043403510C3401512D
:101C400004340351103405511F4D083C0551043430
:101C5000005148340351043403510C340151E02144
:101C60000400490043503C314350F8340C31445097
:101C700044182C39445004314250793C04314254C8
:101C8000FF3C6C3144500C3943500C3144182C3912
:101C900044500431425004314354603143500100F8
:101CA000A62361319B00FF31C150C1182C3BC150AC
:101CB0000433C250183B0332C25070BD911A001059
:101CC000A4360110DD1A00104D1B00108823F0B55A
:101CD000076AC5583433C4583B7D466D83B0002B2A
:101CE0000CD1337D002B1AD12B7D002B28D1237DE5
:101CF000002B36D109F0D2FB03B0F0BD00238022C7
:101D0000002100200093103309F01AFB0123002268
:101D10000021B86A09F0EEF8337D002BE4D00023EF
:101D20008022102100200093103309F009FB0123C9
:101D300010220021B06A09F0DDF82B7D002BD6D0EF
:101D400000238022202100200093103309F0F8FAAC
:101D5000012320220021A86A09F0CCF8237D002B62
:101D6000C8D000238022009330210020103309F0D6
:101D7000E7FA012330220021A06A09F0BBF8B9E795
:101D8000084B10B51A78002A00D010BD01321A7025
:101D900009F036F8044809F02DF8002009F03CF865
:101DA000F3E7C046591900201C560110CA2070B52F
:101DB000800006F0B3F9030028330362343343652F
:101DC00002008023C0649032C0500833C2502C33CC
:101DD000C05034320833C2502C33C050F822002394
:101DE000B02430498350083A815004328050483240
:101DF00083502D49043283500C3281500432835079
:101E0000503AFF3A294D64000251083C0551043410
:101E1000005148340351043403510C340151DC2186
:101E2000040049004350F034483144500C394350C9
:101E30000C3144182C39445004314250043143547D
:101E400060314350A83C0C31445045182C39455062
:101E50000431822542500421AD0041517C3543516B
:101E60000C35445146192C3D465104354251183D1C
:101E700041517C3543510C35445146192C3D465156
:101E800004354251183D41517C354351C8239B00D4
:101E9000C450C4182C3BC4500433C250183BC1502A
:101EA00070BDC046811D0010A4360110CD1C00106D
:101EB000D0231B065A68120612D480225A61D023FE
:101EC0001B065A68D20112D4802252045A61D023D0
:101ED0001B065A68120112D4802212055A617047FB
:101EE00080229A61D0231B065A68D201ECD5802249
:101EF00052049A61D0231B065A681201ECD5802245
:101F000012059A61EBE7C04610B5072001F0A6FB69
:101F10001B2001F0A3FB182001F0A0FBD02380229E
:101F20001B065A62802212055A62802252045A62AB
:101F300010BDC046C02070B5400006F0EFF81C4A46
:101F400000230262802290241A498362C1674062A2
:101F5000C3660367184D83507F3A0251083C055110
:101F60000434005148340351043403510C340151FA
:101F7000E821040043503C31435088340C31445034
:101F800044182C39445004314250113C043142541D
:101F9000FF3C6C3144500C3959344350FF342039E4
:101FA0004450043142505432FF32835470BDC04615
:101FB000091F0010A4360110B11E001010B5002139
:101FC000002007F031FE10BD7047C0460A4B0121CA
:101FD0001A68002300B589B0069305930491029313
:101FE00001931C310833039100930021043B034803
:101FF00007F0EEFB09B000BD0813002050100020D0
:10200000014B03600120704750100020F0B5DE4600
:1020100057464E464546E0B5ADB0FEF721FBFE4BB8
:10202000002199468360FD4B00220362FC4B0500B2
:102030004362FC4B80278362FB4B0026C362FB4B51
:102040003F0603639923DB00C31819605A609A2284
:10205000D200831800214A46F54818605960D36DB4
:102060009522D2200021D200AA181A608000F14ADD
:102070002B186830A9501E605F602B1868301E60F6
:102080005F602B1868301E605F602B181E605F60F9
:10209000FEF772FE04004846A060022040428046DF
:1020A000434642464330FF3023507333FF33E25000
:1020B0003033E2504346B233A264E267E250343335
:1020C000E2504A46536EAA229200A2181A60DE22FB
:1020D00000219200A2185A60A1620021E1622163EE
:1020E0006163A163E16321648A46C121D24BC900C7
:1020F0002362636200226318002119605A60C221C2
:10210000C90063180021CD48186059604946CB6D5D
:10211000BD21C900621800215A60C94B2200E1505C
:10212000BA218900631868311E605F6063186831E6
:102130001E605F60631868311E605F6063186831FD
:102140001E605F60631868311E605F6063186831ED
:102150001E605F60631868311E605F6063184946E7
:102160001E605F60CB6F0C325B681A60FEF7C8FFC1
:102170004946802281604146B02381506032C1507F
:10218000815041621390FFF719F849464346816038
:10219000802143504146B233C1504346E23143505F
:1021A0004946020043624B6EE8329A6003002933CD
:1021B000FF331E605F609E66DF660190FFF7A8F840
:1021C00049464246816090210023425042630022EA
:1021D0008262C36203008B465146D833016241627A
:1021E0001E605F600690FFF793F84A4643468260A0
:1021F0005A468350524643630262426200230022E1
:102200008262C3620300D8331E605F600290FFF7F2
:102210007FF8494642468160594600234250426356
:1022200000228262C36203005146D83301624162D8
:102230001E605F600390FFF76DF94B46802283605C
:10224000434683504246B233C2504B4601005B6E58
:102250004262B830D8600B00F8331E605F609E6643
:10226000DF660091FFF75AFAFC239B050362FA230D
:1022700049469B05816043624146AC2341648167C6
:10228000C1503433C150002200238262C362026312
:10229000436303005246B133FF338263C2631E605F
:1022A0005F60862383469B005B441E605F60A023C3
:1022B0009B005B441E605F60FFF718FB4B4683602A
:1022C0004346436283654B4602005B6E88321A6167
:1022D0000300C8339E66DF661E605F6068339E66DB
:1022E000DF660790FFF7A4FB494681605946096AFB
:1022F000424601625946496A030041628C214250BC
:1023000002635246D03382621E605F600890FFF71E
:102310008FFB4A4682605A46126A8C2102625A46F4
:10232000526A03004262424642505146D033026331
:1023300081621E605F600490FFF758FC4A46434686
:10234000826088214A464350C362536E0200903235
:102350005A6102003B4BE93203623B4BFF3243625E
:1023600000211300002219605A600200F132FF328E
:10237000130000223549824619605A604A46D36DDF
:102380000200C932FF329A600200812300219B00C3
:10239000D032C1501660576068321660576096663A
:1023A000D7666832FFF702FD4A46826042464146E0
:1023B000426282658E328150343281504A46536E79
:1023C0000200F0329A6103003133FF331E605F6018
:1023D0009E66DF660590FFF7ADFD494602004B6E35
:1023E00020328160DA6103000200002100201133F5
:1023F000FF33186059601000002214490E90996054
:10240000DA6049460200CB6DF032DA609622002392
:102410005200835001001BE05010002048040020AF
:1024200034040020200400200C040020F8030020C5
:1024300040787D01E4040000CDCCCC3D809698002E
:1024400024060000901200202C12002080F0FA02D6
:10245000CC23273A9B00C831FF3A066647660E60D8
:102460004F600620EA5004212A00CF2705F038FEED
:10247000BF00E8512A000421062005F031FEB946CC
:10248000043FE8513E004C272A000421062005F0B5
:1024900027FEBC46CD23AC4467469B00E85014970A
:1024A00007607827BC46AC446746476015976F1DA8
:1024B000FF378760169798277F00BC46AE21AC4453
:1024C00067464900C76017978C46C427AC447F0015
:1024D0006146BC46AC44674647611997012764339F
:1024E00001612A00EF5018910120042105F0F8FD48
:1024F000E9229200A85004212A00012005F0F0FDF5
:10250000E821890068502A000421012005F0E8FD37
:10251000A4218C46E723AC4461469B00E850643319
:1025200001602A00EF501A910120042105F0D8FD26
:10253000FE4A0421A8502A00012005F0D1FD812285
:10254000D200A85004212A00012005F0C9FDF84B53
:102550002A00E850D0239C46AC44634603601B939A
:102560008D23DB00EF500421012005F0B9FDF14A75
:102570000421A8502A00012005F0B2FD8E21C900D7
:1025800068502A000421012005F0AAFDEA4B220030
:10259000E850853BFF3B9C46AC44634603601C937C
:1025A000B4239B00E7500421012005F099FDB723D7
:1025B0009B00E05022000421012005F091FDB6238C
:1025C0009B00E05022000421012005F089FD9421A8
:1025D00049008C46B523A444624626399B00FF3946
:1025E0008846E0500B920260A15122000131032085
:1025F00005F076FDD1239B00E0502200042103204A
:1026000005F06EFDD0239B00E05022000421032042
:1026100005F066FD4E46A051813EFF3EB446A444FF
:10262000664606601D968C26B600B446A4446646EF
:1026300046601E960B9E41468660E826B600A15174
:1026400022000131032005F04BFDEB239B00E050FD
:1026500022000421032005F043FDEA239B00E05003
:1026600022000421032005F03BFD0436A051453E25
:10267000FF3EB446A321A444890066468C46353902
:10268000A444FF3962468C46A444614681600A91A5
:1026900081214346C90006604260099263502200CE
:1026A0000421032005F01CFDA44B2200E05004216E
:1026B000032005F015FD8223DB00E05022000421F9
:1026C000032005F00DFD9949434660500A99099A87
:1026D00081608E21C900066042606350220004219F
:1026E000032005F0FDFC964B2200E050042103205E
:1026F00005F0F6FC8F23DB00E050220004210320CC
:1027000005F0EEFC9B238B4A0A99A050099ADB0046
:102710000660426081602200E750042101200F968C
:1027200005F0DEFC874E2200A0510421012005F0B7
:10273000D7FC9C23C426DB00E05022000421760055
:10274000012005F0CDFCB446A44466467E4B1096AD
:10275000E050066005266433E6502200042105207F
:1027600005F0BEFC794B2200E0500421052005F065
:10277000B7FCA923DB00E05022000421052005F06E
:10278000AFFC0F9A724B0A99E0500260099AC1603F
:10279000426010990B9A6433826001612200E65016
:1027A0000421052005F09CFC6A4B2200E050042126
:1027B000052005F095FCB623DB00E0502200042143
:1027C000052005F08DFC1099634B0022E05001615B
:1027D00088210F9E49000660099EBC2346600B9E1F
:1027E0005B0086600A9EC660019E032072504146CF
:1027F0003200F150013105F073FCC2235B00F05050
:1028000032000421032005F06BFCC0214900705008
:102810007D393200FF39032005F062FCBE2332000F
:102820005B00F0506832330002601F92C0220196B4
:10283000C83686602196069E983343600421B750BF
:1028400001203200209305F04BFCCC21B0467050A3
:102850003200C839012005F043FCC82641464246F3
:10286000885106910120042105F03AFCC421069B01
:10287000884658501900C022783101600298229190
:10288000875004210200012005F02AFCCC21029B84
:1028900058501A00C839012005F022FC02998851CD
:1028A0000A000120042105F01BFC4346C0220299C6
:1028B000C8507831016003982391875004210200A9
:1028C000012005F00DFCCC21039B58501A00C8399B
:1028D000012005F005FC039988510A000E00012033
:1028E000042105F0FDFB414603967050A423783681
:1028F00006602496E02002260021009A5B00115019
:10290000D6500431DE3805F0EBFBAA2300995B00BA
:10291000C8500A000220042105F0E2FBA823009918
:102920005B00C8500A00022018E0C0460C040000FA
:1029300004040000740400006C040000140400008F
:102940007C040000E4040000DC0400004C050000EE
:1029500044050000B4050000AC050000042105F0AA
:10296000BFFB0099A6230A005B00C8506831416094
:1029700098322691CC2102605B46002049005850D5
:10298000802359469B00C8506833CE5025920421BD
:102990005A46022005F0A4FB9D235E469B00F050A2
:1029A0005A460421022005F09BFB9C239B00F0501B
:1029B0005A460421022005F093FB9B239B00F05014
:1029C000AA219226490076005E445944066041607F
:1029D00027960020B026079A553BFF3B9051089E52
:1029E000D0506833D050C83BF750320028910130A6
:1029F000042105F075FB43463200F050042101200C
:102A000005F06EFBC0233200F0500421012005F0D8
:102A100067FBBC230896F050743606600498043BAC
:102A2000C750020004210120299605F059FB049BA0
:102A30004146984658501A00C039012005F050FB15
:102A40004246C0230421D050012005F049FB4346F3
:102A5000BC22049398507433036051462A9300209B
:102A6000B823C8506833CF5052460421012005F0E6
:102A700037FB962351465B00C85052460421012083
:102A800005F02EFB942352465B00D0500421012018
:102A900005F026FB922352465B00D050B43B5344D2
:102AA00003602B93C423514600205B00C8508C2147
:102AB00002000598490042500E9B68314250D039BF
:102AC00010009A645A5084238830AF65ED65EF504A
:102AD0002D50903388302F50ED5030302833EF5048
:102AE0002D5028302F5030332C30ED5080462F5051
:102AF00008002C33ED50E43B6F502C30ED502C335C
:102B00002F50ED50BD23CE209B00EF5080000433AA
:102B1000ED502B582A001F60AC39012005F0E0FA77
:102B200049466B582A001860CE2080002B5804219B
:102B30005F60012005F0D4FA49466B582A005860BE
:102B4000CE2080002B5804219F60012005F0C8FA98
:102B500049466B582A009860CE2080002B580421EB
:102B6000DF60012005F0BCFA49466B582A00D860A6
:102B7000CE2080002B5804211F61012005F0B0FAFF
:102B800049466B582A001861CE2080002B5804213A
:102B90005F61012005F0A4FA020048462B58059910
:102BA0005A610C9282228C4618689200624402603C
:102BB00094205A68800060441060E9209A68C00040
:102BC00021181160C838DA6821181B694830116073
:102BD000221840301A602318E8200C9A80001360F5
:102BE0002B582A001F600421012005F079FAE923FF
:102BF0009B00EB58A6211860059B89009C46614408
:102C000001608120C0002B582A001F600421012090
:102C100005F066FAFE4BB821EB5889001860059B59
:102C20002A009C46614401608E20C0002B5804217C
:102C30001F60012005F054FAF64B0126EB582200E4
:102C4000186096239B0053440360E4235B00E75025
:102C50009C279A200433E4507033E6500433E45048
:102C60002C33E650BF002C33E451E6500433E450DB
:102C70004000653B0D3F2650FF3BFF3F3430E450A2
:102C8000E65124504046A133FF33E35826503437F1
:102C90009438E45104211E605837FF3805F020FABB
:102CA000BC46B723AC4467469B00E35811971860B5
:102CB0000760D02080002358D127804622001E6064
:102CC0000421012005F00CFABF00E359220018602E
:102CD0004046235804215E60012005F001FAE359C3
:102CE000220058604046235804219E60012005F0D0
:102CF000F7F9E359019F8021BC461A6889006144B5
:102D00009860116000995B68119FD131FF311960A3
:102D10000760EA2080002358EB27804622001E60CF
:102D20000421012005F0DCF9BF00E35922001860FE
:102D30004046235804215E60012005F0D1F9E35993
:102D4000220058604046235804219E60012005F06F
:102D5000C7F9D42149008946E359053F1A68FF3F66
:102D60005F4498600C971760BC27A94449465B688C
:102D7000BF005F441F6001608220C000235880466E
:102D800022001E60042101200D9705F0A9F9A24F31
:102D90002200E359042118604046235801205E6058
:102DA00005F09EF9E359220058604046235804215B
:102DB0009E60012005F094F94946E3590C9F1A687A
:102DC000986017605B680D9F22001F6001608F2074
:102DD000C000235880461E600421012005F080F9C0
:102DE0008E4F2200E35904211860404623580120E9
:102DF0005E6005F075F9E35922005860404623589B
:102E000004219E60012005F06BF9E3590C9F1A68BC
:102E1000986017605B680D9F49461F609C23DB002C
:102E2000E358016022001E600421012005F058F9DA
:102E30008E2189008C467A4BAC44E35822001860FE
:102E400063460360A920C0001293235880461E6089
:102E50000421012005F044F9724F2200E3590421B6
:102E600018604046235801205E6005F039F9E359A7
:102E7000220058604046235804219E60012005F03E
:102E80002FF9E35922009860404623580421DE6060
:102E9000012005F025F9E3592200D8604046235867
:102EA00004211E61012005F01BF94946E3590C9FDE
:102EB0001A68186117605A680D9F17609A68119F09
:102EC000DB6817601960129B22000360B620C00007
:102ED000235880461E600421012005F001F9524F5D
:102EE0002200E359042118604046235801205E6007
:102EF00005F0F6F8E35922005860404623580421B3
:102F00009E60012005F0ECF8E359220098604046ED
:102F100023580421DE60012005F0E2F8E359220085
:102F2000D8604046235804211E61012005F0D8F8DE
:102F30004946E3590C9F1A68186117605A680D9F3B
:102F400017609A68119FDB681760129F1960D4227E
:102F50000760D823A8271398B9468067C0518650C8
:102F6000C050A420019F80467E67BF673E50484600
:102F70003F50D830BE50FF503A003B58C2278038EF
:102F80001E600421FF3805F0ABF801997F00CB5992
:102F90000A001860C02040000B5880385E60042191
:102FA000FF3805F09DF80199CB590A005860C02000
:102FB00040000B5880389E600421FF3805F090F8DF
:102FC000019BDB59069F1A68791CFF3198601160DC
:102FD00002995B684A1CFF321A60039A531CFF3344
:102FE00003608820C8233F50095007008421D3582C
:102FF00056500120D25180391E60170005F070F83C
:103000002100CC23D931FB58FF3118600EE0C046B7
:103010000C04000074040000140400007C04000090
:10302000E40400004C050000B405000001604146C6
:103030000098039746678067465049464050A8313C
:103040004358AA2788464D3902001E60FF390120E7
:1030500005F046F800997F00CB59186008004146FA
:10306000804643584D3902005E60FF39012005F06B
:1030700037F84346CE210093DB59890058601B681E
:1030800059441960E0218900594498230160584649
:103090005B00C6509A20594640000950B2201D37A7
:1030A0003033FF37CE50CB59400009505A461E608E
:1030B0000421012005F014F859460437CB595A462B
:1030C00018609C2080000B5804215E60012005F0F0
:1030D00007F85946CB59089958600F001B68F83714
:1030E0001F60049FF837076080270800CE518421B5
:1030F000804640503C31435802001E60BC390120DC
:1031000004F0EEFF4246C423D35807991860822387
:103110008C469B0063440360C0218423049808927A
:103120008046C651C050435802001E60BC39012081
:1031300004F0D6FF414643460491C4215B580799E9
:10314000186094238C469B00634403605046C66716
:10315000C0519420514640000B58283852461E60FA
:103160000421FF3804F0BCFF5146AC37CB59069F11
:103170001860A4239B00EB1803602800AC231D30CB
:10318000FF3060642C30A0672C30E050843834333A
:10319000E05020000D331530FF30FF33E850303061
:1031A0004C3BE85030309433E85034300300019801
:1031B00059460600543603623E6330363300029EA1
:1031C000079A33630600EA230398B43606635B006C
:1031D0006430E0508720009E800023183000543077
:1031E00033620300DC200B50584649468436465073
:1031F000932080002318584603649E2080002318E3
:103200005846089943671130FF30C86208006030A3
:103210001062584604994130FF30C862B5208000E2
:103220002B185046603151658362A2235C309B00AD
:10323000E85028000599383008622C3048652C3059
:10324000030088200B502800BC300300BC200B502A
:10325000D84B24985B6B229A586127981F9FDA609D
:103260009861239A28981F601A61209F299AD86133
:103270001D985F601A62219F2A9A98621E989F602B
:10328000D8625A620F9A269F1A63099A9F635A63FB
:10329000149A259F1A64159ADF635A64169A0127B7
:1032A0009A64179AC44EDA64189A7F421A65199A7A
:1032B000FA205A651A9A80009A651B9ADA651C9A58
:1032C0001A660B9A5A660A9A9A66109ADA662B9AC6
:1032D0001A67C82292000023A91801220A604B60D5
:1032E000C621890069180E604F60E22189006918C3
:1032F0000A604B60E0210127B04E890069187F42C7
:103300000E604F60FC21012789006918AC4E0A60ED
:103310004B607F42291870300E604F6029180700FB
:1033200008380A604B6084460121A648654449423A
:1033300028606960B0250126AD006119083D0A606A
:103340004B606119A04D76420D604E60CA25012682
:10335000AD006119083D0A604B6061199B4D7642D2
:103360000D604E60E425AD0061190A604B600121DB
:103370009748083D6519494228606960FE25AD00FF
:1033800061190A604B6001219248083D6519494264
:10339000286069608C25ED0061190A604B6001218D
:1033A0008D48E5194942286069609925ED00611949
:1033B0000A604B6001218948083D6519494228602F
:1033C0006960A625ED0061190A604B6001218448FF
:1033D000083D6519494228606960B325ED0061190F
:1033E000083D0A604B60AC4601210125019F7D48E4
:1033F0006444494220606160791CFF31724C0A606C
:103400004B606D4208390C604D6001256A4C613794
:10341000FF376D420A674B673C607D60069F7248CC
:103420003900B0310A604B600121A8374942386049
:103430007960029F01253C00A837B03422606360A8
:1034400038607960039F6D423C00A837B034226039
:10345000636038607960009F5B4C3900D0310A604E
:103460004B6008390C604D600125534C3137FF37F4
:103470006D420A674B673C607D605C46012789347A
:103480004E4EFF34226063607F42083C26606760D6
:1034900001274B4E7034226063607F42083C2660F7
:1034A00067609624A4005C44226063609424A400B6
:1034B0005C4401252000079E424C31006D420460AF
:1034C00045600125A031404C0A604B606D420839CF
:1034D0000C604D600A674B6701214448741CFF343F
:1034E00049422060616031007131FF310A604B60F8
:1034F0000121089F3E486936FF36494230607160BD
:103500003900A8310A604B6001213A484942A0378E
:1035100038607960049F01263C00A037A8342260FF
:103520006360386079605746274DA8373A607B6002
:103530007642083F3D607E600126244D70373A6038
:103540007B607642083F3D607E60059E70373A6042
:103550007B60083F38607960310001250931FF3117
:103560000A604B60184C711CFF316D420C604D605D
:103570000125144C6936FF366D420A674B670E9879
:10358000346075600125010001260F4C6D42046313
:1035900045630E4D8263C363A031983076420A6062
:1035A0004B60056046602DB0F0BCBB46B246A946F4
:1035B000A046F0BD501000200200FFFF0A00FFFFF0
:1035C0000B00FFFF0C00FFFF0000FFFF0100FFFFEB
:1035D0000400FFFF0500FFFF0600FFFF0700FFFFDD
:1035E0000800FFFF0900FFFF0300FFFF0E00FFFFC1
:1035F0000F00FFFF0D00FFFF7047C046094A830020
:1036000094464022634410B51C68C0006240C02448
:1036100014408022520113431C60034B9C466044BB
:10362000416010BD04C00140004001400A4B8000D1
:103630009C4604236044002901D00C230821002A61
:1036400000D10B00026853400C221A4080235B011A
:10365000184302607047C04604C001400123D022D5
:103660008340120693629361094A83009446402284
:1036700063441968C0004A40C021114080225201B1
:1036800013431960034B9C46052360444360704715
:1036900004C0014000400140024B18688007C00F81
:1036A0007047C04600C00640EFF3108072B6034A70
:1036B0001368002BFCD0BFF35F8F70472C0100D044
:1036C000BFF35F8F0022024B1A6080F310887047AF
:1036D0002C0100D070B5EFF3108C72B60D4D2B6835
:1036E000002BFCD0BFF35F8F0724CB08C618C05C4B
:1036F00001230C40A3401C000440034207D10343B4
:103700003370BFF35F8F2C608CF3108870BD100096
:1037100001F04CFC2C0100D0F8B54746CE46884657
:1037200080B5EFF3108C72B6214D2C68002CFCD0C4
:10373000BFF35F8F9A422CD8D4080727055D06197E
:1037400001241740BC402C421FD007210127894685
:1037500009E0D408055D06194C4639001440A14023
:103760000C00294211D001329342F2D20120404292
:10377000BFF35F8F00220E4B1A608CF31088002875
:103780000FDBC0BCB946B046F8BD2C431000347006
:10379000EEE7BFF35F8F00232B608CF310880120CE
:1037A00040424346002BECD0089801F0FFFBC04696
:1037B0002C0100D00021044B044ABFF35F8F02C3E9
:1037C0009342FAD17047C046000100D0800100D07A
:1037D000044A1078431CDBB2172B00D91023137056
:1037E0007047C0465C04002000B5054B83B0010063
:1037F000009318221F230348FFF78EFF03B000BD7C
:10380000303701107013002001238340002904D0B9
:10381000034A1360034A13607047034A1360FBE7CF
:1038200080E200E000E100E080E100E0024B1030C7
:103830009B688000C058704700ED00E070B50D0037
:10384000EFF3108672B60F4A1368002BFCD0BFF35B
:103850005F8F0D4B10309B6884001B590B4A9342BD
:1038600003D09D4201D001F0B9FB074B9B681D516D
:10387000BFF35F8FBFF35F8F0022024B1A6086F3A6
:10388000108870BD240100D000ED00E0CD010010D3
:10389000F0B5DE4657464E464546E0B50C0083B0CF
:1038A000EFF3108972B6584A1368002BFCD0BFF3AF
:1038B0005F8F564B9A68030010339F00D559544AC6
:1038C0009046954232D0A54243D0524EAA1B2F2A91
:1038D0002CD801228240924651464F4A126811402C
:1038E000019151464D4A1160BFF35F8FEFF305829E
:1038F0009346002A33D101232A009A4393689C42BD
:1039000008D177E04B005B189B00F3189968A1423F
:103910002AD01A00062151560029F3DA019B002B08
:1039200019D052463E4B1A603B4B1A60374B9B688E
:10393000DD51BFF35F8FBFF35F8F0022324B1A6000
:1039400089F3108803B0F0BCBB46B246A946A04636
:10395000F0BD1500EAE75246304B1A60E6E79342A5
:10396000C9D001F03BFBC6E706215956002921DBEF
:103970004A005018800034188046A0689860E079AA
:10398000D871062020569871002824DBA488F01AEC
:103990006405241544440019E0240005400D240268
:1039A0002043988052181F4B9200B6181A7819704D
:1039B000B271B3E7594600290FD1FF3191711A490D
:1039C000918018490A789A71184A9B1B5B415A43A7
:1039D000120D0A70A2E71648E3E7164A1649D21AF2
:1039E000083A5002400D01439980144952080A4395
:1039F000DA8093E70621515613000029B8DA5A46B7
:103A0000002AEAD14546DCE7240100D000ED00E0C1
:103A1000CD0100106004002000E100E080E100E042
:103A200080E200E05D19002001BDFFFFAAAA0000AE
:103A300001BD00009A04002000F0FFFF00F8FFFF26
:103A400070B5EFF3058101240443EFF3108C72B6D7
:103A5000214A1368002BFCD0BFF35F8F1F4B05007A
:103A60001F4AED1A6D416A43120D1E4D8900AE6862
:103A700052B27658A6421CD00621595691421CD00B
:103A800012215956914222D01E215956914220D0DE
:103A90002A2159560324914210D0134B19781A70D9
:103AA0008171BFF35F8F00220B4B1A608CF310887B
:103AB00070BDAB680D4C5C50EFE700246100091944
:103AC00089005B18FF21997109499980E5E7012474
:103AD000F4E70224F2E7C046240100D0600400208D
:103AE000AAAA000000ED00E05D190020CD01001041
:103AF00001BDFFFF054B064A1360064A1360536081
:103B00009360D360136153619361704780808080BC
:103B100000E400E004E400E070B504000E001500CD
:103B2000FFF756FE0100200000F006F8A680E580B1
:103B3000BFF35F8F70BDC046024B9C466144890055
:103B4000016070474000003410B50400FFF740FEEC
:103B500001002000FFF7F0FFFF232371BFF35F8F09
:103B600010BDC04610B50400FFF732FE0100200072
:103B7000FFF7E2FFFF23A380BFF35F8F10BDC046B6
:103B800010B504000120FFF72FFE044B9C46604453
:103B900080002060BFF35F8F10BDC046400000343E
:103BA00083680B4810B584466144624409011201E0
:103BB0009A18591854684B6801209C4201D802D0C9
:103BC0000020C0B210BD12680B689A42F9D8F7E71E
:103BD000FFFFFF0F0A4B1968EFF3108072B60A68F7
:103BE000002AFCD0BFF35F8F1B68BFF35F8F0022FA
:103BF0001A6080F3108840BF002000217047C04643
:103C00003C190020F8B557464E464546DE46E0B51D
:103C100099460CAB1C780DAB1B78060090469A4673
:103C20000768002C11D1BC7B002C42D065003B689A
:103C30002D19033D59194B78BB73002B00D1FB7331
:103C400000238B704B700B7004E065003B682D19EE
:103C5000033D5919B2682A4B94464246E3181B01AA
:103C600063441A604A465A600A9A9A600B9ADA606C
:103C700000238B704B700B707B7B9B46002B2BD0F3
:103C800022005946B8687B6898473A68002816D0E1
:103C90005B4658465B005B445519033BA870D1183E
:103CA000D35C002B00D06B705B460C707B73A3451C
:103CB00013D0F0BCBB46B246A946A046F8BD5B4651
:103CC0005B005B44033BD3189C705119525D002A82
:103CD00000D05A705B460B707C7342464B46307D79
:103CE00000F0B2FB051E06D05346002B03D1210085
:103CF000306800F0CDFD0E9B002BDAD01D70D8E7A8
:103D0000FFFFFF0FF0B5DE4657464E4645460023FF
:103D1000E0B58BB00893674B8200D45800239B46D4
:103D2000099000F007FB626806000F00EFF31085B2
:103D300072B61368002BFCD0BFF35F8F23689C46DC
:103D40005B7B9946002B00D169E0A2685A4B9046F4
:103D50004B441B01984443461A685B6810001900E5
:103D6000801BB941002900DC63E0099800F06CFB7E
:103D700000230022984600230692079300239A46C8
:103D80006368BFF35F8F5A461A6085F31088534605
:103D9000002B08D10028C4D10BB0F0BCBB46B24602
:103DA000A946A046F0BD089B414618024B46184361
:103DB000D047626806000F00EFF3108572B61368F3
:103DC000002BFCD0BFF35F8F002F50DB33003B4351
:103DD00002D02369002B61D12368D97B002907D049
:103DE0004A00521819688C4649466244033A517099
:103DF0009A7B002A01D14A469A734A46DA734B46A7
:103E0000E168013BCA5C0132CA545B4623616368C6
:103E1000BFF35F8F5A461A6085F3108881E700234D
:103E200000229846002306920793002300209A461A
:103E3000A6E7002902D1002800D096E700216046BD
:103E400000F0A4FC43461A685B6806920793434659
:103E50009B689A464346DB689846E3684B44013BBF
:103E60001B7808931B0203432361002088E7236922
:103E7000002BB1D0069A079B921BBB41002B15DB90
:103E8000594604910121039149460291414601910D
:103E9000514620000091FFF7B5FEB6E700F04AFA60
:103EA00032003B0012184B41002BE9DA0122034B90
:103EB0005242E5E724180020FFFFFF0FFFFFFF7FBE
:103EC00010B5144C6368002B04D00A211248FFF788
:103ED00033FE10BD2300114A1021206800F070FB52
:103EE000032000F01BFA032000F018FB03200C490C
:103EF00000F064FAFFF76CFC0A4B9C460323237521
:103F0000D0231B061B6860446375074B800060600C
:103F1000DC60DAE7A80400203C190020A13B001077
:103F2000053D00104000003424180020F0B54E4636
:103F30004546DE465746E0B585B0019310AB1B7889
:103F40000600039300239946984600927268EFF3A7
:103F5000108B72B61368002BFCD0BFF35F8F3568EF
:103F6000AC7B002C3DD067002B683F19033FDB1969
:103F70005A78AA73002A00D1EA73B168474A8C467E
:103F800000980199A21812016244106051600E99C4
:103F900091600F99D16042469A705A701A706B7B8B
:103FA0009A46002B67D022001900A8686B689847D2
:103FB0002A68002852D0534650465B005344D71914
:103FC000033BB870D118D35C002B00D07B705346F4
:103FD0000C706B7354454FD0F3681B19013B187874
:103FE00000E000207368BFF35F8F42461A608BF3D6
:103FF0001088002C4FD04B46002B08D100022043E4
:1040000005B0F0BCBB46B246A946A046F0BD039B36
:10401000002B3ED00E9B00200F9998470300040010
:104020000D000B4335D000290ADA009A019B121BC0
:10403000AB4100920193002B0ADB039B994685E775
:1040400000F078F924184D4100940195002DF4DA20
:104050000123134C5B4200930194EEE753465B004F
:104060005344033BD3189C70D119D25D002A00D071
:104070005A7053460B706C73307D009A019B00F0B0
:10408000E3F981460028A7D02100306800F000FC49
:10409000A2E70020B4E701204042B1E7FFFFFF0F95
:1040A000FFFFFF7FF0B504000D0006267642F717EC
:1040B000C64636196F4100B584B08F4214D811D06E
:1040C00000F038F932003B00121A8B41002B15DC4E
:1040D000002B3ED02000290000F060F904B080BC25
:1040E000B846F0BD8642EBD90026002700F022F941
:1040F00032003B00121A8B41002BE9DD00230293B2
:104100000193154B3200009314483B00FFF70EFF5C
:104110000028DFDB00239846BC46114A114F7B6A1A
:104120009C4504D8B96A8E42D4D99C45D2D1116835
:10413000EFF3108072B60B68002BFCD0BFF35F8FDB
:104140001368BFF35F8F4146196080F3108820BF6A
:10415000E5E7002ABED0D1E7D53B0010A804002037
:104160003C1900200040054070B504000D0000F02F
:10417000E1F800196941002902DBFFF793FF70BDE8
:10418000012001494042F8E7FFFFFF7FF0B5EFF360
:104190000583CE46474680B505000C0085B0002B50
:1041A00012D02C4A0020536A9C4203D8926A0130F4
:1041B000AA4204D305B0C0BCB946B046F0BDE01A6F
:1041C000421E9041C0B2F5E7234E02930193234B68
:1041D0000200009330000B00FFF7A8FE031EE0DD95
:1041E00020BF7168EFF3108772B60A68002AFCD00E
:1041F000BFF35F8FDAB294463068427B62451DD0D0
:10420000FF221A4051008946016891448846494678
:10421000414403398978002913D0F1681B0A884684
:104220004244013A1278DBB29A420FD07368BFF36E
:104230005F8F00221A6087F31088B2E7FF221A40CE
:10424000EBE732699342F1D13161EFE7614600F06B
:104250001FFBEBE700400540A8040020D53B001001
:10426000F0B5EFF30582D6464F4646461000C0B57E
:104270001038EFF3108872B6214C2368002BFCD065
:10428000BFF35F8F0123190081401E4D1F0069633A
:10429000AA461D4D29601D4D2E78AC463500C540FF
:1042A0002F402B4209D1BFF35F8F276088F310881E
:1042B000E0BCBA46B146A846F0BD5346144D5F6A0D
:1042C00083005D59AF420ED3124A8E439B5862461B
:1042D0001670BFF35F8F0022226088F31088002BD6
:1042E000E6D09847E4E70C4B92009C466244136882
:1042F0001360BFF35F8F0023236088F31088D7E734
:10430000280100D0004005403C7005405F190020A6
:104310004019002038130020D03F054010B501009F
:10432000024A0348FFF7D6F910BDC04658370110BE
:104330005B190020034B596A0A00986A596A8A423D
:10434000FAD170470040054070B504000D00124AD4
:10435000536A1900966A536A8B42FAD130001900E9
:1043600024184D41AB4211D80ED02B000A494A6A9D
:104370009A42FCD307D1084A02E0516A994202D11D
:10438000916AA142F9D370BDA642EED9012301245E
:104390006442E5175B42E9E700400540064A536A7C
:1043A0009942FCD807D1044B02E05A6A914202D1EB
:1043B0009A6A8242F9D370470040054070B5040004
:1043C0000D00EFF3108672B61A4A1368002BFCD06A
:1043D000BFF35F8F002D1BD02000FFF727FA16498F
:1043E00081420AD02000FFF729FA01212000FFF7BF
:1043F0000BFA0123A340114A1360114BA400E550AE
:10440000BFF35F8F00220B4B1A6086F3108870BDDC
:104410000B4BA200D5500122A2400A4920000B7884
:1044200093430B700449FFF733FA00212000FFF794
:10443000EBF9E5E7280100D0614200103860054043
:10444000381300205F190020F0B54F46D646464687
:10445000C0B507002C4C616A0D00A66A616AA942CA
:10446000FAD18B4208D805D00120E0BCBA46B1464B
:10447000A846F0BDB242F7D9EFF3108A72B62348CE
:1044800001680029FCD0BFF35F8F0125BD402049A2
:104490001D4C8846097889462943C9B28C46414655
:1044A00060460870391D1B48890065630A51B900D0
:1044B0000B50216A0020294219D0616A0800A66ABF
:1044C000616A8142FAD18B4219D801D1B24216D821
:1044D000CC4516D00C4B1F201D625D6301230740A5
:1044E000BB400D4A1E38136043464A461A70BFF35C
:1044F0005F8F0022054B1A608AF31088B5E7002011
:10450000F5E70120F3E7C04600400540280100D050
:104510005F1900204019002080E200E0EFF3108CCA
:1045200072B60A490B68002BFCD0BFF35F8F0123E2
:104530008340074A0748136202789A430270BFF328
:104540005F8F00230B608CF310887047280100D028
:10455000004005405F19002070B5050014001600EA
:10456000002915D00C00002A12D080686B6898478B
:10457000296800280ED073009B196200033B1219B2
:10458000CB18033A9C7088188A5C002A15D10670F3
:10459000200070BD63001B197200033B9219CB18F9
:1045A000033A9E7088188A5C002A02D10470340095
:1045B000EEE75A7004703400EAE75A700670E7E7D5
:1045C00030B583600023CCB243730133047342607F
:1045D0008373C4730D000068012C06D9421C01339B
:1045E000DBB2137003329C42F9D1FF2129404B000A
:1045F0005918002340180338437030BDF8B5CE4633
:10460000474606000C0080B5002907D04D0003681E
:104610006D18033D5A195778002F04D12000C0BCF3
:10462000B946B046F8BD7900C919033988464344F4
:104630005978894600215970517073683A002100F9
:10464000806898473368002814D042469A189470BE
:1046500059195B5D002B00D053700F70270049463D
:104660003000FFF7CBFF390002003000FFF774FF86
:104670000400D3E7424641465D19AF709A185B5C6F
:10468000002B00D06B701470E9E7C046F0B55746B8
:104690004546DE464E46E0B50D006B0001685B19ED
:1046A000DF1E0400C85D83B00192CA19002850D0F3
:1046B00043001B18033BCB185E78B446002E1AD17A
:1046C000019E002E42D0E67B002E04D073009B1981
:1046D000CB18033B5D70A37B002B00D1A573E57362
:1046E00000282FD10023537003B0F0BCBB46B24664
:1046F000A946A046F0BD72006244033A89184A7880
:10470000904600224A7091465A7001003200200003
:10471000FFF722FF43468246002B07D05B0021684B
:104720004344033BCB185A78002A16D142465146DF
:104730002000FFF711FF2168019BCA19002BC2D18D
:104740000028CFD043001B18033BCB1800219970E1
:10475000C8E7019B002BB6D1C4E75000801803388E
:1047600009184878834648464870587041462000EA
:10477000FFF7F2FE594680462000FFF73FFF414613
:1047800002002000FFF7E8FE8046CFE7F0B557466D
:104790004546DE464E46E0B583B00191457B0400B8
:1047A0006B0000685B19DF1EC15DC219002952D081
:1047B0004B005B18033BC3185E78B446002E1CD137
:1047C000019E002E44D0E67B002E04D073009B197E
:1047D000C318033B5D70A37B002B00D1A573E57369
:1047E000002931D1002328005370617303B0F0BC5D
:1047F000BB46B246A946A046F0BD72006244033AE9
:104800008018427890460022427091465A702000EB
:104810003200FFF7A1FE43468246002B07D05B0023
:1048200021684344033BCB185A78002A17D14246EB
:1048300051462000FFF790FE019B01002068C2193D
:10484000002BC0D10029CDD04B005B18033BC3180F
:1048500000209870C6E7019B002BB4D1C2E750003E
:1048600080180338091848788346484648705870BD
:1048700041462000FFF770FE594680462000FFF7B2
:10488000BDFE414602002000FFF766FE8046CEE7EF
:1048900070B5040000292CD0437B8B422ED00568D4
:1048A00048004018033828188278002A21D0530085
:1048B0009B18033BEA5CEE188A4202D11BE0002AF7
:1048C00008D053009B18033BEB185A788A42F6D164
:1048D00042785A7000230122837043702000FFF752
:1048E000D5FE617B02002000FFF736FE60730120D9
:1048F00000E0002070BD43783370EBE7012219001F
:10490000FFF7C4FE60730120F4E7C046F8B5CE4659
:104910004746040080B506200E0000F023FA051E6D
:1049200051D0524B5249E21853425A418023DB0383
:104930009C4692054F4B62441A604F4B1A60100020
:104940008B689843FBD1494B8021E3185A4253416D
:104950004A4A5B0049009952062000F003FA3100F0
:10496000C00001F0BDFEC30932D1402201219046B2
:104970006162A362256BEB0736D427008026E36AC9
:1049800000232C3776013E4333600620256300F078
:10499000E9F94146800001F0A3FE236B050098462B
:1049A000DB073BD46022E36A5A406E231340336036
:1049B00043462363802310229B013B431A60304B04
:1049C00023630323A3642800C0BCB946B046F8BDE6
:1049D0002C4A93423FD900232B492C4A6162A3629F
:1049E000256B9046EB07C8D52200C02330329B01CF
:1049F0001343234A06201A60666AA26AB601B618F3
:104A000000F0B0F9224901F06BFEB602010030005F
:104A100001F066FE0021FFF797FCAEE72200C023FD
:104A200030329B011343164A06201A60636AA26A59
:104A30009B019946914400F095F94B4614499B021D
:104A4000994601F04DFE0100484601F049FE002163
:104A5000FFF77AFCA6E77F229901884610400130D3
:104A6000400819008044030082E7C0460080FCBF74
:104A700000C0004000E0004000F00040501900205D
:104A800001030000FEFF0000FFFF0000C0FF3F0029
:104A90004E0E000030B50C2083B000F0B9F9FEF7DF
:104AA000FBFD00280ED0994B994A1A605A609A6013
:104AB000DA601A615A619A61DA611A62954A5A6239
:104AC00003B030BD944CA06700F0AAF90122934BCB
:104AD0001A60636C012BFCD10322914B1A608E4A41
:104AE000936B012BFCD1013301218E4A8E48009338
:104AF000043300F03DF905238C4A009301218C48D2
:104B000000F036F98B4B5A68FF2A02D880225200F7
:104B10005A6080227D4C824B21691201854D1A60BA
:104B2000002907D0606901F0DBFD431C5800C01864
:104B30000338FDD2E0217F4B02201A681140802209
:104B400052012A4311601968484003210140116055
:104B500004219A681142FCD08022802192012A43CC
:104B600009011160802252005A60734B2361734B1C
:104B70005968FF2900D85A600321684A6F4B1160B9
:104B800002399A681142FCD0E0201A681040802255
:104B900052011A4310601868484003210140022066
:104BA000116066498A681042FCD08022920113434A
:104BB000802212011A608022614B52004A606361B8
:104BC000604B5968FF2900D85A6080225E4BE1692A
:104BD00012015C4D1A60002907D0606901F080FD68
:104BE000431C5800C0180338FDD2E02255490B6819
:104BF0001A4080235B012B431A60802380229B0193
:104C00002B4312011A608022414B52004A60E3613B
:104C10004E4B5968FF2900D85A6080224C4B216ABC
:104C200012014A4D1A60002907D0606901F058FD51
:104C3000431C5800C0180338FDD2E02243490B68DA
:104C40001A4080235B012B431A60802380229B0142
:104C50002B4312011A60802380225B004B602C4B97
:104C6000D20223623B4B5968914200D25A608022A3
:104C7000394B616A1201374D1A60002907D060690B
:104C800001F02EFD431C5800C0180338FDD2E0226D
:104C900030490B681A4080235B012B431A60802344
:104CA00080229B012B4312011A608023DB024B60A0
:104CB000184B6362294B5A68FF2A02D8802252009F
:104CC0005A608022264BA1691201244D1A600029E6
:104CD00007D0606901F004FD431C5800C018033878
:104CE000FDD2E0221D490B681A4080235B012B4353
:104CF0001A60802380229B012B4312011A608023BB
:104D00005B004B600E4BA361DAE6C04674130020D3
:104D1000006CDC021BB70000008000403CB000408B
:104D200030B00040002F685900800240008C864758
:104D300000C0024030800040001BB7003C800040B3
:104D4000405973075480004054B0004060800040D8
:104D500060B000406C8000406CB000404880004073
:104D600048B00040014B8000C058704774130020C9
:104D7000F8B5040021481D0017000E0001F0B0FC3A
:104D80000100380001F0ACFC069B29041B03194309
:104D90002368002B20DB1A4B1A4DE21853425A416C
:104DA00080235B019C461203174B62441A60174B29
:104DB0001A601700AB689F43FBD1C022231D9201EC
:104DC0001A4321232660A06013602368002BFCDABD
:104DD0000823E1601360F8BD3F2322681340B3420B
:104DE000D9D1A3681B051B0D8342D4D1EE22E36801
:104DF000D20213408B42CED1EDE7C046001BB70074
:104E00000040FDBF00C0004000E0004000F0004056
:104E10008023024A9B000343D36270470080054011
:104E2000AA23064A1B0113602F230549D360054BB3
:104E300019605368002BFCDA7047C04600400240FE
:104E400000B0FA00006002402C4B2D4A70B51A6089
:104E50002C4A2D4B2D491A6014008B689C43FBD1C2
:104E60002B4D2C4EB54208D2013E761BB60808CD1C
:104E7000984723000134B342F9D1FFF70BFE264ACD
:104E8000214B1A60214A9368DB43DB01DD09002BCB
:104E9000F9D14022214B224C224E9A675A671A6759
:104EA000DA66B44208D223682000002B20D00834F0
:104EB000FEF758FEB442F6D31B4E1C4CC022A1682C
:104EC000300002F0A1F9A660FEF774FCFEF712FEB6
:104ED000FEF7F6FF164C174EB44208D2013E361BC1
:104EE000B60808CC98472B0001359E42F9D170BD19
:104EF0000834FEF729FEB442D5D3DDE700E00040D8
:104F0000BFCDFBFEFE7F3C0000F0004000C0004033
:104F1000200F0020300F0020FFFFFF0100F00140B4
:104F2000100F0020200F00200000002000ED00E006
:104F3000300F0020340F002000BEFDE7094A0300B7
:104F40001068002805D00849C3188B4207D81360A1
:104F5000704706480449C31810608B42F7D90120F6
:104F60004042F5E7EC170020000004206019002003
:104F700010B5FFF7E1FFC04610B50C0082B0190074
:104F8000002A0AD0064B0192009302002300054834
:104F900001F00CFB0120FFF7CFFF034B1A00F2E7F3
:104FA0007C3701108C370110683D01100FB400B53B
:104FB000084883B002F08CFA049B002B07D005A9A7
:104FC0001800019101F012FB034802F081FA012060
:104FD000FFF7B2FFBC370110243F011010B50148A4
:104FE000FFF7E4FFCC3701109A4200D28854704793
:104FF0007047C046F8B557464E464546DE46E0B5D2
:1050000099460A9B07009A460D9B884693461500D1
:105010000B9E9B0710D10C9B9E420DD29D1B140032
:105020000E005D4422004B46013431002020B84779
:10503000A542F7D1B0460B9E002E27D044467519E5
:105040005346AA1B013E985D21004B46B847002EEF
:10505000F6D123002C0098460D9B9B070FD55B468D
:10506000E51A0C9BAB420AD94646984622004B46AD
:10507000310020200135B8470134A845F6D820007A
:10508000F0BCBB46B246A946A046F8BD2C00E3E7FB
:10509000F0B54F464646D646C0B584B098460EABEE
:1050A0001B78129F994694460D9C109B119EBA073F
:1050B00025D4002E4BD19C4200D3BFE001223A40C0
:1050C00092461F2C00D9B8E00C9A551E302201E000
:1050D000202C03D001342A55A342F9D85246002A85
:1050E0000DD0A6420BD9202C44D00C9A551E30224C
:1050F00001E0202C3ED001342A55B442F9D1FA0601
:105100004DD57A053FD4002C39D10F9B102B00D1FF
:1051100079E00F9B022B00D18AE030230C9A012406
:1051200013704B46002B3FD02D230C9A135501349E
:105130000C9B624600930397434602960194FFF747
:1051400059FF04B0E0BCBA46B146A846F0BD012202
:1051500015003D40AA463A422FD04A46002A02D1C5
:105160000C323A4200D0013E9C42BAD21F2CABD93D
:10517000202E27D92024FA06DAD57A0503D4A342B3
:105180002DD0A6422BD00F9B102B32D0022B20D03B
:10519000202CCDD030220C9B1B191A700134202CEE
:1051A000C6D04B46002BBFD17B070DD43B07BFD5E4
:1051B00020230C9A13550134BAE79C429FD21F2C2E
:1051C00000D881E720249AE72B230C9A1355013449
:1051D000AEE7202CACD00C9B1B1901343AE0631EC7
:1051E000012C92D00F9A102A2AD0022A2FD01C000C
:1051F000D0E7BB060ED4202C9AD00C9B1A19013490
:1052000078231370C4E7BB060DD478230C9A0124CD
:105210001370BFE7202C00D18AE758220C9B1B1982
:105220001A700134B4E758230C9A01241370B1E7C3
:105230000C9A603301241370ACE7202400265EE74B
:10524000023CBA06E9D40C9A12191C00D8E70C9A51
:105250009246534462221A709AE7C04610B500285D
:1052600000D110BD02F0E8F8FBE7C0460B0010B516
:10527000002802D049681B68984710BDF0B5DE468B
:1052800057464E464546E0B59BB09B46249B894613
:105290009846259B0B900C924046424619009A4630
:1052A00001F0DFFC002800D0D8E001224046514642
:1052B000774B524201F0D0FC002800D0CEE0012212
:1052C00040465146734B524201F0B0FC002800D0DA
:1052D000C4E0002200234046514601F0A7FC00280C
:1052E00000D0B9E1424653460A9209938023289A96
:1052F000DB001A400E92289A1A4201D10623269307
:105300000A9A099B1600134300D0C7E0289B00258A
:1053100000261B0500D49BE100230D93269A0D9BCC
:105320009A4200DC9FE1D01A431E26938023289ADC
:10533000DB001A430023002728920D93279B0024AB
:10534000BB4200D9DC1B0223289A1A400E92289AED
:10535000134203D07B427B415B421C400D9B002BE0
:1053600007D00A9809992A00330001F0FEFB0A9041
:105370000991002200234046514601F057FC0028C5
:1053800005D0802000068446099961440991289A35
:10539000414B0B9D13400493269B0A9A0293099B51
:1053A00003940092019349465B4628000C9A00F052
:1053B0008BF90400002F62D0289B220098061F233F
:1053C000C0179843631C984649465B466530A8471A
:1053D0000D9B0025DA179C18DB0F9A465440013FBD
:1053E00001E0202D13D00AAA94461F232000634415
:1053F0000A2101355E1901F073F930313170200056
:105400000A2101F06DF926000400092EE9D80523D0
:105410000693002304930A330393534605970B9F87
:10542000029312AB009342465B4649463800019511
:10543000FFF72EFE0E9B0400002B20D00C9BC51AFC
:10544000279BAB421BD91E0022005B464946202009
:105450000135B8470134AE42F6D810E0289B4246E9
:105460000493279B49460393269B0B98029353462C
:10547000009201935B460C9A00F026F9040020008C
:105480001BB0F0BCBB46B246A946A046F0BDC04624
:10549000FFFFEF7FFFFFEFFFFFF7FFFF734B099F5A
:1054A0009C467800400D604401F0EEFB704A714B61
:1054B00001F075FB704A714B01F052FB3B03704ADF
:1054C0001B0B1A4304000D00300011006D4B00222D
:1054D00001F041FB6C4A6D4B01F061FB02000B00D7
:1054E0002000290001F03CFB01F0E6FB0D9001F0EB
:1054F000CBFB674A674B04000D0001F050FB002214
:10550000654B01F02DFB01F0D7FB644A0600644BAC
:105510002000290001F043FB040030000D000F962D
:1055200001F0B2FB5F4A604B01F039FB02000B0057
:105530002000290001F00FFB02000B0006000F0005
:1055400001F02DFB320004000D003B00300039005B
:1055500001F006FB002210901191544B200029000D
:1055600001F003FB0022524B01F0FAFA02000B009B
:105570002000290001F0F9FA00224E4B01F0F0FA68
:1055800002000B002000290001F0EFFA0D0080213D
:10559000040032003B000020C90501F0DCFA0200E3
:1055A0000B002000290001F0DBFA02000B0010982C
:1055B000119901F0DAFA0022314B01F0D1FA3E4B99
:1055C0000F9C9C4664440022230501F0E8FA050084
:1055D0000E0002000B000A98099901F027FB002831
:1055E0000AD00D9B2800013B31000D930022304B67
:1055F00001F0BBFA05000E00C6270D992B006331A0
:105600008F42BF4128997F420437090500D495E6AF
:10561000334300D182E6099C284A2100284B0A988E
:1056200001F012FB002808D000222100254B0A9827
:1056300001F0FCFA002800D070E6269B002B00D178
:105640007CE60E9B5A1E9341269AD31A269375E642
:10565000002304270D9371E643460A9380231B061B
:105660005344099342E6002326935FE601FCFFFFC3
:10567000FB799F501344D33FB3C8608B288AC63F41
:105680000000F03F0000F83F61436F63A787D23FFF
:1056900071A379094F930A400000E03F1655B5BB4E
:1056A000B16B0240EF39FAFE422EE63F00002C407B
:1056B0000000244000001840FF0300002D431CEBB5
:1056C000E2361A3F80842E41F0B54E46DE465746FC
:1056D0004546E0B597B09946209E219F229B834680
:1056E000984607910C923B0032003000390001F0DF
:1056F000B8FA002800D0A9E1012230003900CA4BD5
:10570000524201F093FA002800D0E1E0012230007B
:105710003900C64B524201F09FFA002800D0B7E092
:10572000002230003900C24B01F096FA002800D068
:1057300099E0002230003900BE4B01F077FA0028D2
:1057400000D090E0002200233000390001F06EFA12
:10575000002800D0B1E000230D93249B5B0501D409
:105760000623984608AB9C46172200243023414666
:10577000624404E0013413550139202C01D0092979
:10578000F8D888463000390001F096FA4346DA002E
:10579000A94B05009B181A685B680892099301F0F1
:1057A00073FA02000B003000390001F0D4F9089AB6
:1057B000099B01F0F4F90A900B9101F0A1FA8246DD
:1057C00001F05EFA02000B000A980B9901F0C3F990
:1057D00000229A4B0A900B9101F03EFA002800D16A
:1057E000C0E001239C46E244504601F049FA020021
:1057F0000B000898099901F01FFA002802D0002335
:105800009A4601354346002B6AD008AB17269C46C2
:1058100008956644554614E001235B4243440A213F
:1058200028009A4600F05CFF013430313719397096
:1058300028000A2100F054FF092D00D8D0E0D046FE
:105840000500202CE8D10EAB98460323249A134080
:10585000012B00D196E02023249A01930392239AEE
:10586000434602921EE0249B58460493239B0096D5
:105870000197039343460C9A029307994B46FFF70F
:10588000FDFC17B0F0BCBB46B246A946A046F0BD31
:10589000249B5B070ED40322694B24990192039148
:1058A00023990291009358464B460C9A0799FFF7AB
:1058B000A1FBE6E70422634BEFE73B003200002048
:1058C000002101F048F9012306000F000D9344E781
:1058D000249B0393239B0293042301935A4BE1E7F8
:1058E000280001F0D1F902000B003000390001F06E
:1058F00032F9524B002206000F0001F097F90EAB6F
:10590000984600280AD10022300039004B4B01F0A4
:10591000A3F9002802D1EB0700D50135202C94D043
:1059200008AA94461723280063440A2101341E194B
:1059300000F0AEFE3031280031700A2100F0A8FEE0
:10594000051EEBD10323249A1340012B1BD0202CDE
:1059500000D180E70D9B002B35D02D224146631CE2
:105960000A5579E700220A980B99344B01F05EF949
:10597000002800D046E75346002B51D101239C4616
:10598000E2443FE72024239B002BE0D00D9B002B1B
:1059900003D1249A0C33134202D0239B013B23935F
:1059A000239BA342D3D908AB9C46172230236244E1
:1059B000202C00D14FE72399013413558C42C6D0D7
:1059C000202CF8D147E7249B5B0724D4249A23009A
:1059D000120700D440E72022414601330A553BE735
:1059E0005746089D202C00D12DE72200302140464B
:1059F000002F09D00132B154202A00D123E7D3432C
:105A00001B191B18002BF5D10EAB98462E234146CF
:105A1000541C8B5482E72B224146631C0A551BE71A
:105A2000DB0700D4EEE6A9E7FFFFEFFFFFFFEF7F04
:105A300065CDCD4165CDCDC1D03901100000E03F2D
:105A4000D8370110DC370110E8370110249B03938D
:105A5000239B029303230193004B23E7E4370110B8
:105A6000F0B5DE464E4657464546E0B59FB01C00B1
:105A7000289B91460993C94AC94B8B4608901A60E6
:105A8000002900D118E2002320789A46002800D18E
:105A90001AE226001D005C460AE02A006F1C4B46F5
:105AA000089D2100A8473D0001363078002870D0BD
:105AB0002528F2D110239B46083B9A46043B984682
:105AC000023B00219C46721C107816000300203B0C
:105AD000DBB2102B03D8B34F9B00FB589F4603004B
