:020000041000EA
:1000000000B5324B212058609868022188439860DF
:10001000D860186158612E4B002199600221596106
:100020000121F02299502B49196001219960352056
:1000300000F044F80222904214D00621196600F024
:1000400034F8196E01211966002018661A6600F04E
:100050002CF8196E196E196E052000F02FF8012189
:100060000842F9D1002199601B49196000215960AB
:100070001A491B48016001219960EB211966A021F2
:10008000196600F012F800219960164914480160C1
:100090000121996001BC002800D000471248134993
:1000A000086003C880F30888084703B5996A0420EC
:1000B0000142FBD001200142F8D103BD02B5186610
:1000C0001866FFF7F2FF186E186E02BD00000240BE
:1000D000000000180000070000035F00212200005C
:1000E000F4000018222000A00001001008ED00E03C
:1000F00000000000000000000000000074B24E7A12
:1001000000200420F7010010C3010010C5010010F9
:10011000C1010010C1010010C1010010C101001097
:10012000C1010010C1010010C1010010C701001081
:10013000C1010010C1010010C9010010CB01001065
:10014000CD010010CD010010CD010010CD01001037
:10015000CD010010CD010010CD010010CD01001027
:10016000CD010010CD010010CD010010CD01001017
:10017000CD010010CD010010CD010010CD01001007
:10018000CD010010CD010010CD010010CD010010F7
:10019000CD010010CD010010CD010010CD010010E7
:1001A000CD010010CD010010CD010010CD010010D7
:1001B000CD010010CD010010CD010010CD010010C7
:1001C00000BE00BE00BE00BE00BE00BEEFF3058054
:1001D000103800BEF2EB8871C8510110E4510110D3
:1001E0003402001090A31AE700201F49086006C8D7
:1001F00081F3088810471D48006800282FD10DA4FE
:100200000ECC002902D000F012F8F9E71849194A7B
:10021000002000E001C19142FCD1174988471749ED
:1002200088471749884700BEFDE701C901C29A42C5
:10023000FBD37047E4510110C0000020D00E002015
:10024000F45F01100000042000000420F45F01109E
:10025000001004200010042000000000704709482E
:1002600005F070FC0047000008ED00E0000000D041
:10027000D00E00206C18002061430010FD18001003
:10028000894400105756000006005250ABB360532B
:100290004014011006005250861C03026014011025
:1002A000060052505422A29D7014011005005250B5
:1002B000DE65F468F45F0110F8B5C0460448054BEC
:1002C00010B5834203D0044B002B00D0984710BDDB
:1002D000D00E0020D00E0020000000000648074984
:1002E000091A8B10C90FC91810B5491003D0044B57
:1002F000002B00D0984710BDD00E0020D00E00205B
:100300000000000010B5074C2378002B09D1FFF73F
:10031000D5FF054B002B02D0044800E000BF0123AD
:10032000237010BD7011002000000000901001101B
:10033000054B10B5002B03D00449054800E000BF71
:10034000FFF7CCFF10BDC046000000007411002074
:10035000901001108823F0B5C646C3580700984690
:10036000D0230400060000B5C358194D9B6A112123
:10037000184A82B02800283705F080FB3800256530
:1003800008F002FD636B5436002B04D001223800C4
:10039000216D08F0A1FA4346986A06F069F80E4DFF
:1003A000009001910D4A1121280005F067FB3000F3
:1003B000E56708F0E9FC236E002B04D00122300031
:1003C000E16F08F089FA02B080BCB846F0BDC046C3
:1003D0001C170020901001107C1200209C100110AE
:1003E000E82010B5400007F083F8022380225B422A
:1003F0008350983283500023543A83501C3A8350E0
:10040000643283501C3A8350114938328350083A81
:10041000815004328050483283500E490432835058
:100420000C328150043283503C3283500200C93375
:100430002132FF33FF32C250C2182C3BC250D022AF
:100440009C3BFF3B520083500432835410BDC04696
:1004500055030010A8100110C822836A92000133CE
:100460008362934205DBEB23DB00C3188361012326
:1004700003777047C822836A10B501330400836292
:10048000520093420ADBC06A054905F068FFF12378
:10049000DB00E318A36101232063237710BDC0466E
:1004A0000000C843836A01338362C72B05DDF12353
:1004B000DB00C31883610123037770470300012227
:1004C00070B50600451C2933FF33FF351A70040050
:1004D000280008F059FCEB687D36FF36002B06D06B
:1004E00094235B0001222800E15808F0F5F923006D
:1004F0000122A533FF331A70300008F045FCF36881
:10050000002B06D0D2235B0001223000E15808F016
:10051000E3F970BD96235B00C35870B59E6A040072
:100520000500311CC06A05F017FF216BE062301C2A
:1005300005F00FFF9C35A862280008F025FCEB6849
:10054000002B05D0C42301222800E15808F0C4F98B
:1005500070BDC04670B505000023CC358362040031
:10056000AB62280008F010FCEB68002B05D0F423E8
:1005700001222800E15808F0AFF970BDF8B5070076
:10058000002306000500AD37FF37BB6204003800CA
:1005900008F0FAFBFB68D936FF36CC35002B06D0C5
:1005A000EA235B0001223800E15808F095F90023A6
:1005B0003000B36208F0E8FBF368002B06D080231C
:1005C0009B0001223000E15808F086F90023A36265
:1005D0000023E362236301232800AB6208F0D4FB0D
:1005E000EB68002B05D0F42301222800E15808F025
:1005F00073F9F8BDF8B50600002305000700AD3615
:10060000FF36B3620400300008F0BEFBF368D93552
:10061000FF35CC37002B06D0EA235B0001223000E7
:10062000E15808F059F900232800AB6208F0ACFB50
:10063000EB68002B06D080239B0001222800E158A4
:1006400008F04AF90023A3620233BB62380008F0C5
:100650009BFBFB68002B05D0F42301223800E158F6
:1006600008F03AF9F8BDC046F8B5060005000700E5
:10067000036AAD36FF36B3620400300008F084FB35
:10068000F368D935FF35CC37002B06D0EA235B0061
:1006900001223000E15808F01FF98022120694462A
:1006A000636A28006344AB6208F06EFBEB68002BC2
:1006B00006D080239B0001222800E15808F00CF9A5
:1006C0000023A3620333BB62380008F05DFBFB68C4
:1006D000002B05D0F42301223800E15808F0FCF883
:1006E000F8BDC046D422836A70B50133040083622A
:1006F0005200934200DC70BD05000023AD35FF358C
:10070000AB62280008F040FBEB68002B06D0EA2320
:100710005B0001222800E15808F0DEF825000023E4
:10072000D935FF35AB62280008F02EFBEB68002BB3
:10073000E1D080239B0001222800E15808F0CCF88A
:10074000D9E7C046F0B5F420D6464F464646C0002D
:10075000C0B506F0CDFE03003C33436334338366FB
:100760000222942300665242C050E433C250F83350
:10077000C118013BFF3BC150C1182C3BC150B221F5
:1007800000230124490043501C3944506031425039
:100790005C3142508422AB4992008350083A815028
:1007A0009921043280504832835004328350A64A43
:1007B0008900425004314350A44D1031445008394F
:1007C00045500225043140504831435004314350D4
:1007D0000C31425004314350103145509C4D083982
:1007E00045500431405048314350043143500C319E
:1007F0004250E821CE250326C9004118AD004151E1
:1008000010354651934E083D465104354051483508
:100810004351043543510C354251EC2604354151C6
:1008200004258D4FB6008551083E8751043680510E
:100830004836835104368351884EA9468251EB26AF
:10084000F60087198126F60087510135103685514B
:10085000083EB446824EAA46B04666464546855195
:10086000804D4051804D4351043543517F4D42519D
:100870000435475190270625FF00C5517C4D083FA0
:10088000C551EE257B4FED00C0517B4FC35104375E
:10089000C3517A4FC25147199B25ED00475110357E
:1008A000AC460725A846654646464651083DAC4637
:1008B000734DA846654646464651724D4051724DAD
:1008C000435104354351714D425104354751AA27D4
:1008D0000825FF00C5516E4D083FC551F1256D4FEC
:1008E000ED00C0516C4FC3510437C3516B4FC2511F
:1008F0004719E13DFF3D47511035AC460925A84653
:10090000654646464651083DAC46654DA846654697
:1009100046464651634D4051634D43510435435162
:10092000624D4251C222D2008750614A55468350DF
:10093000822292008718CB22D2008750D0229200C8
:1009400087185C4A87508222D2008718CC22D200B6
:100950008750813AFF3A8718574A8750B43A871828
:10096000B8328750103A8718544A8750043285505D
:10097000534A4D468454B62292008618D622D2009D
:100980008650EA22920086184E4A4F4F86508F2298
:10099000D2008618D722D2008650713AFF3A8618C4
:1009A0004A4A86504A4A83500C328618494A865031
:1009B00004328550484A8354484A8350343A85501B
:1009C000474A484D8350343A84500200E8240C32A0
:1009D000E4000251444C055104340025061900245A
:1009E00034607560EA26F6008355083682513F4E22
:1009F00087510436861934607560ED26F6008355FC
:100A0000083682513A4F3B4E87510436861934607E
:100A10007560F026F600835508368251364E374A07
:100A200086500432821814605560F322D200835439
:100A3000C3600161416183610377E0BCBA46B1469E
:100A4000A846F0BDBD040010A81001101505001047
:100A500055050010590400107D0500100404000025
:100A600075040010140400005C0400006C04000015
:100A7000F50500107C040000C4040000D40400004C
:100A8000A5040010E40400002C0500003C05000053
:100A9000690600104C05000094050000A405000044
:100AA000E5060010B4050000FC0500000C0600007F
:100AB0004C0600005C060000640600002C060000E6
:100AC00034060000B4060000B4100110BC0600009B
:100AD000A4060000840600008C060000F406000056
:100AE00034070000AC100110440700005C07000050
:100AF000C810011074070000D01001108C0700000E
:100B0000942010B5400006F0F3FC03002833036284
:100B10008E2300225B00C064C250343B0132C250BD
:100B200010BDC046F0B5070004000600050087B000
:100B300003A9194809F092FF039B5437E367380073
:100B400008F022F9236E8436B435002B04D001223C
:100B50003800E16F07F0C0FE049B3000B3620193E0
:100B600008F012F9F368002B05D0AC230122300005
:100B7000E15807F0B1FE059B2800AB6208F004F9CC
:100B8000EB68002B05D0DC2301222800E15807F098
:100B9000A3FE07B0F0BDC04610170020054B10B5EE
:100BA0001A78002A00D010BD013203481A7009F0EB
:100BB0000BFFF8E76618002010170020922070B590
:100BC000800006F095FC030028330362F022002326
:100BD000AC242049C0648350083A815004328050CC
:100BE000483283501C49043283500C328150043205
:100BF0008350483AFF3A194D64000251083C0551B0
:100C00000434005148340351043403510C3401516D
:100C1000D821040049004350E834483144500C398D
:100C200011344350FF3420394450043142500431D0
:100C30004354603143500100902351319B00FF31F8
:100C4000C150C1182C3BC1500433C250183BC25094
:100C500070BDC0469D0B0010A8100110250B0010A0
:100C6000036BF0B54F4699466423D6469A4680B545
:100C7000050083B08244806806F068FAAB6AEC6ACB
:100C800006000F0000930194002C36DD4B46696A84
:100C9000986A05F061FB009A019B041C3900300042
:100CA000801A994105F0C0FA174A184B05F003FA6B
:100CB00005F0C2FA011C201C05F065FBFC2189052A
:100CC00005F061FB296A05F047FB28628C24285156
:100CD000504608F059F82B6F002B04D001225046E3
:100CE000295907F0F9FD4B469B6AAE62EF626B62D1
:100CF00003B0C0BCBA46B146F0BD002C01D1002BF8
:100D0000C4D1286AE2E7C04695D626E80B2E113EEC
:100D1000A42010B5400006F0EBFB0300383303635A
:100D2000A02200231049C0658350083A8150043244
:100D30008050483283500D49043283500C32815028
:100D4000043283503C32835002004133FF339832E7
:100D5000C250C2182C3BC25001220433C250183B6F
:100D60000332C25010BDC046610C0010A810011023
:100D7000F0B5C6460500060080211F4A040000B5F4
:100D8000D06884350006000F54360130490053689E
:100D90000B42FCD10138176A0028F8D18021D068B5
:100DA000154A0004000F7F420130890053680B424E
:100DB000FCD10138536A0028F8D15B423000E76764
:100DC000984607F0E1FF236E002B04D0012230008B
:100DD000E16F07F081FD43462800AB6207F0D4FFC6
:100DE000EB68002B05D0AC2301222800E15807F066
:100DF00073FD80BCB846F0BD00002050F0B5D6466B
:100E00004F4646460025C0B53D4C8AB020003D49BE
:100E100005F098FE0223200008220021009505F02D
:100E2000F5FE00220121082001F08CFE00220121A4
:100E3000092001F087FE8026F827C02376021B03D5
:100E40007F0202A9102206A89A46049302960397ED
:100E5000059505F0C3FB2C4B06A9102202A8994664
:100E6000079305F0BBFB8023DB020593274B200093
:100E7000039380231B0398460493002202AB0021B6
:100E800005F01CFF01222368200013432360012189
:100E9000022300950B3205F0B9FE002201210C203F
:100EA00001F050FE002201210D2001F04BFE5346BF
:100EB00002A9102206A8049302960397059505F04F
:100EC0008DFB4B4606A9102202A8079305F086FB6E
:100ED000C023DB0205930E4B0022039343460121FE
:100EE0000493200002AB05F0E9FE022223681343BD
:100EF00023600AB0E0BCBA46B146A846F0BDC04681
:100F000000002050DC10011080770100807701087C
:100F10008077010C862070B5800006F0E9FA0300A6
:100F200028330362C022002394242049C0648350E4
:100F3000083A815004328050483283501C490432B0
:100F400083500C32815004328350183AFF3A194DC5
:100F500064000251083C05510434005148340351E7
:100F6000043403510C340151C021040049004350A2
:100F7000B834483144500C3911344350FF342039CF
:100F80004450043142500431435460314350010015
:100F9000842321319B00FF31C150C1182C3BC1502B
:100FA0000433C250183BC25070BDC046FD0D001046
:100FB000A8100110710D0010036C9B6A83637047C9
:100FC000436F9B6AC3637047F0B54E46DE46574693
:100FD0004546A823E0B5C6583433C358070083B04C
:100FE0008068994606F0B2F8BA6AFB6A04000D0000
:100FF000002B11DD20002900801A9941002915DC01
:10100000002900D17AE0BC62FD6203B0F0BCBB46AF
:10101000B246A946A046F0BD002BF4D1002AF2D07A
:1010200020002900801A99410029E9DD88235B000E
:101030009A46B36ABA449B4605F010FA324905F065
:10104000A2F905F015FA5B463A6B00900191981AE7
:1010500005F0A6F82D4A2E4B05F02DF800222D4B59
:1010600005F00FF8009A019B05F00BF805F0E4F885
:101070004B46796B9B6A061C581A994605F090F806
:10108000224A234B05F017F80022224B04F0F9FF07
:10109000009A019B04F0F5FF05F0CEF85B463B6338
:1010A0004B46311C7B638046B86B05F052F95346C2
:1010B0009862504607F068FE5346DB68002B06D066
:1010C0009C235B0001225046F95807F005FC3E00C6
:1010D000F86B414605F03DF94136FF36B06230000D
:1010E00007F052FEF368002B00D18CE7B4235B00BD
:1010F00001223000F95807F0EFFB84E7064B9842D5
:1011000000D880E792E7C0465F708930C3718BB624
:1011100065BCB93F008076403F420F00F22070B5B9
:10112000800006F0E5F90300483303643433436775
:101130000200A023C066B032C0500833C2502C3326
:10114000C05034320833C2509E222C33C0500B3B67
:10115000FF3B52008350303283500023F024364945
:101160000C328350083A8150043280504832835008
:101170003249043283500C32815004328350D03AC9
:10118000FF3A2F4D64000251083C055102250434FA
:10119000005148340351043403510C3401510434D8
:1011A000035110340551274D083C055104340051BA
:1011B00048340351043403510C340151A821040074
:1011C0008900435071343C314350FF340C3144505A
:1011D00044182C3944500431AA24425005000421FB
:1011E000A4000151D9357C340351FF350C3405512D
:1011F00005192C3C0551DE2504340251183C0151DF
:101200007C3403512D3CFF3C0419AD004451461978
:101210002C3D465104354251183D41517C354351D6
:10122000F0239B00C450C4182C3BC4500433C2505C
:10123000183BC15070BDC046B90F0010A810011076
:10124000C10F0010C90F0010036A70B59C6A00211D
:10125000201C05F0C7F8FE21431E98416400640875
:1012600005008905201C05F0C5F8002805D00748B1
:101270002900012209F06AFC70BD0549201C05F017
:1012800082F805F0E3F880B2F2E7C046FF0F0000F5
:1012900000F07F45436D70B59C6A0021201C05F06D
:1012A000A1F8FE21431E98416400640805008905E9
:1012B000201C05F09FF8002805D0074829000022CF
:1012C00009F044FC70BD0549201C05F05CF805F0F0
:1012D000BDF880B2F2E7C046FF0F000000F07F4586
:1012E00010B5012009F004FC10BDC046A62070B561
:1012F000800006F0FDF803002833036234334365B1
:101300008023C0649022C0500023F8242D498350CC
:10131000083A815004328050483283502A490432BE
:1013200083500C32815004328350284DE73A0251E9
:10133000083C05510225043400514834035104345B
:1013400003510C3401510434035110340551204D24
:10135000083C05510434005148340351043403510E
:101360000C340151DC2104004900435088344831D9
:1013700044500C3943500C3144182C39445004313A
:10138000425004314354113C60314350FF3C0C3116
:10139000445044182C3944500431822442500421D2
:1013A000A40001517C3403510400A42359349B0050
:1013B000FF34C450C4182C3BC4500433C250183BF3
:1013C000C15070BDE1120010A810011049120010A8
:1013D00095120010F0B5C646C36A04009E6A816A81
:1013E00000B50700301C04F0B7FF8823216A051CF4
:1013F000A062301C984604F0C6FF616A061C281CD7
:1014000004F0C1FF011C301C04F0A6FF4346603706
:10141000E050380007F0B8FCE36E002B05D04346DF
:1014200001223800E15807F057FA80BCB846F0BDF9
:10143000A02010B5400006F05BF803003433C3620F
:1014400098220023104980658350083A8150043265
:101450008050483283500D49043283500C32815001
:10146000043283503C32835002003933FF339032D0
:10147000C250C2182C3BC25001220433C250183B48
:101480000332C25010BDC046D5130010A810011081
:10149000962170B5890104000500194802F0C2FCCC
:1014A00002211C2001F036FB02211D2001F032FB3D
:1014B000192001F05FFBD02380221B0692045A62A0
:1014C000230000221533FF33EC351A70280007F093
:1014D0005BFCEB68002B06D08A235B00012228000E
:1014E000E15807F0F9F9064A9369DB0607D41021A1
:1014F00093691942FCD1136893691942F8D070BD01
:10150000004003401E4A70B593690400DB0631D4E5
:101510000500102100204535FF3593691942FCD1A3
:101520001368DBB2622804DC0D2B0DD02B54013084
:10153000F3E70D2B08D01021114A93691942FCD111
:101540001368DBB20D2BF8D12200260000231532E0
:10155000EC36FF322B541370300007F015FCF368A3
:10156000002B06D08A235B0001223000E15807F0EF
:10157000B3F970BDA22300225B00C254F9E7C04654
:1015800000400340F0B5C64600B5856D036A287873
:10159000984600283ED00D23002220249C461E4F52
:1015A0001E490026BB5F83421BD08B691C42FCD1C5
:1015B00008604046AB5C83540132A85C002816D01A
:1015C000642AEED164239C460022BB5EE0440D2BCE
:1015D00012D12021114A93691942FCD10D231360C5
:1015E0000AE08B691C42FCD163460B60DDE7904446
:1015F0000022BB5E0D2BECD02022084910008B6925
:1016000018401A42FAD10D230B604346187080BC73
:10161000B846F0BD004FEBE75C18002000400340E7
:10162000802070B5C00005F063FF03002C334362D7
:10163000343383658423DC220065C05000233249A3
:1016400052008350083A815004328050483283500F
:101650002E49043283500C32815088240432835046
:1016600001222B4DA4000251083C055102250434EF
:10167000005148340351043403510C3401510434F3
:10168000035110340551234D083C055104340051D9
:1016900048340351043403510C340151B8218900FA
:1016A00043503C3143500539FF3944181131FF3163
:1016B000445044182C39445004314250793C043190
:1016C0004254FF3C6C3144500C3943500C314418A7
:1016D0002C3944500431425004314354603143505A
:1016E0002D39FF3944183931FF31445044182C3911
:1016F000445004314250183942507C314350F02359
:101700009B00C25070BDC04691140010A81001107B
:1017100005150010851500108823F0B5076AC55817
:101720003433C4583B7D466D83B0002B0CD1337DE0
:10173000002B1AD12B7D002B28D1237D002B36D1F5
:1017400009F096F803B0F0BD0023802200210020AC
:101750000093103308F0DEFF012300220021B86A55
:1017600008F0B2FD337D002BE4D00023802210214D
:1017700000200093103308F0CDFF01231022002138
:10178000B06A08F0A1FD2B7D002BD6D0002380226B
:10179000202100200093103308F0BCFF01232022F9
:1017A0000021A86A08F090FD237D002BC8D00023FB
:1017B0008022009330210020103308F0ABFF01237A
:1017C00030220021A06A08F07FFDB9E7084B10B570
:1017D0001A78002A00D010BD01321A7008F0FAFC05
:1017E000044808F0F1FC002008F000FDF3E7C046D3
:1017F00065180020FC2F0110CA2070B5800005F08C
:1018000077FE0300283303623433436502008023EC
:10181000C0649032C0500833C2502C33C0503432B0
:101820000833C2502C33C050F8220023B024304972
:101830008350083A815004328050483283502D49F9
:10184000043283500C32815004328350503AFF3AB4
:10185000294D64000251083C0551043400514834BC
:101860000351043403510C340151DC2104004900BC
:101870004350F034483144500C3943500C31441833
:101880002C394450043142500431435460314350A8
:10189000A83C0C31445045182C3945500431822560
:1018A00042500421AD0041517C3543510C35445127
:1018B00046192C3D465104354251183D41517C3565
:1018C00043510C35445146192C3D46510435425183
:1018D000183D41517C354351C8239B00C450C41866
:1018E0002C3BC4500433C250183BC15070BDC0469D
:1018F000CD170010A81001101917001010B5002105
:10190000002007F07BFB10BD7047C0460A4B012149
:101910001A68002300B589B00693059304910293D9
:10192000019315310933039100930021063B0348CD
:1019300007F038F909B000BD3C120020E80F002084
:10194000014B036001207047E80F0020F0B5DE4630
:1019500057464E464546E0B5A3B0FEF741FDFE4B67
:1019600000219A465246030082600022A933FF33C9
:1019700019605A600022F94900249960DA605346E0
:101980000200DB6D8932FF321A60E2235B00C45033
:1019900003008027002661333F06FF331E605F602F
:1019A0008046FEF7CFFE534602228360C823524290
:1019B000C25030330500C2508263C2665046436E47
:1019C000B62080002A18D0301A602A18D0305A6009
:1019D0002A18D0309A602A180020DA608346E8621C
:1019E0002863C720DE4BC0002B626B6200212B18DE
:1019F0000020AC6218605960C8200022D749C0009E
:101A00002B1819605A605146CB6DC321C9006A1862
:101A100000215A60D34BFA20E950922189006B18BB
:101A200068311E605F606B1868311E605F606B1804
:101A300068311E605F6080006B181E605F602B184D
:101A400068301E605F602B1868301E605F602B1866
:101A500068301E605F602B1868301E605F602B1856
:101A600068301E605F602B1850461E605F60C36F59
:101A700028005B680C301860FFF742F80100504600
:101A800002238860B022E0205B4280340B518B50EF
:101A90000B504B620E91FFF791F802238146020032
:101AA00050465B42906013514846B022835030321A
:101AB000835043625046436E48464A462930E832D6
:101AC000FF301A61066047608666C7666830FFF7B8
:101AD0001FF90200504602239060594690205B4255
:101AE0001350116251621100080053630022002359
:101AF000D8308A62CB62066047600591FFF708F92B
:101B0000534683600223010090205B420B504B63DD
:101B10005B4600220B624B62002304918A62CB6217
:101B2000D8310E604F60FFF7F3F85346836002230D
:101B300090215B42435043635B4600220362436251
:101B400000238262C3620300D8331E605F6003908B
:101B5000FFF7E0F95346836002235B4203513034C0
:101B6000035154464362636E0400B8345C614034F0
:101B700026606760A666E7660190FFF7CFFAFC2350
:101B80009B050362FA239B054362022352465B4294
:101B90006834040082601800E0226364A367AE33F7
:101BA000E050A05000230022A262E362226363633C
:101BB0005B46A363E3632300B133FF331E605F60C2
:101BC0008623A0229B00E31892001E605F60A3188A
:101BD0001E605F60FFF78AFB524601008260536E11
:101BE00002200A0040428832486288659A610B00F0
:101BF000C8339E66DF661E605F6068339E66DF6680
:101C00000791FFF715FC53468360236A02000362C5
:101C1000636A0292436202208C234042D0505B46AA
:101C200093621300D03310631E605F60FFF700FC07
:101C300052468260226A03000262626A069342622E
:101C400002208C22404298505A4618639A62D03340
:101C50001E605F60FFF7E4FC5346834683608C227E
:101C600003000220520040429850D4235A465B00A1
:101C7000D050D06590625246536E5A46B132FF3210
:101C8000DA615A46384B00211362C22292005A444C
:101C90001300002219605A60C422002133489200C8
:101CA0005A44106051605246D36DBA2292005A4491
:101CB0009A60C923584600229B00C2505A46F1320E
:101CC000FF3216605760962292005A4416605760A1
:101CD000B02292005A4416605760FFF78DFD020053
:101CE0005046022390608C205B4253629365C02172
:101CF000135050465350436E1000F0321A620300E6
:101D00003133FF331E605F609E66DF660227BA468E
:101D1000464652464737FF37F25108904246BC3993
:101D2000022005F0C7FB0C37F05142460421022087
:101D300005F0C0FB043FF051424604210220A626D4
:101D400005F0B8FB47467600B8513C278C23474442
:101D500007600F9757460BE0E80F002040787D01A1
:101D60009A99193E54060000C411002080F0FA022E
:101D7000E43E9B00464446602A00EF5004210220C6
:101D80008F27109605F096FBBF00E8512A0004212A
:101D9000022005F08FFB043FE851253F2A00042173
:101DA000FF3F022005F086FBBC46C822AC4452002F
:101DB00067468D2394469B00AC446246E8501197D9
:101DC00007600127643342601292EF502A00042119
:101DD0000120A92605F06EFBB600A8512A000421B7
:101DE000012005F067FBA822F53E9200A8500421CF
:101DF0002A00FF3E012005F05DFBB446A723AC445A
:101E000066469B00E850643306602A00EF500421C8
:101E10000120139605F04EFBC3229200A850042126
:101E20002A00012005F046FBC2229200A85004219E
:101E30002A00012005F03EFBC1239B00E850E0236F
:101E40009C46AC446646DA230660002009960326C9
:101E50009B00E8506833EE502A000421033005F05F
:101E600029FBF7229200A85004212A00032005F044
:101E700021FBF6229200A85004212A00032005F03D
:101E800019FBF5239B00E850E0235B009C462C33B4
:101E9000AC4462469C46AC44634602600A92099A8E
:101EA00043600B93872382600020DB00E850683397
:101EB000EE502A000421033005F0FCFAFE4B2A0004
:101EC000E8500421032005F0F5FA9522D200A8502D
:101ED00004212A00032005F0EDFAF84B0A9AE85095
:101EE0000B9B0260099A4360A12382600020DB0003
:101EF000E8506833EE502A000421033005F0DAFA86
:101F0000EF492A0068500421032005F0D3FAAF22DC
:101F1000D200A85004212A00032005F0CBFAE94B97
:101F2000099AE8500A9B826003600B9B2A00436079
:101F3000BB235046DB00E850042105F0BBFAE24A1F
:101F40000421A8502A00022005F0B4FABC22D200D5
:101F5000A85004212A00022005F0ACFADB4B0B9AB2
:101F6000E8500A9B4260036088234A4600205B00D9
:101F7000D0506833D6500421032005F09BFA4B461D
:101F80008236FF3698514A460421032005F092FA22
:101F90004B46043E98514A460421032005F08AFA34
:101FA000BE234E465B00F05068264E4406601496F1
:101FB0009826C8224E4446601596C0264A44826040
:101FC0001692059A042197510120160005F072FA25
:101FD000CC2132007050C839012005F06BFA330073
:101FE000C8261A00985104210120059305F062FAD1
:101FF000C023059A043E90517832026004981792EB
:10200000C75002000421012005F054FACC21049BA2
:1020100058501A00C839012005F04CFAC821049B19
:1020200058501A00C439012005F044FAC022049B1C
:102030000421985178330360039818938750020065
:10204000012005F037FACC21039B58501A00C839FB
:10205000012005F02FFAC821039B58501A00C439FB
:10206000012005F027FA039AE021905178320260AE
:102070000020019B1992585051464930FF301950A9
:1020800047381A000231FF3805F014FAAA21019BE3
:102090004900585051391A00FF39022005F00AFA58
:1020A000A821019B490058504D391A00FF390220E0
:1020B00005F000FA019BA6211A0049005850683328
:1020C000436098321B93CC23026000205B00E050F9
:1020D0006833E0505046683349391A92E050220084
:1020E000FF3905F0E7F99D239B00E0502200042111
:1020F000022005F0DFF99C239B00E0502200042120
:10210000022005F0D7F9922149008C469B23A44474
:1021100061469B00E0501C910160AA2149008C4659
:10212000A4446146416000201D91BD3B0799FF3BDF
:10213000C8506833C8506833C850B8210298475017
:102140000200B439012005F0B5F9029988510A005E
:102150000120042105F0AEF9C0230299C8500A00FD
:102160000120042105F0A6F9BC230299C85074315E
:1021700001600698043BC75002001E910120042113
:1021800005F098F9069B042198511E001A000120C1
:1021900005F090F93300C0261A009851042101205F
:1021A0001E0005F087F9BC230696F05074360660D1
:1021B00058461D33FF33C7505A46042101201F964D
:1021C00005F078F9F2235E465B00F0505A46042190
:1021D000012005F06FF9F0235B00F0505A4604210E
:1021E000012005F067F9EE235B00F0505B460133F8
:1021F000FF331E0003609023584651469B00C15098
:102200005A460231022005F055F9932359469B00A6
:10221000C8505A460421022005F04CF99223594631
:102220009B00C8505A460421022005F043F991232F
:1022300059469B00C850153BFF3B5B44036021930C
:10224000AA23466000209B00C8502096913B089E20
:10225000FF3BF0506833F050404687644767C064E6
:102260008067A820434640001B58503842461F60F4
:102270000421FF3805F01EF9AA2341465B00CB5824
:1022800042461860A82040000B5850385F60042177
:10229000FF3805F00FF9AA2341465B00CB58822195
:1022A000B446586089001B686144196094239B0000
:1022B000634403600CE0C046AC040000A4040000CA
:1022C0007C05000074050000E4050000DC0500004A
:1022D0009023BC205B00EF500433ED507833EF5077
:1022E0000433ED502C33EF500433ED502833EF50CE
:1022F0000433ED502F5004302D50BF3882468E20CD
:10230000113BFF3BEF5080000433ED5008962B58F3
:102310008F262A001F600421012005F0CBF8B600AB
:10232000AB592A0018608E2080002B5804215F6072
:10233000012005F0BFF8AB593C3E58601B684E4485
:102340001E60019B2A00D133FF330360A820800068
:102350002B5804211F60012005F0ACF8A9239B0035
:10236000EB582A001860434690330360C220800077
:102370002B5804211F60012005F09CF8C323D826A8
:102380009B00EB58464418600660F62080002B58EE
:102390000C96F7262A001F600421012005F08AF818
:1023A000B600AB592A001860F62080002B58042193
:1023B0005F60012005F07EF8AB592A005860F620D6
:1023C00080002B5804219F60012005F073F8AB5961
:1023D000353EFF3EB446A44466461A6898601660CF
:1023E000BC225B6892000D96A6181E600C9B2A000A
:1023F00003609520C0002B5804211F60012005F0C8
:1024000059F8FE4B2A00EB58042118609520C000B3
:102410002B5801205F6005F04DF8F84B2A00EB586F
:10242000042158609520C0002B5801209F6005F0C2
:1024300041F8F24B0D99EB581A6898605B6811608F
:102440001E600C9B2A000360AF20C0002B580421A3
:102450001F60012005F02EF8E94B2A00EB580421FB
:102460001860AF20C0002B5801205F6005F022F8F3
:10247000E34B2A00EB5804215860AF20C0002B58D2
:1024800001209F6005F016F8DD4B0D99EB581A6896
:1024900098605B6811601E600C9B2A000360BC2082
:1024A000C0002B5804211F60012005F003F8D54B14
:1024B0002A00EB5804211860BC20C0002B580120D2
:1024C0005F6004F0F7FFCF4B0D99EB58D4225860B2
:1024D0001B6819600660D823A8260E989C46806762
:1024E000310080518750C05048464B46043E4767F4
:1024F00080678751585063468750C050C0204B4674
:1025000040001B5880384A461F60A439FF3804F049
:10251000D1FFC22349465B00CB584A461860C02011
:1025200040000B5880385F600421FF3804F0C2FF80
:10253000C22349465B00CB584A465860C020400041
:102540000B5880389F600421FF3804F0B3FF4B46DE
:102550008437FF37DB59059F1A68791CFF31986073
:10256000116004995B684A1CFF321A60039A1300D9
:102570000133FF330360882084233F500950070054
:1025800010005246C2504433C358C05104210700C2
:102590001A600200012004F08DFFCC23FB58039742
:1025A00018602B003133FF330360534601985746C0
:1025B0004367806783510300A8201B501800AC3686
:1025C0009B5902001F600421012004F073FF524652
:1025D00001995437FF37CB5918608B590E005A6058
:1025E00001200A00042104F065FFF359E537586023
:1025F000FF371B68E21948371A60E3190360982314
:10260000504601969C265B00E0500433E4502C3386
:10261000E050B6000433E450A359220004211860AE
:1026200004F048FF0D3FFF3FE35922001860504679
:10263000A3590421586004F03DFF029EE35937007E
:1026400058601B68F8371F60069F5346F8370760CD
:102650008027F35183333000F650C0265246835909
:1026600004211A600200012004F024FFC422029B0E
:1026700004219B58079A1860822394469B00634468
:10268000036053460698C35157468333C05083595D
:10269000020006001F60012004F00CFFC423F35861
:1026A0000799186094238C469B0063440360882339
:1026B00058465B00C0503033C05028009C300300A7
:1026C00040468737C3512800CC300200D023404613
:1026D000C25048466B1C059FFF3303625430386379
:1026E000303003000498039F036330333B633B00A7
:1026F000280064331A0096237D305B00FF30EA50D7
:102700000300019806960362030054331A00DC2389
:10271000E2500300A820843323502800AD30FF305E
:1027200020642C30606720001130FF3003000298D5
:10273000C3620300200041306033FF300B620300AE
:1027400030006030F36248654046089E28302E4BCA
:1027500030622C3070655B6B1799149ED9601899A4
:102760001E601961159E1E995E601962169E1F9962
:10277000199A1C989E605962119E0A991B9F5A6172
:1027800098611A9A1D989E621963129E0B99D861DE
:10279000DE6259639F63DA63099A0F99DA64209ABB
:1027A00019641A65219A10995A654246596439325A
:1027B0001399FF32996446460023110001223136F5
:1027C0000A604B608821FF360127300089000F4ED8
:1027D00069187F42066047600A604B6086210127C6
:1027E0000B4E890069187F420E604F60A22189005C
:1027F00069180A604B60A02189000BE0AC0400005E
:102800007C050000E4050000E80F00200B00FFFF3E
:102810000000FFFF8C460121AC446646AA484942AD
:1028200030607160BC21890069180A604B60BA2170
:1028300089008C460121AC446646A4484942306078
:102840007160D621890069180A604B60D421890023
:102850008C460121AC4466469D4849423060716017
:10286000F021890069180A604B60EE2189008C46CE
:102870000121AC4466469748494230607160852129
:10288000C90069180A604B608421C9008C46012187
:10289000AC44664690484942306071609221C9005C
:1028A00069180A604B609121C9008C460121AC4433
:1028B00066468A484942306071609F21C9006918A4
:1028C0000A604B609E21C9008C460121AC446646DB
:1028D0008348494230607160AC21C90069180A60C0
:1028E0004B60AB21C9008C460121AC4466467D4853
:1028F000494230607160B921C90069180A604B60B3
:10290000B8210127C9006818774E4D467F420660FE
:1029100047600126691CFF31744D0A604B607642A6
:1029200008390D604E604D460127714E6135FF3507
:102930007F420A674B672E606F60059D049F2900E8
:10294000B0310A604B60A835390001262800694D76
:102950007642B031A837056046600A604B603D6042
:102960007E60039F3900A837B0310A604B603D603C
:102970007E60019F012639003137FF37380001277B
:10298000D0315A4D0A604B60764208390D604E6076
:102990000A674B67564E21007F4206604760012759
:1029A0008931FF31544E0A604B607F4208390E6016
:1029B0004F6027000A674B6701215048E937FF370E
:1029C0004942386079609627BF00E119083F0A60E4
:1029D0004B60BC460121079F49486444494220603E
:1029E000616039000126414DA0310A604B6076429A
:1029F00008390D604E600A674B67012141487C1C15
:102A0000FF34494220606160390038007131FF3184
:102A100069300A604B60FF30012104003A484942A6
:102A200020606160029C39482100A8310A604B6037
:102A30000121069F4942A034206061603C00A83417
:102A400022606360083C206061605946C931FF31F3
:102A50000A604B6008390D604E608C218900594432
:102A60000A604B608A210127214E890059447F4228
:102A70000E604F60A621890059440A604B60A42172
:102A8000012608981B4D8900594476420D604E601E
:102A90000100012601270931FF310A604B60134D07
:102AA000411CFF3176420D604E606930124EFF309E
:102AB0007F420A674B670660476023B0F0BCBB46A5
:102AC000B246A946A046F0BD0300FFFF0400FFFF89
:102AD0000500FFFF0600FFFF0700FFFF0800FFFFE4
:102AE0000900FFFF0A00FFFF0B00FFFF0000FFFFD0
:102AF0000100FFFF0200FFFF0C00FFFF0D00FFFFC2
:102B00000E00FFFF1000FFFF1100FFFF0F00FFFF8F
:102B10007047C046094A830094464022634410B57A
:102B20001C68C0006240C02414408022520113433C
:102B30001C60034B9C466044416010BD04C00140D2
:102B4000004001400A4B80009C4604236044002959
:102B500001D00C230821002A00D10B000268534049
:102B60000C221A4080235B01184302607047C04664
:102B700004C001400123D022834012069362936176
:102B8000094A83009446402263441968C0004A40C1
:102B9000C02111408022520113431960034B9C460F
:102BA000052360444360704704C001400040014079
:102BB000024B18688007C00F7047C04600C006402F
:102BC000EFF3108072B6034A1368002BFCD0BFF3FA
:102BD0005F8F70472C0100D0BFF35F8F0022024B44
:102BE0001A6080F3108870472C0100D070B5EFF3A5
:102BF000108C72B60D4D2B68002BFCD0BFF35F8F8D
:102C00000724CB08C618C05C01230C40A3401C005D
:102C10000440034207D103433370BFF35F8F2C603E
:102C20008CF3108870BD100001F04CFC2C0100D01A
:102C3000F8B54746CE46884680B5EFF3108C72B69D
:102C4000214D2C68002CFCD0BFF35F8F9A422CD80A
:102C5000D4080727055D061901241740BC402C4203
:102C60001FD007210127894609E0D408055D061910
:102C70004C4639001440A1400C00294211D00132C9
:102C80009342F2D201204042BFF35F8F00220E4BED
:102C90001A608CF3108800280FDBC0BCB946B04620
:102CA000F8BD2C4310003470EEE7BFF35F8F0023B4
:102CB0002B608CF31088012040424346002BECD05F
:102CC000089801F0FFFBC0462C0100D00021044B06
:102CD000044ABFF35F8F02C39342FAD17047C046E4
:102CE000000100D0800100D0044A1078431CDBB200
:102CF000172B00D9102313707047C046F80300202B
:102D000000B5054B83B00100009318221F23034830
:102D1000FFF78EFF03B000BD1411011090120020C8
:102D200001238340002904D0034A1360034A13603F
:102D30007047034A1360FBE780E200E000E100E037
:102D400080E100E0024B10309B688000C058704763
:102D500000ED00E070B50D00EFF3108672B60F4A7B
:102D60001368002BFCD0BFF35F8F0D4B10309B68B6
:102D700084001B590B4A934203D09D4201D001F0BD
:102D8000B9FB074B9B681D51BFF35F8FBFF35F8F8C
:102D90000022024B1A6086F3108870BD240100D017
:102DA00000ED00E0CD010010F0B5DE4657464E467E
:102DB0004546E0B50C0083B0EFF3108972B6584A6F
:102DC0001368002BFCD0BFF35F8F564B9A6803004B
:102DD00010339F00D559544A9046954232D0A542AF
:102DE00043D0524EAA1B2F2A2CD801228240924651
:102DF00051464F4A12681140019151464D4A1160A7
:102E0000BFF35F8FEFF305829346002A33D101238E
:102E10002A009A4393689C4208D177E04B005B18E4
:102E20009B00F3189968A1422AD01A000621515636
:102E30000029F3DA019B002B19D052463E4B1A6051
:102E40003B4B1A60374B9B68DD51BFF35F8FBFF37D
:102E50005F8F0022324B1A6089F3108803B0F0BCF8
:102E6000BB46B246A946A046F0BD1500EAE7524669
:102E7000304B1A60E6E79342C9D001F03BFBC6E74E
:102E800006215956002921DB4A00501880003418C9
:102E90008046A0689860E079D87106202056987125
:102EA000002824DBA488F01A640524154444001982
:102EB000E0240005400D24022043988052181F4B47
:102EC0009200B6181A781970B271B3E75946002902
:102ED0000FD1FF3191711A49918018490A789A717E
:102EE000184A9B1B5B415A43120D0A70A2E7164811
:102EF000E3E7164A1649D21A083A5002400D014338
:102F00009980144952080A43DA8093E70621515602
:102F100013000029B8DA5A46002AEAD14546DCE710
:102F2000240100D000ED00E0CD010010FC030020E2
:102F300000E100E080E100E080E200E069180020AC
:102F400001BDFFFFAAAA000001BD00003604002059
:102F500000F0FFFF00F8FFFF70B5EFF305810124DB
:102F60000443EFF3108C72B6214A1368002BFCD097
:102F7000BFF35F8F1F4B05001F4AED1A6D416A4377
:102F8000120D1E4D8900AE6852B27658A6421CD072
:102F90000621595691421CD012215956914222D0F5
:102FA0001E215956914220D02A215956032491427C
:102FB00010D0134B19781A708171BFF35F8F002204
:102FC0000B4B1A608CF3108870BDAB680D4C5C50D5
:102FD000EFE700246100091989005B18FF2199714E
:102FE00009499980E5E70124F4E70224F2E7C046A5
:102FF000240100D0FC030020AAAA000000ED00E09C
:1030000069180020CD01001001BDFFFF054B064AE5
:103010001360064A136053609360D3601361536179
:10302000936170478080808000E400E004E400E069
:1030300070B504000E001500FFF756FE01002000D9
:1030400000F006F8A680E580BFF35F8F70BDC04634
:10305000024B9C4661448900016070474000003487
:1030600010B50400FFF740FE01002000FFF7F0FF5D
:10307000FF232371BFF35F8F10BDC04610B504005E
:10308000FFF732FE01002000FFF7E2FFFF23A380DD
:10309000BFF35F8F10BDC04610B504000120FFF7DD
:1030A0002FFE044B9C46604480002060BFF35F8F7E
:1030B00010BDC0464000003483680B4810B58446FC
:1030C00061446244090112019A18591854684B6806
:1030D00001209C4201D802D00020C0B210BD12686D
:1030E0000B689A42F9D8F7E7FFFFFF0F0A4B196800
:1030F000EFF3108072B60A68002AFCD0BFF35F8F2E
:103100001B68BFF35F8F00221A6080F3108840BFF6
:10311000002000217047C04648180020F8B55746E7
:103120004E464546DE46E0B599460CAB1C780DABE5
:103130001B78060090469A460768002C11D1BC7B8C
:10314000002C42D065003B682D19033D59194B787E
:10315000BB73002B00D1FB7300238B704B700B7083
:1031600004E065003B682D19033D5919B2682A4BEC
:1031700094464246E3181B0163441A604A465A606B
:103180000A9A9A600B9ADA6000238B704B700B706E
:103190007B7B9B46002B2BD022005946B8687B686E
:1031A00098473A68002816D05B4658465B005B4457
:1031B0005519033BA870D118D35C002B00D06B705D
:1031C0005B460C707B73A34513D0F0BCBB46B24684
:1031D000A946A046F8BD5B465B005B44033BD318A1
:1031E0009C705119525D002A00D05A705B460B70DA
:1031F0007C7342464B46307D00F0B2FB051E06D084
:103200005346002B03D12100306800F0CDFD0E9B0A
:10321000002BDAD01D70D8E7FFFFFF0FF0B5DE46B8
:1032200057464E4645460023E0B58BB00893674BA2
:103230008200D45800239B46099000F007FB626887
:1032400006000F00EFF3108572B61368002BFCD058
:10325000BFF35F8F23689C465B7B9946002B00D1B0
:1032600069E0A2685A4B90464B441B019844434680
:103270001A685B6810001900801BB941002900DC46
:1032800063E0099800F06CFB0023002298460023BD
:103290000692079300239A466368BFF35F8F5A46EE
:1032A0001A6085F310885346002B08D10028C4D13A
:1032B0000BB0F0BCBB46B246A946A046F0BD089B89
:1032C000414618024B461843D047626806000F007B
:1032D000EFF3108572B61368002BFCD0BFF35F8F3D
:1032E000002F50DB33003B4302D02369002B61D118
:1032F0002368D97B002907D04A00521819688C46E8
:1033000049466244033A51709A7B002A01D14A46E9
:103310009A734A46DA734B46E168013BCA5C013254
:10332000CA545B4623616368BFF35F8F5A461A60D5
:1033300085F3108881E70023002298460023069237
:103340000793002300209A46A6E7002902D100280F
:1033500000D096E70021604600F0A4FC43461A68BE
:103360005B680692079343469B689A464346DB6830
:103370009846E3684B44013B1B7808931B020343C8
:103380002361002088E72369002BB1D0069A079BB0
:10339000921BBB41002B15DB59460491012103917F
:1033A0004946029141460191514620000091FFF7A4
:1033B000B5FEB6E700F04AFA32003B0012184B4166
:1033C000002BE9DA0122034B5242E5E730170020D7
:1033D000FFFFFF0FFFFFFF7F10B5144C6368002B4A
:1033E00004D00A211248FFF733FE10BD2300114A12
:1033F0001021206800F070FB032000F01BFA03206E
:1034000000F018FB03200C4900F064FAFFF76CFC95
:103410000A4B9C4603232375D0231B061B6860447C
:103420006375074B80006060DC60DAE744040020CD
:1034300048180020B93000101D3200104000003440
:1034400030170020F0B54E464546DE465746E0B5FB
:1034500085B0019310AB1B780600039300239946B7
:10346000984600927268EFF3108B72B61368002BC7
:10347000FCD0BFF35F8F3568AC7B002C3DD067007C
:103480002B683F19033FDB195A78AA73002A00D131
:10349000EA73B168474A8C4600980199A218120154
:1034A0006244106051600E9991600F99D16042465C
:1034B0009A705A701A706B7B9A46002B67D0220064
:1034C0001900A8686B6898472A68002852D05346AC
:1034D00050465B005344D719033BB870D118D35CF6
:1034E000002B00D07B7053460C706B7354454FD04B
:1034F000F3681B19013B187800E000207368BFF3E4
:103500005F8F42461A608BF31088002C4FD04B46D9
:10351000002B08D10002204305B0F0BCBB46B246E8
:10352000A946A046F0BD039B002B3ED00E9B002079
:103530000F999847030004000D000B4335D0002974
:103540000ADA009A019B121BAB4100920193002BF7
:103550000ADB039B994685E700F078F924184D4172
:1035600000940195002DF4DA0123134C5B42009383
:103570000194EEE753465B005344033BD3189C7021
:10358000D119D25D002A00D05A7053460B706C736B
:10359000307D009A019B00F0E3F981460028A7D016
:1035A0002100306800F000FCA2E70020B4E7012011
:1035B0004042B1E7FFFFFF0FFFFFFF7FF0B50400C0
:1035C0000D0006267642F717C64636196F4100B53C
:1035D00084B08F4214D811D000F038F932003B008B
:1035E000121A8B41002B15DC002B3ED02000290045
:1035F00000F060F904B080BCB846F0BD8642EBD95B
:103600000026002700F022F932003B00121A8B41FD
:10361000002BE9DD002302930193154B3200009348
:1036200014483B00FFF70EFF0028DFDB002398461D
:10363000BC46114A114F7B6A9C4504D8B96A8E4238
:10364000D4D99C45D2D11168EFF3108072B60B68C3
:10365000002BFCD0BFF35F8F1368BFF35F8F414631
:10366000196080F3108820BFE5E7002ABED0D1E7BB
:10367000ED300010440400204818002000400540B0
:1036800070B504000D0000F0E1F80019694100294F
:1036900002DBFFF793FF70BD012001494042F8E7CC
:1036A000FFFFFF7FF0B5EFF30583CE46474680B5B9
:1036B00005000C0085B0002B12D02C4A0020536A64
:1036C0009C4203D8926A0130AA4204D305B0C0BC20
:1036D000B946B046F0BDE01A421E9041C0B2F5E7CF
:1036E000234E02930193234B0200009330000B0002
:1036F000FFF7A8FE031EE0DD20BF7168EFF310871F
:1037000072B60A68002AFCD0BFF35F8FDAB2944623
:103710003068427B62451DD0FF221A405100894625
:103720000168914488464946414403398978002913
:1037300013D0F1681B0A88464244013A1278DBB282
:103740009A420FD07368BFF35F8F00221A6087F32D
:103750001088B2E7FF221A40EBE732699342F1D1B9
:103760003161EFE7614600F01FFBEBE700400540E9
:1037700044040020ED300010F0B5EFF30582D6468A
:103780004F4646461000C0B51038EFF3108872B6A9
:10379000214C2368002BFCD0BFF35F8F012319005D
:1037A00081401E4D1F006963AA461D4D29601D4DB5
:1037B0002E78AC463500C5402F402B4209D1BFF3CF
:1037C0005F8F276088F31088E0BCBA46B146A846F0
:1037D000F0BD5346144D5F6A83005D59AF420ED36E
:1037E000124A8E439B5862461670BFF35F8F0022C9
:1037F000226088F31088002BE6D09847E4E70C4B52
:1038000092009C46624413681360BFF35F8F0023ED
:10381000236088F31088D7E7280100D000400540D6
:103820003C7005406B1800204C1800206C120020E2
:10383000D03F054010B50100024A0348FFF7D6F912
:1038400010BDC0463811011067180020034B596A9B
:103850000A00986A596A8A42FAD1704700400540C6
:1038600070B504000D00124A536A1900966A536A33
:103870008B42FAD13000190024184D41AB4211D8C7
:103880000ED02B000A494A6A9A42FCD307D1084A53
:1038900002E0516A994202D1916AA142F9D370BD06
:1038A000A642EED9012301246442E5175B42E9E711
:1038B00000400540064A536A9942FCD807D1044BA0
:1038C00002E05A6A914202D19A6A8242F9D3704761
:1038D0000040054070B504000D00EFF3108672B68D
:1038E0001A4A1368002BFCD0BFF35F8F002D1BD04A
:1038F0002000FFF727FA164981420AD02000FFF77F
:1039000029FA01212000FFF70BFA0123A340114AF5
:103910001360114BA400E550BFF35F8F00220B4BE7
:103920001A6086F3108870BD0B4BA200D55001229F
:10393000A2400A4920000B7893430B700449FFF71B
:1039400033FA00212000FFF7EBF9E5E7280100D06A
:1039500079370010386005406C1200206B18002089
:10396000F0B54F46D6464646C0B507002C4C616AB6
:103970000D00A66A616AA942FAD18B4208D805D027
:103980000120E0BCBA46B146A846F0BDB242F7D924
:10399000EFF3108A72B6234801680029FCD0BFF308
:1039A0005F8F0125BD4020491D4C88460978894616
:1039B0002943C9B28C46414660460870391D1B48F0
:1039C000890065630A51B9000B50216A0020294221
:1039D00019D0616A0800A66A616A8142FAD18B42F5
:1039E00019D801D1B24216D8CC4516D00C4B1F20A5
:1039F0001D625D6301230740BB400D4A1E38136002
:103A000043464A461A70BFF35F8F0022054B1A6087
:103A10008AF31088B5E70020F5E70120F3E7C046F8
:103A200000400540280100D06B1800204C180020F1
:103A300080E200E0EFF3108C72B60A490B68002BAD
:103A4000FCD0BFF35F8F01238340074A074813620E
:103A500002789A430270BFF35F8F00230B608CF3F0
:103A600010887047280100D0004005406B180020E6
:103A700070B5050014001600002915D00C00002AAE
:103A800012D080686B689847296800280ED07300B0
:103A90009B196200033B1219CB18033A9C708818DB
:103AA0008A5C002A15D10670200070BD63001B19C6
:103AB0007200033B9219CB18033A9E7088188A5CF7
:103AC000002A02D104703400EEE75A70047034000A
:103AD000EAE75A700670E7E730B583600023CCB29E
:103AE00043730133047342608373C4730D00006831
:103AF000012C06D9421C0133DBB2137003329C4205
:103B0000F9D1FF2129404B005918002340180338F0
:103B1000437030BDF8B5CE46474606000C0080B570
:103B2000002907D04D0003686D18033D5A195778D6
:103B3000002F04D12000C0BCB946B046F8BD7900C2
:103B4000C919033988464344597889460021597078
:103B5000517073683A0021008068984733680028E4
:103B600014D042469A18947059195B5D002B00D00E
:103B700053700F70270049463000FFF7CBFF390024
:103B800002003000FFF774FF0400D3E742464146CD
:103B90005D19AF709A185B5C002B00D06B701470CD
:103BA000E9E7C046F0B557464546DE464E46E0B525
:103BB0000D006B0001685B19DF1E0400C85D83B057
:103BC0000192CA19002850D043001B18033BCB18A0
:103BD0005E78B446002E1AD1019E002E42D0E67BBC
:103BE000002E04D073009B19CB18033B5D70A37BA0
:103BF000002B00D1A573E57300282FD1002353704B
:103C000003B0F0BCBB46B246A946A046F0BD720068
:103C10006244033A89184A78904600224A709146D5
:103C20005A70010032002000FFF722FF434682460F
:103C3000002B07D05B0021684344033BCB185A7824
:103C4000002A16D1424651462000FFF711FF216895
:103C5000019BCA19002BC2D10028CFD043001B18EA
:103C6000033BCB1800219970C8E7019B002BB6D10C
:103C7000C4E750008018033809184878834648463E
:103C80004870587041462000FFF7F2FE59468046C2
:103C90002000FFF73FFF414602002000FFF7E8FE4B
:103CA0008046CFE7F0B557464546DE464E46E0B57E
:103CB00083B00191457B04006B0000685B19DF1E37
:103CC000C15DC219002952D04B005B18033BC318D9
:103CD0005E78B446002E1CD1019E002E44D0E67BB7
:103CE000002E04D073009B19C318033B5D70A37BA7
:103CF000002B00D1A573E573002931D100232800E2
:103D00005370617303B0F0BCBB46B246A946A046EF
:103D1000F0BD72006244033A801842789046002257
:103D2000427091465A7020003200FFF7A1FE4346D0
:103D30008246002B07D05B0021684344033BCB182D
:103D40005A78002A17D1424651462000FFF790FECC
:103D5000019B01002068C219002BC0D10029CDD0E1
:103D60004B005B18033BC31800209870C6E7019B0B
:103D7000002BB4D1C2E750008018033809184878E6
:103D8000834648464870587041462000FFF770FE51
:103D9000594680462000FFF7BDFE41460200200044
:103DA000FFF766FE8046CEE770B5040000292CD0F0
:103DB000437B8B422ED005684800401803382818F2
:103DC0008278002A21D053009B18033BEA5CEE184E
:103DD0008A4202D11BE0002A08D053009B18033B03
:103DE000EB185A788A42F6D142785A7000230122A1
:103DF000837043702000FFF7D5FE617B0200200036
:103E0000FFF736FE6073012000E0002070BD4378AC
:103E10003370EBE701221900FFF7C4FE6073012045
:103E2000F4E7C046F8B5CE464746040080B5062004
:103E30000E0000F023FA051E51D0524B5249E218F1
:103E400053425A418023DB039C4692054F4B624408
:103E50001A604F4B1A6010008B689843FBD1494B96
:103E60008021E3185A4253414A4A5B004900995263
:103E7000062000F003FA3100C00001F0BDFEC309C6
:103E800032D14022012190466162A362256BEB078B
:103E900036D427008026E36A00232C3776013E4380
:103EA00033600620256300F0E9F94146800001F007
:103EB000A3FE236B05009846DB073BD46022E36A30
:103EC0005A406E23134033604346236380231022FD
:103ED0009B013B431A60304B23630323A3642800F8
:103EE000C0BCB946B046F8BD2C4A93423FD9002326
:103EF0002B492C4A6162A362256B9046EB07C8D51B
:103F00002200C02330329B011343234A06201A604B
:103F1000666AA26AB601B61800F0B0F9224901F04B
:103F20006BFEB6020100300001F066FE0021FFF7D3
:103F300097FCAEE72200C02330329B011343164AA0
:103F400006201A60636AA26A9B019946914400F0B8
:103F500095F94B4614499B02994601F04DFE01002C
:103F6000484601F049FE0021FFF77AFCA6E77F22D0
:103F70009901884610400130400819008044030030
:103F800082E7C0460080FCBF00C0004000E0004067
:103F900000F000405C18002001030000FEFF00005C
:103FA000FFFF0000C0FF3F004E0E000030B50C20A8
:103FB00083B000F0B9F9FEF7FBFD00280ED0994B55
:103FC000994A1A605A609A60DA601A615A619A6175
:103FD000DA611A62954A5A6203B030BD944CA06708
:103FE00000F0AAF90122934B1A60636C012BFCD1FB
:103FF0000322914B1A608E4A936B012BFCD1013343
:1040000001218E4A8E480093043300F03DF90523C8
:104010008C4A009301218C4800F036F98B4B5A688A
:10402000FF2A02D8802252005A6080227D4C824BA7
:1040300021691201854D1A60002907D0606901F0DD
:10404000DBFD431C5800C0180338FDD2E0217F4B34
:1040500002201A681140802252012A431160196817
:10406000484003210140116004219A681142FCD0AC
:104070008022802192012A4309011160802252008E
:104080005A60734B2361734B5968FF2900D85A60FB
:104090000321684A6F4B116002399A681142FCD0C3
:1040A000E0201A681040802252011A4310601868FC
:1040B0004840032101400220116066498A6810428D
:1040C000FCD0802292011343802212011A608022C8
:1040D000614B52004A606361604B5968FF2900D808
:1040E0005A6080225E4BE16912015C4D1A60002922
:1040F00007D0606901F080FD431C5800C0180338E8
:10410000FDD2E02255490B681A4080235B012B4306
:104110001A60802380229B012B4312011A608022A7
:10412000414B52004A60E3614E4B5968FF2900D869
:104130005A6080224C4B216A12014A4D1A600029B4
:1041400007D0606901F058FD431C5800C0180338BF
:10415000FDD2E02243490B681A4080235B012B43C8
:104160001A60802380229B012B4312011A60802356
:1041700080225B004B602C4BD20223623B4B596880
:10418000914200D25A608022394B616A1201374D48
:104190001A60002907D0606901F02EFD431C580009
:1041A000C0180338FDD2E02230490B681A40802342
:1041B0005B012B431A60802380229B012B43120159
:1041C0001A608023DB024B60184B6362294B5A68EC
:1041D000FF2A02D8802252005A608022264BA16911
:1041E0001201244D1A60002907D0606901F004FD16
:1041F000431C5800C0180338FDD2E0221D490B684B
:104200001A4080235B012B431A60802380229B018C
:104210002B4312011A6080235B004B600E4BA3619D
:10422000DAE6C04694120020006CDC021BB70000E6
:10423000008000403CB0004030B00040002F685982
:1042400000800240008C864700C002403080004061
:10425000001BB7003C800040405973075480004069
:1042600054B000406080004060B000406C8000406E
:104270006CB000404880004048B00040014B8000D6
:10428000C058704794120020F8B5040021481D0062
:1042900017000E0001F0B0FC0100380001F0ACFC8A
:1042A000069B29041B0319432368002B20DB1A4BB0
:1042B0001A4DE21853425A4180235B019C46120377
:1042C000174B62441A60174B1A601700AB689F4384
:1042D000FBD1C022231D92011A4321232660A06036
:1042E00013602368002BFCDA0823E1601360F8BD3B
:1042F0003F2322681340B342D9D1A3681B051B0D8D
:104300008342D4D1EE22E368D20213408B42CED155
:10431000EDE7C046001BB7000040FDBF00C00040F5
:1043200000E0004000F000408023024A9B0003436D
:10433000D362704700800540AA23064A1B01136020
:104340002F230549D360054B19605368002BFCDA15
:104350007047C0460040024000B0FA0000600240D2
:104360002C4B2D4A70B51A602C4A2D4B2D491A60E2
:1043700014008B689C43FBD12B4D2C4EB54208D2C8
:10438000013E761BB60808CD984723000134B3429E
:10439000F9D1FFF70BFE264A214B1A60214A936898
:1043A000DB43DB01DD09002BF9D14022214B224CFC
:1043B000224E9A675A671A67DA66B44208D22368AF
:1043C0002000002B20D00834FEF758FEB442F6D36C
:1043D0001B4E1C4CC022A168300002F0FFF8A66002
:1043E000FEF774FCFEF712FEFEF7F6FF164C174EB2
:1043F000B44208D2013E361BB60808CC98472B00C1
:1044000001359E42F9D170BD0834FEF729FEB44251
:10441000D5D3DDE700E00040BFCDFBFEFE7F3C00D2
:1044200000F0004000C00040BC0E0020CC0E002078
:10443000FFFFFF0100F00140AC0E0020BC0E002089
:104440000000002000ED00E0CC0E0020D00E002087
:1044500000BEFDE7094A03001068002805D008499E
:10446000C3188B4207D81360704706480449C31825
:1044700010608B42F7D901204042F5E70C1700206D
:10448000000004206C18002010B5FFF7E1FFC046C3
:1044900010B50C0082B01900002A0AD0064B019218
:1044A000009302002300054801F00CFB0120FFF7F8
:1044B000CFFF034B1A00F2E75C1101106C110110E1
:1044C000481701100FB400B5084883B002F0EAF9AC
:1044D000049B002B07D005A91800019101F012FBE5
:1044E000034802F0DFF90120FFF7B2FF9C11011031
:1044F0000419011010B50148FFF7E4FFAC110110D9
:104500009A4200D2885470477047C046F8B5574663
:104510004E464546DE46E0B599460A9B07009A4658
:104520000D9B8846934615000B9E9B0710D10C9B54
:104530009E420DD29D1B14000E005D4422004B468E
:10454000013431002020B847A542F7D1B0460B9E78
:10455000002E27D0444675195346AA1B013E985D8C
:1045600021004B46B847002EF6D123002C00984678
:104570000D9B9B070FD55B46E51A0C9BAB420AD9F6
:104580004646984622004B46310020200135B84768
:104590000134A845F6D82000F0BCBB46B246A94677
:1045A000A046F8BD2C00E3E7F0B54F464646D64698
:1045B000C0B584B098460EAB1B78129F99469446BE
:1045C0000D9C109B119EBA0725D4002E4BD19C4206
:1045D00000D3BFE001223A4092461F2C00D9B8E038
:1045E0000C9A551E302201E0202C03D001342A55AC
:1045F000A342F9D85246002A0DD0A6420BD9202C4E
:1046000044D00C9A551E302201E0202C3ED00134BB
:104610002A55B442F9D1FA064DD57A053FD4002C7B
:1046200039D10F9B102B00D179E00F9B022B00D1C9
:104630008AE030230C9A012413704B46002B3FD0A4
:104640002D230C9A135501340C9B6246009303975B
:10465000434602960194FFF759FF04B0E0BCBA4606
:10466000B146A846F0BD012215003D40AA463A4297
:104670002FD04A46002A02D10C323A4200D0013EE5
:104680009C42BAD21F2CABD9202E27D92024FA065F
:10469000DAD57A0503D4A3422DD0A6422BD00F9BA6
:1046A000102B32D0022B20D0202CCDD030220C9BCE
:1046B0001B191A700134202CC6D04B46002BBFD1D9
:1046C0007B070DD43B07BFD520230C9A135501342B
:1046D000BAE79C429FD21F2C00D881E720249AE79A
:1046E0002B230C9A13550134AEE7202CACD00C9B35
:1046F0001B1901343AE0631E012C92D00F9A102A44
:104700002AD0022A2FD01C00D0E7BB060ED4202CC2
:104710009AD00C9B1A19013478231370C4E7BB0696
:104720000DD478230C9A01241370BFE7202C00D1FC
:104730008AE758220C9B1B191A700134B4E75823DE
:104740000C9A01241370B1E70C9A603301241370A2
:10475000ACE7202400265EE7023CBA06E9D40C9AB6
:1047600012191C00D8E70C9A9246534462221A7020
:104770009AE7C04610B5002800D110BD02F046F8F7
:10478000FBE7C0460B0010B5002802D049681B6843
:10479000984710BDF0B5DE4657464E464546E0B553
:1047A0009BB09B46249B89469846259B0B900C9278
:1047B0004046424619009A4601F0DFFC002800D02E
:1047C000D8E0012240465146774B524201F0D0FCDE
:1047D000002800D0CEE0012240465146734B5242A1
:1047E00001F0B0FC002800D0C4E0002200234046C5
:1047F000514601F0A7FC002800D0B9E142465346DB
:104800000A9209938023289ADB001A400E92289A74
:104810001A4201D1062326930A9A099B16001343D4
:1048200000D0C7E0289B002500261B0500D49BE193
:1048300000230D93269A0D9B9A4200DC9FE1D01A2B
:10484000431E26938023289ADB001A430023002767
:1048500028920D93279B0024BB4200D9DC1B022326
:10486000289A1A400E92289A134203D07B427B4129
:104870005B421C400D9B002B07D00A9809992A0027
:10488000330001F0FEFB0A9009910022002340460C
:10489000514601F057FC002805D0802000068446D0
:1048A000099961440991289A414B0B9D1340049347
:1048B000269B0A9A0293099B03940092019349460E
:1048C0005B4628000C9A00F08BF90400002F62D0A0
:1048D000289B220098061F23C0179843631C984604
:1048E00049465B466530A8470D9B0025DA179C18A2
:1048F000DB0F9A465440013F01E0202D13D00AAA55
:1049000094461F23200063440A2101355E1901F0FB
:1049100073F93031317020000A2101F06DF9260061
:104920000400092EE9D805230693002304930A33D3
:104930000393534605970B9F029312AB0093424695
:104940005B46494638000195FFF72EFE0E9B04009A
:10495000002B20D00C9BC51A279BAB421BD91E00F5
:1049600022005B46494620200135B8470134AE425B
:10497000F6D810E0289B42460493279B49460393B0
:10498000269B0B9802935346009201935B460C9A28
:1049900000F026F9040020001BB0F0BCBB46B24674
:1049A000A946A046F0BDC046FFFFEF7FFFFFEFFF27
:1049B000FFF7FFFF734B099F9C467800400D604452
:1049C00001F0EEFB704A714B01F075FB704A714BC0
:1049D00001F052FB3B03704A1B0B1A4304000D000D
:1049E000300011006D4B002201F041FB6C4A6D4B11
:1049F00001F061FB02000B002000290001F03CFBEC
:104A000001F0E6FB0D9001F0CBFB674A674B040019
:104A10000D0001F050FB0022654B01F02DFB01F071
:104A2000D7FB644A0600644B2000290001F043FBD9
:104A3000040030000D000F9601F0B2FB5F4A604B9E
:104A400001F039FB02000B002000290001F00FFBF0
:104A500002000B0006000F0001F02DFB32000400E5
:104A60000D003B003000390001F006FB00221090E1
:104A70001191544B2000290001F003FB0022524BFE
:104A800001F0FAFA02000B002000290001F0F9FA07
:104A900000224E4B01F0F0FA02000B00200029002A
:104AA00001F0EFFA0D008021040032003B000020ED
:104AB000C90501F0DCFA02000B002000290001F01A
:104AC000DBFA02000B001098119901F0DAFA0022CB
:104AD000314B01F0D1FA3E4B0F9C9C4664440022BE
:104AE000230501F0E8FA05000E0002000B000A9809
:104AF000099901F027FB00280AD00D9B2800013BF3
:104B000031000D930022304B01F0BBFA05000E007E
:104B1000C6270D992B0063318F42BF4128997F42F0
:104B20000437090500D495E6334300D182E6099C99
:104B3000284A2100284B0A9801F012FB002808D0CF
:104B400000222100254B0A9801F0FCFA002800D031
:104B500070E6269B002B00D17CE60E9B5A1E9341EB
:104B6000269AD31A269375E6002304270D9371E63F
:104B700043460A9380231B065344099342E60023CD
:104B800026935FE601FCFFFFFB799F501344D33F60
:104B9000B3C8608B288AC63F0000F03F0000F83F92
:104BA00061436F63A787D23F71A379094F930A408E
:104BB0000000E03F1655B5BBB16B0240EF39FAFE7D
:104BC000422EE63F00002C40000024400000184028
:104BD000FF0300002D431CEBE2361A3F80842E4178
:104BE000F0B54E46DE4657464546E0B597B0994685
:104BF000209E219F229B8346984607910C923B0062
:104C000032003000390001F0B8FA002800D0A9E1E4
:104C1000012230003900CA4B524201F093FA0028B9
:104C200000D0E1E0012230003900C64B524201F0D1
:104C30009FFA002800D0B7E0002230003900C24BB4
:104C400001F096FA002800D099E0002230003900E7
:104C5000BE4B01F077FA002800D090E0002200233C
:104C60003000390001F06EFA002800D0B1E00023D6
:104C70000D93249B5B0501D40623984608AB9C4604
:104C80001722002430234146624404E001341355C6
:104C90000139202C01D00929F8D888463000390084
:104CA00001F096FA4346DA00A94B05009B181A68F2
:104CB0005B680892099301F073FA02000B00300060
:104CC000390001F0D4F9089A099B01F0F4F90A902F
:104CD0000B9101F0A1FA824601F05EFA02000B008E
:104CE0000A980B9901F0C3F900229A4B0A900B9194
:104CF00001F03EFA002800D1C0E001239C46E244C6
:104D0000504601F049FA02000B000898099901F099
:104D10001FFA002802D000239A4601354346002B93
:104D20006AD008AB17269C4608956644554614E0A1
:104D300001235B4243440A2128009A4600F05CFFAD
:104D4000013430313719397028000A2100F054FF3E
:104D5000092D00D8D0E0D0460500202CE8D10EABBC
:104D600098460323249A1340012B00D196E0202378
:104D7000249A01930392239A434602921EE0249BB5
:104D800058460493239B00960197039343460C9A3D
:104D9000029307994B46FFF7FDFC17B0F0BCBB46EA
:104DA000B246A946A046F0BD249B5B070ED4032261
:104DB000694B2499019203912399029100935846DB
:104DC0004B460C9A0799FFF7A1FBE6E70422634BD9
:104DD000EFE73B0032000020002101F048F90123F9
:104DE00006000F000D9344E7249B0393239B02933B
:104DF000042301935A4BE1E7280001F0D1F90200A6
:104E00000B003000390001F032F9524B002206004D
:104E10000F0001F097F90EAB984600280AD1002246
:104E2000300039004B4B01F0A3F9002802D1EB0709
:104E300000D50135202C94D008AA944617232800C9
:104E400063440A2101341E1900F0AEFE30312800FF
:104E500031700A2100F0A8FE051EEBD10323249A2D
:104E60001340012B1BD0202C00D180E70D9B002B81
:104E700035D02D224146631C0A5579E700220A9855
:104E80000B99344B01F05EF9002800D046E75346F9
:104E9000002B51D101239C46E2443FE72024239B71
:104EA000002BE0D00D9B002B03D1249A0C3313422E
:104EB00002D0239B013B2393239BA342D3D908AB6E
:104EC0009C46172230236244202C00D14FE72399BF
:104ED000013413558C42C6D0202CF8D147E7249BCF
:104EE0005B0724D4249A2300120700D440E7202231
:104EF000414601330A553BE75746089D202C00D117
:104F00002DE7220030214046002F09D00132B15454
:104F1000202A00D123E7D3431B191B18002BF5D1FE
:104F20000EAB98462E234146541C8B5482E72B220D
:104F30004146631C0A551BE7DB0700D4EEE6A9E7F0
:104F4000FFFFEFFFFFFFEF7F65CDCD4165CDCDC109
:104F5000B01301100000E03FB8110110BC110110A6
:104F6000C8110110249B0393239B029303230193F5
:104F7000004B23E7C4110110F0B5DE464E465746FC
:104F80004546E0B59FB01C00289B91460993C94A4D
:104F9000C94B8B4608901A60002900D118E2002303
:104FA00020789A46002800D11AE226001D005C46AF
:104FB0000AE02A006F1C4B46089D2100A8473D00CF
:104FC00001363078002870D02528F2D110239B4676
:104FD000083B9A46043B9846023B00219C46721CC3
:104FE000107816000300203BDBB2102B03D8B34F20
:104FF0009B00FB589F460300303B092B32D900230E
:105000000A932A2868D0002398462E283ED0030011
:10501000683BDBB2122B1CD8A94A9B00D3589F4691
:10502000012301321943DBE7634601321943D7E715
:10503000434601321943D3E75B4601321943CFE7B8
:10504000534601321943CBE780235B007078194344
:1050500001360300253BDBB2532BAAD8994A9B00AB
:10506000D3589F4600270300B800C01901364000FE
:10507000C018337830381A00303A0700092AF3D9BB
:105080000A901800002398462E28C0D180237078FB
:10509000DB0019430300303B721C092B00D8A1E14F
:1050A0002A2800D1B2E11600B1E7A346AA462C0097
:1050B000D14503D801235B424B449A464B465246A6
:1050C00059460020089DA84720001FB0F0BCBB46F1
:1050D000B246A946A046F0BD099B40CB0A96002ED9
:1050E00003DB50780993561C8DE728380143704242
:1050F0000A9009935078561C85E7782800D1DFE1A3
:10510000582800D14CE26F2800D14FE3622801D12A
:1051100000F030FC10230A009A430B92692801D05A
:1051200000F0A9FC0A230C934B0500D5D0E10B9AA3
:10513000802311009B0019408B461A4200D0A1E247
:10514000802311005B0019408A461A4200D0B6E362
:1051500013005B0600D5EDE2130009991B0601D48C
:1051600000F076FC08C91BB2D8171A18424092B258
:1051700009919346DA0F1292002B09D18023102255
:105180000B99DB000B4091430B91002B00D0E4E224
:105190000B9A6123920600D541230EA91F228C464B
:1051A000DBB262440A3B5F461395A34655460C9C0E
:1051B000B2460D9316000AE03033DBB20135735569
:1051C000A74200D2EDE2202D00D1EAE20700210043
:1051D000380000F011FDCBB20929EDD90D9A9446A3
:1051E0006344DBB2EAE780239B0070781943013601
:1051F0002FE77078682800D1CDE18023013619436C
:1052000027E770786C2800D1BFE180235B00194349
:1052100001361EE7462800D19BE10722099B049135
:10522000073393430A9A19000392424602920CC92B
:1052300008980092019309912A004B462100FFF73C
:10524000CFFC01360500BCE62A006F1C4B46089DCA
:1052500021002520A84701363D00B2E68B0700D487
:10526000ADE1099B2A009A466B1C9846534601CB38
:1052700021009A46089F4B46C0B2B8470A9B9C46FD
:105280006544012B00D886E2089B4746B0462600BD
:105290004C4699463A002300013731002020C84788
:1052A000AF42F7D1A1465346340046460993013632
:1052B00087E6C046794F001018170020D011011062
:1052C0001412011060120110099B04CB9B46434647
:1052D0000992002B00D1C6E013789C46002B00D128
:1052E000BDE34346013B099A0133D0180A9F1300DE
:1052F00001E0834203D05A780133002AF9D1099A98
:105300000A979B1A0B9380230A00DB001A400C9229
:10531000194204D00B9B434501D943460B9302230A
:105320001A000A400D920B4200D187E16046002826
:1053300000D168E10C9B002B00D10DE1A844C246CE
:10534000099B57465B1B9846089BB2462A002600DD
:105350004C46994609E023003100551CC847434696
:10536000585D002800D126E12A009742F3D1A146DA
:105370003D00340056460D9B002B00D043E15B46B8
:10538000013609931DE6099B1A0008CA9246002BB4
:1053900048D0212211438B460EA884461F21614428
:1053A000099500220F27A4460D0002E0202A0CD008
:1053B0000B003C001C4020003730092C00D8073877
:1053C0000132A85419090F2BF0D86446099D32E028
:1053D000DC4B2078089300239A46002800D0E4E5AF
:1053E000002465E6434606000A9F9800C018013273
:1053F000400080191678030030003038303B09280F
:10540000F3D93000984616000A9700E6099B023649
:1054100004CB9046D2434046D217104080460993B1
:105420003078F4E51022080090431132104383468F
:1054300000224905B0D55B460693082305934346F1
:105440000493102303930023029316AB019200935D
:105450002A004B4621000898FFF7A6F8534605009E
:1054600001360993ADE513789C46002B00D1F7E295
:1054700002235B4237E7202302009A43472A04D1E4
:1054800080231B01194302239843452801D120237F
:1054900019430722099B0491073393430A9A190081
:1054A0000392424602920CC9089800920193099116
:1054B0002A004B462100FFF76DF90136050080E513
:1054C00010230C930C230A009A430B924B0503D52F
:1054D00001230B9A9A430B92692800D127E664288E
:1054E00000D124E60B9A802311009B0019408B46C3
:1054F0001A4200D066E1802311005B0019408A4601
:105500001A4200D039E213005B0600D53CE11300DB
:105510001B0600D4A6E2099B04CB1204120C93468E
:1055200009935B46002B00D09AE10B9A10331100CF
:1055300099430B91520500D492E100239A460B9BAC
:1055400006930A9B0593434604930C9B0393002305
:105550000CE12023194360E6099B0A9A5B1B9846DD
:105560004B4691461F00B2462600089C2A003B008D
:105570003100A04743460135585D0028F6D14A4620
:105580003400B94656460A92F5E6C0239B00B0782F
:10559000194302365DE5C023B0781943023658E559
:1055A0000C230A009A4314331A43103B0B920C93BA
:1055B0004B058DD496E7A14634005646DBE60A9AA1
:1055C000012A00D853E26B1E9F18089BB0462600A4
:1055D0004C4699462A002300013531002020C84757
:1055E000BD42F7D1A14634004646099B3A0001CBA3
:1055F000210098467D1C4B46089FC0B2B8474346E1
:1056000001360993DDE40B9B0A9AA8469A4200D81A
:10561000B5E694466544ED1A089B4746B046260019
:105620004C4699463A002300013731002020C847F4
:10563000AF42F7D1A14634004646A0E60B9A0A993C
:10564000531C914200D814E24B199B1A1F00089B6F
:10565000B24626004C4699462A0023000135310007
:105660002020C847BD42F7D10A9BA14601330B93C6
:10567000099B34001B7856469C466046002800D0A3
:1056800058E67CE60722099B073393430132944690
:105690009C4462465F6809921A68FB171093119345
:1056A00010981199030053400E930B007B400F9309
:1056B00094460E9A0F9B121A8B410E920F93FB0F7A
:1056C0006246129300233A439B463DD00B9A6123D6
:1056D000920600D541230022DBB20EA90A3B8C467C
:1056E00092460D9343461F326244139515965546D4
:1056F0000E9E0F9FA24690460C9C14930CE03032F5
:10570000D2B2434601355A55BB4500D18AE1202D1E
:1057100000D18AE106000F0022000023300039008A
:1057200000F0A8FAD2B2092AE9D90D9B9C4662443E
:10573000D2B2E6E7FF23099904C913401A00099180
:1057400017E5C046094500100B9A10331100994324
:105750000B915205BAD500239A460B9B06930A9BE0
:105760000593434604930C9B0393129B0293534669
:10577000019316AB2A00009321004B460898FEF7D0
:1057800013FF013605001CE4FF22099B02CB1140E8
:105790008B460993C5E65346454609930136FFF704
:1057A00010FC56465C46AA46139DD6E708230C9388
:1057B0000B910B99642800D084E60B9B5B0500D508
:1057C00086E6B4E40722099B0733934301329446EB
:1057D0009C44624609921A685B6810009B4613005D
:1057E0005A46134307D10B9A1033110099430B917A
:1057F000520500D5A1E60B9A6123920600D54123FC
:105800000022DBB20EA90A3B8C4692460D9343461A
:105810001F3262445F461295A34655460400B246C5
:1058200090460C9E13930DE03032D2B243460135C0
:105830005A550023BB4200D100E1202D00D100E1E8
:1058400004000F00320000232000390000F012FA9B
:10585000D2B2092AE8D90D9B9C466244D2B2E5E750
:105860000B9A6123920600D54123DBB20EA90A3BB5
:105870001F228C460D93230062445C46129517004C
:1058800055469B46B2460C9E08E03033DBB20135EC
:105890007B55B4420ED3202D0CD0040031002000E3
:1058A00000F0AAF9CBB20929EFD90D9A94466344C6
:1058B000DBB2ECE756465C46AA46129D3FE6099BE2
:1058C0001A0008CAD91713925A184A409246DA0F9A
:1058D0001292002B08D1802310220B99DB000B4081
:1058E00091430B91002B2BD10B9A6123920600D58B
:1058F00041230EAA1F279446DBB20A3B0D9567444D
:105900005D460993A3465446B2460C9E08E03033E8
:10591000DBB201357B55B4420ED3202D0CD00400F0
:105920003100200000F068F9CBB20929EFD9099ABB
:1059300094466344DBB2ECE756465C46AB460D9DAD
:105940000B9B2A0006930A9B210005934346049370
:105950000C9B08980393129B013602935B460193BC
:1059600016AB00934B46FEF71FFE139B05000993F1
:10597000FFF727FB02230C931AE7099B04CB9246FF
:105980001293002A08D1802310220B99DB000B40D0
:1059900091430B91002B2BD10B9A6123920600D5DA
:1059A00041230EAA1F279446DBB20A3B0D9567449C
:1059B0005D460993A3465446B2460C9E08E0303338
:1059C000DBB201357B55B4420ED3202D0CD0040040
:1059D0003100200000F010F9CBB20929EFD9099A63
:1059E00094466344DBB2ECE756465C46AB460D9DFD
:1059F0000B9B2A0006930A9B2100059343460493C0
:105A00000C9B08980393002302935B46019316AB0B
:105A100000934B46FEF7C8FD129B05000993013623
:105A2000FFF7CFFAB44200D871E6149B54460E96A5
:105A30000F97AA469846159E139D8EE6A64200D85B
:105A4000FBE6139B56469846AA465C46129D76E5B1
:105A500008C9D8171A1842400991FFF78AFB00239A
:105A60000B9350E4099B04CB9346099359E52F000F
:105A7000BBE50B9301E6063B0C939AE60CB410B51C
:105A800084B006AC08CC0A000094010004480394DA
:105A9000FFF772FA04B010BC08BC02B01847C04649
:105AA0000145001000B585B00391012102900093DB
:105AB000034813004A4202A9FFF75EFA05B000BD91
:105AC000854700100FB410B50C4984B006AA08CA67
:105AD0000C680392002C0BD000920122084852421D
