:020000041000EA
:1000000000B5324B212058609868022188439860DF
:10001000D860186158612E4B002199600221596106
:100020000121F02299502B49196001219960352056
:1000300000F044F80222904214D00621196600F024
:1000400034F8196E01211966002018661A6600F04E
:100050002CF8196E196E196E052000F02FF8012189
:100060000842F9D1002199601B49196000215960AB
:100070001A491B48016001219960EB211966A021F2
:10008000196600F012F800219960164914480160C1
:100090000121996001BC002800D000471248134993
:1000A000086003C880F30888084703B5996A0420EC
:1000B0000142FBD001200142F8D103BD02B5186610
:1000C0001866FFF7F2FF186E186E02BD00000240BE
:1000D000000000180000070000035F00212200005C
:1000E000F4000018222000A00001001008ED00E03C
:1000F00000000000000000000000000074B24E7A12
:1001000000200420F7010010C3010010C5010010F9
:10011000C1010010C1010010C1010010C101001097
:10012000C1010010C1010010C1010010C701001081
:10013000C1010010C1010010C9010010CB01001065
:10014000CD010010CD010010CD010010CD01001037
:10015000CD010010CD010010CD010010CD01001027
:10016000CD010010CD010010CD010010CD01001017
:10017000CD010010CD010010CD010010CD01001007
:10018000CD010010CD010010CD010010CD010010F7
:10019000CD010010CD010010CD010010CD010010E7
:1001A000CD010010CD010010CD010010CD010010D7
:1001B000CD010010CD010010CD010010CD010010C7
:1001C00000BE00BE00BE00BE00BE00BEEFF3058054
:1001D000103800BEF2EB8871647A0110807A011049
:1001E0003402001090A31AE700201F49086006C8D7
:1001F00081F3088810471D48006800282FD10DA4FE
:100200000ECC002902D000F012F8F9E71849194A7B
:10021000002000E001C19142FCD1174988471749ED
:1002200088471749884700BEFDE701C901C29A42C5
:10023000FBD37047807A0110C0000020340F0020EB
:10024000F48801100000042000000420F48801104C
:10025000001004200010042000000000704709482E
:1002600006F0BEF90047000008ED00E0000000D0F5
:10027000380F002060190020FD4D0010811F001074
:10028000254F00105756000006005250ABB3605384
:10029000603A011006005250861C0302803A011099
:1002A000060052505422A29D903A0110050052506F
:1002B000DE65F468F4880110F8B5C0460448054BC3
:1002C00010B5834203D0044B002B00D0984710BDDB
:1002D000340F0020340F00200000000006480749BA
:1002E000091A8B10C90FC91810B5491003D0044B57
:1002F000002B00D0984710BD340F0020340F002091
:100300000000000010B5074C2378002B09D1FFF73F
:10031000D5FF054B002B02D0044800E000BF0123AD
:10032000237010BDD81100200000000070360110AD
:10033000054B10B5002B03D00449054800E000BF71
:10034000FFF7CCFF10BDC04600000000DC1100200C
:1003500070360110D02370B505005B00C3580B4EFA
:100360009B6A903511210A4A0400300006F0D4F847
:100370002800AE6209F020FBEB68002B05D0B82303
:1003800001222800E15809F0BFF870BD10180020C4
:1003900070360110F62370B55B00C35882B00500BB
:1003A0000400986A06F01EFE0B4E00900191BC35C9
:1003B00011210A4A300006F0AFF82800AE6209F0B9
:1003C000FBFAEB68002B05D0E42301222800E1585A
:1003D00009F09AF802B070BD5C1300207836011065
:1003E000B5239B0070B5C418084B0500A36220001C
:1003F00009F0E2FAE368002B06D0BF239B0001223C
:100400002000E95809F080F870BDC046843601101C
:10041000A223F0B5DE4657464E4645469B00E0B562
:10042000C55838239B462C339846E4339946884B6D
:1004300004009A46070006001121AB6A854A83B082
:10044000834480448144504606F066F8534658463B
:10045000236609F0B1FA636C1D377536FF37FF3636
:10046000002B04D001225846216E09F04DF8AB6AEA
:100470009A46236A18009B460CF006F85146050080
:10048000020058460CF02EF8002800D18EE0636A76
:1004900018009B460BF0F8FF514605000200584635
:1004A0000CF020F800282BD0A36A18009B460BF014
:1004B000EBFF51460500020058460CF013F80028E7
:1004C00000D1B2E0E36A18009B460BF0DDFF514615
:1004D0000500020058460CF005F8002800D1ADE0F8
:1004E000236B180099460BF0CFFF51460200050020
:1004F00048460BF0F7FF814600286FD0002528E022
:10050000280050440BF08AFA06F008FC0223051C70
:10051000BB62380009F050FAFB68002B06D0A2231A
:100520005B0001223800E15808F0EEFF01222300B1
:100530007133FF331A70484609F03EFA4B46DB68C8
:10054000002B06D0B8235B0001224846E15808F092
:10055000DBFF3000B56209F02FFAF368002B06D0FC
:10056000CE235B0001223000E15808F0CDFF281CAB
:1005700006F038FD8C25384E00900191374A112144
:10058000300005F0C9FF4046665109F015FA236FA7
:10059000002B04D001224046615908F0B5FF03B09A
:1005A000F0BCBB46B246A946A046F0BD2800504468
:1005B0000BF034FA06F0B2FB0223051CBB623800D4
:1005C00009F0FAF9FB68002B06D0A2235B00012298
:1005D0003800E15808F098FF0022A8E728005044AE
:1005E0000BF01CFA06F09AFB4B46051CBB62380068
:1005F00009F0E2F9FB68002B06D0A2235B00012280
:100600003800E15808F080FF2700F0373800BD625D
:1006100009F0D2F9FB68002B9BD08C235B000122F0
:100620003800E15808F070FF93E7280050440BF0C1
:10063000F5F906F073FB0123051CBFE728005044C1
:100640000BF0ECF906F06AFB0123051C60E7C046DD
:10065000F81700209036011048130020983601103A
:100660009D2070B5C00007F05BFD0221E8234942E0
:10067000C1509933FF33C150F033C218893BFF3B5F
:10068000C250C2182C3BC250EE220023E02452007C
:100690008350DC3AFF3A64000251F624A4000519A5
:1006A000A93CFF3C055105192C3C05512034035150
:1006B0001C3C02518824E4000519C93CFF3C05514B
:1006C00005192C3C0551203403511C3C0251B03417
:1006D0000151C221890044183839445044182C393A
:1006E0004450203143501C394250234C6831435010
:1006F00008394450D9240431405048314350043122
:1007000043501E49A4000151043403511C4D1034C0
:100710000251083C0551022504340051483403516C
:10072000043403510C340151043403511034055185
:10073000144D083C0551032504340051124C03515B
:1007400004340351114C0151043403511034055148
:100750000F4D083C05510F4C00510F4C0351043410
:1007600003510E4C01519421C90043500C49435090
:100770000C4BC25470BDC04611040010A4360110C9
:1007800055030010950300102404000034040000F9
:10079000E1030010440400008C0400009C040000ED
:1007A000DC040000C404000070B504000023093418
:1007B000FF34A3620500200009F0FEF8E368002B77
:1007C00006D098235B0001222000E95808F09CFE27
:1007D00070BDC04683239B0070B50500C61803009A
:1007E00001229935C133FF33FF351A700400280008
:1007F00009F0E2F8EB68002B06D0E0235B00012251
:100800002800E15808F080FE8D2301229B00E318A8
:100810001A70300009F0D0F8F368002B06D08D2351
:100820009B0001223000E15808F06EFE70BDC0460A
:10083000E2235B00C358F0B5C64698468F239B0061
:10084000C7182C33C6180023050000B50400BB628E
:10085000380009F0B1F8FB683935FF35002B06D0B8
:1008600099239B0001223800E15808F04DFE002337
:100870003000B36209F0A0F8F368002B06D0A4237F
:100880009B0001223000E15808F03EFE0023A362E5
:1008900043469B6A28002363084BAB6209F08CF83F
:1008A000EB68002B06D0B0235B0001222800E15842
:1008B00008F02AFE80BCB846F0BDC046A83601103C
:1008C000F8B5E2235B00C258836A04005D1CC823AC
:1008D0008562DB009D4200DAF8BD8F239B00C618BD
:1008E000016B906A06F0A7FA071C280006F012FBBD
:1008F000011C381C06F0A5FA00236063B3623000C7
:1009000009F05AF8F368002B06D099239B000122C6
:100910003000E15808F0F8FD9A239B00E518002309
:100920002800AB6209F048F8EB68002B06D0A4233E
:100930009B0001222800E15808F0E6FD25000C4B41
:100940003935FF35AB62280009F036F8EB68002B2B
:1009500006D0B0235B0001222800E15808F0D4FD46
:10096000F323DB00E318A36101232377B4E7C04638
:10097000B43601108F23F0B50500C6469B00C7189A
:100980002C33C618836B39359B6A040000B5C26EE0
:10099000FF35022B42D0012B02D080BCB846F0BDFF
:1009A0002733D35C002B00D192E0802212069446BC
:1009B000036A38006344BB6208F0FEFFFB68002B4B
:1009C00006D099239B0001223800E15808F09CFDD5
:1009D000802212069446636A6344B362300008F0D2
:1009E000EBFFF368002B06D0A4239B00012230000C
:1009F000E15808F089FD0023A3623E4B2800AB625A
:100A000008F0DAFFEB68002B06D0B0235B00012270
:100A10002800E15808F078FDF9233EE0C333FF33A6
:100A2000C35898462823D35C002B3CD0036A380077
:100A3000BB6208F0C1FFFB68002B06D099239B0026
:100A400001223800E15808F05FFD8022120694462A
:100A5000636A6344B362300008F0AEFFF368002BB2
:100A600006D0A4239B0001223000E15808F04CFD81
:100A70000023A36243469B6A280023631E4BAB629C
:100A800008F09AFFEB68002B06D0B0235B00012230
:100A90002800E15808F038FDF623DB00E318A361D5
:100AA0000123237779E7802212069446036A3800EF
:100AB0006344BB6208F080FFFB68002B06D09923DB
:100AC0009B0001223800E15808F01EFD636AC1E76F
:100AD000036A3800BB6208F06FFFFB68002B06D08A
:100AE00099239B0001223800E15808F00DFD636A4C
:100AF00073E7C046C4360110BC360110D423C35876
:100B000070B59B6A050003624362030001226935E8
:100B10009133FF33FF351A700400280008F04CFFB2
:100B2000EB68002B06D0C8235B0001222800E158A7
:100B300008F0EAFC70BDC046A02370B50400C5589B
:100B4000836A581CA06206F0E5F9A96A06F0CCF9A0
:100B5000002800D170BD8F239B00E51800232800DA
:100B6000AB6208F029FFEB68002B06D099239B00AD
:100B700001222800E15808F0C7FC9A239B00E518E1
:100B800000232800AB6208F017FFEB68002B06D0AB
:100B9000A4239B0001222800E15808F0B5FC2500A1
:100BA000164B3935FF35AB62280008F005FFEB68BE
:100BB000002B06D0B0235B0001222800E15808F08A
:100BC000A3FC25002300012269359133FF33FF3553
:100BD0001A70280008F0F0FEEB68002B06D0C8233E
:100BE0005B0001222800E15808F08EFCF323DB00B3
:100BF000E318A36101232377ACE7C046B4360110A4
:100C0000A022E223F0B5C64687585B00826AC3582B
:100C1000551C00B5016B040085620600986A06F059
:100C20000AF9434906F021F98046280006F072F9D6
:100C3000616B06F01AF9011C404606F0FCF8E06210
:100C4000051C06F089F9C317C018584006F062F970
:100C50000936B96AFF3606F047F9002814D135493C
:100C6000281C06F0F9F9B062300008F0A5FEF36820
:100C7000002B06D098235B0001223000E15808F0D9
:100C800043FC80BCB846F0BD8F239B00E5180023D1
:100C90002800AB6208F090FEEB68002B06D0992389
:100CA0009B0001222800E15808F02EFC9A239B00AB
:100CB000E51800232800AB6208F07EFEEB68002BED
:100CC00006D0A4239B0001222800E15808F01CFC58
:100CD0002500194B3935FF35AB62280008F06CFE52
:100CE000EB68002B06D0B0235B0001222800E158FE
:100CF00008F00AFC25002300012269359133FF33F7
:100D0000FF351A70280008F057FEEB68002B06D05C
:100D1000C8235B0001222800E15808F0F5FBF3230B
:100D2000DB00E318A3610123E56A237797E7C04658
:100D30002222823F0000B443B4360110F0B5FC20FB
:100D4000D6464F464646C000C0B507F0E9F9030055
:100D5000403383633433C366020098234066A8326D
:100D6000C0500833C2502C33C05034320833C25004
:100D700002222C33C05009335242FF33FE21C250AD
:100D80000023490043501C394350583142505C31D4
:100D90004250A8229D4992008350083A8150BD21BB
:100DA0000124043280504832835004328350984AE0
:100DB0008900425004314350964D10314450083957
:100DC00045500431405048314350043143500C31B8
:100DD00042500431435002218A46DC2155468900A5
:100DE00045508D4D083945500431405048314350ED
:100DF000043143500C314250F021C9004518F22112
:100E000003278900455010314750844F0839475017
:100E1000043140508249882743500431435081496E
:100E2000814E4250043145500421FF00C151083F1A
:100E3000C651F326F600B1467C4F8144C0517C4F29
:100E40009326C3510437C3517A4FF600C2514F461F
:100E500087511036B4460526B04666464746875148
:100E6000083EB446744EB0466646474687514F46E4
:100E7000724E8051724E835104368351714E8251AD
:100E800004368751A2270626FF00C6516E4E083F42
:100E9000C651F626F600B446844466466B4FC051F0
:100EA0006B4FC3510437C3516A4FC2510437C65107
:100EB00007261037C651684E083FC651674F564641
:100EC000C051674FC3510437C351664FC251F92215
:100ED000D2008718F93AFF3A8750634A8350C022FC
:100EE00092008718C322D2008750F42292008718FC
:100EF0005E4A8750153AFF3A87181932FF328750F9
:100F0000B03A87185A4A87500C3A8718594A87507E
:100F100004328150584A8454A62292008718CD2268
:100F2000D2008750DA2292008718544A8750544AD8
:100F300083500C328718534A875004328650524AE5
:100F400000278354514A83508722D2008618D62224
:100F5000D200865086184E4A865004328450183A81
:100F600081504C4A8350343A84504B4A8350343A2F
:100F700081504A4A83509422D2008618EF22D20030
:100F800086508618464A865004328450183A81505A
:100F90000200F02100260C32C9004250414C424967
:100FA0004450043141180E604F60F221C90043548F
:100FB000083142503D4C3E494450043141180E60C6
:100FC0004F60F521C900435408314250394C3A4929
:100FD0004450043141180E604F60F821C900435459
:100FE00008314250354A3649815004328218166021
:100FF0005760FB22D200835405614561C360836161
:101000000377E0BCBA46B146A846F0BDA907001078
:10101000A4360110D507001031080010C1080010D7
:101020001C0400002C040000750900103C040000A2
:101030008404000094040000FD0A0010A4040000D1
:10104000EC040000FC040000010C00100C05000082
:101050005405000064050000390B00107405000001
:10106000BC050000CC0500000C0600001C060000BA
:1010700024060000EC050000F40500006C060000EA
:101080005C0600003C06000044060000A4060000C8
:1010900084060000EC0600002C0700006C0700002E
:1010A0004C070000CC36011084070000E036011028
:1010B0009C070000E8360110B4070000CC070000D0
:1010C000F0360110942010B5400007F029F8030015
:1010D000283303628E2300225B00C064C250343B7D
:1010E0000132C25010BDC046F0B507000400060032
:1010F000050087B003A919480AF0C8FA039B5437C2
:10110000E367380008F058FC236E8436B435002BB2
:1011100004D001223800E16F08F0F6F9049B30009A
:10112000B362019308F048FCF368002B05D0AC23B0
:1011300001223000E15808F0E7F9059B2800AB6276
:1011400008F03AFCEB68002B05D0DC2301222800D4
:10115000E15808F0D9F907B0F0BDC046F0170020FB
:10116000054B10B51A78002A00D010BD0132034893
:101170001A700AF041FAF8E75A190020F017002017
:10118000922070B5800006F0CBFF03002833036285
:10119000F0220023AC242049C0648350083A8150D7
:1011A00004328050483283501C49043283500C3240
:1011B000815004328350483AFF3A194D640002517D
:1011C000083C0551043400514834035104340351A0
:1011D0000C340151D821040049004350E83448310F
:1011E00044500C3911344350FF34203944500431F9
:1011F0004250043143546031435001009023513137
:101200009B00FF31C150C1182C3BC1500433C25068
:10121000183BC25070BDC04661110010A4360110C9
:10122000E9100010036BF0B54F4699466423D6468B
:101230009A4680B5050083B08244806806F09EFD22
:10124000AB6AEC6A06000F0000930194002C36DDB7
:101250004B46696A986A05F0F1FD009A019B041CEF
:1012600039003000801A994105F02CFD174A184BBF
:1012700005F06FFC05F052FD011C201C05F0F5FD8A
:10128000FC21890505F0F1FD296A05F0D7FD2862EA
:101290008C242851504608F08FFB2B6F002B04D074
:1012A00001225046295908F02FF94B469B6AAE623D
:1012B000EF626B6203B0C0BCBA46B146F0BD002C11
:1012C00001D1002BC4D1286AE2E7C04695D626E8B2
:1012D0000B2E113EA42010B5400006F021FF0300A4
:1012E00038330363A02200231049C0658350083AB5
:1012F000815004328050483283500D49043283506B
:101300000C328150043283503C328350020041330E
:10131000FF339832C250C2182C3BC2500122043312
:10132000C250183B0332C25010BDC04625120010F7
:10133000A4360110F0B5C6460500060080211F4AFC
:10134000040000B5D06884350006000F5436013023
:10135000490053680B42FCD10138176A0028F8D1C4
:101360008021D068154A0004000F7F4201308900B7
:1013700053680B42FCD10138536A0028F8D15B4214
:101380003000E767984608F017FB236E002B04D067
:1013900001223000E16F08F0B7F843462800AB6245
:1013A00008F00AFBEB68002B05D0AC2301222800D3
:1013B000E15808F0A9F880BCB846F0BD0000205004
:1013C000F0B5D6464F4646460025C0B53D4C8AB0DE
:1013D00020003D4906F0CEF902232000082200211A
:1013E000009506F02BFA00220121082002F0F8F8FF
:1013F00000220121092002F0F3F88026F827C023FB
:1014000076021B037F0202A9102206A89A460493C3
:1014100002960397059505F0F9FE2C4B06A91022BC
:1014200002A89946079305F0F1FE8023DB0205939D
:10143000274B2000039380231B039846049300222C
:1014400002AB002106F052FA012223682000134368
:1014500023600121022300950B3206F0EFF90022F0
:1014600001210C2002F0BCF8002201210D2002F025
:10147000B7F8534602A9102206A8049302960397D0
:10148000059505F0C3FE4B4606A9102202A8079356
:1014900005F0BCFEC023DB0205930E4B0022039334
:1014A000434601210493200002AB06F01FFA0222FA
:1014B0002368134323600AB0E0BCBA46B146A8468D
:1014C000F0BDC04600002050F836011080770100C2
:1014D000807701088077010C862070B5800006F0C7
:1014E0001FFE030028330362C022002394242049F6
:1014F000C0648350083A815004328050483283508F
:101500001C49043283500C32815004328350183A03
:10151000FF3A194D64000251083C05510434005152
:1015200048340351043403510C340151C0210400E8
:1015300049004350B834483144500C3911344350B9
:10154000FF34203944500431425004314354603157
:1015500043500100842321319B00FF31C150C11849
:101560002C3BC1500433C250183BC25070BDC04622
:10157000C1130010A436011035130010036C9B6AD0
:1015800083637047436F9B6AC3637047F0B54E46F1
:10159000DE4657464546A823E0B5C6583433C358FF
:1015A000070083B08068994606F0E8FBBA6AFB6AD8
:1015B00004000D00002B11DD20002900801A994144
:1015C000002915DC002900D17AE0BC62FD6203B07D
:1015D000F0BCBB46B246A946A046F0BD002BF4D1F4
:1015E000002AF2D020002900801A99410029E9DD63
:1015F00088235B009A46B36ABA449B4605F0E8FC30
:10160000324905F032FC05F0EDFC5B463A6B009088
:101610000191981A05F012FB2D4A2E4B05F099FA0C
:1016200000222D4B05F07BFA009A019B05F077FA1A
:1016300005F074FB4B46796B9B6A061C581A994659
:1016400005F0FCFA224A234B05F083FA0022224BD4
:1016500005F065FA009A019B05F061FA05F05EFB62
:101660005B463B634B46311C7B638046B86B05F0A1
:10167000E2FB53469862504608F09EF95346DB68F9
:10168000002B06D09C235B0001225046F95807F03E
:101690003BFF3E00F86B414605F0CDFB4136FF367F
:1016A000B062300008F088F9F368002B00D18CE7B5
:1016B000B4235B0001223000F95807F025FF84E7CE
:1016C000064B984200D880E792E7C0465F708930A9
:1016D000C3718BB665BCB93F008076403F420F00B6
:1016E000F22070B5800006F01BFD03004833036450
:1016F000343343670200A023C066B032C0500833C1
:10170000C2502C33C05034320833C2509E222C3386
:10171000C0500B3BFF3B52008350303283500023BC
:10172000F02436490C328350083A815004328050FC
:10173000483283503249043283500C328150043293
:101740008350D03AFF3A2F4D64000251083C0551B6
:1017500002250434005148340351043403510C343D
:1017600001510434035110340551274D083C0551F3
:101770000434005148340351043403510C340151F2
:10178000A82104008900435071343C314350FF3498
:101790000C31445044182C3944500431AA2442508E
:1017A00005000421A4000151D9357C340351FF35D3
:1017B0000C34055105192C3C0551DE250434025129
:1017C000183C01517C3403512D3CFF3C0419AD0001
:1017D000445146192C3D465104354251183D415162
:1017E0007C354351F0239B00C450C4182C3BC4509B
:1017F0000433C250183BC15070BDC0467D15001067
:10180000A4360110851500108D150010036A70B5FF
:101810009C6A0021201C05F05FFBFE21431E9841BD
:101820006400640805008905201C05F05DFB0028A4
:1018300005D007482900012209F0A0FF70BD054925
:10184000201C05F012FB05F0B5FB80B2F2E7C046A4
:10185000FF0F000000F07F45436D70B59C6A0021CA
:10186000201C05F039FBFE21431E984164006408EA
:1018700005008905201C05F037FB002805D0074826
:101880002900002209F07AFF70BD0549201C05F0EF
:10189000ECFA05F08FFB80B2F2E7C046FF0F0000C4
:1018A00000F07F4510B5012009F03AFF10BDC04699
:1018B000A62070B5800006F033FC030028330362D5
:1018C000343343658023C0649022C0500023F82441
:1018D0002D498350083A8150043280504832835059
:1018E0002A49043283500C32815004328350284DEF
:1018F000E73A0251083C05510225043400514834AE
:101900000351043403510C34015104340351103495
:101910000551204D083C0551043400514834035111
:10192000043403510C340151DC21040049004350BC
:101930008834483144500C3943500C3144182C3908
:1019400044500431425004314354113C60314350FF
:10195000FF3C0C31445044182C394450043182244B
:1019600042500421A40001517C3403510400A423FB
:1019700059349B00FF34C450C4182C3BC45004336A
:10198000C250183BC15070BDA5180010A4360110FC
:101990000D18001059180010F0B5C646C36A0400AF
:1019A0009E6A816A00B50700301C05F047FA88235B
:1019B000216A051CA062301C984605F056FA616A3F
:1019C000061C281C05F051FA011C301C05F036FAE3
:1019D00043466037E050380007F0EEFFE36E002B1F
:1019E00005D0434601223800E15807F08DFD80BC48
:1019F000B846F0BDA02010B5400006F091FB0300F2
:101A00003433C36298220023104980658350083A1A
:101A1000815004328050483283500D490432835043
:101A20000C328150043283503C32835002003933EF
:101A3000FF339032C250C2182C3BC25001220433F3
:101A4000C250183B0332C25010BDC0469919001055
:101A5000A4360110962110B5104C8901200002F027
:101A60002FFF02211C2001F0A3FD02211D2001F007
:101A70009FFD192001F0CCFDD02380221B0692048B
:101A80005A62A369DB0607D41022A3691A42FCD16B
:101A90002368A3691A42F8D010BDC0460040034035
:101AA0001A4A70B593690400056ADB0602D5002363
:101AB0002B7070BD0020102193691942FCD113686E
:101AC000DBB2622804DC0D2B0DD02B540130F3E780
:101AD0000D2B08D010210D4A93691942FCD11368CF
:101AE000DBB20D2BF8D1002326002B548425236A6A
:101AF0005C366351300007F05FFFA36E002BD8D037
:101B000001223000615907F0FFFCD2E7004003409A
:101B1000F0B5C64600B5836A9D6A436A2878984640
:101B200000283ED00D23002220249C461E4F1F4932
:101B30000026BB5F83421BD08B691C42FCD108602E
:101B40004046AB5C83540132A85C002816D0642A5E
:101B5000EED164239C460022BB5EE0440D2B12D1E3
:101B60002021124A93691942FCD10D2313600AE027
:101B70008B691C42FCD163460B60DDE79044002278
:101B8000BB5E0D2BECD02022084910008B69184059
:101B90001A42FAD10D230B604346187080BCB84638
:101BA000F0BD014FEBE7C046501900200040034054
:101BB000A82070B5800006F0B3FA030030338362CA
:101BC0009822002380242E4940658350083A815092
:101BD00004328050483283502A49043283500C32F8
:101BE000815004328350284DEF3A64000251083C82
:101BF0000551022504340051483403510434035183
:101C00000C34015104340351103405511F4D083C6C
:101C100005510434005148340351043403510C3449
:101C20000151E0210400490043503C314350F83455
:101C30000C31445044182C39445004314250793C02
:101C400004314254FF3C6C3144500C3943500C3148
:101C500044182C394450043142500431435460310B
:101C600043500100A62361319B00FF31C150C118D0
:101C70002C3BC1500433C250183B0332C25070BDDC
:101C8000551A0010A4360110A11A0010111B0010E3
:101C90008823F0B5076AC5583433C4583B7D466D78
:101CA00083B0002B0CD1337D002B1AD12B7D002B60
:101CB00028D1237D002B36D109F0F2FB03B0F0BD13
:101CC00000238022002100200093103309F03AFB0A
:101CD000012300220021B86A09F00EF9337D002BA0
:101CE000E4D000238022102100200093103309F05B
:101CF00029FB012310220021B06A09F0FDF82B7D99
:101D0000002BD6D000238022202100200093103306
:101D100009F018FB012320220021A86A09F0ECF841
:101D2000237D002BC8D00023802200933021002087
:101D3000103309F007FB012330220021A06A09F0CB
:101D4000DBF8B9E7084B10B51A78002A00D010BDAF
:101D500001321A7009F056F8044809F04DF80020D5
:101D600009F05CF8F3E7C046591900201C56011031
:101D7000CA2070B5800006F0D3F90300283303624F
:101D80003433436502008023C0649032C05008336E
:101D9000C2502C33C05034320833C2502C33C050A0
:101DA000F8220023B02430498350083A815004328D
:101DB0008050483283502D49043283500C32815078
:101DC00004328350503AFF3A294D64000251083CD6
:101DD00005510434005148340351043403510C3488
:101DE0000151DC21040049004350F0344831445093
:101DF0000C3943500C3144182C39445004314250B2
:101E00000431435460314350A83C0C3144504518D0
:101E10002C3945500431822542500421AD004151F6
:101E20007C3543510C35445146192C3D46510435FF
:101E30004251183D41517C3543510C3544514619AE
:101E40002C3D465104354251183D41517C3543519A
:101E5000C8239B00C450C4182C3BC4500433C25048
:101E6000183BC15070BDC046451D0010A43601107E
:101E7000911C0010D0231B065A68120612D480222F
:101E80005A61D0231B065A68D20112D48022520410
:101E90005A61D0231B065A68120112D480221205FF
:101EA0005A61704780229A61D0231B065A68D2017A
:101EB000ECD5802252049A61D0231B065A68120185
:101EC000ECD5802212059A61EBE7C04610B50720D9
:101ED00001F09EFB1B2001F09BFB182001F098FBFA
:101EE000D02380221B065A62802212055A62802269
:101EF00052045A6210BDC046C02070B5400006F0C2
:101F00000FF91C4A00230262802290241A4983623E
:101F1000C1674062C3660367184D83507F3A025120
:101F2000083C055104340051483403510434035132
:101F30000C340151E821040043503C3143508834B3
:101F40000C31445044182C39445004314250113C57
:101F500004314254FF3C6C3144500C3959344350E5
:101F6000FF3420394450043142505432FF328354FC
:101F700070BDC046CD1E0010A4360110751E0010A5
:101F800010B50021002007F051FE10BD7047C0467B
:101F90000A4B01211A68002300B589B00693059306
:101FA0000491029301931C310833039100930021A3
:101FB000043B034807F00EFC09B000BD08130020E5
:101FC00050100020014B036001207047501000208A
:101FD000F0B5DE4657464E464546E0B5ADB0FEF795
:101FE0003FFBFE4B002199468360FD4B00220362BC
:101FF000FC4B05004362FC4B80278362FB4B0026B1
:10200000C362FB4B3F0603639923DB00C3181960CF
:102010005A609A230021DB00C318F6489522186005
:1020200059604B46D200DB6DAA181A600022F24BB1
:10203000EA509D3BFF3BEB181E605F60EC239B006A
:10204000EB181E605F608323DB00EB181E605F608F
:102050009023DB00EB181E605F60FEF76FFE4B46BF
:10206000836002235B42984641463733FF33C150B9
:102070003033C1503033C150F03BC1630167C150B0
:102080003433C15049464B6EA62189004218D031E5
:102090001A6042185A60002282620022C262026301
:1020A00042639246BF22D54BD200036243620021B5
:1020B0008318002219605A60C022D20083180021C0
:1020C0004A460400CE4818605960D36DBB22D20046
:1020D000A2185A600022CB4BE250B6229200A318FD
:1020E00068321E605F60A31868321E605F60A318CC
:1020F00068321E605F60A31868321E605F60A318BC
:1021000068321E605F60A31868321E605F60A318AB
:1021100068321E605F60A3184A461E605F60D36F1E
:1021200022005B680C321A60FEF7CCFF4A4680231F
:10213000826042464146C2503033C250E232815042
:1021400041621390FFF71CF84946434681608021A5
:1021500043504146B233C1504346E23143504946B1
:10216000020043624B6EE8329A6003002933FF336A
:102170001E605F609E66DF660190FFF7ABF8494620
:1021800042468160902100234250426300228262D5
:10219000C36203008B465146D833016241621E6020
:1021A0005F600690FFF796F84A46434682605A46BB
:1021B00083505246436302624262002300228262DD
:1021C000C3620300D8331E605F600290FFF782F89D
:1021D00049464246816059460023425042630022EC
:1021E0008262C36203005146D833016241621E60BD
:1021F0005F600390FFF770F94A4643468260802291
:1022000083504246B233C25042624A460100536E86
:10221000B830D8600B00F8331E605F609E66DF66E2
:102220000091FFF75DFAFC239B050362FA234A46FF
:102230009B05826043624246AC2342648267C2507F
:102240003433C250002200238262C36202634363BC
:1022500053468363C3630300B133FF331E605F6083
:10226000862383469B005B441E605F60A0239B0027
:102270005B441E605F60FFF71BFB4A46826042467C
:10228000426282654A46536E020088321A61030038
:10229000C8339E66DF661E605F6068339E66DF66D9
:1022A0000790FFF7A7FB494681605946096A4246F5
:1022B00001625946496A030041628C21425002631F
:1022C0005246D03382621E605F600890FFF792FB37
:1022D0004A4682605A46126A8C2102625A46526A03
:1022E000030042624246425002635246D033826249
:1022F0001E605F600490FFF75BFC494643468160C7
:102300004A4688214350C362536E020090325A619C
:1023100002003D4BE93203623C4BFF324362002135
:102320001300002219605A600200F132FF321300DC
:1023300000223749824619605A604A46D36D02002E
:10234000C932FF329A600200812300219B00D03203
:10235000C150166057606832166057609666D7663F
:102360006832FFF705FD4A468260424641464262B6
:1023700082658E328150343281504A46536E02005B
:10238000F0329A6103003133FF331E605F609E6656
:10239000DF660590FFF7B0FD494602004B6E203224
:1023A0008160DA6103000200002100201133FF3355
:1023B000186059601000002215490E909960DA608B
:1023C00049460200CB6DF032DA600100962200230C
:1023D0005200C8318350066647661BE0501000204B
:1023E0004804002034040020200400200C040020B5
:1023F000F803002040787D01E40400009A99193E1A
:102400008096980014060000901200202C120020E4
:1024100080F0FA020E604F60CC270623BF00EB511C
:102420002A000421062005F05DFE0C37E8512A0041
:102430000421062005F056FEB946043FE8512A0063
:102440000421062005F04EFE043FE8514C27BC460F
:102450007836AC446746B446AC446646466015964A
:1024600098267600B446076014976F1DFF37876083
:102470001697AC44AE2766467F00C6601796BC46EA
:10248000C426AC4476006746B446E621AC446646B2
:10249000076118970127890046612A006F50199635
:1024A00004210120E92605F01DFEB600A8512A00EE
:1024B0000421012005F016FE043EA8512A00042143
:1024C000012005F00FFEA4218C468022AC44614619
:1024D000043ED200A8511A910160AF5004212A0095
:1024E000012005F0FFFDFE492A006850042101206B
:1024F00005F0F8FD8122D200A85004212A00012015
:1025000005F0F0FDD02294468D23AC446246F54997
:10251000DB0068501B9202600421EF502A0001206A
:1025200005F0E0FDF04B2A00E8500421012005F001
:10253000D9FD8E21C90068502A000421012005F030
:10254000D1FDBA2292009446AC446246E74B1C92FD
:10255000E850AD3BFF3B02600421E7502200012020
:1025600005F0C0FDB3239B00E050220004210120B0
:1025700005F0B8FDB2239B00E050220004210120A9
:1025800005F0B0FDB1239B00E050A93BFF3B9C460A
:102590001A3BFF3B9846A444CA23624641469B002F
:1025A00002600B92E15022000131032005F09AFDF8
:1025B000CD218900605022000421032005F092FD06
:1025C000CC218900605022000421032005F08AFDFF
:1025D000D621CB2349008C469B00E0500D3BA44400
:1025E000FF3B61469C46A444634643601E93E4233C
:1025F00001601D9141460B9A9B008260E1502200D0
:102600000131032005F06EFD2200A05104210320BA
:1026100005F068FDE6214D3E89006050220004214E
:10262000FF3E032005F05EFDB4469F21A4448900CF
:1026300066468C463139A444FF3962468C46E52310
:10264000A44461469B00E0500A9181604146643396
:10265000066042600992E15022000131032005F03A
:1026600041FDA049220060500421032005F03AFDFD
:102670008023DB00E05022000421032005F032FD1E
:10268000FF230A999B00E05081604146099A643318
:1026900006604260E15022000131032005F022FD76
:1026A0009249220060500421032005F01BFD8D217A
:1026B000C900605022000421032005F013FD8C4B5B
:1026C0000F96E0500660099E643346600A9E220021
:1026D00086600421E750012005F004FD854B2200AF
:1026E000E0500421012005F0FDFC9A23BE26DB000A
:1026F000E050220004217600012005F0F3FCB446EE
:10270000A44466467C4B1096E05006600526643370
:10271000E65022000421052005F0E4FC774B22005E
:10272000E0500421052005F0DDFCA723DB00E0508C
:1027300022000421052005F0D5FC0B99704B0F9A5F
:10274000E05081600A990260C160099A109964336F
:10275000426001612200E6500421052005F0C2FC20
:10276000684B2200E0500421052005F0BBFCB42397
:10277000DB00E05022000421052005F0B3FC109995
:10278000614B0022E050016188210F9E49000660E4
:10279000099EBC2346600B9E5B0086600A9EC66055
:1027A000019E0320725041463200F150013105F084
:1027B00099FCC2235B00F05032000421032005F095
:1027C00091FC3100C026760088510A000E000320DB
:1027D000042105F087FCBE235B00F050320033007B
:1027E000683298330196C836026043608660069866
:1027F0001F92C022804687500421020001202093AE
:10280000219605F06FFC4346CC2142465850C8390A
:10281000012005F067FCC826434642469851042132
:102820000120069305F05EFCC421069B88465850A3
:102830001900C0227831016002982291875004214A
:102840000200012005F04EFCCC21029B58501A00DA
:10285000C839012005F046FC029988510A00012080
:10286000042105F03FFC4346C0220299C85078314C
:10287000016003982391875004210200012005F094
:1028800031FCCC21039B58501A00C839012005F0B7
:1028900029FC039988510A000E000120042105F04B
:1028A00021FC414603967050A42378360660249696
:1028B000E02002260021009A5B001150D65004311E
:1028C000DE3805F00FFCAA2300995B00C8500A000F
:1028D0000220042105F006FCA82300995B0015E006
:1028E0000C04000004040000740400006C040000E8
:1028F00064040000D4040000CC0400003C05000087
:1029000034050000A40500009C050000C8500A0022
:102910000220042105F0E6FB0099A6230A005B00D3
:10292000C8509832683102604160269100205946B3
:102930004C33C8506833C8506833CE5025920421B8
:102940005A46023005F0CEFB9D2359469B00C850E5
:102950005A460421022005F0C5FB9C2359469B00E2
:10296000C8505A460421022005F0BCFB9B2359465F
:102970009B00C8509221193BFF3B5B4449004360D8
:10298000594428938C2301600020079AAE365B00DF
:102990009051089ED0506833D050C83BF750320059
:1029A00027910130042105F09DFB43463200F05091
:1029B0000421012005F096FBC0233200F0500421D1
:1029C000012005F08FFBBC230896F050743606609A
:1029D0000498043BC750020004210120299605F009
:1029E00081FB049B4146984658501A00C03901208B
:1029F00005F078FB4146C0234246C850042101201F
:102A000005F070FB4346BC22049398507433036076
:102A100051462A930020B823C8506833CF505246FD
:102A20000421012005F05EFB962351465B00C8504F
:102A300052460421012005F055FB942351465B00CA
:102A4000C85052460421012005F04CFB9223514608
:102A50005B00C850B43B53440360C4204000804630
:102A6000020000202B93030088508C211A00059847
:102A700049004350683143500E9BD03910009A648E
:102A80005A5084238830AF65ED65EF502D50903358
:102A900088302F50ED502833EF500433ED50283359
:102AA000EF5084300433ED502F5004302D50080087
:102AB000B83B6F502C30ED502C332F50ED50BD23D0
:102AC000CE209B00EF5080000433ED502B582A009D
:102AD0001F60AC39012005F005FB4B46EB582A007E
:102AE0001860CE2080002B5804215F60012005F083
:102AF000F9FA4B46EB582A005860CE2080002B583C
:102B000004219F60012005F0EDFA4B46EB582A00A6
:102B10009860CE2080002B580421DF60012005F052
:102B2000E1FA4B46EB582A00D860CE2080002B58A3
:102B300004211F61012005F0D5FA4B46EB582A000D
:102B40001861CE2080002B5804215F61012005F020
:102B5000C9FA020048462B5805995A610C92822204
:102B60008C46186892006244026094205A68800083
:102B700060441060E7209A68C00021181160C838CE
:102B8000DA6821181B6948301160221840301A6039
:102B90002318E8200C9A800013602B582A001F602D
:102BA0000421012005F09EFAE92189006B580D39B6
:102BB0001860059BFF399C46614401608120C0007C
:102BC0002B582A001F600421012005F08BFAFE4BD0
:102BD000B821EB5889001860059B2A009C46614487
:102BE00001608E20C0002B5804211F60012005F0D9
:102BF00079FAF64B0126EB582200186096239B00C9
:102C000053440360DC235B00E750A2270433E45005
:102C10007033E6500433E4502C33E650BF000433E5
:102C2000E450E651613F2C33FF3FE450E651043756
:102C3000E4514746353BFF3BE6500433E450303324
:102C4000E651E4503D33FF33E35804211E606837FA
:102C5000012005F047FABC46B323AC4467469B000D
:102C6000E358119718600760CC2080002358CD27C7
:102C7000804622001E600421012005F033FABF00C7
:102C8000E359220018604046235804215E60012069
:102C900005F028FAE35922005860404623580421E1
:102CA0009E60012005F01EFAE359019F8021BC4679
:102CB0001A68890061449860116000995B68119FEF
:102CC000D131FF3119600760E62080002358E727E3
:102CD000804622001E600421012005F003FABF0097
:102CE000E359220018604046235804215E60012009
:102CF00005F0F8F9E35922005860404623580421B2
:102D00009E60012005F0EEF9E359F43F1A685F4434
:102D100098600C971760BC275B68BF005F441F601A
:102D2000D4235B009946A9444B4603608020C00031
:102D30002358804622001E60042101200D9705F0D3
:102D4000D1F9A34F2200E3590421186040462358CB
:102D500001205E6005F0C6F9E35922005860404644
:102D6000235804219E60012005F0BCF9E3590C9F13
:102D70001A68986017605B680D9F22001F604B46C1
:102D800003608D20C000235880461E60042101206E
:102D900005F0A8F98F4F2200E3590421186040463E
:102DA000235801205E6005F09DF9E3592200586028
:102DB0004046235804219E60012005F093F9E35911
:102DC0000C9F1A68986017605B680D9F22001F6057
:102DD0004B4603609A23DB00E35804211E60012068
:102DE00005F080F97C4B2200E3587C4F18608E235D
:102DF0009B009C46AC4461460160A720C00023585C
:102E0000804612911E600421012005F06BF9E35900
:102E1000220018604046235804215E60012005F01E
:102E200061F9E359220058604046235804219E600E
:102E3000012005F057F9E3592200986040462358D5
:102E40000421DE60012005F04DF9E3592200D8602D
:102E50004046235804211E61012005F043F94946EC
:102E6000E3590C9F1A68186117605A680D9F176024
:102E70009A68119FDB68176019601299220001603F
:102E8000B420C000235880461E600421012005F0B4
:102E900029F9534F2200E359042118604046235872
:102EA00001205E6005F01EF9E3592200586040469B
:102EB000235804219E60012005F014F9E3592200F3
:102EC0009860404623580421DE60012005F00AF98D
:102ED000E3592200D8604046235804211E61012096
:102EE00005F000F9E3590C9F1A68186117605A68D9
:102EF0000D9F17609A68119FDB6817604F461F602F
:102F0000129FD8230760A8271398B9468067C0513D
:102F10002C37C651C050A4203900019F80467E67DF
:102F2000BF673E5048463F500800AC307E503A00E4
:102F3000FF503B58C22780381E60D039FF3805F05B
:102F4000D1F801997F00CB590A001860C0204000D9
:102F50000B5880385E600421FF3805F0C3F80199F2
:102F6000CB590A005860C02040000B5880389E6042
:102F70000421FF3805F0B6F8019BDB59069F1A685B
:102F8000791CFF319860116002995B684A1CFF321E
:102F90001A60039A531CFF3303608820C8233F50F4
:102FA000095007008421D35856500120D25180394E
:102FB0001E60170005F096F8CC23FB5841461860B8
:102FC0002300C933FF330DE00C040000740400003B
:102FD000040400006C040000D40400003C05000060
:102FE000A405000003600098039746678067465079
:102FF00049464050A8314358AA2788464D39020017
:103000001E60FF39012005F06DF800997F00CB5953
:10301000186008004146804643584D3902005E6002
:10302000FF39012005F05EF84346CE210093DB59BD
:10303000890058601B6859441960E021890059448F
:103040009823016058465B00C6500433C0502C33AF
:10305000C6500433C0509C208000804658464146EC
:1030600043585A461E600421012005F03BF859469A
:103070002137FF37CB5941461860584643585A46C6
:103080005E600421012005F02DF85946CB590899BE
:1030900058600F001B68F8371F60049FF8370760FF
:1030A00080270800CE518421804640503C3143584F
:1030B00002001E60BC39012005F014F84246C4230A
:1030C000D3580799186082238C469B0063440360A1
:1030D000C0218423049808928046C651C0504358AA
:1030E00002001E60BC39012004F0FCFF414643464B
:1030F0000491C4215B580799186094238C469B0067
:10310000634403605046C667C051A837C35952464E
:103110001E600421012004F0E5FF53460437DB590B
:10312000583F1860A4239B00EB1803602800A023DD
:103130001D30FF30A0632C30E0662C30E050843826
:10314000E0512000F6230930FF305B00E8503030BA
:103150004C3BE85030309433E85030300300019855
:10316000069F0600543603623E6330363300029EEB
:10317000594633630600E2230398B43606635B00C6
:103180006430E0508320009E8000231830005430CB
:1031900033620300DC200B505846494684364650C3
:1031A0008F2080002318584603649A20800023183B
:1031B0005846089943671130FF30C8620800079AE3
:1031C00060301062584604994130FF30C862B52023
:1031D00080002B1850466031516583625C300300DB
:1031E000A22080002B5028000599383008622C302E
:1031F00048652C30030088200B502800BC300300A9
:10320000BC200B50D84B24985B6B229A58612798AE
:103210001F9FDA609861239A28981F601A61209F87
:10322000299AD8611D985F601A62219F2A9A986234
:103230001E989F60D8625A620F9A269F1A63099A55
:103240009F635A63149A259F1A64159ADF635A6420
:10325000169A01279A64179AC44EDA64189A7F4224
:103260001A65199AFC205A651A9A80009A651B9A69
:10327000DA651C9A1A660B9A5A660A9A9A66109A26
:10328000DA662B9A1A67C82292000023A918012235
:103290000A604B60C621890069180E604F60E22108
:1032A000890069180A604B60E0210127B04E89004F
:1032B00069187F420E604F6001272918AD4E08380B
:1032C0000A604B607F4229180E604F608B21C90055
:1032D00069180A604B608A21C9008C460121A64802
:1032E0006544494228606960AC250126AD0061193A
:1032F000083D0A604B606119A04D76420D604E603A
:10330000C6250126AD006119083D0A604B606119B0
:103310009B4D76420D604E60E025AD0061190A605C
:103320004B6001219748083D651949422860696052
:10333000FA25AD0061190A604B6001219248083DF1
:103340006519494228606960654661190A604B60E9
:1033500001218E48083D651949422860696097251A
:10336000ED0061190A604B6001218948083D65192B
:10337000494228606960A425ED0061190A604B602C
:1033800001218448083D6519494228606960B125DA
:10339000ED006119083D0A604B60AC460121012532
:1033A000019F7D486444494220606160791CFF317F
:1033B000724C0A604B606D4208390C604D6001250B
:1033C0006A4C6137FF376D420A674B673C607D602E
:1033D000069F72483900B0310A604B600121A8375E
:1033E000494238607960029F01253C00A837B0341B
:1033F0002260636038607960039F6D423C00A837AB
:10340000B0342260636038607960009F5B4C3900A3
:10341000D0310A604B6008390C604D600125534C77
:103420003137FF376D420A674B673C607D605C4611
:10343000012789344E4EFF34226063607F42083C8E
:103440002660676001274B4E7034226063607F42C4
:10345000083C266067609624A4005C442260636098
:103460009424A4005C4401252000079E424C3100B6
:103470006D42046045600125A031404C0A604B60FC
:103480006D4208390C604D600A674B670121444862
:10349000741CFF3449422060616031007131FF319A
:1034A0000A604B600121089F3E486936FF36494259
:1034B000306071603900A8310A604B6001213A48E0
:1034C0004942A03738607960049F01263C00A0374C
:1034D000A83422606360386079605746274DA8376A
:1034E0003A607B607642083F3D607E600126244D55
:1034F00070373A607B607642083F3D607E60059E93
:1035000070373A607B60083F386079603100012590
:103510000931FF310A604B60184C711CFF316D425C
:103520000C604D600125144C6936FF366D420A6708
:103530004B670E98346075600125010001260F4C21
:103540006D42046345630E4D8263C363A0319830BE
:1035500076420A604B60056046602DB0F0BCBB4609
:10356000B246A946A046F0BD501000200200FFFF61
:103570000A00FFFF0B00FFFF0C00FFFF0000FFFF32
:103580000100FFFF0400FFFF0500FFFF0600FFFF33
:103590000700FFFF0800FFFF0900FFFF0300FFFF18
:1035A0000E00FFFF0F00FFFF0D00FFFF7047C0463A
:1035B000094A830094464022634410B51C68C00049
:1035C0006240C02414408022520113431C60034B0C
:1035D0009C466044416010BD04C001400040014071
:1035E0000A4B80009C4604236044002901D00C2330
:1035F0000821002A00D10B00026853400C221A4017
:1036000080235B01184302607047C04604C001403C
:103610000123D0228340120693629361094A8300FA
:103620009446402263441968C0004A40C0211140BA
:103630008022520113431960034B9C4605236044CA
:103640004360704704C0014000400140024B1868CD
:103650008007C00F7047C04600C00640EFF31080DF
:1036600072B6034A1368002BFCD0BFF35F8F70471C
:103670002C0100D0BFF35F8F0022024B1A6080F351
:10368000108870472C0100D070B5EFF3108C72B623
:103690000D4D2B68002BFCD0BFF35F8F0724CB08A8
:1036A000C618C05C01230C40A3401C000440034228
:1036B00007D103433370BFF35F8F2C608CF3108806
:1036C00070BD100001F04CFC2C0100D0F8B547464D
:1036D000CE46884680B5EFF3108C72B6214D2C682B
:1036E000002CFCD0BFF35F8F9A422CD8D408072758
:1036F000055D061901241740BC402C421FD007214C
:103700000127894609E0D408055D06194C463900B1
:103710001440A1400C00294211D001329342F2D250
:1037200001204042BFF35F8F00220E4B1A608CF3E2
:10373000108800280FDBC0BCB946B046F8BD2C434A
:1037400010003470EEE7BFF35F8F00232B608CF323
:103750001088012040424346002BECD0089801F02D
:10376000FFFBC0462C0100D00021044B044ABFF3EC
:103770005F8F02C39342FAD17047C046000100D068
:10378000800100D0044A1078431CDBB2172B00D90B
:10379000102313707047C0465C04002000B5054B31
:1037A00083B00100009318221F230348FFF78EFF08
:1037B00003B000BD30370110701300200123834097
:1037C000002904D0034A1360034A13607047034A78
:1037D0001360FBE780E200E000E100E080E100E050
:1037E000024B10309B688000C058704700ED00E02D
:1037F00070B50D00EFF3108672B60F4A1368002BF8
:10380000FCD0BFF35F8F0D4B10309B6884001B59B9
:103810000B4A934203D09D4201D001F0B9FB074B04
:103820009B681D51BFF35F8FBFF35F8F0022024B78
:103830001A6086F3108870BD240100D000ED00E00E
:10384000CD010010F0B5DE4657464E464546E0B580
:103850000C0083B0EFF3108972B6584A1368002B3E
:10386000FCD0BFF35F8F564B9A68030010339F0064
:10387000D559544A9046954232D0A54243D0524E33
:10388000AA1B2F2A2CD801228240924651464F4A29
:1038900012681140019151464D4A1160BFF35F8F8C
:1038A000EFF305829346002A33D101232A009A437D
:1038B00093689C4208D177E04B005B189B00F3189B
:1038C0009968A1422AD01A00062151560029F3DA3C
:1038D000019B002B19D052463E4B1A603B4B1A609D
:1038E000374B9B68DD51BFF35F8FBFF35F8F0022C3
:1038F000324B1A6089F3108803B0F0BCBB46B24665
:10390000A946A046F0BD1500EAE75246304B1A60C2
:10391000E6E79342C9D001F03BFBC6E706215956C2
:10392000002921DB4A005018800034188046A06826
:103930009860E079D871062020569871002824DB21
:10394000A488F01A6405241544440019E0240005F5
:10395000400D24022043988052181F4B9200B61845
:103960001A781970B271B3E7594600290FD1FF31A7
:1039700091711A49918018490A789A71184A9B1BCB
:103980005B415A43120D0A70A2E71648E3E7164A54
:103990001649D21A083A5002400D01439980144941
:1039A00052080A43DA8093E7062151561300002992
:1039B000B8DA5A46002AEAD14546DCE7240100D0AD
:1039C00000ED00E0CD0100106004002000E100E007
:1039D00080E100E080E200E05D19002001BDFFFF12
:1039E000AAAA000001BD00009A04002000F0FFFF19
:1039F00000F8FFFF70B5EFF3058101240443EFF3F6
:103A0000108C72B6214A1368002BFCD0BFF35F8F75
:103A10001F4B05001F4AED1A6D416A43120D1E4DE2
:103A20008900AE6852B27658A6421CD0062159567B
:103A300091421CD012215956914222D01E21595632
:103A4000914220D02A2159560324914210D0134B81
:103A500019781A708171BFF35F8F00220B4B1A60C7
:103A60008CF3108870BDAB680D4C5C50EFE7002400
:103A70006100091989005B18FF2199710949998032
:103A8000E5E70124F4E70224F2E7C046240100D070
:103A900060040020AAAA000000ED00E05D190020EB
:103AA000CD01001001BDFFFF054B064A1360064A19
:103AB000136053609360D3601361536193617047E7
:103AC0008080808000E400E004E400E070B5040041
:103AD0000E001500FFF756FE0100200000F006F86A
:103AE000A680E580BFF35F8F70BDC046024B9C4649
:103AF00061448900016070474000003410B5040043
:103B0000FFF740FE01002000FFF7F0FFFF232371C5
:103B1000BFF35F8F10BDC04610B50400FFF732FE43
:103B200001002000FFF7E2FFFF23A380BFF35F8FB8
:103B300010BDC04610B504000120FFF72FFE044B56
:103B40009C46604480002060BFF35F8F10BDC0467C
:103B50004000003483680B4810B5844661446244D9
:103B6000090112019A18591854684B6801209C42A7
:103B700001D802D00020C0B210BD12680B689A4272
:103B8000F9D8F7E7FFFFFF0F0A4B1968EFF3108032
:103B900072B60A68002AFCD0BFF35F8F1B68BFF3C0
:103BA0005F8F00221A6080F3108840BF0020002140
:103BB0007047C0463C190020F8B557464E4645466A
:103BC000DE46E0B599460CAB1C780DAB1B780600C1
:103BD00090469A460768002C11D1BC7B002C42D03D
:103BE00065003B682D19033D59194B78BB73002BB9
:103BF00000D1FB7300238B704B700B7004E06500E9
:103C00003B682D19033D5919B2682A4B9446424628
:103C1000E3181B0163441A604A465A600A9A9A6084
:103C20000B9ADA6000238B704B700B707B7B9B468A
:103C3000002B2BD022005946B8687B6898473A6819
:103C4000002816D05B4658465B005B445519033B81
:103C5000A870D118D35C002B00D06B705B460C7041
:103C60007B73A34513D0F0BCBB46B246A946A04621
:103C7000F8BD5B465B005B44033BD3189C70511955
:103C8000525D002A00D05A705B460B707C7342462E
:103C90004B46307D00F0B2FB051E06D05346002B8C
:103CA00003D12100306800F0CDFD0E9B002BDAD04F
:103CB0001D70D8E7FFFFFF0FF0B5DE4657464E46B2
:103CC00045460023E0B58BB00893674B8200D4587B
:103CD00000239B46099000F007FB626806000F0076
:103CE000EFF3108572B61368002BFCD0BFF35F8F23
:103CF00023689C465B7B9946002B00D169E0A26853
:103D00005A4B90464B441B01984443461A685B68E3
:103D100010001900801BB941002900DC63E00998FC
:103D200000F06CFB002300229846002306920793C4
:103D300000239A466368BFF35F8F5A461A6085F383
:103D400010885346002B08D10028C4D10BB0F0BC1A
:103D5000BB46B246A946A046F0BD089B41461802A4
:103D60004B461843D047626806000F00EFF31085FA
:103D700072B61368002BFCD0BFF35F8F002F50DBAF
:103D800033003B4302D02369002B61D12368D97BE8
:103D9000002907D04A00521819688C4649466244E7
:103DA000033A51709A7B002A01D14A469A734A46D7
:103DB000DA734B46E168013BCA5C0132CA545B4688
:103DC00023616368BFF35F8F5A461A6085F31088DA
:103DD00081E70023002298460023069207930023E0
:103DE00000209A46A6E7002902D1002800D096E7D5
:103DF0000021604600F0A4FC43461A685B68069206
:103E0000079343469B689A464346DB689846E368B7
:103E10004B44013B1B7808931B02034323610020A2
:103E200088E72369002BB1D0069A079B921BBB4100
:103E3000002B15DB5946049101210391494602915B
:103E400041460191514620000091FFF7B5FEB6E7CB
:103E500000F04AFA32003B0012184B41002BE9DA1D
:103E60000122034B5242E5E724180020FFFFFF0F19
:103E7000FFFFFF7F10B5144C6368002B04D00A21AC
:103E80001248FFF733FE10BD2300114A10212068AD
:103E900000F070FB032000F01BFA032000F018FB79
:103EA00003200C4900F064FAFFF76CFC0A4B9C46B7
:103EB00003232375D0231B061B6860446375074BDF
:103EC00080006060DC60DAE7A80400203C19002074
:103ED000553B0010B93C001040000034241800206D
:103EE000F0B54E464546DE465746E0B585B00193EF
:103EF00010AB1B7806000393002399469846009266
:103F00007268EFF3108B72B61368002BFCD0BFF30E
:103F10005F8F3568AC7B002C3DD067002B683F1964
:103F2000033FDB195A78AA73002A00D1EA73B168FB
:103F3000474A8C4600980199A21812016244106009
:103F400051600E9991600F99D16042469A705A70F3
:103F50001A706B7B9A46002B67D022001900A86864
:103F60006B6898472A68002852D0534650465B0039
:103F70005344D719033BB870D118D35C002B00D041
:103F80007B7053460C706B7354454FD0F3681B190C
:103F9000013B187800E000207368BFF35F8F424652
:103FA0001A608BF31088002C4FD04B46002B08D1A1
:103FB0000002204305B0F0BCBB46B246A946A0466D
:103FC000F0BD039B002B3ED00E9B00200F9998471D
:103FD000030004000D000B4335D000290ADA009AD3
:103FE000019B121BAB4100920193002B0ADB039B48
:103FF000994685E700F078F924184D410094019521
:10400000002DF4DA0123134C5B4200930194EEE798
:1040100053465B005344033BD3189C70D119D25DC7
:10402000002A00D05A7053460B706C73307D009A92
:10403000019B00F0E3F981460028A7D021003068F9
:1040400000F000FCA2E70020B4E701204042B1E705
:10405000FFFFFF0FFFFFFF7FF0B504000D000626F6
:104060007642F717C64636196F4100B584B08F42C5
:1040700014D811D000F038F932003B00121A8B41ED
:10408000002B15DC002B3ED02000290000F060F949
:1040900004B080BCB846F0BD8642EBD900260027AC
:1040A00000F022F932003B00121A8B41002BE9DDAF
:1040B000002302930193154B3200009314483B00F8
:1040C000FFF70EFF0028DFDB00239846BC46114AAD
:1040D000114F7B6A9C4504D8B96A8E42D4D99C455D
:1040E000D2D11168EFF3108072B60B68002BFCD0B0
:1040F000BFF35F8F1368BFF35F8F4146196080F392
:10410000108820BFE5E7002ABED0D1E7893B001028
:10411000A80400203C1900200040054070B50400B0
:104120000D0000F0E1F800196941002902DBFFF7FA
:1041300093FF70BD012001494042F8E7FFFFFF7F78
:10414000F0B5EFF30583CE46474680B505000C0079
:1041500085B0002B12D02C4A0020536A9C4203D811
:10416000926A0130AA4204D305B0C0BCB946B04639
:10417000F0BDE01A421E9041C0B2F5E7234E029313
:104180000193234B0200009330000B00FFF7A8FEC1
:10419000031EE0DD20BF7168EFF3108772B60A6876
:1041A000002AFCD0BFF35F8FDAB294463068427BBE
:1041B00062451DD0FF221A40510089460168914492
:1041C00088464946414403398978002913D0F1686B
:1041D0001B0A88464244013A1278DBB29A420FD059
:1041E0007368BFF35F8F00221A6087F31088B2E70D
:1041F000FF221A40EBE732699342F1D13161EFE7D8
:10420000614600F01FFBEBE700400540A8040020DA
:10421000893B0010F0B5EFF30582D6464F4646467F
:104220001000C0B51038EFF3108872B6214C236827
:10423000002BFCD0BFF35F8F0123190081401E4D7E
:104240001F006963AA461D4D29601D4D2E78AC469E
:104250003500C5402F402B4209D1BFF35F8F276047
:1042600088F31088E0BCBA46B146A846F0BD534674
:10427000144D5F6A83005D59AF420ED3124A8E43DC
:104280009B5862461670BFF35F8F0022226088F34E
:104290001088002BE6D09847E4E70C4B92009C4630
:1042A000624413681360BFF35F8F0023236088F3B9
:1042B0001088D7E7280100D0004005403C70054039
:1042C0005F1900204019002038130020D03F05401E
:1042D00010B50100024A0348FFF7D6F910BDC046E9
:1042E000583701105B190020034B596A0A00986A7D
:1042F000596A8A42FAD170470040054070B50400FF
:104300000D00124A536A1900966A536A8B42FAD119
:104310003000190024184D41AB4211D80ED02B00AB
:104320000A494A6A9A42FCD307D1084A02E0516A14
:10433000994202D1916AA142F9D370BDA642EED949
:10434000012301246442E5175B42E9E70040054090
:10435000064A536A9942FCD807D1044B02E05A6AD4
:10436000914202D19A6A8242F9D3704700400540D7
:1043700070B504000D00EFF3108672B61A4A136888
:10438000002BFCD0BFF35F8F002D1BD02000FFF768
:1043900027FA164981420AD02000FFF729FA0121A5
:1043A0002000FFF70BFA0123A340114A1360114BC1
:1043B000A400E550BFF35F8F00220B4B1A6086F319
:1043C000108870BD0B4BA200D5500122A2400A49B3
:1043D00020000B7893430B700449FFF733FA002158
:1043E0002000FFF7EBF9E5E7280100D015420010A7
:1043F00038600540381300205F190020F0B54F46A3
:10440000D6464646C0B507002C4C616A0D00A66A28
:10441000616AA942FAD18B4208D805D00120E0BCDC
:10442000BA46B146A846F0BDB242F7D9EFF3108ABA
:1044300072B6234801680029FCD0BFF35F8F0125C5
:10444000BD4020491D4C8846097889462943C9B298
:104450008C46414660460870391D1B4889006563DB
:104460000A51B9000B50216A0020294219D0616A13
:104470000800A66A616A8142FAD18B4219D801D13B
:10448000B24216D8CC4516D00C4B1F201D625D637E
:1044900001230740BB400D4A1E38136043464A467D
:1044A0001A70BFF35F8F0022054B1A608AF31088E1
:1044B000B5E70020F5E70120F3E7C04600400540DE
:1044C000280100D05F1900204019002080E200E0A0
:1044D000EFF3108C72B60A490B68002BFCD0BFF3C7
:1044E0005F8F01238340074A0748136202789A438B
:1044F0000270BFF35F8F00230B608CF3108870474E
:10450000280100D0004005405F19002070B505006B
:1045100014001600002915D00C00002A12D0806863
:104520006B689847296800280ED073009B196200B9
:10453000033B1219CB18033A9C7088188A5C002A36
:1045400015D10670200070BD63001B197200033B7B
:104550009219CB18033A9E7088188A5C002A02D1FF
:1045600004703400EEE75A7004703400EAE75A70C1
:104570000670E7E730B583600023CCB243730133A4
:10458000047342608373C4730D000068012C06D964
:10459000421C0133DBB2137003329C42F9D1FF217C
:1045A00029404B005918002340180338437030BD90
:1045B000F8B5CE46474606000C0080B5002907D066
:1045C0004D0003686D18033D5A195778002F04D128
:1045D0002000C0BCB946B046F8BD7900C9190339FE
:1045E0008846434459788946002159705170736850
:1045F0003A002100806898473368002814D042466A
:104600009A18947059195B5D002B00D053700F708D
:10461000270049463000FFF7CBFF39000200300089
:10462000FFF774FF0400D3E7424641465D19AF70BF
:104630009A185B5C002B00D06B701470E9E7C046E1
:10464000F0B557464546DE464E46E0B50D006B00D8
:1046500001685B19DF1E0400C85D83B00192CA19AE
:10466000002850D043001B18033BCB185E78B4469B
:10467000002E1AD1019E002E42D0E67B002E04D0DF
:1046800073009B19CB18033B5D70A37B002B00D1FB
:10469000A573E57300282FD10023537003B0F0BC3D
:1046A000BB46B246A946A046F0BD72006244033A3A
:1046B00089184A78904600224A7091465A70010043
:1046C00032002000FFF722FF43468246002B07D02E
:1046D0005B0021684344033BCB185A78002A16D16B
:1046E000424651462000FFF711FF2168019BCA197D
:1046F000002BC2D10028CFD043001B18033BCB189E
:1047000000219970C8E7019B002BB6D1C4E7500087
:10471000801803380918487883464846487058700E
:1047200041462000FFF7F2FE594680462000FFF781
:104730003FFF414602002000FFF7E8FE8046CFE73A
:10474000F0B557464546DE464E46E0B583B001918A
:10475000457B04006B0000685B19DF1EC15DC21958
:10476000002952D04B005B18033BC3185E78B44657
:10477000002E1CD1019E002E44D0E67B002E04D0DA
:1047800073009B19C318033B5D70A37B002B00D102
:10479000A573E573002931D100232800537061739C
:1047A00003B0F0BCBB46B246A946A046F0BD7200BD
:1047B0006244033A80184278904600224270914643
:1047C0005A7020003200FFF7A1FE43468246002BBC
:1047D00007D05B0021684344033BCB185A78002A7A
:1047E00017D1424651462000FFF790FE019B010081
:1047F0002068C219002BC0D10029CDD04B005B1816
:10480000033BC31800209870C6E7019B002BB4D16E
:10481000C2E7500080180338091848788346484694
:104820004870587041462000FFF770FE5946804698
:104830002000FFF7BDFE414602002000FFF766FEA4
:104840008046CEE770B5040000292CD0437B8B4214
:104850002ED0056848004018033828188278002AAE
:1048600021D053009B18033BEA5CEE188A4202D128
:104870001BE0002A08D053009B18033BEB185A7822
:104880008A42F6D142785A70002301228370437025
:104890002000FFF7D5FE617B02002000FFF736FE07
:1048A0006073012000E0002070BD43783370EBE7B7
:1048B00001221900FFF7C4FE60730120F4E7C0462F
:1048C000F8B5CE464746040080B506200E0000F03D
:1048D00023FA051E51D0524B5249E21853425A4115
:1048E0008023DB039C4692054F4B62441A604F4B7A
:1048F0001A6010008B689843FBD1494B8021E31864
:104900005A4253414A4A5B0049009952062000F03E
:1049100003FA3100C00001F0BDFEC30932D14022CC
:10492000012190466162A362256BEB0736D4270014
:104930008026E36A00232C3776013E43336006204D
:10494000256300F0E9F94146800001F0A3FE236BE6
:1049500005009846DB073BD46022E36A5A406E2389
:104960001340336043462363802310229B013B4363
:104970001A60304B23630323A3642800C0BCB946EC
:10498000B046F8BD2C4A93423FD900232B492C4A0C
:104990006162A362256B9046EB07C8D52200C02355
:1049A00030329B011343234A06201A60666AA26ACA
:1049B000B601B61800F0B0F9224901F06BFEB6025C
:1049C0000100300001F066FE0021FFF797FCAEE722
:1049D0002200C02330329B011343164A06201A607E
:1049E000636AA26A9B019946914400F095F94B468F
:1049F00014499B02994601F04DFE0100484601F022
:104A000049FE0021FFF77AFCA6E77F22990188463C
:104A100010400130400819008044030082E7C0467E
:104A20000080FCBF00C0004000E0004000F00040FB
:104A30005019002001030000FEFF0000FFFF0000EE
:104A4000C0FF3F004E0E000030B50C2083B000F0D8
:104A5000B9F9FEF7FBFD00280ED0994B994A1A6070
:104A60005A609A60DA601A615A619A61DA611A6270
:104A7000954A5A6203B030BD944CA06700F0AAF981
:104A80000122934B1A60636C012BFCD10322914BE2
:104A90001A608E4A936B012BFCD1013301218E4A9F
:104AA0008E480093043300F03DF905238C4A0093AF
:104AB00001218C4800F036F98B4B5A68FF2A02D846
:104AC000802252005A6080227D4C824B2169120163
:104AD000854D1A60002907D0606901F0DBFD431C99
:104AE0005800C0180338FDD2E0217F4B02201A681D
:104AF0001140802252012A43116019684840032165
:104B00000140116004219A681142FCD0802280216A
:104B100092012A4309011160802252005A60734BAE
:104B20002361734B5968FF2900D85A600321684AF2
:104B30006F4B116002399A681142FCD0E0201A686C
:104B40001040802252011A43106018684840032127
:104B500001400220116066498A681042FCD0802220
:104B600092011343802212011A608022614B52008D
:104B70004A606361604B5968FF2900D85A608022FF
:104B80005E4BE16912015C4D1A60002907D0606933
:104B900001F080FD431C5800C0180338FDD2E0220C
:104BA00055490B681A4080235B012B431A60802310
:104BB00080229B012B4312011A608022414B52003C
:104BC0004A60E3614E4B5968FF2900D85A60802241
:104BD0004C4B216A12014A4D1A60002907D06069C6
:104BE00001F058FD431C5800C0180338FDD2E022E4
:104BF00043490B681A4080235B012B431A608023D2
:104C000080229B012B4312011A60802380225B00CB
:104C10004B602C4BD20223623B4B5968914200D22D
:104C20005A608022394B616A1201374D1A6000299F
:104C300007D0606901F02EFD431C5800C0180338EE
:104C4000FDD2E02230490B681A4080235B012B43E0
:104C50001A60802380229B012B4312011A6080235B
:104C6000DB024B60184B6362294B5A68FF2A02D85B
:104C7000802252005A608022264BA1691201244DE5
:104C80001A60002907D0606901F004FD431C580038
:104C9000C0180338FDD2E0221D490B681A4080235A
:104CA0005B012B431A60802380229B012B4312015E
:104CB0001A6080235B004B600E4BA361DAE6C046AE
:104CC00074130020006CDC021BB700000080004061
:104CD0003CB0004030B00040002F685900800240D6
:104CE000008C864700C0024030800040001BB700A7
:104CF0003C800040405973075480004054B000404D
:104D00006080004060B000406C8000406CB00040AB
:104D10004880004048B00040014B8000C0587047B8
:104D200074130020F8B5040021481D0017000E0080
:104D300001F0B0FC0100380001F0ACFC069B290436
:104D40001B0319432368002B20DB1A4B1A4DE21872
:104D500053425A4180235B019C461203174B624425
:104D60001A60174B1A601700AB689F43FBD1C02233
:104D7000231D92011A4321232660A060136023683B
:104D8000002BFCDA0823E1601360F8BD3F232268A2
:104D90001340B342D9D1A3681B051B0D8342D4D164
:104DA000EE22E368D20213408B42CED1EDE7C0463B
:104DB000001BB7000040FDBF00C0004000E0004005
:104DC00000F000408023024A9B000343D3627047F7
:104DD00000800540AA23064A1B0113602F230549C2
:104DE000D360054B19605368002BFCDA7047C0464E
:104DF0000040024000B0FA00006002402C4B2D4AF7
:104E000070B51A602C4A2D4B2D491A6014008B681E
:104E10009C43FBD12B4D2C4EB54208D2013E761B54
:104E2000B60808CD984723000134B342F9D1FFF703
:104E30000BFE264A214B1A60214A9368DB43DB01B3
:104E4000DD09002BF9D14022214B224C224E9A67DA
:104E50005A671A67DA66B44208D223682000002B2A
:104E600020D00834FEF758FEB442F6D31B4E1C4C3B
:104E7000C022A168300002F0C9F9A660FEF774FCF8
:104E8000FEF712FEFEF7F6FF164C174EB44208D29C
:104E9000013E361BB60808CC98472B0001359E42D0
:104EA000F9D170BD0834FEF729FEB442D5D3DDE751
:104EB00000E00040BFCDFBFEFE7F3C0000F0004064
:104EC00000C00040200F0020300F0020FFFFFF0136
:104ED00000F00140100F0020200F002000000020F3
:104EE00000ED00E0300F0020340F002000BEFDE791
:104EF000094A03001068002805D00849C3188B42EE
:104F000007D81360704706480449C31810608B42E5
:104F1000F7D901204042F5E7EC17002000000420FB
:104F20006019002010B5FFF7E1FFC04610B50C0076
:104F300082B01900002A0AD0064B019200930200A9
:104F40002300054801F00CFB0120FFF7CFFF034BC6
:104F50001A00F2E77C3701108C370110683D011010
:104F60000FB400B5084883B002F0B4FA049B002BDC
:104F700007D005A91800019101F012FB034802F0C7
:104F8000A9FA0120FFF7B2FFBC370110243F01103E
:104F900010B50148FFF7E4FFCC3701109A4200D268
:104FA000885470477047C046F8B557464E46454648
:104FB000DE46E0B599460A9B07009A460D9B884657
:104FC000934615000B9E9B0710D10C9B9E420DD261
:104FD0009D1B14000E005D4422004B46013431003D
:104FE0002020B847A542F7D1B0460B9E002E27D00F
:104FF000444675195346AA1B013E985D21004B4655
:10500000B847002EF6D123002C0098460D9B9B0735
:105010000FD55B46E51A0C9BAB420AD9464698462B
:1050200022004B46310020200135B8470134A84505
:10503000F6D82000F0BCBB46B246A946A046F8BD53
:105040002C00E3E7F0B54F464646D646C0B584B0DF
:1050500098460EAB1B78129F994694460D9C109B68
:10506000119EBA0725D4002E4BD19C4200D3BFE03D
:1050700001223A4092461F2C00D9B8E00C9A551EE6
:10508000302201E0202C03D001342A55A342F9D864
:105090005246002A0DD0A6420BD9202C44D00C9A9F
:1050A000551E302201E0202C3ED001342A55B44256
:1050B000F9D1FA064DD57A053FD4002C39D10F9B92
:1050C000102B00D179E00F9B022B00D18AE0302316
:1050D0000C9A012413704B46002B3FD02D230C9AC1
:1050E000135501340C9B6246009303974346029686
:1050F0000194FFF759FF04B0E0BCBA46B146A84698
:10510000F0BD012215003D40AA463A422FD04A4642
:10511000002A02D10C323A4200D0013E9C42BAD25F
:105120001F2CABD9202E27D92024FA06DAD57A05F0
:1051300003D4A3422DD0A6422BD00F9B102B32D0EC
:10514000022B20D0202CCDD030220C9B1B191A70A2
:105150000134202CC6D04B46002BBFD17B070DD489
:105160003B07BFD520230C9A13550134BAE79C4264
:105170009FD21F2C00D881E720249AE72B230C9A7A
:1051800013550134AEE7202CACD00C9B1B19013415
:105190003AE0631E012C92D00F9A102A2AD0022ADC
:1051A0002FD01C00D0E7BB060ED4202C9AD00C9B2D
:1051B0001A19013478231370C4E7BB060DD4782381
:1051C0000C9A01241370BFE7202C00D18AE75822E3
:1051D0000C9B1B191A700134B4E758230C9A012454
:1051E0001370B1E70C9A603301241370ACE72024EC
:1051F00000265EE7023CBA06E9D40C9A12191C009C
:10520000D8E70C9A9246534462221A709AE7C04635
:1052100010B5002800D110BD02F010F9FBE7C04620
:105220000B0010B5002802D049681B68984710BDD4
:10523000F0B5DE4657464E464546E0B59BB09B4628
:10524000249B89469846259B0B900C9240464246EB
:1052500019009A4601F0DFFC002800D0D8E00122B6
:1052600040465146774B524201F0D0FC002800D016
:10527000CEE0012240465146734B524201F0B0FC51
:10528000002800D0C4E0002200234046514601F02F
:10529000A7FC002800D0B9E1424653460A92099380
:1052A0008023289ADB001A400E92289A1A4201D1D4
:1052B000062326930A9A099B1600134300D0C7E0E1
:1052C000289B002500261B0500D49BE100230D939D
:1052D000269A0D9B9A4200DC9FE1D01A431E26932A
:1052E0008023289ADB001A430023002728920D937D
:1052F000279B0024BB4200D9DC1B0223289A1A40BA
:105300000E92289A134203D07B427B415B421C40A1
:105310000D9B002B07D00A9809992A00330001F051
:10532000FEFB0A900991002200234046514601F0FD
:1053300057FC002805D08020000684460999614466
:105340000991289A414B0B9D13400493269B0A9A7E
:105350000293099B03940092019349465B462800FF
:105360000C9A00F08BF90400002F62D0289B2200D9
:1053700098061F23C0179843631C984649465B460E
:105380006530A8470D9B0025DA179C18DB0F9A465D
:105390005440013F01E0202D13D00AAA94461F2358
:1053A000200063440A2101355E1901F073F93031A0
:1053B000317020000A2101F06DF926000400092E49
:1053C000E9D805230693002304930A330393534635
:1053D00005970B9F029312AB009342465B464946EA
:1053E00038000195FFF72EFE0E9B0400002B20D005
:1053F0000C9BC51A279BAB421BD91E0022005B46A3
:10540000494620200135B8470134AE42F6D810E0B5
:10541000289B42460493279B49460393269B0B985F
:1054200002935346009201935B460C9A00F026F9D2
:10543000040020001BB0F0BCBB46B246A946A04603
:10544000F0BDC046FFFFEF7FFFFFEFFFFFF7FFFF5D
:10545000734B099F9C467800400D604401F0EEFBC1
:10546000704A714B01F075FB704A714B01F052FBB1
:105470003B03704A1B0B1A4304000D00300011005F
:105480006D4B002201F041FB6C4A6D4B01F061FB5A
:1054900002000B002000290001F03CFB01F0E6FBBC
:1054A0000D9001F0CBFB674A674B04000D0001F043
:1054B00050FB0022654B01F02DFB01F0D7FB644A45
:1054C0000600644B2000290001F043FB040030007B
:1054D0000D000F9601F0B2FB5F4A604B01F039FB03
:1054E00002000B002000290001F00FFB02000B005E
:1054F00006000F0001F02DFB320004000D003B0000
:105500003000390001F006FB002210901191544B3D
:105510002000290001F003FB0022524B01F0FAFAAF
:1055200002000B002000290001F0F9FA00224E4B86
:1055300001F0F0FA02000B002000290001F0EFFA60
:105540000D008021040032003B000020C90501F05D
:10555000DCFA02000B002000290001F0DBFA020057
:105560000B001098119901F0DAFA0022314B01F08A
:10557000D1FA3E4B0F9C9C4664440022230501F067
:10558000E8FA05000E0002000B000A98099901F0E4
:1055900027FB00280AD00D9B2800013B31000D930A
:1055A0000022304B01F0BBFA05000E00C6270D9912
:1055B0002B0063318F42BF4128997F420437090590
:1055C00000D495E6334300D182E6099C284A2100A5
:1055D000284B0A9801F012FB002808D00022210075
:1055E000254B0A9801F0FCFA002800D070E6269BB3
:1055F000002B00D17CE60E9B5A1E9341269AD31AAB
:10560000269375E6002304270D9371E643460A931B
:1056100080231B065344099342E6002326935FE64A
:1056200001FCFFFFFB799F501344D33FB3C8608B4D
:10563000288AC63F0000F03F0000F83F61436F63D7
:10564000A787D23F71A379094F930A400000E03F3A
:105650001655B5BBB16B0240EF39FAFE422EE63F5C
:1056600000002C400000244000001840FF03000010
:105670002D431CEBE2361A3F80842E41F0B54E4696
:10568000DE4657464546E0B597B09946209E219F95
:10569000229B8346984607910C923B0032003000D3
:1056A000390001F0B8FA002800D0A9E10122300049
:1056B0003900CA4B524201F093FA002800D0E1E0D1
:1056C000012230003900C64B524201F09FFA0028F7
:1056D00000D0B7E0002230003900C24B01F096FA4A
:1056E000002800D099E0002230003900BE4B01F0C4
:1056F00077FA002800D090E0002200233000390023
:1057000001F06EFA002800D0B1E000230D93249B35
:105710005B0501D40623984608AB9C46172200245B
:1057200030234146624404E0013413550139202CF2
:1057300001D00929F8D888463000390001F096FADE
:105740004346DA00A94B05009B181A685B6808926B
:10575000099301F073FA02000B003000390001F0E8
:10576000D4F9089A099B01F0F4F90A900B9101F021
:10577000A1FA824601F05EFA02000B000A980B992A
:1057800001F0C3F900229A4B0A900B9101F03EFA06
:10579000002800D1C0E001239C46E244504601F0BD
:1057A00049FA02000B000898099901F01FFA002835
:1057B00002D000239A4601354346002B6AD008AB3D
:1057C00017269C4608956644554614E001235B4223
:1057D00043440A2128009A4600F05CFF013430312E
:1057E0003719397028000A2100F054FF092D00D81C
:1057F000D0E0D0460500202CE8D10EAB984603231C
:10580000249A1340012B00D196E02023249A01937F
:105810000392239A434602921EE0249B5846049327
:10582000239B00960197039343460C9A0293079992
:105830004B46FFF7FDFC17B0F0BCBB46B246A9468D
:10584000A046F0BD249B5B070ED40322694B24992C
:105850000192039123990291009358464B460C9A6A
:105860000799FFF7A1FBE6E70422634BEFE73B0054
:1058700032000020002101F048F9012306000F004A
:105880000D9344E7249B0393239B029304230193EA
:105890005A4BE1E7280001F0D1F902000B0030007B
:1058A000390001F032F9524B002206000F0001F0DE
:1058B00097F90EAB984600280AD100223000390033
:1058C0004B4B01F0A3F9002802D1EB0700D50135BD
:1058D000202C94D008AA94461723280063440A2158
:1058E00001341E1900F0AEFE3031280031700A215B
:1058F00000F0A8FE051EEBD10323249A1340012BD0
:105900001BD0202C00D180E70D9B002B35D02D2201
:105910004146631C0A5579E700220A980B99344BDB
:1059200001F05EF9002800D046E75346002B51D124
:1059300001239C46E2443FE72024239B002BE0D038
:105940000D9B002B03D1249A0C33134202D0239BCE
:10595000013B2393239BA342D3D908AB9C46172238
:1059600030236244202C00D14FE723990134135592
:105970008C42C6D0202CF8D147E7249B5B0724D467
:10598000249A2300120700D440E720224146013325
:105990000A553BE75746089D202C00D12DE72200F1
:1059A00030214046002F09D00132B154202A00D1C5
:1059B00023E7D3431B191B18002BF5D10EAB9846D8
:1059C0002E234146541C8B5482E72B224146631CF4
:1059D0000A551BE7DB0700D4EEE6A9E7FFFFEFFF60
:1059E000FFFFEF7F65CDCD4165CDCDC1D039011031
:1059F0000000E03FD8370110DC370110E837011014
:105A0000249B0393239B029303230193004B23E7DF
:105A1000E4370110F0B5DE464E4657464546E0B540
:105A20009FB01C00289B91460993C94AC94B8B46DD
:105A300008901A60002900D118E2002320789A46C5
:105A4000002800D11AE226001D005C460AE02A0068
:105A50006F1C4B46089D2100A8473D000136307859
:105A6000002870D02528F2D110239B46083B9A4687
:105A7000043B9846023B00219C46721C107816009D
:105A80000300203BDBB2102B03D8B34F9B00FB5825
:105A90009F460300303B092B32D900230A932A2862
:105AA00068D0002398462E283ED00300683BDBB226
:105AB000122B1CD8A94A9B00D3589F4601230132C0
:105AC0001943DBE7634601321943D7E74346013206
:105AD0001943D3E75B4601321943CFE753460132FE
